:100000000C94A5010C94D6010C94D6010C94D60145
:100010000C94D6010C94D6010C94D6010C94D60104
:100020000C94D6010C94E0150C94E0150C94E0159A
:100030000C94D6010C94AD0F0C94D6010C94D601FF
:100040000C94D6010C94A7050C94D6010C94D601FF
:100050000C94D6010C94D6010C94D6010C94EB1799
:100060000C94D6010C9484140C945A140C94D6015C
:100070000C94D6010C94D6010C94D6010C94D601A4
:100080000C94D6010C94D6010C94D6010C94D60194
:100090000C94D6010C94D6010C94D6010C94EA155C
:1000A0000C94D6010C94D6010C94D6010C94D60174
:1000B0000C94D6010C94D6010C94D6010C94D00368
:1000C0000C94D6010C94D6010C94D6010C943014E7
:1000D0000C9406140C94D6010C94DC130C94B213FB
:1000E0000C94D601EE04F304F80402050C05850512
:1000F00016051E05260530053A05440553055D0520
:100100008505670571057B058015831572157615C4
:100110007C15BA1587158B159115951599159F1591
:10012000A315A715BA15AD15B115B5150C947B051A
:100130000C943A050C9495150C9459020C94831563
:100140000C949D0E0C9467050C94AB0E0C949115B9
:100150000C9487150C94AD150C9472150C945C02DC
:100160000C9435180C9426050C9483090C940C05FA
:100170000C9499150C94F8040C94F3040C948B15BE
:100180000C94E1140C94A3150C9485050C949F1504
:100190000C947A0E0C946B020C9495020C941E0530
:1001A0000C948C0F0C94EF140C94EE040C945D05DD
:1001B0000C9471050C94B1150C94FE140C94F60E6D
:1001C0000C94D81E0C94890E0C94360E0C94530586
:1001D0000C94D8010C943D0F0C9406150C940A0352
:1001E0000C942F030C9444050C94E0140C943005EB
:1001F0000C9458020C9416050C94BA150C948002B9
:100200000C9402050C94081D0C947C150C94B515E7
:100210000C9476150C94A7150C94801F0C948015E3
:100220000C9436150200002100240027002A002D1E
:10023000003000330001010000040107010A010041
:10024000002200250028002B002E0031003400027F
:10025000010000050108010B010000200023002619
:100260000029002C002F00320000010000030106CD
:10027000010901050505050705080808080202022D
:10028000020A0A0808040404040101010101010131
:10029000010303030303030303040707070C0C0C08
:1002A0000C0C0C0C0C0202020206060606060606E0
:1002B000060B0B0B0B0B0B0B0B010210202008087D
:1002C00010204010204080020102010804020101B8
:1002D00002040810204080804020100804020180A1
:1002E00004020180402010080402010804020101F8
:1002F0000204081020408001020408102040800001
:10030000000A0B02090C0D0E08070304010000008F
:1003100000000000000000000000000000000000DD
:10032000000000000000000000000012111000009A
:1003300000000000000000000000000000000000BD
:10034000000000000000081D351811241FBECFEF6B
:10035000D1E2DEBFCDBF00E00CBF12E0A0E0B2E012
:10036000EAE4F9E400E00BBF02C007900D92AA3B5B
:10037000B107D9F727E0AAEBB2E001C01D92A13B7B
:10038000B207E1F711E0C4EAD1E000E006C021972E
:100390000109802FFE010E944621C33AD10780E067
:1003A0000807A9F70E9475180C9493240C94000078
:1003B000DF92EF92FF920F931F93CF93DF93CDB70E
:1003C000DEB7EE970FB6F894DEBF0FBECDBF8C013F
:1003D0007B01D42E8FEF840FD801ED91FC918230F8
:1003E00020F40480F581E02D05C0411105C0028094
:1003F000F381E02DC8011995D801ED91FC9100849D
:10040000F185E02D20E041E0B701C8011995B5E084
:10041000DB1609F43FC0D801ED91FC910280F38115
:10042000E02DC8011995B2E0DB1234C0D801ED917E
:10043000FC910084F185E02D20E041E0BE016F5F7A
:100440007F4FC801199540E0D8011C968C91481740
:1004500008F5842F90E0880F991FF701E80FF91F26
:1004600021E030E02C0F3D1F820F931FD8011E9614
:100470002D913C911F97DC018D919C91B901681BD6
:10048000790BCB0120813181820F931F918380836F
:100490004F5FDACFEE960FB6F894DEBF0FBECDBF3A
:1004A000DF91CF911F910F91FF90EF90DF90089512
:1004B000089580E090E008958091BA029091BB0287
:1004C00001969093BB028093BA020895E091BD0219
:1004D000F091BE021994CF93DF93FC0185858F3F85
:1004E00061F0EF0161E00E94751761E08D850E9467
:1004F00045178BE193E00197F1F7DF91CF910895D4
:10050000CF93DF93FC0185858F3F61F0EF0161E0C0
:100510000E94751760E08D850E9445178BE193E07E
:100520000197F1F7DF91CF910895EF92FF920F932A
:100530001F93CF93DF931F92CDB7DEB77C018B0162
:10054000FC01138212821582148217821682118690
:100550001086118A108A403218F08FE1848702C019
:10056000FC014487F70182859385892B11F080E097
:100570000DC0F701848590E029830E946822F7016D
:10058000938782872981892B91F714C0F70194857D
:10059000891778F4482F50E0F801E40FF51F908197
:1005A000F70162857385FB01E40FF51F90838F5F70
:1005B000EDCF25870F90DF91CF911F910F91FF9085
:1005C000EF900895FC01248131E03093EE022093F6
:1005D00010031092EF02109211038485682B82E1C0
:1005E00093E00E9436150C947F0A0F931F93CF93CC
:1005F0008C01C62F64600E94E2026C2F6B7FC801E1
:100600000E94E20283EC90E00197F1F7CF911F91F5
:100610000F9108950F931F93CF93DF938C01C62FF3
:10062000D62FD07FD1606D2F0E94E2026D2FC801BE
:100630000E94F50280E1C89FB0011124C62FC1605D
:100640006C2FC8010E94E2026C2FC8010E94F502C3
:1006500081E090E0DF91CF911F910F9108950F936A
:100660001F93CF93DF93CDB7DEB728970FB6F894DB
:10067000DEBF0FBECDBF2CED35E040E050E064ECB6
:1006800079E08091E9060E944C108FE692E00E948A
:100690005F0A6BE872E0CE0101960E94D7098BEBEE
:1006A00093E00E94AB0E892BF9F08BEB93E00E9454
:1006B000890E8F8318860D811E810F5F1F4FB80131
:1006C000CE0101960E948509882349F329813A8148
:1006D0008D819E81BE01695F7F4F820F931F0E94B3
:1006E0008C241E830D83DBCF809104069091050638
:1006F0000097C9F069817A816115710591F0409187
:100700000606509107062D813E814217530748F097
:100710000E948C248D819E81909309068093080607
:1007200018C00E94FD2289819A81909305068093CA
:1007300004068B819C8190930706809306068D8129
:100740009E8190930906809308061A8219821C8262
:100750001B821E821D8289819A810E94FD22409106
:10076000080650910906609104067091050688E517
:1007700094E00E94360E89E892E00E945F0A81E0D0
:1007800090E09093C0028093BF0228960FB6F89431
:10079000DEBF0FBECDBFDF91CF911F910F910895A6
:1007A0001F920F920FB60F9211240BB60F922F9338
:1007B0003F934F935F936F937F938F939F93AF93E9
:1007C000BF93EF93FF938091F6040E941C17209132
:1007D000FA043091FB042F5F3F4F3093FB042093CA
:1007E000FA049091F904953618F096E09093F50488
:1007F0009091F5049430C9F128F4923069F0933067
:10080000D1F05EC0953009F451C0963009F058C05F
:1008100091E09093C60551C0811152C02091FA0415
:100820003091FB042436310508F442C01092C6050D
:100830001092F9041CC0813009F042C0E091F90423
:1008400091E09E0F9093F904F0E02091FA0430912A
:10085000FB04EE0FFF1FEB50FB4F308727831092F6
:10086000FB041092FA0494E029C0811117C0E091B2
:10087000F90491E09E0F9093F904F0E02091FA04BE
:100880003091FB04EE0FFF1FEB50FB4F30872783A7
:100890001092FB041092FA0493E010C02091FA0425
:1008A0003091FB042536310558F007C0811108C08E
:1008B0001092FB041092FA0403C095E09093F504A3
:1008C0009091F8049923B9F081110AC08091F7043E
:1008D000882321F08091F70461E009C02F9A0BC0B2
:1008E0008091F704882331F08091F70460E00E9442
:1008F000451701C02F98FF91EF91BF91AF919F9144
:100900008F917F916F915F914F913F912F910F90B8
:100910000BBE0F900FBE0F901F9018958F929F9255
:10092000AF92BF92CF92DF92EF92FF920F931F93FD
:10093000CF93DF93EC016A017B0120E030E04FE7C9
:1009400053E4C701B6010E94F11F4B015C0120E096
:1009500030E0A9010E94632218161CF4C501B401FD
:1009600003C0C501B40190580E942D228B0120E0E4
:1009700030E0A901C701B6010E946322181614F4E1
:1009800060E001C061E089810E9445170F3F1105B9
:1009900009F014F4112702C00FEF10E0C88161E0E4
:1009A0008C2F0E9475170115110509F4B1C00F3F76
:1009B000110509F4AFC0EC2FF0E0E150FD4FE491D8
:1009C0004E2F50E0FA013197E231F10508F09DC059
:1009D0008827EE58FF4F8F4F0C94462184B58068CE
:1009E00084BD07BDA7C084B5806284BD08BDA2C018
:1009F000809180008068809380001093890000932C
:100A0000880098C08091800080628093800010935D
:100A10008B0000938A008EC0809180008860809354
:100A2000800010938D0000938C0084C08091B000F2
:100A300080688093B0000093B3007CC08091B000C8
:100A400080628093B0000093B40074C080919000E5
:100A500080688093900010939900009398006AC07A
:100A60008091900080628093900010939B0000938F
:100A70009A0060C0809190008860809390001093ED
:100A80009D0000939C0056C08091A00080688093D8
:100A9000A0008091A0008F7B8093A0001093A900FC
:100AA0000093A80047C08091A00080628093A000BE
:100AB0001093AB000093AA003DC08091A000886015
:100AC0008093A0001093AD000093AC0033C08091E0
:100AD0002001806880932001109329010093280150
:100AE00029C08091200180628093200110932B0106
:100AF00000932A011FC0809120018860809320010B
:100B000010932D0100932C0115C00038110514F429
:100B100060E001C061E08C2FDF91CF911F910F91B8
:100B2000FF90EF90DF90CF90BF90AF909F908F900D
:100B30000C944517DF91CF911F910F91FF90EF908B
:100B4000DF90CF90BF90AF909F908F9008951F92AD
:100B50000F920FB60F9211240BB60F922F933F9363
:100B60004F935F936F937F938F939F93AF93BF93B5
:100B7000EF93FF938091BC0287FF05C01092850020
:100B80001092840016C02091BC02022E000C330B80
:100B90008091030690E0281739075CF43091BC027D
:100BA00025E03203F0011124E953FA4F808186FDDC
:100BB00015C08091BC028F5F8093BC022091BC0263
:100BC000022E000C330B8091030690E028173907A2
:100BD00094F48091BC028C302CF10DC03091BC0299
:100BE0003203F0011124E953FA4F808160E08F73E2
:100BF0000E944517DECF8091840090918500843457
:100C00009C4918F480E49CE905C08091840090918F
:100C10008500049690938900809388008FEF8093DD
:100C2000BC022AC040918400509185003091BC02E2
:100C300025E03203F0011124E953FA4F81819281BA
:100C4000840F951F90938900809388003091BC0297
:100C50003203F0011124E953FA4F808186FF0CC062
:100C60003091BC023203F0011124E953FA4F808124
:100C700061E08F730E944517FF91EF91BF91AF9193
:100C80009F918F917F916F915F914F913F912F91A4
:100C90000F900BBE0F900FBE0F901F9018958EBD3A
:100CA00000000DB407FEFDCF8EB50895CF93DF93FE
:100CB000EC0160E088810E94451788E90E944F0698
:100CC00080E00E944F0680E00E944F0680E00E9474
:100CD0004F0680E00E944F0661E088810E94451720
:100CE0008BE891E00197F1F760E088810E94451759
:100CF00080EE0E944F0661E08881DF91CF910C94D5
:100D00004517AF92BF92CF92DF92EF92FF920F936F
:100D10001F93CF93DF93CDB7DEB760970FB6F894EC
:100D2000DEBF0FBECDBF5C0160E0FC0180810E9490
:100D3000451780E60E944F068E010F5F1F4F7E0110
:100D4000F1E1EF0EF11C680180E00E944F0690E097
:100D5000A0E0B0E0F60181939193A193B1936F016C
:100D6000EE15FF0589F761E0F50180810E944517C6
:100D700080E090E0DC01F801419151916191719125
:100D80008F01BA2FA92F982F8827840F951FA61F90
:100D9000B71FEE15FF0579F79C01AD016627772790
:100DA000CB01621B730B840B950B60960FB6F89406
:100DB000DEBF0FBECDBFDF91CF911F910F91FF908E
:100DC000EF90DF90CF90BF90AF9008950F931F9357
:100DD000CF93DF93CAE2D6E004E316E08FB7F8942E
:100DE0004091590750915A0760915B0770915C07D9
:100DF0008FBF8E819F81A885B98584179507A60727
:100E0000B70708F040C0F80180818823E1F18B85A5
:100E10009C85AD85BE85892B8A2B8B2BA1F1E88122
:100E2000F98119958B859C85AD85BE8518161906A7
:100E30001A061B068CF48F859889A989BA890197AF
:100E4000A109B1098F87988BA98BBA8B892B8A2B23
:100E50008B2B11F4F80110822FB7F8948091590769
:100E600090915A07A0915B07B0915C072FBF4A8110
:100E70005B816C817D81840F951FA61FB71F8E83B8
:100E80009F83A887B98763960D5E1F4FF6E0C83E23
:100E9000DF0709F0A3CFDF91CF911F910F91089544
:100EA000CF92DF92EF92FF92823040F08CE892E096
:100EB0000E94710A60E070E0CB0120C0882391F0AD
:100EC00087E097E00E9481066B017C0187E097E054
:100ED0000E94560666277727CB016C197D098E097B
:100EE0009F090CC085E097E00E9481066B017C01A0
:100EF00085E097E00E945606B601C701FF90EF908B
:100F0000DF90CF9008958F929F92AF92BF92CF9231
:100F1000DF92EF92FF924DEC5CEC6CE47EE381E0BB
:100F200097E00E948E044DEC5CEC6CE47EE383E081
:100F300097E00E948E0480E00E94500781E00E94AA
:100F4000500785E097E00E94810690958095709506
:100F500061957F4F8F4F9F4F0E94921F29EA35E87E
:100F600041EC51E40E94F11F20E030E048E455E4F8
:100F70000E94BB214B015C0187E097E00E94810643
:100F80000E94921F29EA35E841EC51EC0E94F11FC2
:100F900020E030E048E455E40E94BB216B017C0175
:100FA00023E830EB4DEE51E4C501B4010E94632209
:100FB00018163CF440E050E0BA0181E097E00E944E
:100FC0008E0423E830EB4DEE51E4C701B6010E94D8
:100FD0006322181644F440E050E060E070E883E0DB
:100FE00097E00E948E0423E830EB4DEE51E4C501FA
:100FF000B4010E948B1F87FDA4CF23E830EB4DEE98
:1010000051E4C701B6010E948B1F87FD9ACF6EEE97
:1010100072E080E090E0FF90EF90DF90CF90BF9083
:10102000AF909F908F900C94B1174F925F926F92F8
:101030007F928F929F92AF92BF92CF92DF92EF9268
:10104000FF92CF93DF93CDB7DEB728970FB6F89412
:10105000DEBF0FBECDBFBC01990F880B990B0E945C
:10106000921F6B017C012DEC3CEC4CE45EE30E9492
:10107000F11F4B015C01AB01BC0181E097E00E94D4
:101080008E04B501A40183E097E00E948E0480E005
:101090000E94500781E00E94500729EA35E841ECA0
:1010A00051E4C701B6010E94F11F69837A838B83E3
:1010B0009C8385E097E00E948106909580957095CD
:1010C00061957F4F8F4F9F4F0E94921F9B01AC01F4
:1010D00069817A818B819C810E94F11F20E030E040
:1010E00048E455E40E94BB214B015C0187E097E096
:1010F0000E9481062B013C0129EA35E841EC51ECC4
:10110000C701B6010E94F11F6D837E838F8398878C
:10111000C301B2010E94921F9B01AC016D817E81CF
:101120008F8198850E94F11F20E030E048E455E46B
:101130000E94BB212B013C012FEE36EF45E651E426
:10114000C501B4010E94632218163CF440E050E04F
:10115000BA0181E097E00E948E042FEE36EF45E65B
:1011600051E4C301B2010E946322181644F440E026
:1011700050E060E070E883E097E00E948E0441E078
:1011800061E176E08FE096E00E94C00C2FEE36EF32
:1011900045E651E4C501B4010E948B1F87FD89CF4C
:1011A0002FEE36EF45E651E4C301B2010E948B1FDA
:1011B00087FD7FCF28960FB6F894DEBF0FBECDBF58
:1011C000DF91CF91FF90EF90DF90CF90BF90AF90E5
:1011D0009F908F907F906F905F904F9008954F9267
:1011E0005F926F927F928F929F92AF92BF92CF92B7
:1011F000DF92EF92FF92CF93DF9300D01F92CDB793
:10120000DEB749835A836B837C83BC01990F880BBB
:10121000990B0E94921F4B015C012DEC3CEC4CE4BD
:101220005EE30E94F11F6B017C01AB01BC0181E018
:1012300097E00E948E04B701A601705883E097E002
:101240000E948E0480E00E945007C12CD12C7601B0
:1012500029813A814B815C81C701B6010E948B1FB5
:1012600087FF2FC085E097E00E9481066B017C011B
:1012700029EA35E841EC51E4C501B4010E94F11FAF
:101280002B013C0166277727CB016C197D098E095C
:101290009F090E94921F9B01AC01C301B2010E94F1
:1012A000F11F20E030E048E455E40E94BB216B01CF
:1012B0007C0141E061E176E08FE096E00E94C00CA5
:1012C000C7CF40E050E0BA0181E097E00E948E0471
:1012D00040E050E060E070E883E097E00F900F900E
:1012E0000F900F90DF91CF91FF90EF90DF90CF9014
:1012F000BF90AF909F908F907F906F905F904F9036
:101300000C948E0408950E947E240F931F93CF9314
:10131000DF93EC0188819981009729F02A813B8134
:101320002617370788F48B016F5F7F4F0E94952344
:10133000009761F0998388831B830A832C813D8108
:10134000232B11F4FC01108281E001C080E0DF91C9
:10135000CF911F910F910895EF92FF920F931F93DA
:10136000CF93DF93EC017B018A01BA010E948509CA
:101370002881398181110DC02115310519F0C9016C
:101380000E94FD22198218821D821C821B821A82F1
:1013900006C01D830C83B701C9010E948C24CE01B5
:1013A000DF91CF911F910F91FF90EF900895FC0175
:1013B00011821082138212821582148261157105C6
:1013C00051F0FB0101900020E9F73197AF01461B76
:1013D000570B0C94AC090895AF92BF92CF92DF9255
:1013E000EF92FF920F931F93CF93DF9380910F069D
:1013F00090911006892B09F457C0809111069091A5
:101400001206892B09F450C041E06FE177E08DE0CE
:1014100096E00E94D801C0911906D0E08FE1E82E35
:1014200087E0F82EA0901106B0901206C0900F062B
:10143000D090100600E010E00C171D07ACF5D501A8
:10144000ED91FD915D01D6018D919D916D01E81B9E
:10145000F90BC1F0D7012D913C91A90160E070E03A
:101460009A01AB01281B390B41095109A8EEB3E0E1
:101470000E94CE209F0140E050E00E94AF2037FD47
:101480000AC002C020E030E0293EB3E03B072CF068
:1014900028EE33E002C020E030E0F70121933193E1
:1014A0007F010F5F1F4FC8CFDF91CF911F910F9129
:1014B000FF90EF90DF90CF90BF90AF90089500978E
:1014C00069F0FC0101900020E9F73197AF01481B5A
:1014D000590BBC0188E594E00C94360E80E090E056
:1014E0000895CF93DF930E945F0AEC0189E892E0B0
:1014F0000E945F0A8C0F9D1FDF91CF91089520916C
:10150000110390911003213208F04AC08091ED023E
:101510008111FCCF32E03093ED0231E03093EC02E8
:101520003FEF3093EB021092EA022093E902A0EF22
:10153000B2E049EC52E0FA013E2F341B321718F4A6
:101540003D913193F9CF1092C8022091C802990FB2
:10155000922B9093C8029091C702913061F410923F
:10156000C7029091C8029093BB009091BC0093FD7C
:10157000F8CF95EC01C095EE9093BC009091ED02F0
:101580009230E1F39091EB029F3F79F08091EB0272
:10159000803241F08091EB02803331F084E005C06D
:1015A00081E003C082E001C083E01092EF0210925C
:1015B00011031092EE020895EF92FF921F93CF93C2
:1015C000DF931F92CDB7DEB7162F98EEE92E96E087
:1015D000F92ED7011C969C911C9721E02093EE02D6
:1015E000909310031092EF02109211031A960D902F
:1015F000BC91A02DED91FC9111970190F081E02D0F
:10160000682FCD0179831995F70182859385DC01D7
:10161000ED91FC910190F081E02D7981672F199572
:10162000F70182859385DC01ED91FC910190F081B9
:10163000E02D612F19950F90DF91CF911F91FF90B1
:10164000EF900C947F0A2F923F924F925F926F928D
:101650007F928F929F92AF92BF92CF92DF92EF9242
:10166000FF920F931F93CF93DF93CDB7DEB72D97E4
:101670000FB6F894DEBF0FBECDBF9B878A8740E0D0
:1016800050E060E87EE381E097E00E948E0440E055
:1016900050E060E87EEB83E097E00E948E041D86B8
:1016A0001C86212C312C1E821F82188600E0C12C42
:1016B000D12C76012A853B85221633060CF023C1F6
:1016C0008AE0A82EB12CEC85FD8535975CF50E944B
:1016D000EC092FE137E03D832C83F90180E090E0B5
:1016E00021913191253F314008F0019657E0EF32CA
:1016F000F507B1F7069734F08C859D8501969D8797
:101700008C8702C01D861C866AE070E080E090E055
:101710000E94B11791E0A91AB108A9F6AC85BD8560
:10172000159784F0FFEF2F1A3F0A24E630E040E0DF
:1017300050E060ED77E08091E9060E944C101D8634
:101740001C86B8CF0E94EC09EFE1F7E081919191FE
:1017500021E08E35914008F420E0A22EB12C47E024
:10176000EF32F40721F02111F1CFA12CB12C0E940E
:10177000E606AB2809F09ECF0E94EC09E09119061D
:10178000E987412C512C32011A821982812C912C2B
:1017900054011B8210E0E9851E1731F1AC81BD8137
:1017A000ED91FD91BD83AC83E93CF10524F4E33375
:1017B000F10594F002C0B1E0BB83DF01A301920107
:1017C0000E94D920860E971EA81EB91E29813A8133
:1017D0002E0F3F1F3A8329831F5F38EE430E33E0FD
:1017E000531E611C711CD7CFFB81F1111DC0812FCD
:1017F00090E0019744EF51E0849F9001859F300D68
:10180000949F300D112440911D0650911E064217E1
:101810005307CCF0A8EEB3E08A9FB0018B9F700D08
:101820009A9F700D112411C0E981FA819F0140E057
:1018300050E0C501B4010E94E120B90130931E06B9
:1018400020931D0602C060E070E0072E000C880B9C
:10185000990B0E94921F20E030E44CE155E40E9475
:101860004E21962EA72EB82E192F262F372F482F10
:10187000592FC701B6010E944F216B017C0127E15E
:1018800037EB41ED57E3692D7A2D8B2D912F0E9477
:10189000F11F20E030E040E85EE30E944F212B0181
:1018A0003C0125E93FEB46ED54E3C701B6010E9438
:1018B000F11F9B01AC01C301B2010E944F212B011A
:1018C0003C012E813F814885502F692D7A2D8B2D2B
:1018D000912F0E944E2127E137EB41E558E30E940A
:1018E000F11F9B01AC01C301B2010E944F21AB016A
:1018F000BC01705883E097E00E948E049E82AF8204
:10190000B886012FD7CE4DEC5CEC6CE47EE381E031
:1019100097E00E948E044DEC5CEC6CE47EEB83E07F
:1019200097E00E948E046CE271E080E090E00E94FB
:10193000B11740E050E0BA0181E097E00E948E04C8
:1019400040E050E060E070E883E097E02D960FB64D
:10195000F894DEBF0FBECDBFDF91CF911F910F91E5
:10196000FF90EF90DF90CF90BF90AF909F908F90BF
:101970007F906F905F904F903F902F900C948E04CB
:101980002F923F924F925F927F928F929F92AF924F
:10199000BF92CF92DF92EF92FF920F931F93CF935C
:1019A000DF93CDB7DEB7C056D1090FB6F894DEBFCE
:1019B0000FBECDBF7C016B01742EDB018D919C911C
:1019C000892B31F0F70180819181892BD9F41DC0D9
:1019D0008091190690E0880F991F0E946822D60115
:1019E0008D939C93009709F4A6C02091190630E0CE
:1019F000FC0180E090E08217930724F71192119286
:101A00000196F9CF00E010E01EC08091190690E029
:101A1000880F991F0E946822F701918380830097A5
:101A200009F489C02091190630E040911B065091BD
:101A30001C06FC0180E090E0821793071CF741939D
:101A400051930196F9CF472DBE016F5B7F4F8DE01B
:101A500096E00E94D80140901906512CCE010196C3
:101A60004C01FE01EF5BFF4FDE0191965D019D0190
:101A70001C0180E090E0841595054CF501151105D9
:101A800089F0D9016D917C9140815181641775076E
:101A900048F0D1016D917C914081518146175707E3
:101AA00048F00DC040815181D9014D935C930115DF
:101AB000110579F740815181D1014D935C930196D5
:101AC000B2E02B0E311C32962E5F3F4FD4CF0F5F0A
:101AD0001F4F0A30110509F0B6CF20E030E08091A9
:101AE000190690E02817390734F5F4014191519116
:101AF0004F01C901880F991FD601ED91FC91E80FA4
:101B0000F91F608171816417750710F45183408358
:101B1000F501419151915F01D701ED91FC91E80FE1
:101B2000F91F808191814817590710F45183408330
:101B30002F5F3F4FD4CFC05ADF4F0FB6F894DEBFB0
:101B40000FBECDBFDF91CF911F910F91FF90EF900E
:101B5000DF90CF90BF90AF909F908F907F905F90DD
:101B60004F903F902F9008958F929F92AF92BF9287
:101B7000CF92DF92EF92FF920F931F93CF93DF9359
:101B8000CDB7DEB7A1970FB6F894DEBF0FBECDBFBD
:101B90006C01990FEE08FF08F7FE31C0E091580480
:101BA000F09159040190F081E02D6DE288E594E018
:101BB00019958C0122273327A9012C193D094E09BB
:101BC0005F0919A2CE0181967C019AE0892E912CA1
:101BD000A12CB12CCA01B901A50194010E94E120F8
:101BE000605DF70162937F012115310541055105C3
:101BF00089F7CF010E945F0A080F191F1EC0A701B5
:101C0000960119A28E010F5D1F4F8AE0C82ED12CBC
:101C1000E12CF12CCA01B901A70196010E94E12033
:101C2000605DF80162938F01211531054105510571
:101C300089F7CF010E945F0A8C0189E892E00E9437
:101C40005F0A800F911FA1960FB6F894DEBF0FBEFA
:101C5000CDBFDF91CF911F910F91FF90EF90DF905B
:101C6000CF90BF90AF909F908F900895CF92DF92CA
:101C7000EF92FF920F931F93CF93DF936C017A0142
:101C80008B01C0E0D0E0CE15DF0589F0D8016D9161
:101C90008D01D601ED91FC910190F081E02DC601FE
:101CA0001995892B11F47E0102C02196ECCFC70152
:101CB000DF91CF911F910F91FF90EF90DF90CF9028
:101CC0000895FC01A089B1898C91A689B78982FD0C
:101CD0000FC09C91818D8F5F8F73228D821749F089
:101CE000218DDF01A20FB11D5D969C93818F089518
:101CF0008C910895FC01538D448D252F30E0842F65
:101D000090E0821B930B541710F0CF960895019723
:101D10000895FC01918D828D981761F0828DDF010D
:101D2000A80FB11D5D968C91928D9F5F9F73928FCE
:101D300090E008958FEF9FEF0895FC01918D828DC3
:101D4000981731F0828DE80FF11D858D90E0089590
:101D50008FEF9FEF0895FC01918D228D892F90E0E8
:101D6000805C9F4F821B91098F73992708958EE1A4
:101D700093E00E94AB0E21E0892B09F420E0822F32
:101D800008958BEB93E00E94AB0E21E0892B09F4C0
:101D900020E0822F089588E594E00E94AB0E21E0B8
:101DA000892B09F420E0822F0895FC01848DDF0146
:101DB000A80FB11DA35ABF4F2C91848D90E00196BE
:101DC0008F739927848FA689B7892C93A089B189AD
:101DD0008C9180648C93938D848D981306C00288B7
:101DE000F389E02D80818F7D80830895EF92FF92AB
:101DF0000F931F93CF93DF93EC0181E0888F9B8D2E
:101E00008C8D981305C0E889F989808185FD24C0EF
:101E1000F62E0B8D10E00F5F1F4F0F731127E02E72
:101E20008C8DE8120CC00FB607FCFACFE889F9894F
:101E3000808185FFF5CFCE010E94D50EF1CF8B8D2D
:101E4000FE01E80FF11DE35AFF4FF0820B8FEA8984
:101E5000FB898081806207C0EE89FF896083E88901
:101E6000F98980818064808381E090E0DF91CF9167
:101E70001F910F91FF90EF900895CF93DF93EC01A6
:101E8000888D8823C9F0EA89FB89808185FD05C09A
:101E9000A889B9898C9186FD0FC00FB607FCF5CFD4
:101EA000808185FFF2CFA889B9898C9185FFEDCF1C
:101EB000CE010E94D50EE7CFDF91CF91089580E04B
:101EC00090E0892B21F00E94CB0E811119C080E097
:101ED00090E0892B41F080E090E0892B21F00E9476
:101EE0000000811110C00E94C10E81110FC080E05E
:101EF00090E0892B81F00E94B70E81110AC00895ED
:101F00000E940000E4CF0E940000EDCF0E94660214
:101F1000EECF0C94000008950F931F93CF93DF939F
:101F2000EC01122F202FE881F98136978081918171
:101F30008C0F9D1F0E9495021A83E881F9813697C4
:101F400080819181C80FD91F8FEF93E09F878E8783
:101F5000DF91CF911F910F9108951F920F920FB6AD
:101F60000F9211240BB60F922F933F934F935F93D1
:101F70006F937F938F939F93AF93BF93EF93FF9351
:101F80008091550790915607A0915707B091580737
:101F9000892B8A2B8B2B59F180915407E0915207A2
:101FA000F091530790818927808380915507909104
:101FB0005607A0915707B0915807181619061A0628
:101FC0001B060CF056C08091550790915607A091C2
:101FD0005707B09158070197A109B1098093550798
:101FE00090935607A0935707B093580742C080912B
:101FF0000802E4E2F2E0E4919FEF90930802E230FD
:10200000C9F050F4EE2399F0E13081F590916F0022
:102010009D7F90936F002AC0E43019F1E0F0E53025
:1020200029F5909173009D7F909373001FC01092CB
:102030006E001CC0909170009D7F9093700091E0A5
:102040009093B0009091B100987F94609093B1000C
:102050001092B3000BC0909171009D7F909371001E
:1020600005C0909172009D7F9093720060E00E9485
:102070004517FF91EF91BF91AF919F918F917F9104
:102080006F915F914F913F912F910F900BBE0F90E9
:102090000FBE0F901F9018953F924F925F926F92D4
:1020A0007F928F929F92AF92BF92CF92DF92EF92E8
:1020B000FF920F931F93CF93DF9300D01F92CDB762
:1020C000DEB729013A0190910802981721F09F3F4D
:1020D00009F032C304C0E4E2F2E0349004C180931A
:1020E0000802E4E2F2E0E491EF3F09F425C3E230B4
:1020F00009F480C074F5EE2309F45BC0E13009F007
:10210000F1C010928000109281009091810098603F
:102110009093810090918100916090938100282F8D
:1021200030E0F901ED58FD4FE491F0E0EE0FFF1FB4
:10213000E15CFD4F4591549150933A074093390724
:10214000F901E754FD4FE491E093380733243394C9
:10215000CCC0E43009F49EC00CF474C0E53009F042
:10216000C1C010922001109221019091210198602C
:102170009093210190912101916090932101482F2A
:1021800050E0FA01ED58FD4FE491F0E0EE0FFF1F33
:10219000E15CFD4F25913491309331072093300756
:1021A000FA01E754FD4FE491E0932F07B5E03B2E91
:1021B0009CC014BC15BC94B5926094BD95B591605B
:1021C00095BD282F30E0F901ED58FD4FE491F0E086
:1021D000EE0FFF1FE15CFD4F4591549150933D0779
:1021E00040933C07F901E754FD4FE491E0933B072E
:1021F000312C7BC01092B0001092B1009091B000D1
:1022000092609093B0009091B10091609093B10072
:10221000282F30E0F901ED58FD4FE491F0E0EE0F8A
:10222000FF1FE15CFD4F459154915093530740933C
:102230005207F901E754FD4FE491E093540752E04F
:10224000352E53C010929000109291009091910001
:10225000986090939100909191009160909391007B
:10226000282F30E0F901ED58FD4FE491F0E0EE0F3A
:10227000FF1FE15CFD4F4591549150933707409308
:102280003607F901E754FD4FE491E093350723E069
:10229000322E2BC01092A0001092A1009091A100AC
:1022A00098609093A1009091A10091609093A100FB
:1022B000282F30E0F901ED58FD4FE491F0E0EE0FEA
:1022C000FF1FE15CFD4F45915491509334074093BB
:1022D0003307F901E754FD4FE491E093320704E03E
:1022E000302E03C03E2E37FC27C28B0161E00E94D6
:1022F00075174801A12CB12C832D8D7F09F0BBC02F
:1023000060E072E18AE790E0A50194010E94AF20AD
:1023100029833A834B835C8369017A0121E0C21AE5
:10232000D108E108F1088FEFC816D104E104F104E7
:1023300009F008F44CC060E472E48FE090E0A5017D
:1023400094010E94AF2069017A0191E0C91AD10875
:10235000E108F108E2E03E1220C0FFEFCF16D10401
:10236000E104F10409F008F4E5C160E970ED83E0EF
:1023700090E0A50194010E94AF2069017A0181E0FB
:10238000C81AD108E108F1089FEFC916D104E10489
:10239000F10409F0D0F583E067C0EFEFCE16D10469
:1023A000E104F104B1F0A8F068E478EE81E090E097
:1023B000A50194010E94AF2069017A01F1E0CF1AD2
:1023C000D108E108F108332009F45AC1AAC181E01B
:1023D00001C082E03320A1F047C089819A81AB819E
:1023E000BC812AE0B595A795979587952A95D1F751
:1023F0006C017D01F1E0CF1AD108E108F10885E018
:1024000095B5987F892B85BDA6C068E478EE81E0FC
:1024100090E0A50194010E94AF2069017A0181E05A
:10242000C81AD108E108F1089FEFC916D104E104E8
:10243000F10409F008F422C164E274EF80E090E056
:10244000A50194010E94AF2069017A0181E0C81AB8
:10245000D108E108F1089FEFC916D104E104F104A5
:1024600011F008F02FC185E09091B100987F892B81
:102470008093B10070C060E072E18AE790E0A5014E
:1024800094010E94AF2069017A01F1E0CF1AD108CE
:10249000E108F108C114D10421E0E206F10488F05A
:1024A00068E478EE81E090E0A50194010E94AF20FD
:1024B00069017A0181E0C81AD108E108F10883E0D6
:1024C00001C081E091E0391210C090918100987FA5
:1024D000892B80938100411451046104710409F037
:1024E0003FC02FEF3FEFA90171C0E3E03E120FC0E4
:1024F00090919100987F892B809391004114510411
:102500006104710469F52FEF3FEFA90181C0F4E088
:102510003F120FC09091A100987F892B8093A1005A
:102520004114510461047104D9F42FEF3FEFA90164
:1025300081C025E032120FC090912101987F892B34
:1025400080932101411451046104710449F42FEF77
:102550003FEFA90181C0411451046104710471F07D
:10256000D801AA0FBB1FA30192010E94CE2028EE22
:1025700033E040E050E00E94E12003C02FEF3FEF46
:10258000A90182E03816A1F1831534F0332079F0E7
:1025900091E03916D9F0D0C0E4E03E1609F44AC003
:1025A0003E16B4F1F5E03F1609F456C0C5C0C7BCED
:1025B00020934E0730934F07409350075093510795
:1025C00080916E00826080936E00B6C0D0928900C8
:1025D000C092880020934A0730934B0740934C07E2
:1025E00050934D0780916F00826080936F00A4C06C
:1025F000C092B30020935507309356074093570776
:10260000509358078091700082608093700094C04E
:10261000D0929900C09298002093460730934707C4
:1026200040934807509349078091710082608093DE
:10263000710082C0D092A900C092A80020934207E6
:1026400030934307409344075093450780917200AD
:1026500082608093720070C0D0922901C0922801DC
:1026600020933E0730933F07409340075093410724
:10267000809173008260809373005EC084E0F4CE2A
:102680002FEFC216D104E104F104D1F0C8F062E1E9
:102690007AE780E090E0A50194010E94AF206901F3
:1026A0007A01E1E0CE1AD108E108F108FFEFCF1678
:1026B000D104E104F10411F008F08FCE84E0A0CE43
:1026C00083E09ECE62E17AE780E090E0A50194018C
:1026D0000E94AF2069017A0181E0C81AD108E1089F
:1026E000F1089FEFC916D104E104F104C1F0B8F07C
:1026F00089819A81AB81BC814AE0B595A795979570
:1027000087954A95D1F76C017D01E1E0CE1AD10899
:10271000E108F108332009F472CE87E0A5CE86E007
:1027200059CEEFEFCE16D104E104F10409F050F6D2
:1027300084E050CE82E098CE0F900F900F900F90D3
:10274000DF91CF911F910F91FF90EF90DF90CF908D
:10275000BF90AF909F908F907F906F905F904F90C1
:102760003F9008951F920F920FB60F9211240BB64F
:102770000F922F933F934F935F936F937F938F931A
:102780009F93AF93BF93EF93FF938EE193E00E94EB
:10279000D50EFF91EF91BF91AF919F918F917F9156
:1027A0006F915F914F913F912F910F900BBE0F90C2
:1027B0000FBE0F901F9018951F920F920FB60F9299
:1027C00011240BB60F922F933F934F935F936F9308
:1027D0007F938F939F93AF93BF93EF93FF938EE17C
:1027E00093E00E94610EFF91EF91BF91AF919F9195
:1027F0008F917F916F915F914F913F912F910F90AA
:102800000BBE0F900FBE0F901F9018951F920F9246
:102810000FB60F9211240BB60F922F933F934F9345
:102820005F936F937F938F939F93AF93BF93EF9338
:10283000FF938BEB93E00E94D50EFF91EF91BF9138
:10284000AF919F918F917F916F915F914F913F9148
:102850002F910F900BBE0F900FBE0F901F901895E9
:102860001F920F920FB60F9211240BB60F922F9357
:102870003F934F935F936F937F938F939F93AF9308
:10288000BF93EF93FF938BEB93E00E94610EFF9158
:10289000EF91BF91AF919F918F917F916F915F91D8
:1028A0004F913F912F910F900BBE0F900FBE0F9045
:1028B0001F9018951F920F920FB60F9211240BB60E
:1028C0000F922F933F934F935F936F937F938F93C9
:1028D0009F93AF93BF93EF93FF9388E594E00E949B
:1028E000D50EFF91EF91BF91AF919F918F917F9105
:1028F0006F915F914F913F912F910F900BBE0F9071
:102900000FBE0F901F9018951F920F920FB60F9247
:1029100011240BB60F922F933F934F935F936F93B6
:102920007F938F939F93AF93BF93EF93FF9388E52C
:1029300094E00E94610EFF91EF91BF91AF919F9142
:102940008F917F916F915F914F913F912F910F9058
:102950000BBE0F900FBE0F901F90189585ED8093C2
:10296000BC008091BC0084FDFCCF1092ED02089564
:1029700040918607262F30E0240F311D213231058A
:10298000DCF42091ED022430C9F4FC0180E090E0F9
:10299000861758F4309186072191DC01AC59B84F65
:1029A000A30FB11D2C930196F3CF80918607680F7A
:1029B0006093860780E0089581E0089582E008959D
:1029C000089581E090E030915E0720915D07321715
:1029D00010F480E090E0919581959109089580919F
:1029E0005E0790915D07891730F48F5F80935E07D3
:1029F00080E090E008958FEF9FEF089580915D074C
:102A000090E020915E07821B91090895CF92DF929A
:102A1000EF92FF920F931F93CF93DF937C01262FAA
:102A2000972F8A018091EE02882391F0C62FD72F2D
:102A30006E01C40ED51ECC15DD0571F06991D7016C
:102A4000ED91FC910190F081E02DC7011995F3CF34
:102A5000642F822F0E94B814C801DF91CF911F917B
:102A60000F91FF90EF90DF90CF900895CF93DF9379
:102A70001F92CDB7DEB769832091EE022223D1F0F9
:102A800020911103203240F021E030E0FC0133833B
:102A9000228380E090E015C08091EF02E82FF0E003
:102AA000E051FD4F998190838F5F8093EF02809377
:102AB000110305C061E0CE0101960E94B81481E0C7
:102AC00090E00F90DF91CF91089590E0FC01319755
:102AD000E231F10508F04EC08827EC57FF4F8F4FC9
:102AE0000C944621809180008F7703C080918000F4
:102AF0008F7D80938000089580918000877FF9CF3B
:102B000084B58F7702C084B58F7D84BD0895809190
:102B1000B0008F7703C08091B0008F7D8093B000AC
:102B20000895809190008F7707C0809190008F7DED
:102B300003C080919000877F8093900008958091DA
:102B4000A0008F7707C08091A0008F7D03C0809187
:102B5000A000877F8093A0000895809120018F7747
:102B600007C0809120018F7D03C080912001877F65
:102B70008093200108953FB7F89480916007909169
:102B80006107A0916207B091630726B5A89B05C0B5
:102B90002F3F19F00196A11DB11D3FBFBA2FA92FDC
:102BA000982F8827820F911DA11DB11DBC01CD0159
:102BB00042E0660F771F881F991F4A95D1F7089545
:102BC0001F920F920FB60F9211240F900FBE0F900D
:102BD0001F9018951F920F920FB60F9211240BB6EB
:102BE0000F922F933F934F935F936F937F938F93A6
:102BF0009F93AF93BF93EF93FF938091B900887F2A
:102C0000803609F49CC068F5883209F45BC090F402
:102C1000803109F454C038F4882309F4F6C08830B0
:102C200009F44DC0F6C0883109F44CC0803209F473
:102C30005DC0EFC0803409F468C048F4803309F403
:102C400055C0883309F0E5C08093EB02D8C08035C9
:102C500009F44FC0883509F45DC0883409F0D9C043
:102C6000D6C0883909F4C7C0A8F4883709F467C00A
:102C700038F4883609F463C0803709F460C0C9C0ED
:102C8000883809F4B8C0803909F45FC0803809F089
:102C9000C0C05BC0803B09F486C038F4803A09F4B8
:102CA00066C0883A09F47FC0B4C0803C09F4A7C06C
:102CB000883C09F4A4C0883B09F48AC0AAC080916A
:102CC000C80210C09091EA028091E902981770F54D
:102CD000E091EA0281E08E0F8093EA02F0E0E75390
:102CE000FD4F80818093BB0085EC86C08093EB0212
:102CF0008EC0E091EA0281E08E0F8093EA0280911B
:102D0000BB00F0E0E753FD4F80839091EA02809191
:102D1000E9026EC0E091EA0281E08E0F8093EA0240
:102D20008091BB00F0E0E753FD4F80838091EC027F
:102D300081116DC081E08093C70284EA61C083E0A5
:102D40008093ED021092AA07CFCF8091AA0780321C
:102D500008F051C0E091AA0781E08E0F8093AA0786
:102D60008091BB00F0E0E657F84F8083BDCF85EC43
:102D70008093BC001092ED028091AA07803230F45B
:102D8000E091AA07F0E0E657F84F10826091AA0799
:102D900070E0E0918807F09189078AE897E019953B
:102DA0001092AA0736C084E08093ED021092870744
:102DB00010928607E0918407F0918507199580911C
:102DC0008607811105C081E0809386071092640711
:102DD000E091870781E08E0F80938707F0E0EC5940
:102DE000F84F80818093BB00909187078091860780
:102DF000981708F479CF85E88093BC000AC085EC69
:102E00008093BC001092ED0204C01092EB020E946D
:102E1000AE14FF91EF91BF91AF919F918F917F91F0
:102E20006F915F914F913F912F910F900BBE0F903B
:102E30000FBE0F901F901895CF93DF93282F30E08F
:102E4000F901E150FD4F8491F901E754FD4FD49110
:102E5000F901ED58FD4FC491CC2391F081110E94EE
:102E60006515EC2FF0E0EE0FFF1FE75AFD4FA5911F
:102E7000B491EC91ED2381E090E021F480E002C078
:102E800080E090E0DF91CF9108951F93CF93DF937F
:102E9000282F30E0F901E150FD4F8491F901E7540A
:102EA000FD4FD491F901ED58FD4FC491CC23C9F0E9
:102EB000162F81110E946515EC2FF0E0EE0FFF1F19
:102EC000E15CFD4FA591B4918FB7F894111105C045
:102ED0009C91ED2FE095E92302C0EC91ED2BEC9352
:102EE0008FBFDF91CF911F910895CF93DF9390E033
:102EF000FC01E754FD4F2491FC01ED58FD4F8491F6
:102F0000882361F190E0880F991FFC01EB5DFD4F74
:102F1000C591D491FC01E15CFD4FA591B491611183
:102F200009C09FB7F8948881209582238883EC910B
:102F30002E230BC0623061F49FB7F8943881822F42
:102F4000809583238883EC912E2B2C939FBF06C002
:102F50008FB7F894E8812E2B28838FBFDF91CF9114
:102F600008958F929F92AF92BF92CF92DF92EF928D
:102F7000FF926B017C010E94BB154B015C01C114E7
:102F8000D104E104F104F1F00E94BB15DC01CB0196
:102F900088199909AA09BB09883E9340A105B10582
:102FA00070F321E0C21AD108E108F10888EE880E1A
:102FB00083E0981EA11CB11CC114D104E104F104EA
:102FC00019F7DDCFFF90EF90DF90CF90BF90AF90DB
:102FD0009F908F9008951F920F920FB60F92112419
:102FE0002F933F938F939F93AF93BF9380915907F4
:102FF00090915A07A0915B07B0915C0730915F07F1
:1030000023E0230F2D3720F40196A11DB11D05C02B
:1030100026E8230F0296A11DB11D20935F07809320
:10302000590790935A07A0935B07B0935C07809170
:10303000600790916107A0916207B09163070196C4
:10304000A11DB11D8093600790936107A093620753
:10305000B0936307BF91AF919F918F913F912F9153
:103060000F900FBE0F901F901895809104069091BD
:1030700005060E94FD2287E492E090930B06809360
:103080000A0687E392E090930E0680930D068091E6
:10309000170690911806009711F00E94FD2280916A
:1030A000110690911206009711F00E94FD22809166
:1030B000150690911606009711F00E94FD2280914E
:1030C0000F0690911006009711F00E94FD2280914A
:1030D000130690911406009711F00E94FD22809132
:1030E0001F06909120060C94FD22CF93DF93CDB75D
:1030F000DEB728970FB6F894DEBF0FBECDBF789429
:1031000084B5826084BD84B5816084BD85B58260EC
:1031100085BD85B5816085BD80916E00816080939D
:103120006E00109281008091810082608093810006
:103130008091810081608093810080918000816016
:10314000809380008091B10084608093B100809171
:10315000B00081608093B000809191008260809384
:103160009100809191008160809391008091900006
:103170008160809390008091A10082608093A10083
:103180008091A10081608093A1008091A000816066
:103190008093A00080912101826080932101809121
:1031A00021018160809321018091200181608093C1
:1031B000200180917A00846080937A0080917A0067
:1031C000826080937A0080917A00816080937A0097
:1031D00080917A00806880937A001092C100E0911B
:1031E0006804F091690482E08083E0916404F091C6
:1031F00065041082E0916604F09167048FEC80838F
:1032000010927004E0916C04F0916D0486E080836C
:10321000E0916A04F0916B04808180618083E09189
:103220006A04F0916B04808188608083E0916A0475
:10323000F0916B04808180688083E0916A04F09152
:103240006B0480818F7D808361E08091E9060E941C
:10325000751760E08091E9060E94451760E0809153
:10326000E8060E94751782E193E09093F30680933D
:10327000F20610925E0710925D071092EF02109214
:1032800011031092ED0281E08093EC021092C702CC
:1032900061E084E10E94451761E085E10E944517E5
:1032A0008091B9008E7F8093B9008091B9008D7FA5
:1032B0008093B90088E48093B80085E48093BC00D3
:1032C00080E090E1A0E0B0E08093F5069093F606F0
:1032D000A093F706B093F8068AE090E0A0E0B0E093
:1032E0008093F9069093FA06A093FB06B093FC0630
:1032F00080E090E0A0E0B0E48093FD069093FE06AD
:10330000A093FF06B093000760E070E185E00E94A3
:10331000DC0A6FE979E380E00E94DC0A05E017E04F
:10332000812C912CA12CB12C88EA282E82E0382EF9
:103330009EEE492E92E0592E2BEC622E27E0722E43
:1033400095012851394F6901D90114969C91149720
:1033500012968C91F401E851F94F7F01818F928F81
:1033600061E00E94751761E0D7015A968C910E9426
:103370007517F60190858681D8018C93F701968F99
:1033800061E00E94751760E0D7015E968C910E9403
:10339000751761E0F80180810E944517FFB6F89427
:1033A0008091C102811125C0F1018491F2019491B3
:1033B000E82FF0E0EE0FFF1FEB5DFD4FA591B491FC
:1033C0008C91982321F461E085E30E94451761E028
:1033D00085E30E9475178CB580618CBD8CB58064C7
:1033E0008CBD61E084E30E94751761E083E30E9475
:1033F00075178091C1028F5F8093C102FFBEC30128
:103400000197F1F760E0D8018C910E94451788E898
:103410000E944F0683E00E944F0661E0F801808120
:103420000E944517C3010197F1F7C8010E94560693
:10343000F2E08F0E911C0E5F1F4FAA94AB2821F073
:10344000AA24A394B12C7CCF0DE017E0E4E0FE2E7B
:10345000F00E60E0D8018D918D010E947517F01279
:10346000F8CF3CE1E32E37E0F32E09E117E045E029
:10347000A42E5CE0C52E62E0962E72E0B72EB00E50
:10348000F8013897D080F80180818C3008F046C070
:1034900061E08D2D0E947517D8018C91A89EF001D6
:1034A0001124E953FA4F9D2D9F732081207CD22E49
:1034B000D92AD082138214826C2D0E941221BCE082
:1034C0008B9FA001112420E030E0B901640F751F2B
:1034D000A69EF001A79EF00D1124E953FA4F9081AA
:1034E00096FD12C02F5F3F4F2C30310571F78111CF
:1034F0000BC0109280009092810010928500109273
:10350000840096BA90926F00D801EC91AE9EF001C3
:103510001124E953FA4F808180648083F801329747
:10352000908132978081F70131978083F7019083F2
:1035300060E00E94751761E0D7018C910E947517B9
:1035400060E0F70180810E9445170F5F1F4FF2E096
:10355000EF0EF11CB01294CFF8941092200189E084
:103560008093210180E293E09093290180932801C8
:10357000109225011092240182E0809373007894C8
:103580008093F5041092F9048091F60460E00E94A3
:1035900075178CE592E0909364068093630688EE3D
:1035A00093E0A0E0B0E08093650690936606A09358
:1035B0006706B09368068FEF9FEFDC0180936E067D
:1035C00090936F06A0937006B093710681E080938C
:1035D0006D062FB7F8948091590790915A07A091E2
:1035E0005B07B0915C072FBF40916506509166065E
:1035F0006091670670916806840F951FA61FB71F1C
:103600008093690690936A06A0936B06B0936C064C
:1036100080916E0690916F06A0917006B091710630
:103620008093720690937306A0937406B093750608
:1036300061E087E20E94751761E085E20E947517DC
:1036400049EA55E861EC70E481E090E00E94EF08FF
:1036500081E090E00E94150849EA55E861E471E4D0
:103660008FEF9FEF0E94EF0849EA55E861E471E4AB
:1036700081E090E00E94EF088FEF9FEF0E94150815
:1036800024E630E040E050E060ED77E08091E9062C
:103690000E944C1080EA92E00E94710A60E087E28A
:1036A0000E94451703E21AE080910F070E941C1741
:1036B000892B79F461E085E20E944517C8010197E2
:1036C000F1F760E085E20E944517C8010197F1F724
:1036D000EBCF1092C2021092C3021092C402109259
:1036E000C50224E630E040E050E068EE73E08091EF
:1036F000E9060E944C10E091CB03F091CC0382E0EC
:103700008083E091C703F091C8031082E091C90360
:10371000F091CA0380E180831092D303E091CF033C
:10372000F091D00386E08083E091CD03F091CE0349
:10373000808180618083E091CD03F091CE03808110
:1037400088608083E091CD03F091CE038081806812
:103750008083E091CD03F091CE0380818F7D8083C3
:1037600068EE73E080E090E00E94B1178FE293E092
:103770009093BE028093BD0264EF71E080E090E020
:103780000E94B11724E630E040E050E068EE73E0BC
:103790008091E9060E944C1081E090E09093C00275
:1037A0008093BF0243E050E06CEA72E084E096E070
:1037B0000E94AC090E94E6068091BF029091C0026F
:1037C000019709F022C12DB73EB738872F831A829F
:1037D00019821C821B821E821D82609104067091D8
:1037E00005066115710541F04091080650910906E2
:1037F000CE0101960E94AC09ED80FE80C701880FC2
:10380000991F4DB75EB7481B590B0FB6F8945EBFB2
:103810000FBE4DBF8DB79EB701961C0149815A81DD
:10382000FC0180E090E08E159F05C4F48E159F0585
:1038300018F44115510529F41092C602A6ECB2E025
:1038400003C0DA01A80FB91F2C91022E000C330B14
:1038500020533109219331930196E5CFC12CD12C0E
:10386000CE14DF040CF0C2C0D1012D913D911D0199
:10387000C90163E070E00E9432215B014DEF460315
:103880008001479F100D1124020F131F80EB92E05F
:103890000E945F0AC8010E94B40D85EB92E00E946D
:1038A0005F0AC5010E94B40D0F5F1F4FC8010E943F
:1038B000230B81E090E00E94150881E090E00E94D7
:1038C000230B4DEC5CEC6CE47EEB81E097E00E9416
:1038D0008E044DEC5CEC6CE47EE383E097E00E94A8
:1038E0008E0480E00E94500781E00E94500785E02E
:1038F00097E00E94810690958095709561957F4F25
:103900008F4F9F4F0E94921F29EA35E841EC51ECFE
:103910000E94F11F20E030E048E455E40E94BB2102
:103920002B013C0187E097E00E9481060E94921FD4
:1039300029EA35E841EC51EC0E94F11F20E030E02B
:1039400048E455E40E94BB214B015C0120E030E0DB
:1039500040E751E4C301B2010E94632218163CF40F
:1039600040E050E0BA0181E097E00E948E0420E040
:1039700030E040E751E4C501B4010E94632218160B
:1039800044F440E050E060E070E883E097E00E949B
:103990008E0420E030E040E751E4C301B2010E9410
:1039A0008B1F87FDA4CF20E030E040E751E4C50144
:1039B000B4010E948B1F87FD9ACF6AEF70E080E010
:1039C00090E00E94B1170E94830781E090E00E947E
:1039D000230B8FEF9FEF0E941508C8010E94230B55
:1039E0000E9483075FEFC51AD50A3ACF1092C00232
:1039F0001092BF0289819A810E94FD228F81988551
:103A00000FB6F8949EBF0FBE8DBF0E945F0FD2CE3F
:103A10000F93109215031092140388EE93E0A0E028
:103A2000B0E08093160390931703A0931803B0930C
:103A3000190323E132E03093130320931203109211
:103A40002103109220038093220390932303A093D9
:103A50002403B093250325E232E030931F03209323
:103A60001E0345E351E050932B0340932A0344E3A4
:103A700051E050932D0340932C0340E351E05093C9
:103A80002F0340932E0341E351E0509331034093C1
:103A9000300342E351E0509333034093320346E353
:103AA00051E0509335034093340310923703109242
:103AB00038031092390310923A031092BE03109209
:103AC000BD038093BF039093C003A093C103B09341
:103AD000C2033093BC032093BB0345ED50E05093E9
:103AE000C8034093C70344ED50E05093CA0340938A
:103AF000C90340ED50E05093CC034093CB0341ED1C
:103B000050E05093CE034093CD0342ED50E05093EC
:103B1000D0034093CF0346ED50E05093D20340933F
:103B2000D1031092D4031092D5031092D6031092B1
:103B3000D70310925B0410925A0480935C04909314
:103B40005D04A0935E04B0935F0430935904209306
:103B5000580485EC90E0909365048093640484ECB1
:103B600090E0909367048093660480EC90E09093DB
:103B700069048093680481EC90E090936B048093D7
:103B80006A0482EC90E090936D0480936C0486EC60
:103B900090E090936F0480936E04109271041092E1
:103BA0007204109273041092740486E380930907E0
:103BB00087E380930A0788E380930B0789E3809368
:103BC0000C078BE180930D078DE180930E078AE14E
:103BD00080930F078CE18093100784E08093110796
:103BE00087E0809312071092130784EB80931407E9
:103BF00086E18093150788E18093160787E180931B
:103C0000170789E180931807E0910306EC3020F054
:103C10008FEF8093190710C081E08E0F8093030609
:103C2000E093190725E0E29FF0011124E953FA4FD0
:103C300088EB9BE092838183E0910306EC3020F0D7
:103C40008FEF80931A0710C081E08E0F80930306D8
:103C5000E0931A0785E0E89FF0011124E953FA4F39
:103C600088EB9BE0928381838CE08093E80684E27A
:103C70008093E90686E08093EA0685E08093EB0670
:103C80008FE18093EC068EE18093ED0683E28093D2
:103C9000EE0682E28093EF0685E48093F00684E4EA
:103CA0008093F10680E48093F4061092F906109256
:103CB000FA061092FB061092FC061092FD06109276
:103CC000FE061092FF0610920007EAE2F6E08FEF80
:103CD0009FEFDC01128213821482158216821782F2
:103CE0001086118683879487A587B6878787908BF0
:103CF000A18BB28B128611821082739626E0E83E69
:103D0000F20741F78DE090E00E946822FC011382E7
:103D1000128287E692E091838083118687E2848312
:103D200084E1828784E083871486F0932706E093FA
:103D30002606109228061092290685E28093F60442
:103D40001092F8046BE872E08FE196E00E94D709C8
:103D50001092100610920F06109212061092110681
:103D60001092140610921306109216061092150661
:103D7000109218061092170687E492E090930B06B3
:103D800080930A0689E592E090930E0680930D06D3
:103D90000FEF24E048E060E072E08AE096E00E94E5
:103DA0008C0F6BE872E084E096E00F910C94D709D9
:103DB000CF92DF92EF92FF920F931F93CF93DF93F7
:103DC000FC01EB016081718166507109DB018D910D
:103DD0009C91DC01AE0FBF1F1A968D919C911B9791
:103DE000892B09F484C0822FDB010D911C91D8012D
:103DF000AE0FBF1F1C969C91891748F4DE01A80FD7
:103E0000B11DA80FB11D1D921C92840FEDCF50E083
:103E10008281581708F046C0322FA081B1811697D1
:103E20008D919C918E0F9F1FDC011C966C91361713
:103E3000B8F5032F10E0DC011A968D919C911B9729
:103E4000800F911FDC018C91863308F0865390918E
:103E50007B00682F6870977F962B90937B0087700C
:103E6000806480937C0080917A00806480937A00E3
:103E700080917A0086FDFCCF809178006091790076
:103E800090E0962BD801AA0FBB1FAC0FBD1F6D9100
:103E90007C911197860F971F8D939C93340FBDCF04
:103EA0005F5FB6CFE080F180B6E0EB1AF108D70192
:103EB0008D919C91DC01AE0FBF1F1C968C91281731
:103EC000B0F48E01020F111D020F111D628170E00E
:103ED0006B01D594C794D8018D919C918C0D9D1D3B
:103EE0000E941E21D8016D937C93240FE0CFDF91B7
:103EF000CF911F910F91FF90EF90DF90CF90089599
:103F0000DC01ED91FC913E970190F081E02D8E0F48
:103F10009F1F0C94D81E0E94CD1F08F481E00895C5
:103F2000E89409C097FB3EF4909580957095619553
:103F30007F4F8F4F9F4F9923A9F0F92F96E9BB2709
:103F40009395F695879577956795B795F111F8CF85
:103F5000FAF4BB0F11F460FF1BC06F5F7F4F8F4FF0
:103F60009F4F16C0882311F096E911C0772321F0E6
:103F70009EE8872F762F05C0662371F096E8862F7E
:103F800070E060E02AF09A95660F771F881FDAF7D5
:103F9000880F9695879597F90895990F0008550F02
:103FA000AA0BE0E8FEEF16161706E807F907C0F0BF
:103FB00012161306E407F50798F0621B730B840BC7
:103FC000950B39F40A2661F0232B242B252B21F4A1
:103FD00008950A2609F4A140A6958FEF811D811D41
:103FE00008950E9404200C9475200E94672038F0E8
:103FF0000E946E2020F0952311F00C945E200C940A
:10400000642011240C94A9200E94862070F3959FAF
:10401000C1F3950F50E0551F629FF001729FBB27BF
:10402000F00DB11D639FAA27F00DB11DAA1F649F5B
:104030006627B00DA11D661F829F2227B00DA11D0E
:10404000621F739FB00DA11D621F839FA00D611D94
:10405000221F749F3327A00D611D231F849F600DB5
:10406000211D822F762F6A2F11249F5750409AF0DE
:10407000F1F088234AF0EE0FFF1FBB1F661F771F6A
:10408000881F91505040A9F79E3F510580F00C9435
:104090005E200C94A9205F3FE4F3983ED4F386950C
:1040A00077956795B795F795E7959F5FC1F7FE2BD5
:1040B000880F911D9695879597F9089597F99F67B1
:1040C00080E870E060E008959FEF80EC08950024A0
:1040D0000A941616170618060906089500240A946D
:1040E00012161306140605060895092E0394000CF3
:1040F00011F4882352F0BB0F40F4BF2B11F460FF82
:1041000004C06F5F7F4F8F4F9F4F089557FD9058AA
:10411000440F551F59F05F3F71F04795880F97FB8B
:10412000991F61F09F3F79F0879508951216130645
:104130001406551FF2CF4695F1DF08C01616170674
:104140001806991FF1CF86957105610508940895A9
:10415000E894BB2766277727CB0197F90895052EAA
:1041600097FB1EF400940E94C62057FD07D00E94C2
:10417000E12007FC03D04EF40C94C62050954095E6
:10418000309521953F4F4F4F5F4F08959095809503
:10419000709561957F4F8F4F9F4F08950E94032127
:1041A000A59F900DB49F900DA49F800D911D11248B
:1041B0000895B7FF0C94CE200E94CE20821B930B53
:1041C0000895A1E21A2EAA1BBB1BFD010DC0AA1F58
:1041D000BB1FEE1FFF1FA217B307E407F50720F070
:1041E000A21BB30BE40BF50B661F771F881F991FEB
:1041F0001A9469F760957095809590959B01AC0134
:10420000BD01CF010895A29FB001B39FC001A39F3C
:10421000700D811D1124911DB29F700D811D1124FF
:10422000911D0895991B79E004C0991F961708F015
:10423000961B881F7A95C9F780950895AA1BBB1B0A
:1042400051E107C0AA1FBB1FA617B70710F0A61B96
:10425000B70B881F991F5A95A9F780959095BC01B7
:10426000CD01089597FB072E16F4009407D077FD33
:1042700009D00E941E2107FC05D03EF4909581953F
:104280009F4F0895709561957F4F0895EE0FFF1F22
:10429000881F8BBF0790F691E02D19945058BB27CB
:1042A000AA270E9466210C9475200E94672038F08E
:1042B0000E946E2020F039F49F3F19F426F40C94EC
:1042C00064200EF4E095E7FB0C945E20E92F0E9439
:1042D000862058F3BA17620773078407950720F002
:1042E00079F4A6F50C94A8200EF4E0950B2EBA2FC5
:1042F000A02D0B01B90190010C01CA01A0011124EC
:10430000FF27591B99F0593F50F4503E68F11A1697
:10431000F040A22F232F342F4427585FF3CF469528
:1043200037952795A795F0405395C9F77EF41F164A
:10433000BA0B620B730B840BBAF09150A1F0FF0F14
:10434000BB1F661F771F881FC2F70EC0BA0F621F00
:10435000731F841F48F4879577956795B795F795F0
:104360009E3F08F0B0CF9395880F08F09927EE0F85
:104370009795879508950E94CF210C9475200E94EF
:104380006E2058F00E94672040F029F45F3F29F02A
:104390000C945E2051110C94A9200C9464200E946E
:1043A000862068F39923B1F3552391F3951B550BA0
:1043B000BB27AA2762177307840738F09F5F5F4FF8
:1043C000220F331F441FAA1FA9F335D00E2E3AF037
:1043D000E0E832D091505040E695001CCAF72BD04F
:1043E000FE2F29D0660F771F881FBB1F26173707A0
:1043F0004807AB07B0E809F0BB0B802DBF01FF27D2
:1044000093585F4F3AF09E3F510578F00C945E2030
:104410000C94A9205F3FE4F3983ED4F386957795FA
:104420006795B795F7959F5FC9F7880F911D96958A
:10443000879597F90895E1E0660F771F881FBB1FE6
:10444000621773078407BA0720F0621B730B840B93
:10445000BA0BEE1F88F7E09508950E943422689405
:10446000B1110C94A92008950E948E2088F09F57C6
:1044700098F0B92F9927B751B0F0E1F0660F771F88
:10448000881F991F1AF0BA95C9F714C0B13091F07E
:104490000E94A820B1E008950C94A820672F782FDF
:1044A0008827B85F39F0B93FCCF386957795679543
:1044B000B395D9F73EF490958095709561957F4FAF
:1044C0008F4F9F4F08950E94CD1F08F48FEF0895DE
:1044D000CF93DF938230910510F482E090E0E09179
:1044E000AF07F091B00720E030E0C0E0D0E03097B7
:1044F00011F14081518148175907C0F048175907F9
:1045000061F482819381209719F09B838A832BC069
:104510009093B0078093AF0726C02115310519F09D
:104520004217530718F49A01BE01DF01EF01028020
:10453000F381E02DDCCF2115310509F1281B390B62
:104540002430310590F412968D919C91139761154A
:10455000710521F0FB019383828304C09093B0071F
:104560008093AF07FD01329644C0FD01E20FF31FB7
:1045700081939193225031092D933C933AC020911D
:10458000AD073091AE07232B41F420910B023091FF
:104590000C023093AE072093AD07209109023091B1
:1045A0000A022115310541F42DB73EB740910D02A5
:1045B00050910E02241B350BE091AD07F091AE0730
:1045C000E217F307A0F42E1B3F0B2817390778F0EA
:1045D000AC014E5F5F4F2417350748F04E0F5F1F49
:1045E0005093AE074093AD078193919302C0E0E0F2
:1045F000F0E0CF01DF91CF9108950F931F93CF93F8
:10460000DF93009709F48CC0FC0132971382128269
:104610000091AF071091B0070115110581F42081B9
:104620003181820F931F2091AD073091AE0728177B
:10463000390779F5F093AE07E093AD0771C0D80163
:1046400040E050E0AE17BF0750F412962D913C9118
:104650001397AD012115310509F1D901F3CF9D0162
:10466000DA013383228360817181860F971F82175D
:10467000930769F4EC0128813981260F371F2E5FDB
:104680003F4F318320838A819B8193838283452B93
:1046900029F4F093B007E093AF0742C01396FC9360
:1046A000EE931297ED01499159919E01240F351F08
:1046B000E217F30771F480819181840F951F0296B0
:1046C00011969C938E938281938113969C938E93E3
:1046D0001297E0E0F0E0D80112968D919C9113972B
:1046E000009719F0F8018C01F6CF8D919C919801FB
:1046F0002E5F3F4F820F931F2091AD073091AE0781
:104700002817390769F4309729F41092B0071092EE
:10471000AF0702C0138212821093AE070093AD0759
:10472000DF91CF911F910F9108956F927F928F9299
:104730009F92AF92BF92CF92DF92EF92FF920F9330
:104740001F93CF93DF93EC01009789F4CB01DF91A6
:10475000CF911F910F91FF90EF90DF90CF90BF907E
:10476000AF909F908F907F906F900C946822FC0187
:10477000E60FF71F9C0122503109E217F30708F4F6
:10478000ACC0D9010D911C91119706171707B0F015
:104790000530110508F49FC0C801049786179707D4
:1047A00008F499C002501109061B170B01931193CD
:1047B0006D937C93CF010E94FD228DC05B01A01AF6
:1047C000B10A4C01800E911EA091AF07B091B007C5
:1047D00040E050E0E12CF12C109709F44AC0A815F4
:1047E000B905D1F56D907C901197630182E0C80EF8
:1047F000D11CCA14DB0480F1A3014A195B096A01C8
:1048000082E0C80ED11C1296BC9012971396AC9100
:10481000B5E0CB16D10440F0B282A383518340832C
:10482000D9016D937C930AC00E5F1F4FC301800FA7
:10483000911FF90191838083EB2DFA2FE114F1048C
:1048400031F0D7011396FC93EE93129744C0F09386
:10485000B007E093AF073FC08D919C911197481727
:10486000590708F4AC017D0112960D90BC91A02D62
:10487000B3CF8091AD079091AE0788159905E1F40B
:1048800046175707C8F48091090290910A020097D1
:1048900041F48DB79EB740910D0250910E02841BDA
:1048A000950BE817F907C8F4F093AE07E093AD074E
:1048B000F901718360830FC0CB010E9468227C01E3
:1048C000009759F0A801BE010E948324CE010E94E6
:1048D000FD22C70104C0CE0102C080E090E0DF915C
:1048E000CF911F910F91FF90EF90DF90CF90BF90ED
:1048F000AF909F908F907F906F90089581E090E0AF
:10490000F8940C949324FB01DC0102C001900D92F9
:1049100041505040D8F70895FB01DC0101900D9201
:104920000020E1F7089511E0C4EAD1E000E006C0FC
:10493000802FFE010E9446212196011DC53AD10714
:0A49400080E00807A9F7F894FFCF04
:10494A000001020304050607FF0000B1072000006A
:10495A00000000361506155902E014FE14EF14E1A2
:10496A001400000000F60E360E7A0E3D0FAB0E89CB
:10497A000E9D0E00000000D80180026B0295028392
:10498A00090300000000008C0FD81EFDFF00000084
:10499A000000000000FDFF0000D80180026B0295B4
:1049AA0002801F000000000A03360E5902580259FD
:1049BA004F206A276169207265637520756E204DE4
:1049CA004553534147453A20000D0A00496E766126
:1049DA006C696420656E636F646572206964210086
:1049EA0043616C6962726174696F6E0030313200C2
:0A49FA0078203D200079203D2000C8
:00000001FF
