:100000000C94A5010C94D6010C94D6010C94D60145
:100010000C94D6010C94D6010C94D6010C94D60104
:100020000C94D6010C94AA150C94AA150C94AA153C
:100030000C94D6010C94440B0C94D6010C94D6016C
:100040000C94D6010C94B60E0C94D6010C94D601E7
:100050000C94D6010C94D6010C94D6010C94301853
:100060000C94D6010C94B50C0C948B0C0C94D6010A
:100070000C94D6010C94D6010C94D6010C94D601A4
:100080000C94D6010C94D6010C94D6010C94D60194
:100090000C94D6010C94D6010C94D6010C94B41592
:1000A0000C94D6010C94D6010C94D6010C94D60174
:1000B0000C94D6010C94D6010C94D6010C94DF0C50
:1000C0000C94D6010C94D6010C94D6010C94610CBE
:1000D0000C94370C0C94D6010C940D0C0C94E30B7F
:1000E0000C94D601FD0D020E070E110E1B0E940E80
:1000F000250E2D0E350E3F0E490E530E620E6C0E60
:10010000940E760E800E8A0E7F1782177117751760
:100110007B17B91786178A179017941798179E1789
:10012000A217A617B917AC17B017B4170C943A1446
:100130000C94070E0C94350E0C942D0E0C94511447
:100140000C94490E0C94A6170C9490170C94F81E5E
:100150000C9475170C948A0E0C94A2170C94F30946
:100160000C94110E0C94800E0C9472090C94B80A25
:100170000C94B9170C94530E0C94B0170C94760E83
:100180000C94B4170C946F0A0C9498170C94700785
:100190000C94020E0C94AC170C946F080C94220A69
:1001A0000C941C080C9481140C94F6090C94FD0D0D
:1001B0000C94250E0C94051E0C9460080C94F80900
:1001C0000C947B170C9423090C948A170C94F20955
:1001D0000C9449140C94D8010C947F170C943F0E86
:1001E0000C9494170C9482170C94DC080C94620EF7
:1001F0000C94451E0C941B0E0C942B140C94861717
:100200000C940D0A0C9483080C9491080C949E177E
:100210000C946C0E0C94ED1E0C94940E0C942C14F7
:100220000C9471170200002200250028002B002EDC
:10023000003100340002010000050108010B01003B
:100240000020002300260029002C002F003200008F
:100250000100000301060109010505050507050860
:10026000080808020202020A0A0808040404040139
:10027000010101010101010303030303030303045B
:100280000707070C0C0C0C0C0C0C0C0202020206EB
:10029000060606060606060B0B0B0B0B0B0B0B01DB
:1002A0000210202008081020401020408002010287
:1002B000010804020101020408102040808040204F
:1002C000100804020180040201804020100804028A
:1002D0000108040201010204081020408001020408
:1002E000081020408000000A0B02090C0D0E0807C0
:1002F00003040100000000000000000000000000F6
:1003000000000000000000000000000000000000ED
:1003100000121110000000000000000000000000AA
:100320000000000000000000000000000021002488
:100330000027002A002D00300033000101000004D6
:100340000107010A0100F81E051E11241FBECFEF90
:10035000D1E2DEBFCDBF00E00CBF12E0A0E0B2E012
:10036000E4ECFBE400E00BBF02C007900D92A23A60
:10037000B107D9F727E0A2EAB2E001C01D92A9397E
:10038000B207E1F711E0C4EAD1E000E006C021972E
:100390000109802FFE010E948322C33AD10780E029
:1003A0000807A9F70E947A180C94D0250C94000035
:1003B0008091CB029091CC0201969093CC028093D5
:1003C000CB020895E091A202F091A30219948F92BA
:1003D0009F92AF92BF92CF92DF92EF92FF924DEC3D
:1003E0005CEC6CE47EE383E197E00E949D0D4DECB4
:1003F0005CEC6CE47EE385E197E00E949D0D87E173
:1004000097E00E94900F87E197E00E94650F89E1D5
:1004100097E00E94900F89E197E00E94650F87E1C5
:1004200097E00E94900F90958095709561957F4F11
:100430008F4F9F4F0E94CF2029EA35E841EC51E4CD
:100440000E942E2120E030E048E455E40E94F8228A
:100450004B015C0189E197E00E94900F0E94CF2040
:1004600029EA35E841EC51EC0E942E2120E030E0F1
:1004700048E455E40E94F8226B017C0123E830EB4C
:100480004DEE51E4C501B4010E94A02318163CF4BE
:1004900040E050E0BA0183E197E00E949D0D23E81F
:1004A00030EB4DEE51E4C701B6010E94A0231816AF
:1004B00044F440E050E060E070E885E197E00E949D
:1004C0009D0D23E830EB4DEE51E4C501B4010E94CF
:1004D000C82087FDA4CF23E830EB4DEE51E4C701DF
:1004E000B6010E94C82087FD9ACF64EF71E080E0DA
:1004F00090E0FF90EF90DF90CF90BF90AF909F90F3
:100500008F900C94F6174F925F926F927F928F921A
:100510009F92AF92BF92CF92DF92EF92FF92CF93D2
:10052000DF93CDB7DEB728970FB6F894DEBF0FBEC6
:10053000CDBFBC01990F880B990B0E94CF206B0196
:100540007C012DEC3CEC4CE45EE30E942E214B013F
:100550005C01AB01BC0183E197E00E949D0DB501F8
:10056000A40185E197E00E949D0D87E197E00E943C
:10057000900F87E197E00E94650F89E197E00E9464
:10058000900F89E197E00E94650F29EA35E841EC78
:1005900051E4C701B6010E942E2169837A838B83BF
:1005A0009C8387E197E00E94900F909580957095CD
:1005B00061957F4F8F4F9F4F0E94CF209B01AC01D1
:1005C00069817A818B819C810E942E2120E030E01C
:1005D00048E455E40E94F8224B015C0189E197E070
:1005E0000E94900F2B013C0129EA35E841EC51ECC7
:1005F000C701B6010E942E216D837E838F83988769
:10060000C301B2010E94CF209B01AC016D817E81AC
:100610008F8198850E942E2120E030E048E455E447
:100620000E94F8222B013C012FEE36EF45E651E403
:10063000C501B4010E94A02318163CF440E050E02C
:10064000BA0183E197E00E949D0D2FEE36EF45E65B
:1006500051E4C301B2010E94A023181644F440E003
:1006600050E060E070E885E197E00E949D0D41E078
:1006700063E276E081E296E00E9405132FEE36EF0A
:1006800045E651E4C501B4010E94C82087FD89CF29
:100690002FEE36EF45E651E4C301B2010E94C820B7
:1006A00087FD7FCF28960FB6F894DEBF0FBECDBF73
:1006B000DF91CF91FF90EF90DF90CF90BF90AF9000
:1006C0009F908F907F906F905F904F900895CF9301
:1006D000DF93EC014DEC5CEC6CE47EE383E197E0AE
:1006E0000E949D0D4DEC5CEC6CE47EEB85E197E0A7
:1006F0000E949D0DBE01DD0F880B990B0E94F6171D
:1007000040E050E0BA0183E197E00E949D0D40E097
:1007100050E060E070E885E197E0DF91CF910C94C4
:100720009D0D0F931F93CF93DF93CCE3D6E006E4A8
:1007300016E08FB7F89440918C0750918D07609127
:100740008E0770918F078FBF8E819F81A885B98595
:1007500084179507A607B70708F040C0F801808105
:100760008823E1F18B859C85AD85BE85892B8A2BFD
:100770008B2BA1F1E881F98119958B859C85AD853D
:10078000BE85181619061A061B068CF48F859889E3
:10079000A989BA890197A109B1098F87988BA98B7B
:1007A000BA8B892B8A2B8B2B11F4F80110822FB76F
:1007B000F89480918C0790918D07A0918E07B0914D
:1007C0008F072FBF4A815B816C817D81840F951FCC
:1007D000A61FB71F8E839F83A887B98763960D5E78
:1007E0001F4FF6E0CA3FDF0709F0A3CFDF91CF919B
:1007F0001F910F9108953F924F925F926F927F9257
:100800008F929F92AF92BF92CF92DF92EF92FF9220
:100810000F931F93CF93DF93CDB7DEB728970FB613
:10082000F894DEBF0FBECDBF6D837E838F83988724
:100830008091FB0690910002981721F09F3F09F0EC
:1008400037C304C0E4E2F2E0349004C180930002B4
:10085000E4E2F2E0E491EF3F09F42AC3E23009F464
:1008600080C074F5EE2309F45BC0E13009F0F1C0FB
:100870001092800010928100909181009860909376
:10088000810090918100916090938100282F30E049
:10089000F901E75AFD4FE491F0E0EE0FFF1FEB5D29
:1008A000FD4F459154915093B3024093B202F90128
:1008B000E156FD4FE491E093B10233243394CCC070
:1008C000E43009F49EC00CF474C0E53009F0C1C0F6
:1008D0001092200110922101909121019860909333
:1008E000210190912101916090932101282F30E006
:1008F000F901E75AFD4FE491F0E0EE0FFF1FEB5DC9
:10090000FD4F459154915093AA024093A902F901D9
:10091000E156FD4FE491E093A80265E0362E9CC0BD
:1009200014BC15BC94B5926094BD95B5916095BD0D
:10093000282F30E0F901E75AFD4FE491F0E0EE0F87
:10094000FF1FEB5DFD4F459154915093B6024093CC
:10095000B502F901E156FD4FE491E093B402312C68
:100960007BC01092B0001092B1009091B0009260E4
:100970009093B0009091B10091609093B100282FB6
:1009800030E0F901E75AFD4FE491F0E0EE0FFF1F70
:10099000EB5DFD4F459154915093CE024093CD02B3
:1009A000F901E156FD4FE491E093CF0222E0322EAF
:1009B00053C0109290001092910090919100986015
:1009C0009093910090919100916090939100282FC5
:1009D00030E0F901E75AFD4FE491F0E0EE0FFF1F20
:1009E000EB5DFD4F459154915093B0024093AF029F
:1009F000F901E156FD4FE491E093AE02B3E03B2EE6
:100A00002BC01092A0001092A1009091A1009860BC
:100A10009093A1009091A10091609093A100282F44
:100A200030E0F901E75AFD4FE491F0E0EE0FFF1FCF
:100A3000EB5DFD4F459154915093AD024093AC0254
:100A4000F901E156FD4FE491E093AB02E4E03E2E64
:100A500003C03E2E37FC2CC24701580161E00E94C2
:100A6000BA174D805E806F80788466247724832D4A
:100A70008D7F09F0BBC060E072E18AE790E0A301DE
:100A800092010E94EC2129833A834B835C836901A4
:100A90007A0121E0C21AD108E108F1088FEFC816E7
:100AA000D104E104F10409F008F44CC060E472E4FC
:100AB0008FE090E0A30192010E94EC2169017A018C
:100AC00091E0C91AD108E108F108E2E03E1220C025
:100AD000FFEFCF16D104E104F10409F008F4E6C1F8
:100AE00060E970ED83E090E0A30192010E94EC21A7
:100AF00069017A0181E0C81AD108E108F1089FEF85
:100B0000C916D104E104F10409F0D0F583E067C00F
:100B1000EFEFCE16D104E104F104B1F0A8F068E4DF
:100B200078EE81E090E0A30192010E94EC2169013E
:100B30007A01F1E0CF1AD108E108F108332009F475
:100B40005BC1ABC181E001C082E03320A1F047C0AE
:100B500089819A81AB81BC812AE0B595A79597954B
:100B600087952A95D1F76C017D01F1E0CF1AD10864
:100B7000E108F10885E095B5987F892B85BDA6C071
:100B800068E478EE81E090E0A30192010E94EC21FC
:100B900069017A0181E0C81AD108E108F1089FEFE4
:100BA000C916D104E104F10409F008F423C164E298
:100BB00074EF80E090E0A30192010E94EC216901B2
:100BC0007A0181E0C81AD108E108F1089FEFC9163F
:100BD000D104E104F10411F008F030C185E09091F6
:100BE000B100987F892B8093B10070C060E072E102
:100BF0008AE790E0A30192010E94EC2169017A0149
:100C0000F1E0CF1AD108E108F108C114D10421E0C4
:100C1000E206F10488F068E478EE81E090E0A30158
:100C200092010E94EC2169017A0181E0C81AD10881
:100C3000E108F10883E001C081E091E0391210C0C1
:100C400090918100987F892B809381008114910479
:100C5000A104B10409F03FC02FEF3FEFA90172C01A
:100C6000E3E03E120FC090919100987F892B809312
:100C7000910081149104A104B10469F52FEF3FEFB5
:100C8000A90182C0F4E03F120FC09091A100987FAB
:100C9000892B8093A10081149104A104B104D9F49B
:100CA0002FEF3FEFA90182C025E032120FC09091D3
:100CB0002101987F892B8093210181149104A10443
:100CC000B10449F42FEF3FEFA90182C081149104D0
:100CD000A104B10479F0AD81BE81AA0FBB1FA501AB
:100CE00094010E940B2228EE33E040E050E00E9485
:100CF0001E2203C02FEF3FEFA90182E03816A1F1B9
:100D0000831534F0332079F091E03916D9F0D0C052
:100D1000E4E03E1609F44AC03E16B4F1F5E03F1691
:100D200009F456C0C5C0C7BC2093C7023093C8029F
:100D30004093C9025093CA0280916E0082608093F2
:100D40006E00B6C0D0928900C09288002093C30282
:100D50003093C4024093C5025093C60280916F0045
:100D6000826080936F00A4C0C092B3002093D00231
:100D70003093D1024093D2025093D30280917000FD
:100D800082608093700094C0D0929900C0929800C5
:100D90002093BF023093C0024093C1025093C2021D
:100DA0008091710082608093710082C0D092A9000E
:100DB000C092A8002093BB023093BC024093BD02B6
:100DC0005093BE028091720082608093720070C066
:100DD000D0922901C09228012093B7023093B80223
:100DE0004093B9025093BA0280917300826080935D
:100DF00073005EC084E0F3CE2FEFC216D104E1048D
:100E0000F104D1F0C8F062E17AE780E090E0A3015C
:100E100092010E94EC2169017A01E1E0CE1AD10829
:100E2000E108F108FFEFCF16D104E104F10411F05D
:100E300008F08ECE84E09FCE83E09DCE62E17AE71B
:100E400080E090E0A30192010E94EC2169017A0107
:100E500081E0C81AD108E108F1089FEFC916D10452
:100E6000E104F104C1F0B8F089819A81AB81BC81C1
:100E70004AE0B595A795979587954A95D1F76C0166
:100E80007D01E1E0CE1AD108E108F108332009F430
:100E900071CE87E0A4CE86E058CEEFEFCE16D10417
:100EA000E104F10409F050F684E04FCE82E097CEE1
:100EB00028960FB6F894DEBF0FBECDBFDF91CF915D
:100EC0001F910F91FF90EF90DF90CF90BF90AF9068
:100ED0009F908F907F906F905F904F903F9008957C
:100EE000EF92FF920F931F93CF93DF93CDB7DEB7AF
:100EF00028970FB6F894DEBF0FBECDBF8CEDE82E5D
:100F000095E0F92E00E010E020E030E040E050E015
:100F100064EC79E080E090E00E94FB0385E892E0D9
:100F20000E94681061EA72E0CE0101960E942F0BC8
:100F30008DEC93E00E949108892BF9F08DEC93E001
:100F40000E946F088F8318860D811E810F5F1F4FCF
:100F5000B801CE0101960E94DD0A882349F3298158
:100F60003A818D819E81BE01695F7F4F820F931F01
:100F70000E94C9251E830D83DBCF809116069091B8
:100F800017060097C9F069817A816115710591F0A2
:100F900040911806509119062D813E814217530742
:100FA00048F00E94C9258D819E8190931B068093F5
:100FB0001A0618C00E943A2489819A8190931706D4
:100FC000809316068B819C81909319068093180656
:100FD0008D819E8190931B0680931A061A82198236
:100FE0001C821B821E821D8289819A810E943A2462
:100FF00040911A0650911B066091160670911706D3
:101000008AE694E00E941C088FE992E00E94681032
:1010100081E090E09093A5028093A40228960FB6F9
:10102000F894DEBF0FBECDBFDF91CF911F910F911E
:10103000FF90EF9008950895CF92DF92EF92FF9284
:101040000F931F93CF93DF936C017A018B01C0E064
:10105000D0E0CE15DF0589F0D8016D918D01D60164
:10106000ED91FC910190F081E02DC6011995892B3D
:1010700011F47E0102C02196ECCFC701DF91CF9120
:101080001F910F91FF90EF90DF90CF900895FC019A
:10109000A089B1898C91A689B78982FD0FC09C91E6
:1010A000818D8F5F8F73228D821749F0218DDF0133
:1010B000A20FB11D5D969C93818F08958C91089528
:1010C000FC01538D448D252F30E0842F90E0821B4E
:1010D000930B541710F0CF96089501970895FC01D3
:1010E000918D828D981761F0828DDF01A80FB11D5F
:1010F0005D968C91928D9F5F9F73928F90E0089583
:101100008FEF9FEF0895FC01918D828D981731F03C
:10111000828DE80FF11D858D90E008958FEF9FEF90
:101120000895FC01918D228D892F90E0805C9F4F66
:10113000821B91098F739927089580E393E00E94A1
:10114000910821E0892B09F420E0822F08958DEC8D
:1011500093E00E94910821E0892B09F420E0822F7E
:1011600008958AE694E00E94910821E0892B09F411
:1011700020E0822F0895FC01848DDF01A80FB11DAE
:10118000A35ABF4F2C91848D90E001968F739927BD
:10119000848FA689B7892C93A089B1898C918064AA
:1011A0008C93938D848D981306C00288F389E02D6B
:1011B00080818F7D80830895EF92FF920F931F931C
:1011C000CF93DF93EC0181E0888F9B8D8C8D9813FA
:1011D00005C0E889F989808185FD24C0F62E0B8D34
:1011E00010E00F5F1F4F0F731127E02E8C8DE81258
:1011F0000CC00FB607FCFACFE889F989808185FF1A
:10120000F5CFCE010E94BB08F1CF8B8DFE01E80F18
:10121000F11DE35AFF4FF0820B8FEA89FB89808131
:10122000806207C0EE89FF896083E889F98980813F
:101230008064808381E090E0DF91CF911F910F91D6
:10124000FF90EF900895CF93DF93EC01888D882372
:10125000C9F0EA89FB89808185FD05C0A889B98923
:101260008C9186FD0FC00FB607FCF5CF808185FFFE
:10127000F2CFA889B9898C9185FFEDCFCE010E946C
:10128000BB08E7CFDF91CF91089580E090E0892BF4
:1012900021F00E94B108811119C080E090E0892BF3
:1012A00041F080E090E0892B21F00E940000811144
:1012B00010C00E94A70881110FC080E090E0892B28
:1012C00081F00E949D0881110AC008950E940000CB
:1012D000E4CF0E940000EDCF0E94E201EECF0C941B
:1012E00000000895DF92EF92FF920F931F93CF9328
:1012F000DF93CDB7DEB7EE970FB6F894DEBF0FBE23
:10130000CDBF8C017B01D42E8FEF840FD801ED91DE
:10131000FC91823020F40480F581E02D05C041115C
:1013200005C00280F381E02DC8011995D801ED9127
:10133000FC910084F185E02D20E041E0B701C80177
:101340001995B5E0DB1609F43FC0D801ED91FC9189
:101350000280F381E02DC8011995B2E0DB1234C0A0
:10136000D801ED91FC910084F185E02D20E041E071
:10137000BE016F5F7F4FC801199540E0D8011C96F0
:101380008C91481708F5842F90E0880F991FF7017A
:10139000E80FF91F21E030E02C0F3D1F820F931F53
:1013A000D8011E962D913C911F97DC018D919C9147
:1013B000B901681B790BCB0120813181820F931F0A
:1013C000918380834F5FDACFEE960FB6F894DEBF3D
:1013D0000FBECDBFDF91CF911F910F91FF90EF9086
:1013E000DF900895089580E090E008950E94BB2565
:1013F000CF93DF93FC0185858F3F61F0EF0161E0C2
:101400000E94BA1761E08D850E940F178BE193E06F
:101410000197F1F7DF91CF910895CF93DF93FC010E
:1014200085858F3F61F0EF0161E00E94BA1760E0AF
:101430008D850E940F178BE193E00197F1F7DF9103
:10144000CF910895EF92FF920F931F93CF93DF9365
:101450001F92CDB7DEB77C018B01FC011382128293
:10146000158214821782168211861086118A108ABC
:10147000403218F08FE1848702C0FC014487F701F5
:1014800082859385892B11F080E00DC0F70184855A
:1014900090E029830E94A523F70193878287298101
:1014A000892B91F714C0F7019485891778F4482F98
:1014B00050E0F801E40FF51F9081F7016285738514
:1014C000FB01E40FF51F90838F5FEDCF25870F9011
:1014D000DF91CF911F910F91FF90EF9008950F939F
:1014E0001F93CF93DF93EC01122F202FE881F98116
:1014F0003697808191818C0F9D1F0E94220A1A834A
:10150000E881F981369780819181C80FD91F8FEFCB
:1015100093E09F878E87DF91CF911F910F91089560
:10152000FC01248131E030930003209322031092C8
:101530000103109223038485682B84E293E00E94C8
:1015400081140C947A100F931F93CF938C01C62FA4
:1015500064600E94900A6C2F6B7FC8010E94900A01
:1015600083EC90E00197F1F7CF911F910F910895CF
:101570000F931F93CF93DF938C01C62FD62FD07F6D
:10158000D1606D2F0E94900A6D2FC8010E94A30A9E
:1015900080E1C89FB0011124C62FC1606C2FC80123
:1015A0000E94900A6C2FC8010E94A30A81E090E07B
:1015B000DF91CF911F910F9108950F931F93CF93B8
:1015C000DF93EC0188819981009729F02A813B8182
:1015D0002617370788F48B016F5F7F4F0E94D22454
:1015E000009761F0998388831B830A832C813D8156
:1015F000232B11F4FC01108281E001C080E0DF9117
:10160000CF911F910F910895EF92FF920F931F9327
:10161000CF93DF93EC017B018A01BA010E94DD0ABE
:101620002881398181110DC02115310519F0C901B9
:101630000E943A24198218821D821C821B821A82FF
:1016400006C01D830C83B701C9010E94C925CE01C4
:10165000DF91CF911F910F91FF90EF900895FC01C2
:101660001182108213821282158214826115710513
:1016700051F0FB0101900020E9F73197AF01461BC3
:10168000570B0C94040B08951F920F920FB60F92F4
:1016900011240BB60F922F933F934F935F936F9349
:1016A0007F938F939F93AF93BF93EF93FF9380911B
:1016B000D0029091D102A091D202B091D302892B95
:1016C0008A2B8B2B59F18091CF02E091CD02F091C2
:1016D000CE029081892780838091D0029091D1029F
:1016E000A091D202B091D302181619061A061B0651
:1016F0000CF056C08091D0029091D102A091D202FC
:10170000B091D3020197A109B1098093D0029093BF
:10171000D102A093D202B093D30242C080910002C2
:10172000E4E2F2E0E4919FEF90930002E230C9F02E
:1017300050F4EE2399F0E13081F590916F009D7F98
:1017400090936F002AC0E43019F1E0F0E53029F5FC
:10175000909173009D7F909373001FC010926E0054
:101760001CC0909170009D7F9093700091E09093C9
:10177000B0009091B100987F94609093B100109266
:10178000B3000BC0909171009D7F9093710005C0D4
:10179000909172009D7F9093720060E00E940F17FD
:1017A000FF91EF91BF91AF919F918F917F916F9139
:1017B0005F914F913F912F910F900BBE0F900FBEF5
:1017C0000F901F9018951F920F920FB60F92112431
:1017D0000BB60F922F933F934F935F936F937F932B
:1017E0008F939F93AF93BF93EF93FF9380E393E027
:1017F0000E94BB08FF91EF91BF91AF919F918F9194
:101800007F916F915F914F913F912F910F900BBE00
:101810000F900FBE0F901F9018951F920F920FB64A
:101820000F9211240BB60F922F933F934F935F9318
:101830006F937F938F939F93AF93BF93EF93FF9398
:1018400080E393E00E944708FF91EF91BF91AF9131
:101850009F918F917F916F915F914F913F912F91C8
:101860000F900BBE0F900FBE0F901F9018951F92F8
:101870000F920FB60F9211240BB60F922F933F9336
:101880004F935F936F937F938F939F93AF93BF9388
:10189000EF93FF938DEC93E00E94BB08FF91EF91D3
:1018A000BF91AF919F918F917F916F915F914F9178
:1018B0003F912F910F900BBE0F900FBE0F901F9076
:1018C00018951F920F920FB60F9211240BB60F921C
:1018D0002F933F934F935F936F937F938F939F9338
:1018E000AF93BF93EF93FF938DEC93E00E94470873
:1018F000FF91EF91BF91AF919F918F917F916F91E8
:101900005F914F913F912F910F900BBE0F900FBEA3
:101910000F901F9018951F920F920FB60F921124DF
:101920000BB60F922F933F934F935F936F937F93D9
:101930008F939F93AF93BF93EF93FF938AE694E0C7
:101940000E94BB08FF91EF91BF91AF919F918F9142
:101950007F916F915F914F913F912F910F900BBEAF
:101960000F900FBE0F901F9018951F920F920FB6F9
:101970000F9211240BB60F922F933F934F935F93C7
:101980006F937F938F939F93AF93BF93EF93FF9347
:101990008AE694E00E944708FF91EF91BF91AF91D2
:1019A0009F918F917F916F915F914F913F912F9177
:1019B0000F900BBE0F900FBE0F901F9018951F92A7
:1019C0000F920FB60F9211240BB60F922F933F93E5
:1019D0004F935F936F937F938F939F93AF93BF9337
:1019E000EF93FF93809108050E94E61620910C0565
:1019F00030910D052F5F3F4F30930D0520930C055F
:101A000090910B05953618F096E09093070590910C
:101A100007059430C9F128F4923069F09330D1F081
:101A20005EC0953009F451C0963009F058C091E07D
:101A30009093D80551C0811152C020910C0530916E
:101A40000D052436310508F442C01092D8051092D5
:101A50000B051CC0813009F042C0E0910B0591E0FC
:101A60009E0F90930B05F0E020910C0530910D0531
:101A7000EE0FFF1FE95FFA4F3087278310920D05A5
:101A800010920C0594E029C0811117C0E0910B055C
:101A900091E09E0F90930B05F0E020910C053091A2
:101AA0000D05EE0FFF1FE95FFA4F30872783109275
:101AB0000D0510920C0593E010C020910C0530919B
:101AC0000D052536310558F007C0811108C0109268
:101AD0000D0510920C0503C095E0909307059091B9
:101AE0000A059923B9F081110AC08091090588235C
:101AF00021F08091090561E009C02F9A0BC0809107
:101B00000905882331F08091090560E00E940F17D4
:101B100001C02F98FF91EF91BF91AF919F918F914D
:101B20007F916F915F914F913F912F910F900BBEDD
:101B30000F900FBE0F901F9018958F929F92AF92AB
:101B4000BF92CF92DF92EF92FF920F931F93CF93AA
:101B5000DF93EC016A017B0120E030E04FE753E4C2
:101B6000C701B6010E942E214B015C0120E030E04C
:101B7000A9010E94A02318161CF4C501B40103C0DA
:101B8000C501B40190580E946A238B0120E030E027
:101B9000A901C701B6010E94A023181614F460E041
:101BA00001C061E089810E940F170F3F110509F004
:101BB00014F4112702C00FEF10E0C88161E08C2FF0
:101BC0000E94BA170115110509F4B1C00F3F1105A4
:101BD00009F4AFC0EC2FF0E0EB51FD4FE4914E2F34
:101BE00050E0FA013197E231F10508F09DC08827F5
:101BF000EE58FF4F8F4F0C94832284B5806884BDCC
:101C000007BDA7C084B5806284BD08BDA2C0809115
:101C10008000806880938000109389000093880082
:101C200098C08091800080628093800010938B0028
:101C300000938A008EC0809180008860809380002D
:101C400010938D0000938C0084C08091B000806858
:101C50008093B0000093B3007CC08091B00080629C
:101C60008093B0000093B40074C0809190008068AD
:101C70008093900010939900009398006AC080911F
:101C8000900080628093900010939B0000939A00D4
:101C900060C08091900088608093900010939D00B8
:101CA00000939C0056C08091A00080688093A000A3
:101CB0008091A0008F7B8093A0001093A9000093D7
:101CC000A80047C08091A00080628093A00010937C
:101CD000AB000093AA003DC08091A0008860809373
:101CE000A0001093AD000093AC0033C080912001A0
:101CF000806880932001109329010093280129C056
:101D00008091200180628093200110932B01009329
:101D10002A011FC0809120018860809320011093C8
:101D20002D0100932C0115C00038110514F460E05A
:101D300001C061E08C2FDF91CF911F910F91FF9037
:101D4000EF90DF90CF90BF90AF909F908F900C94CA
:101D50000F17DF91CF911F910F91FF90EF90DF90C0
:101D6000CF90BF90AF909F908F9008951F920F9249
:101D70000FB60F9211240BB60F922F933F934F93F0
:101D80005F936F937F938F939F93AF93BF93EF93E3
:101D9000FF938091D40287FF05C0109285001092B6
:101DA000840016C02091D402022E000C330B8091C7
:101DB000150690E0281739075CF43091D40225E02D
:101DC0003203F0011124E752FA4F808186FD15C0DD
:101DD0008091D4028F5F8093D4022091D402022E8E
:101DE000000C330B8091150690E02817390794F406
:101DF0008091D4028C302CF10DC03091D40232038A
:101E0000F0011124E752FA4F808160E08F730E9445
:101E10000F17DECF809184009091850084349C4917
:101E200018F480E49CE905C08091840090918500BD
:101E3000049690938900809388008FEF8093D4025A
:101E40002AC040918400509185003091D40225E051
:101E50003203F0011124E752FA4F81819281840FFD
:101E6000951F90938900809388003091D4023203AB
:101E7000F0011124E752FA4F808186FF0CC03091A7
:101E8000D4023203F0011124E752FA4F808161E05D
:101E90008F730E940F17FF91EF91BF91AF919F91A8
:101EA0008F917F916F915F914F913F912F910F9003
:101EB0000BBE0F900FBE0F901F9018958EBD0000A7
:101EC0000DB407FEFDCF8EB50895CF93DF93EC01DF
:101ED00060E088810E940F1788E90E945E0F80E011
:101EE0000E945E0F80E00E945E0F80E00E945E0F05
:101EF00080E00E945E0F61E088810E940F178BE8EE
:101F000091E00197F1F760E088810E940F1780EE61
:101F10000E945E0F61E08881DF91CF910C940F17D2
:101F2000AF92BF92CF92DF92EF92FF920F931F93E7
:101F3000CF93DF93CDB7DEB760970FB6F894DEBFCF
:101F40000FBECDBF5C0160E0FC0180810E940F17D5
:101F500080E60E945E0F8E010F5F1F4F7E01F1E150
:101F6000EF0EF11C680180E00E945E0F90E0A0E09F
:101F7000B0E0F60181939193A193B1936F01EE15B7
:101F8000FF0589F761E0F50180810E940F1780E06D
:101F900090E0DC01F80141915191619171918F01C3
:101FA000BA2FA92F982F8827840F951FA61FB71F18
:101FB000EE15FF0579F79C01AD0166277727CB0168
:101FC000621B730B840B950B60960FB6F894DEBF03
:101FD0000FBECDBFDF91CF911F910F91FF90EF907A
:101FE000DF90CF90BF90AF900895AF92BF92CF9205
:101FF000DF92EF92FF920F931F93CF93DF93809125
:10200000210690912206892B09F457C0809123065E
:1020100090912406892B09F450C041E061E377E0F8
:102020008FE196E00E947209C0912B06D0E081E317
:10203000E82E87E0F82EA0902306B0902406C090EA
:102040002106D090220600E010E00C171D07ACF529
:10205000D501ED91FD915D01D6018D919D916D01AF
:10206000E81BF90BC1F0D7012D913C91A90160E06B
:1020700070E09A01AB01281B390B41095109A8EE08
:10208000B3E00E940B229F0140E050E00E94EC214F
:1020900037FD0AC002C020E030E0293EB3E03B0734
:1020A0002CF028EE33E002C020E030E0F70121936D
:1020B00031937F010F5F1F4FC8CFDF91CF911F91E9
:1020C0000F91FF90EF90DF90CF90BF90AF90089569
:1020D000009769F0FC0101900020E9F73197AF010A
:1020E000481B590BBC018AE694E00C941C0880E064
:1020F00090E008952091230390912203213208F06B
:102100004AC08091FF028111FCCF32E03093FF0280
:1021100031E03093FE023FEF3093FD021092FC025B
:102120002093FB02A2E0B3E04BED52E0FA013E2F18
:10213000341B321718F43D913193F9CF1092DA0223
:102140002091DA02990F922B9093DA029091D902A2
:10215000913061F41092D9029091DA029093BB0011
:102160009091BC0093FDF8CF95EC01C095EE909353
:10217000BC009091FF029230E1F39091FD029F3FED
:1021800079F08091FD02803241F08091FD02803330
:1021900031F084E005C081E003C082E001C083E04B
:1021A0001092010310922303109200030895EF92FE
:1021B000FF921F93CF93DF931F92CDB7DEB7162FF9
:1021C0009AEFE92E96E0F92ED7011C969C911C9768
:1021D00021E02093000390932203109201031092B8
:1021E00023031A960D90BC91A02DED91FC911197AF
:1021F0000190F081E02D682FCD0179831995F701C9
:1022000082859385DC01ED91FC910190F081E02DB8
:102210007981672F1995F70182859385DC01ED910E
:10222000FC910190F081E02D612F19950F90DF91C5
:10223000CF911F91FF90EF900C947A10AF92BF92C4
:10224000CF92DF92EF92FF920F931F93CF93DF9382
:102250006B017C0120E030E046E155E40E942E2134
:102260000E946A238B0177FF04C000271127061BF9
:10227000170B20E030E0A901C701B6010E94A0239E
:1022800087FD0BC061E087E20E940F17C0E0D0E03D
:102290008BECA82E87E0B82E17C060E0F4CF8091B9
:1022A00021070E94E616892B99F461E085E20E94DD
:1022B0000F17C5010197F1F760E085E20E940F1743
:1022C000C5010197F1F72196C017D10741F709C061
:1022D00020E030E0A901C701B6010E94C82087FFB5
:1022E000E4CFA70196016091D5027091D60280914A
:1022F000D7029091D8020E948C226093D5027093ED
:10230000D6028093D7029093D802DF91CF911F918C
:102310000F91FF90EF90DF90CF90BF90AF90089516
:102320002F923F924F925F926F927F928F929F92E5
:10233000AF92BF92CF92DF92EF92FF920F931F93D3
:10234000CF93DF93CDB7DEB72D970FB6F894DEBFEE
:102350000FBECDBF9B878A8740E050E060E87EE3F8
:1023600083E197E00E949D0D40E050E060E87EEB45
:1023700085E197E00E949D0D1D861C86212C312C45
:102380001D821E821F821886812C912C54012A8561
:102390003B85221633060CF01CC10AE010E0EC85E8
:1023A000FD85349754F50E94F50F21E337E03C8317
:1023B0002B83F90180E090E021913191253F31405C
:1023C00008F0019657E0E134F507B1F7069734F0CD
:1023D0008C859D8501969D878C8702C01D861C86F5
:1023E0006AE070E080E090E00E94F6170150110969
:1023F000B1F6AC85BD851497ACF0FFEF2F1A3F0AFC
:1024000084E6E82EF12C00E010E020E030E040E02F
:1024100050E060ED77E080E090E00E94FB031D86D5
:102420001C86B5CF0E94F50FE1E3F7E08191919111
:1024300021E08E35914008F420E0022F10E047E0C3
:10244000E134F40721F02111F1CF00E010E00E9407
:102450009103012B09F09BCF0E94F50FE0912B0611
:10246000E987412C512C32011A821982C12CD12CBE
:10247000760100E010E0E9851E1729F1AB81BC81EF
:10248000ED91FD91BC83AB83E93CF10524F4E3338A
:10249000F1058CF001C001E0DF01A30192010E946F
:1024A0001622C60ED71EE81EF91E29813A812E0F6C
:1024B0003F1F3A8329831F5F38EE430E33E0531EDC
:1024C000611C711CD8CF01111DC0812F90E00197B4
:1024D00044EF51E0849F9001859F300D949F300D13
:1024E000112440912F065091300642175307CCF02B
:1024F000A8EEB3E08A9FB0018B9F700D9A9F700D7C
:10250000112411C0E981FA819F0140E050E0C70128
:10251000B6010E941E22B9013093300620932F0687
:1025200002C060E070E0072E000C880B990B0E943F
:10253000CF2020E030E44CE155E40E948B226B0177
:102540007C019B01AC01C501B4010E948C224B01AE
:102550005C012CEA35EC47E258E3B601C7010E9462
:102560002E2120E030E040E85EE30E948C222B0127
:102570003C0125E93FEB46E555E3C501B4010E9466
:102580002E219B01AC01C301B2010E948C222B01C0
:102590003C012D813E814F815885B601C7010E94C3
:1025A0008B2227E137EB41ED58E30E942E219B015E
:1025B000AC01C301B2010E948C22AB01BC01705876
:1025C00085E197E00E949D0DCD82DE82EF82F88644
:1025D000DECE8CE291E02D960FB6F894DEBF0FBEF2
:1025E000CDBFDF91CF911F910F91FF90EF90DF90C2
:1025F000CF90BF90AF909F908F907F906F905F90A3
:102600004F903F902F900C9467032F923F924F92E0
:102610005F927F928F929F92AF92BF92CF92DF9202
:10262000EF92FF920F931F93CF93DF93CDB7DEB757
:10263000C056D1090FB6F894DEBF0FBECDBF7C01E6
:102640006B01742EDB018D919C91892B31F0F70188
:1026500080819181892BD9F41DC080912B0690E057
:10266000880F991F0E94A523D6018D939C930097F4
:1026700009F4A6C020912B0630E0FC0180E090E038
:102680008217930724F7119211920196F9CF00E077
:1026900010E01EC080912B0690E0880F991F0E94C9
:1026A000A523F70191838083009709F489C02091C5
:1026B0002B0630E040912D0650912E06FC0180E063
:1026C00090E0821793071CF7419351930196F9CF3D
:1026D000472DBE016F5B7F4F8FE196E00E9472092C
:1026E00040902B06512CCE0101964C01FE01EF5B70
:1026F000FF4FDE0191965D019D011C0180E090E09D
:10270000841595054CF50115110589F0D9016D91D8
:102710007C91408151816417750748F0D1016D911A
:102720007C91408151814617570748F00DC0408188
:102730005181D9014D935C930115110579F74081C1
:102740005181D1014D935C930196B2E02B0E311C67
:1027500032962E5F3F4FD4CF0F5F1F4F0A301105C7
:1027600009F0B6CF20E030E080912B0690E02817EA
:10277000390734F5F401419151914F01C901880F96
:10278000991FD601ED91FC91E80FF91F60817181CD
:102790006417750710F451834083F50141915191FD
:1027A0005F01D701ED91FC91E80FF91F80819181C4
:1027B0004817590710F4518340832F5F3F4FD4CF00
:1027C000C05ADF4F0FB6F894DEBF0FBECDBFDF910A
:1027D000CF911F910F91FF90EF90DF90CF90BF901E
:1027E000AF909F908F907F905F904F903F902F90F1
:1027F000089585ED8093BC008091BC0084FDFCCFE2
:102800001092FF02089540916507262F30E0240FB3
:10281000311D21323105DCF42091FF022430C9F44E
:10282000FC0180E090E0861758F430916507219113
:10283000DC01AD5BB84FA30FB11D2C930196F3CF14
:1028400080916507680F6093650780E0089581E0D7
:10285000089582E00895089581E090E03091420764
:1028600020914107321710F480E090E09195819516
:10287000910908958091420790914107891730F49A
:102880008F5F8093420780E090E008958FEF9FEF85
:1028900008958091410790E020914207821B9109A1
:1028A0000895CF92DF92EF92FF920F931F93CF93F1
:1028B000DF937C01262F972F8A01809100038823C4
:1028C00091F0C62FD72F6E01C40ED51ECC15DD0595
:1028D00071F06991D701ED91FC910190F081E02DAB
:1028E000C7011995F3CF642F822F0E940314C801EA
:1028F000DF91CF911F910F91FF90EF90DF90CF90DC
:102900000895CF93DF931F92CDB7DEB769832091EF
:1029100000032223D1F020912303203240F021E054
:1029200030E0FC013383228380E090E015C0809189
:102930000103E82FF0E0EE5FFC4F998190838F5FF9
:10294000809301038093230305C061E0CE010196CB
:102950000E94031481E090E00F90DF91CF910895E1
:102960008F929F92AF92BF92CF92DF92EF92FF929F
:10297000BC01990F880B990B0E94CF204B015C0181
:102980002DEC3CEC4CE45EE30E942E216B017C01BB
:10299000AB01BC0183E197E00E949D0DB701A60148
:1029A000705885E197E00E949D0D87E197E00E94B5
:1029B000900F87E197E00E94650F29EA35E841EC26
:1029C00051E4C501B4010E942E214B015C0187E155
:1029D00097E00E94900F6B017C0141E063E276E09A
:1029E00081E296E00E94051366277727CB016C19D8
:1029F0007D098E099F090E94CF209B01AC01C50172
:102A0000B4010E942E2120E030E048E455E40E9409
:102A1000F82229EA35E841E451E40E94C82087FD04
:102A2000D6CF40E050E0BA0183E197E00E949D0DCF
:102A300040E050E060E070E885E197E0FF90EF90C3
:102A4000DF90CF90BF90AF909F908F900C949D0D92
:102A50008F929F92AF92BF92CF92DF92EF92FF92AE
:102A60000F931F93CF93DF93CDB7DEB7A1970FB628
:102A7000F894DEBF0FBECDBF6C01990FEE08FF08C2
:102A8000F7FE31C0E0916A04F0916B040190F0818F
:102A9000E02D6DE28AE694E019958C012227332718
:102AA000A9012C193D094E095F0919A2CE01819691
:102AB0007C019AE0892E912CA12CB12CCA01B9017C
:102AC000A50194010E941E22605DF70162937F01BF
:102AD000211531054105510589F7CF010E94681084
:102AE000080F191F1EC0A701960119A28E010F5DC4
:102AF0001F4F8AE0C82ED12CE12CF12CCA01B9015C
:102B0000A70196010E941E22605DF80162938F0169
:102B1000211531054105510589F7CF010E94681043
:102B20008C018FE992E00E946810800F911FA1969E
:102B30000FB6F894DEBF0FBECDBFDF91CF911F91CE
:102B40000F91FF90EF90DF90CF90BF90AF909F904C
:102B50008F9008951F920F920FB60F9211240F902D
:102B60000FBE0F901F9018951F920F920FB60F92E5
:102B700011240BB60F922F933F934F935F936F9354
:102B80007F938F939F93AF93BF93EF93FF93809126
:102B9000B900887F803609F49CC068F5883209F452
:102BA0005BC090F4803109F454C038F4882309F4F0
:102BB000F6C0883009F44DC0F6C0883109F44CC025
:102BC000803209F45DC0EFC0803409F468C048F475
:102BD000803309F455C0883309F0E5C08093FD02C5
:102BE000D8C0803509F44FC0883509F45DC08834F9
:102BF00009F0D9C0D6C0883909F4C7C0A8F488370D
:102C000009F467C038F4883609F463C0803709F4E2
:102C100060C0C9C0883809F4B8C0803909F45FC001
:102C2000803809F0C0C05BC0803B09F486C038F42E
:102C3000803A09F466C0883A09F47FC0B4C0803C89
:102C400009F4A7C0883C09F4A4C0883B09F48AC0F1
:102C5000AAC08091DA0210C09091FC028091FB0220
:102C6000981770F5E091FC0281E08E0F8093FC02D2
:102C7000F0E0E552FD4F80818093BB0085EC86C07B
:102C80008093FD028EC0E091FC0281E08E0F809364
:102C9000FC028091BB00F0E0E552FD4F80839091F3
:102CA000FC028091FB026EC0E091FC0281E08E0F7D
:102CB0008093FC028091BB00F0E0E552FD4F8083E1
:102CC0008091FE0281116DC081E08093D90284EA77
:102CD00061C083E08093FF0210928907CFCF80917B
:102CE0008907803208F051C0E091890781E08E0F9A
:102CF000809389078091BB00F0E0E759F84F80830B
:102D0000BDCF85EC8093BC001092FF0280918907B3
:102D1000803230F4E0918907F0E0E759F84F1082F3
:102D20006091890770E0E0916707F091680789E694
:102D300097E019951092890736C084E08093FF02CE
:102D40001092660710926507E0916307F09164079F
:102D5000199580916507811105C081E08093650711
:102D600010924307E091660781E08E0F809366071B
:102D7000F0E0ED5BF84F80818093BB009091660797
:102D800080916507981708F479CF85E88093BC0097
:102D90000AC085EC8093BC001092FF0204C0109220
:102DA000FD020E94F913FF91EF91BF91AF919F91A6
:102DB0008F917F916F915F914F913F912F910F90E4
:102DC0000BBE0F900FBE0F901F901895CF93DF93FF
:102DD000282F30E0F901EB51FD4F8491F901E156C4
:102DE000FD4FD491F901E75AFD4FC491CC2391F0E6
:102DF00081110E946417EC2FF0E0EE0FFF1FE15CE1
:102E0000FD4FA591B491EC91ED2381E090E021F488
:102E100080E002C080E090E0DF91CF9108951F93A1
:102E2000CF93DF93282F30E0F901EB51FD4F8491D0
:102E3000F901E156FD4FD491F901E75AFD4FC491D4
:102E4000CC23C9F0162F81110E946417EC2FF0E0FB
:102E5000EE0FFF1FEB5DFD4FA591B4918FB7F89476
:102E6000111105C09C91ED2FE095E92302C0EC9172
:102E7000ED2BEC938FBFDF91CF911F9108953FB75A
:102E8000F8948091910790919207A0919307B09147
:102E9000940726B5A89B05C02F3F19F00196A11DE8
:102EA000B11D3FBFBA2FA92F982F8827820F911DE0
:102EB000A11DB11DBC01CD0142E0660F771F881F27
:102EC000991F4A95D1F7089590E0FC013197E231BE
:102ED000F10508F04EC08827EC57FF4F8F4F0C9438
:102EE0008322809180008F7703C0809180008F7D46
:102EF00080938000089580918000877FF9CF84B50A
:102F00008F7702C084B58F7D84BD08958091B00015
:102F10008F7703C08091B0008F7D8093B0000895BB
:102F2000809190008F7707C0809190008F7D03C0C3
:102F300080919000877F8093900008958091A000F9
:102F40008F7707C08091A0008F7D03C08091A00083
:102F5000877F8093A0000895809120018F7707C01C
:102F6000809120018F7D03C080912001877F809315
:102F700020010895CF93DF9390E0FC01E156FD4FCF
:102F80002491FC01E75AFD4F8491882361F190E080
:102F9000880F991FFC01E55DFC4FC591D491FC01A0
:102FA000EB5DFD4FA591B491611109C09FB7F894F5
:102FB0008881209582238883EC912E230BC0623078
:102FC00061F49FB7F8943881822F8095832388839A
:102FD000EC912E2B2C939FBF06C08FB7F894E881FD
:102FE0002E2B28838FBFDF91CF9108958F929F92D0
:102FF000AF92BF92CF92DF92EF92FF926B017C0172
:103000000E943F174B015C01C114D104E104F1049B
:10301000F1F00E943F17DC01CB0188199909AA0938
:10302000BB09883E9340A105B10570F321E0C21AA7
:10303000D108E108F10888EE880E83E0981EA11CF3
:10304000B11CC114D104E104F10419F7DDCFFF90E4
:10305000EF90DF90CF90BF90AF909F908F900895AA
:103060001F920F920FB60F9211242F933F938F93BD
:103070009F93AF93BF9380918C0790918D07A09100
:103080008E07B0918F073091900723E0230F2D37E3
:1030900020F40196A11DB11D05C026E8230F02965C
:1030A000A11DB11D2093900780938C0790938D07ED
:1030B000A0938E07B0938F0780919107909192070C
:1030C000A0919307B09194070196A11DB11D809323
:1030D000910790939207A0939307B0939407BF91A1
:1030E000AF919F918F913F912F910F900FBE0F90B5
:1030F0001F901895CF93DF93CDB7DEB728970FB603
:10310000F894DEBF0FBECDBF789484B5826084BDD5
:1031100084B5816084BD85B5826085BD85B58160DB
:1031200085BD80916E00816080936E001092810059
:103130008091810082608093810080918100816014
:1031400080938100809180008160809380008091D5
:10315000B10084608093B1008091B0008160809361
:10316000B0008091910082608093910080919100E5
:1031700081608093910080919000816080939000A5
:103180008091A10082608093A1008091A100816064
:103190008093A1008091A00081608093A000809125
:1031A00021018260809321018091210181608093BF
:1031B00021018091200181608093200180917A001B
:1031C000846080937A0080917A00826080937A0094
:1031D00080917A00816080937A0080917A00806883
:1031E00080937A001092C100E0917A04F0917B0400
:1031F00082E08083E0917604F09177041082E09180
:103200007804F09179048FEC808310928204E0912D
:103210007E04F0917F0486E08083E0917C04F0914D
:103220007D04808180618083E0917C04F0917D0445
:10323000808188608083E0917C04F0917D048081AE
:1032400080688083E0917C04F0917D0480818F7D93
:10325000808361E08091FB060E94BA1760E0809154
:10326000FB060E940F1760E08091FA060E94BA17D1
:1032700084E293E09093050780930407109242073D
:103280001092410710920103109223031092FF0243
:1032900081E08093FE021092D90261E084E10E94F5
:1032A0000F1761E085E10E940F178091B9008E7FB2
:1032B0008093B9008091B9008D7F8093B90088E434
:1032C0008093B80085E48093BC0080E090E1A0E0AA
:1032D000B0E08093070790930807A0930907B09385
:1032E0000A078AE090E0A0E0B0E080930B0790939B
:1032F0000C07A0930D07B0930E0780E090E0A0E0CC
:10330000B0E480930F0790931007A0931107B09338
:10331000120760E070E185E00E94D7106FE979E361
:1033200080E00E94D71007E117E0812C912CA12C9E
:10333000B12C4EE8242E42E0342E54ED452E52E0BE
:10334000552E6BEC662E67E0762E95012650394F90
:103350006901D90114969C91149712968C91F401ED
:10336000E650F94F7F01818F928F61E00E94BA177A
:1033700061E0D7015A968C910E94BA17F6019085A8
:103380008681D8018C93F701968F61E00E94BA176D
:1033900060E0D7015E968C910E94BA1761E0F80157
:1033A00080810E940F17FFB6F8948091A6028111C8
:1033B00025C0F1018491F2019491E82FF0E0EE0F25
:1033C000FF1FE55DFC4FA591B4918C91982321F4EA
:1033D00061E085E30E940F1761E085E30E94BA1760
:1033E0008CB580618CBD8CB580648CBD61E084E35C
:1033F0000E94BA1761E083E30E94BA178091A60287
:103400008F5F8093A602FFBEC3010197F1F760E0D2
:10341000D8018C910E940F1788E80E945E0F83E00C
:103420000E945E0F61E0F80180810E940F17C301C6
:103430000197F1F7C8010E94650FF2E08F0E911C11
:103440000E5F1F4FAA94AB2821F0AA24A394B12C9D
:103450007CCF0FE117E094E0F92EF00E60E0D80188
:103460008D918D010E94BA17F012F8CFEEE2EE2E88
:10347000E7E0FE2E0BE217E0F5E0AF2EACE0CA2E3F
:10348000B2E09B2E82E0B82EB00EF8013897D080C3
:10349000F80180818C3008F046C061E08D2D0E94DB
:1034A000BA17D8018C91A89EF0011124E752FA4F67
:1034B0009D2D9F732081207CD22ED92AD082138209
:1034C00014826C2D0E944F22BCE08B9FA00111241E
:1034D00020E030E0B901640F751FA69EF001A79EA1
:1034E000F00D1124E752FA4F908196FD12C02F5F24
:1034F0003F4F2C30310571F781110BC010928000C5
:1035000090928100109285001092840096BA909259
:103510006F00D801EC91AE9EF0011124E752FA4FF2
:10352000808180648083F801329790813297808116
:10353000F70131978083F701908360E00E94BA170A
:1035400061E0D7018C910E94BA1760E0F701808199
:103550000E940F170F5F1F4FF2E0EF0EF11CB01229
:1035600094CFF8941092200189E08093210180E2A9
:1035700093E09093290180932801109225011092E5
:10358000240182E080937300789480930705109261
:103590000B058091080560E00E94BA1788ED91E064
:1035A000909376068093750688EE93E0A0E0B0E0F5
:1035B0008093770690937806A0937906B0937A0665
:1035C0008FEF9FEFDC018093800690938106A0939C
:1035D0008206B093830681E080937F062FB7F8942C
:1035E00080918C0790918D07A0918E07B0918F07E5
:1035F0002FBF4091770650917806609179067091BF
:103600007A06840F951FA61FB71F80937B069093A1
:103610007C06A0937D06B0937E06809180069091F3
:103620008106A0918206B0918306809384069093D0
:103630008506A0938606B093870661E087E20E9424
:10364000BA1761E085E20E94BA178FEF9FEF0E94E0
:1036500083028FEF9FEF0E94B01481E090E00E9400
:10366000B01481E090E00E94830274E6E72EF12C12
:1036700000E010E020E030E040E050E060ED77E076
:1036800080E090E00E94FB0360E087E20E940F1759
:103690000BEC17E0809121070E94E616892B79F444
:1036A00061E085E20E940F17C8010197F1F760E021
:1036B00085E20E940F17C8010197F1F7EBCF109236
:1036C000D5021092D6021092D7021092D80264E668
:1036D000E62EF12C00E010E020E030E040E050E089
:1036E00068EE73E080E090E00E94FB03E091DD0370
:1036F000F091DE0382E08083E091D903F091DA0358
:103700001082E091DB03F091DC0380E18083109272
:10371000E503E091E103F091E20386E08083E0912C
:10372000DF03F091E003808180618083E091DF031B
:10373000F091E003808188608083E091DF03F09165
:10374000E003808180688083E091DF03F091E003F3
:1037500080818F7D808368EE73E080E090E00E943E
:10376000F61780E797E09093A3028093A20264EF9C
:1037700071E080E090E00E94F61720E030E040E049
:1037800050E068EE73E080E090E00E94FB030E944E
:1037900091038091A4029091A502019709F032C291
:1037A0002DB73EB738872F831A8219821C821B825D
:1037B0001E821D82609116067091170661157105B3
:1037C00041F040911A0650911B06CE0101960E94CD
:1037D000040BED80FE80C701880F991F4DB75EB7BF
:1037E000481B590B0FB6F8945EBF0FBE4DBF8DB787
:1037F0009EB701961C0149815A81FC0180E090E04E
:103800008E159F05C4F48E159F0518F441155105BA
:1038100029F41092A702A7EAB2E003C0DA01A80FC8
:10382000B91F2C91022E000C330B20533109219328
:1038300031930196E5CFC12CD12CCE14DF040CF0CE
:103840008BC1D1012D913D911D01C90163E070E053
:103850000E946F225B014DEF46038001479F100DD0
:103860001124020F131F8BE792E00E946810C80119
:103870000E94281580E892E00E946810C5010E940D
:103880002815C80102960E94901181E090E00E94E4
:103890008302F501EE0FFF1FEE0FFF1FE15FFD4FEB
:1038A0002091D5023091D6024091D7025091D80292
:1038B00060817181828193810E948B220E941E11FE
:1038C00081E090E00E94901163E373E383E39FE360
:1038D0000E941E114DEC5CEC6CE47EEB83E197E002
:1038E0000E949D0D4DEC5CEC6CE47EE385E197E07D
:1038F0000E949D0D87E197E00E94900F87E197E07D
:103900000E94650F89E197E00E94900F89E197E09E
:103910000E94650F87E197E00E94900F9095809537
:10392000709561957F4F8F4F9F4F0E94CF2029EA5E
:1039300035E841EC51EC0E942E2120E030E048E4D3
:1039400055E40E94F8222B013C0189E197E00E9496
:10395000900F0E94CF2029EA35E841EC51EC0E94FB
:103960002E2120E030E048E455E40E94F8224B018B
:103970005C0120E030E040E251E4C301B2010E946A
:10398000A02318163CF440E050E0BA0183E197E030
:103990000E949D0D20E030E040E251E4C501B401F9
:1039A0000E94A023181644F440E050E060E070E864
:1039B00085E197E00E949D0D20E030E040E251E477
:1039C000C301B2010E94C82087FDA4CF20E030E0EF
:1039D00040E251E4C501B4010E94C82087FD9ACF9E
:1039E00064EF71E080E090E00E94F6170E94E7012A
:1039F00081E090E00E9490118FEF9FEF0E94830280
:103A00008090D5029090D602A090D702B090D802B4
:103A100023E333E34BEA50E4C501B4010E94C8201C
:103A200087FF0AC0A501940163E373E38BEA90E486
:103A30000E948B220E941E11C80101960E949011C3
:103A400084EF91E00E9467034DEC5CEC6CEC7EE34C
:103A500083E197E00E949D0D4DEC5CEC6CEC7EEBFD
:103A600085E197E00E949D0D64E670E080E090E0C3
:103A70000E94F61740E050E060E87FE383E197E0C2
:103A80000E949D0D40E050E060E87FEB85E197E00B
:103A90000E949D0D68EC70E080E090E00E94F617B7
:103AA00040E050E0BA0183E197E00E949D0D40E0C4
:103AB00050E060E070E885E197E00E949D0D6AE0CB
:103AC00070E080E090E00E94F6174DEC5CEC6CEC4E
:103AD0007EEB83E197E00E949D0D4DEC5CEC6CEC7D
:103AE0007EE385E197E00E949D0D64E670E080E052
:103AF00090E00E94F61740E050E060E87FEB83E141
:103B000097E00E949D0D40E050E060E87FE385E192
:103B100097E00E949D0D68EC70E080E090E00E94CC
:103B2000F61740E050E0BA0183E197E00E949D0D56
:103B300040E050E060E070E885E197E00E949D0D74
:103B400064EF71E080E090E00E94F6170E94E701C8
:103B50005FEFC51AD50A71CE1092A5021092A40289
:103B60008CE2E82EFF24F39400E010E020E030E047
:103B700040E050E064EF71E080E090E00E94FB03E1
:103B80006BE271E080E090E00E94F61798ECE92E7D
:103B9000F12C20E030E040E050E068EE73E080E09F
:103BA00090E00E94FB0362ED70E080E090E00E94F4
:103BB000F61720E030E040E050E06CE474E080E094
:103BC00090E00E94FB0362ED70E080E090E00E94D4
:103BD000F61728EEE22E33E0F32E20E030E040E04E
:103BE00050E064E175E080E090E00E94FB03898191
:103BF0009A810E943A248F8198850FB6F8949EBFCF
:103C00000FBE8DBF0E944509C2CD809116069091CE
:103C100017060E943A2483E592E090931D06809354
:103C20001C0683E492E09093200680931F06809107
:103C3000290690912A06009711F00E943A2480915B
:103C4000230690912406009711F00E943A24809157
:103C5000270690912806009711F00E943A2480913F
:103C6000210690912206009711F00E943A2480913B
:103C7000250690912606009711F00E943A24809123
:103C80003106909132060C943A24CF92DF92EF9253
:103C9000FF920F931F93CF93DF93FC01EB016081A1
:103CA000718166507109DB018D919C91DC01AE0F31
:103CB000BF1F1A968D919C911B97892B09F484C084
:103CC000822FDB010D911C91D801AE0FBF1F1C96F6
:103CD0009C91891748F4DE01A80FB11DA80FB11DF2
:103CE0001D921C92840FEDCF50E08281581708F08E
:103CF00046C0322FA081B18116978D919C918E0F75
:103D00009F1FDC011C966C913617B8F5032F10E04D
:103D1000DC011A968D919C911B97800F911FDC01FD
:103D20008C91863308F0865390917B00682F6870E1
:103D3000977F962B90937B008770806480937C00A4
:103D400080917A00806480937A0080917A0086FD69
:103D5000FCCF809178006091790090E0962BD8019B
:103D6000AA0FBB1FAC0FBD1F6D917C911197860FE1
:103D7000971F8D939C93340FBDCF5F5FB6CFE080CC
:103D8000F180B6E0EB1AF108D7018D919C91DC012E
:103D9000AE0FBF1F1C968C912817B0F48E01020F36
:103DA000111D020F111D628170E06B01D594C79443
:103DB000D8018D919C918C0D9D1D0E945B22D80194
:103DC0006D937C93240FE0CFDF91CF911F910F91E2
:103DD000FF90EF90DF90CF900895DC01ED91FC9182
:103DE0003E970190F081E02D8E0F9F1F0C94451E91
:103DF0000F93109227031092260388EE93E0A0E021
:103E0000B0E08093280390932903A0932A03B093F2
:103E10002B032FE132E030932503209324031092EB
:103E20003303109232038093340390933503A093AD
:103E30003603B093370321E332E03093310320930C
:103E4000300345E351E050933D0340933C0344E38A
:103E500051E050933F0340933E0340E351E05093C1
:103E600041034093400341E351E0509343034093A7
:103E7000420342E351E0509345034093440346E339
:103E800051E0509347034093460310924903109228
:103E90004A0310924B0310924C031092D0031092DD
:103EA000CF038093D1039093D203A093D303B09315
:103EB000D4033093CE032093CD0345ED50E05093CF
:103EC000DA034093D90344ED50E05093DC03409370
:103ED000DB0340ED50E05093DE034093DD0341ED02
:103EE00050E05093E0034093DF0342ED50E05093E5
:103EF000E2034093E10346ED50E05093E403409326
:103F0000E3031092E6031092E7031092E803109285
:103F1000E90310926D0410926C0480936E049093E8
:103F20006F04A0937004B093710430936B042093DA
:103F30006A0485EC90E0909377048093760484EC97
:103F400090E0909379048093780480EC90E09093D3
:103F50007B0480937A0481EC90E090937D048093BD
:103F60007C0482EC90E090937F0480937E0486EC46
:103F700090E09093810480938004109283041092C7
:103F80008404109285041092860486E380931B07B4
:103F900087E380931C0788E380931D0789E3809360
:103FA0001E078BE180931F078DE1809320078AE134
:103FB000809321078CE18093220784E0809323077C
:103FC00087E0809324071092250784EB80932607CF
:103FD00086E18093270788E18093280787E1809313
:103FE000290789E180932A07E0911506EC3020F03B
:103FF0008FEF80932B0710C081E08E0F8093150602
:10400000E0932B0725E0E29FF0011124E752FA4FDD
:1040100088EB9BE092838183E0911506EC3020F0E1
:104020008FEF80932C0710C081E08E0F80931506D0
:10403000E0932C0785E0E89FF0011124E752FA4F46
:1040400088EB9BE0928381838CE08093FA0684E284
:104050008093FB0686E08093FC0685E08093FD0656
:104060008FE18093FE068EE18093FF0683E28093CA
:10407000000782E28093010785E48093020784E4CD
:104080008093030780E48093060710920B07109239
:104090000C0710920D0710920E0710920F07109246
:1040A00010071092110710921207ECE3F6E08FEF61
:1040B0009FEFDC011282138214821582168217820E
:1040C0001086118683879487A587B6878787908B0C
:1040D000A18BB28B128611821082739626E0EA3F82
:1040E000F20741F78DE090E00E94A523FC011382C6
:1040F000128283E792E091838083118687E2848332
:1041000084E1828784E083871486F0933906E09304
:10411000380610923A0610923B0685E28093080515
:1041200010920A0561EA72E081E396E00E942F0B8B
:104130001092220610922106109224061092230655
:104140001092260610922506109228061092270635
:1041500010922A061092290683E592E090931D069C
:1041600080931C0685E692E09093200680931F06BC
:104170000FEF24E048E061E072E08CE196E00E94FD
:104180006F0A61EA72E086E196E00F910C942F0BC2
:104190000E940A2108F481E00895E89409C097FB81
:1041A0003EF490958095709561957F4F8F4F9F4F0E
:1041B0009923A9F0F92F96E9BB279395F695879552
:1041C00077956795B795F111F8CFFAF4BB0F11F415
:1041D00060FF1BC06F5F7F4F8F4F9F4F16C08823BC
:1041E00011F096E911C0772321F09EE8872F762FF2
:1041F00005C0662371F096E8862F70E060E02AF033
:104200009A95660F771F881FDAF7880F969587951E
:1042100097F90895990F0008550FAA0BE0E8FEEFF3
:1042200016161706E807F907C0F012161306E4077A
:10423000F50798F0621B730B840B950B39F40A2673
:1042400061F0232B242B252B21F408950A2609F451
:10425000A140A6958FEF811D811D08950E944121E7
:104260000C94B2210E94A42138F00E94AB2120F0CE
:10427000952311F00C949B210C94A12111240C94F2
:10428000E6210E94C32170F3959FC1F3950F50E082
:10429000551F629FF001729FBB27F00DB11D639FF8
:1042A000AA27F00DB11DAA1F649F6627B00DA11D9E
:1042B000661F829F2227B00DA11D621F739FB00D44
:1042C000A11D621F839FA00D611D221F749F3327B4
:1042D000A00D611D231F849F600D211D822F762F4D
:1042E0006A2F11249F5750409AF0F1F088234AF02A
:1042F000EE0FFF1FBB1F661F771F881F9150504096
:10430000A9F79E3F510580F00C949B210C94E62167
:104310005F3FE4F3983ED4F3869577956795B7951C
:10432000F795E7959F5FC1F7FE2B880F911D969536
:10433000879597F9089597F99F6780E870E060E0A6
:1043400008959FEF80EC089500240A94161617062E
:1043500018060906089500240A9412161306140676
:1043600005060895092E0394000C11F4882352F0D9
:10437000BB0F40F4BF2B11F460FF04C06F5F7F4F91
:104380008F4F9F4F089557FD9058440F551F59F078
:104390005F3F71F04795880F97FB991F61F09F3F32
:1043A00079F087950895121613061406551FF2CF5B
:1043B0004695F1DF08C0161617061806991FF1CFAB
:1043C00086957105610508940895E894BB276627D2
:1043D0007727CB0197F90895052E97FB1EF40094DB
:1043E0000E94032257FD07D00E941E2207FC03D023
:1043F0004EF40C94032250954095309521953F4FF3
:104400004F4F5F4F089590958095709561957F4FC0
:104410008F4F9F4F08950E944022A59F900DB49FFB
:10442000900DA49F800D911D11240895B7FF0C9449
:104430000B220E940B22821B930B0895A1E21A2EDD
:10444000AA1BBB1BFD010DC0AA1FBB1FEE1FFF1F38
:10445000A217B307E407F50720F0A21BB30BE40B88
:10446000F50B661F771F881F991F1A9469F76095CF
:104470007095809590959B01AC01BD01CF01089589
:10448000A29FB001B39FC001A39F700D811D112495
:10449000911DB29F700D811D1124911D0895991BCE
:1044A00079E004C0991F961708F0961B881F7A952B
:1044B000C9F780950895AA1BBB1B51E107C0AA1F2D
:1044C000BB1FA617B70710F0A61BB70B881F991FB5
:1044D0005A95A9F780959095BC01CD01089597FB59
:1044E000072E16F4009407D077FD09D00E945B22B6
:1044F00007FC05D03EF4909581959F4F08957095E7
:1045000061957F4F0895EE0FFF1F881F8BBF0790A7
:10451000F691E02D19945058BB27AA270E94A32298
:104520000C94B2210E94A42138F00E94AB2120F00B
:1045300039F49F3F19F426F40C94A1210EF4E09570
:10454000E7FB0C949B21E92F0E94C32158F3BA1773
:10455000620773078407950720F079F4A6F50C9499
:10456000E5210EF4E0950B2EBA2FA02D0B01B90119
:1045700090010C01CA01A0011124FF27591B99F0D9
:10458000593F50F4503E68F11A16F040A22F232FE5
:10459000342F4427585FF3CF469537952795A79535
:1045A000F0405395C9F77EF41F16BA0B620B730BDC
:1045B000840BBAF09150A1F0FF0FBB1F661F771F4D
:1045C000881FC2F70EC0BA0F621F731F841F48F402
:1045D000879577956795B795F7959E3F08F0B0CF8B
:1045E0009395880F08F09927EE0F97958795089572
:1045F0000E940C230C94B2210E94AB2158F00E941F
:10460000A42140F029F45F3F29F00C949B21511123
:104610000C94E6210C94A1210E94C32168F39923F4
:10462000B1F3552391F3951B550BBB27AA276217AE
:104630007307840738F09F5F5F4F220F331F441FBB
:10464000AA1FA9F335D00E2E3AF0E0E832D09150EF
:104650005040E695001CCAF72BD0FE2F29D0660FDC
:10466000771F881FBB1F261737074807AB07B0E81F
:1046700009F0BB0B802DBF01FF2793585F4F3AF025
:104680009E3F510578F00C949B210C94E6215F3FEE
:10469000E4F3983ED4F3869577956795B795F795AB
:1046A0009F5FC9F7880F911D9695879597F9089593
:1046B000E1E0660F771F881FBB1F6217730784072F
:1046C000BA0720F0621B730B840BBA0BEE1F88F73E
:1046D000E09508950E9471236894B1110C94E6212D
:1046E00008950E94CB2188F09F5798F0B92F992701
:1046F000B751B0F0E1F0660F771F881F991F1AF0CD
:10470000BA95C9F714C0B13091F00E94E521B1E02B
:1047100008950C94E521672F782F8827B85F39F02A
:10472000B93FCCF3869577956795B395D9F73EF465
:1047300090958095709561957F4F8F4F9F4F08950D
:104740000E940A2108F48FEF0895CF93DF938230FF
:10475000910510F482E090E0E0919707F0919807BE
:1047600020E030E0C0E0D0E0309711F1408151818D
:1047700048175907C0F04817590761F4828193819F
:10478000209719F09B838A832BC09093980780937E
:10479000970726C02115310519F04217530718F461
:1047A0009A01BE01DF01EF010280F381E02DDCCF31
:1047B0002115310509F1281B390B2430310590F4FE
:1047C00012968D919C9113976115710521F0FB0153
:1047D0009383828304C09093980780939707FD0189
:1047E000329644C0FD01E20FF31F81939193225052
:1047F00031092D933C933AC020919507309196074B
:10480000232B41F420910B0230910C023093960738
:10481000209395072091090230910A022115310554
:1048200041F42DB73EB740910D0250910E02241B6A
:10483000350BE0919507F0919607E217F307A0F486
:104840002E1B3F0B2817390778F0AC014E5F5F4FE6
:104850002417350748F04E0F5F1F5093960740937B
:1048600095078193919302C0E0E0F0E0CF01DF91E2
:10487000CF9108950F931F93CF93DF93009709F47F
:104880008CC0FC013297138212820091970710911D
:1048900098070115110581F420813181820F931F42
:1048A00020919507309196072817390779F5F093ED
:1048B0009607E093950771C0D80140E050E0AE172D
:1048C000BF0750F412962D913C911397AD0121151D
:1048D000310509F1D901F3CF9D01DA013383228338
:1048E00060817181860F971F8217930769F4EC012D
:1048F00028813981260F371F2E5F3F4F3183208358
:104900008A819B8193838283452B29F4F0939807B6
:10491000E093970742C01396FC93EE931297ED0134
:10492000499159919E01240F351FE217F30771F445
:1049300080819181840F951F029611969C938E938E
:104940008281938113969C938E931297E0E0F0E01E
:10495000D80112968D919C911397009719F0F80148
:104960008C01F6CF8D919C9198012E5F3F4F820F65
:10497000931F20919507309196072817390769F4FE
:10498000309729F4109298071092970702C013826B
:1049900012821093960700939507DF91CF911F9194
:1049A0000F9108956F927F928F929F92AF92BF92D4
:1049B000CF92DF92EF92FF920F931F93CF93DF93EB
:1049C000EC01009789F4CB01DF91CF911F910F91FA
:1049D000FF90EF90DF90CF90BF90AF909F908F901F
:1049E0007F906F900C94A523FC01E60FF71F9C01AC
:1049F00022503109E217F30708F4ACC0D9010D9138
:104A00001C91119706171707B0F00530110508F42F
:104A10009FC0C80104978617970708F499C00250F1
:104A20001109061B170B019311936D937C93CF0112
:104A30000E943A248DC05B01A01AB10A4C01800E7D
:104A4000911EA0919707B091980740E050E0E12CAB
:104A5000F12C109709F44AC0A815B905D1F56D904D
:104A60007C901197630182E0C80ED11CCA14DB044C
:104A700080F1A3014A195B096A0182E0C80ED11CCA
:104A80001296BC9012971396AC91B5E0CB16D10458
:104A900040F0B282A38351834083D9016D937C930C
:104AA0000AC00E5F1F4FC301800F911FF901918350
:104AB0008083EB2DFA2FE114F10431F0D701139626
:104AC000FC93EE93129744C0F0939807E0939707F6
:104AD0003FC08D919C9111974817590708F4AC017C
:104AE0007D0112960D90BC91A02DB3CF80919507BA
:104AF0009091960788159905E1F446175707C8F471
:104B00008091090290910A02009741F48DB79EB7F7
:104B100040910D0250910E02841B950BE817F90786
:104B2000C8F4F0939607E0939507F90171836083C9
:104B30000FC0CB010E94A5237C01009759F0A8016A
:104B4000BE010E94C025CE010E943A24C70104C0C4
:104B5000CE0102C080E090E0DF91CF911F910F91D4
:104B6000FF90EF90DF90CF90BF90AF909F908F908D
:104B70007F906F90089581E090E0F8940C94D02598
:104B8000FB01DC0102C001900D9241505040D8F76A
:104B90000895FB01DC0101900D920020E1F70895DA
:104BA00011E0C4EAD1E000E006C0802FFE010E94BF
:104BB00083222196011DC53AD10780E00807A9F795
:044BC000F894FFCF97
:104BC400FF00010203040506070000990720000006
:104BD4000000003333AB4033332B4100000000812D
:104BE400145114F3092B1449143A142C1400000022
:104BF40000DC081C086008230991086F088308007A
:104C040000000072090D0AF809220AF609030000DF
:104C14000000006F0A451EFDFF00000000000000B8
:104C240000FDFF000072090D0AF809220AED1E00BA
:104C3400000000B80A1C08F309F20978203D20009E
:104C440079203D2000594F206A27616920726563ED
:104C54007520756E204D4553534147453A20000D4C
:024C64000A0044
:00000001FF
