:100000000C945D010C948E010C948E010C948E0165
:100010000C948E010C948E010C948E010C948E0124
:100020000C948E010C949F050C949F050C949F05D5
:100030000C948E010C947E070C948E010C948E010E
:100040000C948E010C94D7090C948E010C948E01A3
:100050000C948E010C948E010C948E010C94340738
:100060000C948E010C94EF080C94C5080C948E012E
:100070000C948E010C948E010C948E010C948E01C4
:100080000C948E010C948E010C948E010C948E01B4
:100090000C948E010C948E010C948E010C94A90585
:1000A0000C948E010C948E010C948E010C948E0194
:1000B0000C948E010C948E010C948E010C941909F1
:1000C0000C948E010C948E010C948E010C949B0860
:1000D0000C9471080C948E010C9447080C941D0824
:1000E0000C948E0169026C025B025F026502A3023E
:1000F000700274027A027E02820288028C029002EE
:10010000A30296029A029E020C945F020C9488024B
:100110000C949E020C941F020C9490020C94E50126
:100120000C94580D0C94A3020C94E1010C9445031B
:100130000C945B020C94D4040C94E2010C947402B1
:100140000C9470020C94F9040C948C020C94080426
:100150000C9465020C9454030C94C1030C946C022F
:100160000C949A020C94EF010C9469020C94960280
:100170000C94FA040C945E0D0C9476030C94820299
:100180000C94E8010C9401030C947A020C947E0206
:100190000C94680302000020002300260029002C94
:1001A000002F0032000001000003010601090100D8
:1001B000000A0B02090C0D0E0807030401000000E1
:1001C000000000000000000000000000000000002F
:1001D00000000000000000000000001211100000EC
:1001E000000000000000000000000000000000000F
:1001F000000000000000002200250028002B002E37
:10020000003100340002010000050108010B01006B
:10021000002100240027002A002D003000330001B7
:10022000010000040107010A01050505050705088D
:10023000080808020202020A0A0808040404040169
:10024000010101010101010303030303030303048B
:100250000707070C0C0C0C0C0C0C0C02020202061B
:10026000060606060606060B0B0B0B0B0B0B0B010B
:1002700002102020080810204010204080020102B7
:10028000010804020101020408102040808040207F
:1002900010080402018004020180402010080402BA
:1002A0000108040201010204081020408001020438
:1002B0000810204080005E0D580D11241FBECFEFA6
:1002C000D1E2DEBFCDBF00E00CBF12E0A0E0B2E0A3
:1002D000E6ECF7E200E00BBF02C007900D92A43FEE
:1002E000B107D9F727E0A4EFB2E001C01D92AD3A03
:1002F000B207E1F711E0CCE5D1E000E006C02197BC
:100300000109802FFE010E947F10CB35D10780E0CC
:100310000807A9F70E94860C0C94D1130C940000D6
:1003200090E0FC01E159FD4F2491FC01E75DFD4F98
:100330008491882399F090E0880F991FFC01E15F78
:10034000FD4FA591B491FC01EB50FE4F8591949126
:100350008FB7F894EC91E22BEC938FBF089585ED65
:100360008093BC008091BC0084FDFCCF1092870379
:10037000089540916103262F30E0240F311D213272
:100380003105DCF4209187032430C9F4FC0180E0BE
:1003900090E0861758F4309161032191DC01A15C53
:1003A000BC4FA30FB11D2C930196F3CF8091610335
:1003B000680F6093610380E0089581E0089582E012
:1003C000089508958FEF9FEF08958FEF9FEF0895A1
:1003D00080913E0390E09195819591090895CF9287
:1003E000DF92EF92FF920F931F93CF93DF937C01E5
:1003F000262F972F8A0180913D03882391F0C62FE5
:10040000D72F6E01C40ED51ECC15DD0571F0699194
:10041000D701ED91FC910190F081E02DC701199574
:10042000F3CF642F822F0E94B901C801DF91CF91D1
:100430001F910F91FF90EF90DF90CF900895CF9391
:10044000DF931F92CDB7DEB7698320913D0322234E
:10045000D1F020913C03203240F021E030E0FC015B
:100460003383228380E090E015C080913B03E82F26
:10047000F0E0E55EFC4F998190838F5F80933B03B2
:1004800080933C0305C061E0CE0101960E94B90152
:1004900081E090E00F90DF91CF91089590E0FC0112
:1004A0003197E231F10508F04EC08827EE58FF4F32
:1004B0008F4F0C947F10809180008F7703C08091C4
:1004C00080008F7D80938000089580918000877FD9
:1004D000F9CF84B58F7702C084B58F7D84BD089530
:1004E0008091B0008F7703C08091B0008F7D8093A2
:1004F000B0000895809190008F7707C080919000A0
:100500008F7D03C080919000877F80939000089535
:100510008091A0008F7707C08091A0008F7D03C0DD
:100520008091A000877F8093A00008958091200192
:100530008F7707C0809120018F7D03C080912001BB
:10054000877F8093200108953FB7F8948091170327
:1005500090911803A0911903B0911A0326B5A89B96
:1005600005C02F3F19F00196A11DB11D3FBFBA2F45
:10057000A92F982F8827820F911DA11DB11DBC01A5
:10058000CD0142E0660F771F881F991F4A95D1F76A
:1005900008958F929F92AF92BF92CF92DF92EF9287
:1005A000FF920E94A4024B015C0188EEC82E83E0FA
:1005B000D82EE12CF12C0E94A402DC01CB01881979
:1005C0009909AA09BB09883E9340A105B10558F0D5
:1005D00021E0C21AD108E108F10888EE880E83E014
:1005E000981EA11CB11CC114D104E104F10419F737
:1005F000FF90EF90DF90CF90BF90AF909F908F9043
:100600000895CF92DF92EF92FF920F931F93CF93B3
:10061000DF936C017A018B01C0E0D0E0CE15DF05DD
:1006200089F0D8016D918D01D601ED91FC91019079
:10063000F081E02DC6011995892B11F47E0102C0CD
:100640002196ECCFC701DF91CF911F910F91FF90C1
:10065000EF90DF90CF900895FC01A089B1898C9133
:10066000A689B78982FD0FC09C91818D8F5F8F73A2
:10067000228D821749F0218DDF01A20FB11D5D96F9
:100680009C93818F08958C910895FC01538D448D26
:10069000252F30E0842F90E0821B930B541710F02D
:1006A000CF96089501970895FC01918D828D98173A
:1006B00061F0828DDF01A80FB11D5D968C91928D46
:1006C0009F5F9F73928F90E008958FEF9FEF089543
:1006D000FC01918D828D981731F0828DE80FF11D0C
:1006E000858D90E008958FEF9FEF0895FC01918D27
:1006F000228D892F90E0805C9F4F821B91098F7320
:100700009927089583EC93E00E94760321E0892BDA
:1007100009F420E0822F089580E694E00E94760399
:1007200021E0892B09F420E0822F08958DEF94E0D9
:100730000E94760321E0892B09F420E0822F08959E
:10074000FC01848DDF01A80FB11DA35ABF4F2C916E
:10075000848D90E001968F739927848FA689B7893D
:100760002C93A089B1898C9180648C93938D848D16
:10077000981306C00288F389E02D80818F7D8083E5
:100780000895EF92FF920F931F93CF93DF93EC01A5
:1007900081E0888F9B8D8C8D981305C0E889F9893D
:1007A000808185FD24C0F62E0B8D10E00F5F1F4F5A
:1007B0000F731127E02E8C8DE8120CC00FB607FCCA
:1007C000FACFE889F989808185FFF5CFCE010E94B3
:1007D000A003F1CF8B8DFE01E80FF11DE35AFF4F0F
:1007E000F0820B8FEA89FB898081806207C0EE89E5
:1007F000FF896083E889F98980818064808381E052
:1008000090E0DF91CF911F910F91FF90EF900895AD
:10081000CF93DF93EC01888D8823C9F0EA89FB89A7
:10082000808185FD05C0A889B9898C9186FD0FC09E
:100830000FB607FCF5CF808185FFF2CFA889B98973
:100840008C9185FFEDCFCE010E94A003E7CFDF9111
:10085000CF910895E0E0F0E0199480E090E0892BDA
:1008600021F00E949603811119C080E090E0892B4D
:1008700041F080E090E0892B21F00E94000081117E
:1008800010C00E948C0381110FC080E090E0892B82
:1008900081F00E94820381110AC008950E94000025
:1008A000E4CF0E940000EDCF0E942A04EECF0C940A
:1008B00000000895CF93FC01C48121E020933D0303
:1008C000C0930D0310923B0310923C038485682B68
:1008D00087EB93E00E941F0280913C03813208F075
:1008E00046C0909187039111FCCF92E090938703CB
:1008F00091E0909389039FEF909386031092AB034E
:100900008093AA03ABE1B3E02AE833E0F9019E2F1C
:10091000921B981718F49D919193F9CF1092AC0304
:100920008091AC03CC0FC82BC093AC03809188039B
:10093000813061F4109288038091AC038093BB00F6
:100940008091BC0083FDF8CF85EC01C085EE8093DB
:10095000BC00809187038230E1F3809186038F3F52
:1009600031F080918603803211F0809186031092DD
:100970003B0310923C0310923D03CF9108950F93D7
:100980001F93CF938C01C62F64600E945A046C2F72
:100990006B7FC8010E945A0483EC90E00197F1F745
:1009A000CF911F910F9108950F931F93CF93DF93D2
:1009B0008C01C62FD62FD07FD1606D2F0E945A0494
:1009C0006D2FC8010E94BF0480E1C89FB0011124AF
:1009D000C62FC1606C2FC8010E945A046C2FC80139
:1009E0000E94BF0481E090E0DF91CF911F910F91B1
:1009F0000895089580E090E008958F929F92AF92BD
:100A0000BF92CF92DF92EF92FF92CF93DF93EC01F0
:100A100083E492E00E94B20BCE010E94B40BCC0F93
:100A2000DD1FCC0FDD1FC95FDD4F2091B303309177
:100A3000B4034091B5035091B603688179818A81EE
:100A40009B810E9487104B015C018FB7F894C09086
:100A5000AF03D090B003E090B103F090B2038FBF2A
:100A6000C501B4010E94E50B2FB7F8948091AF0344
:100A70009091B003A091B103B091B2032FBFBC011C
:100A8000CD016C197D098E099F090E943E0F20E05F
:100A900030E04AE754E40E94F4106B017C0180E5E9
:100AA00092E00E94B20BC701B6010E94EB0A89E5F1
:100AB00092E00E94B20BA5019401C701B6010E9409
:100AC000F4100E9466119B0177FF04C02227332790
:100AD000261B370BC9010E94B40B8DE692E00E94E1
:100AE000B20B20E030E040E451E4C501B4010E94C3
:100AF0009F0FA70196010E94F41020E030E040E72C
:100B000052E40E949F0F0E9466119B0177FF04C070
:100B100022273327261B370BC9010E94B40B8BE613
:100B200092E0DF91CF91FF90EF90DF90CF90BF9058
:100B3000AF909F908F900C94DD0A0E94BC131F927F
:100B40000F920FB60F9211240F900FBE0F901F90AF
:100B500018951F920F920FB60F9211240BB60F9299
:100B60002F933F934F935F936F937F938F939F93B5
:100B7000AF93BF93EF93FF938091B900887F803646
:100B800009F49CC068F5883209F45BC090F48031A8
:100B900009F454C038F4882309F4F6C0883009F405
:100BA0004DC0F6C0883109F44CC0803209F45DC0F4
:100BB000EFC0803409F468C048F4803309F455C0AC
:100BC000883309F0E5C080938603D8C0803509F4E6
:100BD0004FC0883509F45DC0883409F0D9C0D6C04B
:100BE000883909F4C7C0A8F4883709F467C038F415
:100BF000883609F463C0803709F460C0C9C08838FA
:100C000009F4B8C0803909F45FC0803809F0C0C069
:100C10005BC0803B09F486C038F4803A09F466C0B2
:100C2000883A09F47FC0B4C0803C09F4A7C0883C6E
:100C300009F4A4C0883B09F48AC0AAC08091AC031F
:100C400010C09091AB038091AA03981770F5E091C2
:100C5000AB0381E08E0F8093AB03F0E0E657FC4FCF
:100C600080818093BB0085EC86C0809386038EC014
:100C7000E091AB0381E08E0F8093AB038091BB00CA
:100C8000F0E0E657FC4F80839091AB038091AA037C
:100C90006EC0E091AB0381E08E0F8093AB03809137
:100CA000BB00F0E0E657FC4F8083809189038111FF
:100CB0006DC081E08093880384EA61C083E0809303
:100CC000870310928503CFCF80918503803208F08F
:100CD00051C0E091850381E08E0F80938503809160
:100CE000BB00F0E0EB59FC4F8083BDCF85EC8093D7
:100CF000BC001092870380918503803230F4E0912C
:100D00008503F0E0EB59FC4F10826091850370E0A1
:100D1000E0916303F091640385E693E019951092E6
:100D2000850336C084E0809387031092620310929B
:100D30006103E0915F03F091600319958091610375
:100D4000811105C081E08093610310923F03E0911F
:100D5000620381E08E0F80936203F0E0E15CFC4F60
:100D600080818093BB00909162038091610398170A
:100D700008F479CF85E88093BC000AC085EC8093A5
:100D8000BC001092870304C0109286030E94AF013A
:100D9000FF91EF91BF91AF919F918F917F916F9153
:100DA0005F914F913F912F910F900BBE0F900FBE0F
:100DB0000F901F901895CF93DF93282F30E0F90103
:100DC000E155FE4F8491F901E159FD4FD491F901AC
:100DD000E75DFD4FC491CC2391F081110E944E023A
:100DE000EC2FF0E0EE0FFF1FEB56FE4FA591B491F4
:100DF000EC91ED2381E090E021F480E002C080E0FE
:100E000090E0DF91CF9108951F93CF93DF93282F28
:100E100030E0F901E155FE4F8491F901E159FD4FB0
:100E2000D491F901E75DFD4FC491CC23C9F0162F91
:100E300081110E944E02EC2FF0E0EE0FFF1FEB50ED
:100E4000FE4FA591B4918FB7F894111105C09C91F4
:100E5000ED2FE095E92302C0EC91ED2BEC938FBFD1
:100E6000DF91CF911F9108951F920F920FB60F92AD
:100E700011242F933F938F939F93AF93BF938091B0
:100E8000AF039091B003A091B103B091B203309140
:100E9000160323E0230F2D3720F40196A11DB11D69
:100EA00005C026E8230F0296A11DB11D209316034D
:100EB0008093AF039093B003A093B103B093B203B8
:100EC0008091170390911803A0911903B0911A0310
:100ED0000196A11DB11D8093170390931803A09351
:100EE0001903B0931A03BF91AF919F918F913F91D6
:100EF0002F910F900FBE0F901F9018951F920F9279
:100F00000FB60F9211240BB60F922F933F934F936E
:100F10005F936F937F938F939F93AF93BF93EF9361
:100F2000FF938091120390911303A0911403B09149
:100F30001503892B8A2B8B2B59F180911103E0919A
:100F40000F03F09110039081892780838091120311
:100F500090911303A0911403B0911503181619066C
:100F60001A061B060CF056C08091120390911303D1
:100F7000A0911403B09115030197A109B1098093C1
:100F8000120390931303A0931403B093150342C06C
:100F900080910002E4E9F1E0E4919FEF9093000278
:100FA000E230C9F050F4EE2399F0E13081F59091F0
:100FB0006F009D7F90936F002AC0E43019F1E0F03C
:100FC000E53029F5909173009D7F909373001FC0C9
:100FD00010926E001CC0909170009D7F90937000E5
:100FE00091E09093B0009091B100987F94609093BD
:100FF000B1001092B3000BC0909171009D7F90934F
:10100000710005C0909172009D7F9093720060E026
:101010000E940407FF91EF91BF91AF919F918F9133
:101020007F916F915F914F913F912F910F900BBEE8
:101030000F900FBE0F901F9018951F920F920FB632
:101040000F9211240BB60F922F933F934F935F9300
:101050006F937F938F939F93AF93BF93EF93FF9380
:1010600083EC93E00E94A003FF91EF91BF91AF91B9
:101070009F918F917F916F915F914F913F912F91B0
:101080000F900BBE0F900FBE0F901F9018951F92E0
:101090000F920FB60F9211240BB60F922F933F931E
:1010A0004F935F936F937F938F939F93AF93BF9370
:1010B000EF93FF9383EC93E00E942C03FF91EF9159
:1010C000BF91AF919F918F917F916F915F914F9160
:1010D0003F912F910F900BBE0F900FBE0F901F905E
:1010E00018951F920F920FB60F9211240BB60F9204
:1010F0002F933F934F935F936F937F938F939F9320
:10110000AF93BF93EF93FF9380E694E00E94A00318
:10111000FF91EF91BF91AF919F918F917F916F91CF
:101120005F914F913F912F910F900BBE0F900FBE8B
:101130000F901F9018951F920F920FB60F921124C7
:101140000BB60F922F933F934F935F936F937F93C1
:101150008F939F93AF93BF93EF93FF9380E694E0B9
:101160000E942C03FF91EF91BF91AF919F918F91BE
:101170007F916F915F914F913F912F910F900BBE97
:101180000F900FBE0F901F9018951F920F920FB6E1
:101190000F9211240BB60F922F933F934F935F93AF
:1011A0006F937F938F939F93AF93BF93EF93FF932F
:1011B0008DEF94E00E94A003FF91EF91BF91AF915A
:1011C0009F918F917F916F915F914F913F912F915F
:1011D0000F900BBE0F900FBE0F901F9018951F928F
:1011E0000F920FB60F9211240BB60F922F933F93CD
:1011F0004F935F936F937F938F939F93AF93BF931F
:10120000EF93FF938DEF94E00E942C03FF91EF91F9
:10121000BF91AF919F918F917F916F915F914F910E
:101220003F912F910F900BBE0F900FBE0F901F900C
:1012300018951F920F920FB60F9211240BB60F92B2
:101240002F933F934F935F936F937F938F939F93CE
:10125000AF93BF93EF93FF9380919B050E94DB06B2
:1012600020919F053091A0052F5F3F4F3093A0053F
:1012700020939F0590919E05953618F096E09093E7
:101280009A0590919A059430C9F128F4923069F04A
:101290009330D1F05EC0953009F451C0963009F01A
:1012A00058C091E090936B0651C0811152C02091BB
:1012B0009F053091A0052436310508F442C01092F4
:1012C0006B0610929E051CC0813009F042C0E0916F
:1012D0009E0591E09E0F90939E05F0E020919F0562
:1012E0003091A005EE0FFF1FE656FA4F3087278397
:1012F0001092A00510929F0594E029C0811117C09B
:10130000E0919E0591E09E0F90939E05F0E0209164
:101310009F053091A005EE0FFF1FE656FA4F30876C
:1013200027831092A00510929F0593E010C0209192
:101330009F053091A0052536310558F007C0811171
:1013400008C01092A00510929F0503C095E09093ED
:101350009A0590919D059923B9F081110AC0809159
:101360009C05882321F080919C0561E009C02F9A9B
:101370000BC080919C05882331F080919C0560E032
:101380000E94040701C02F98FF91EF91BF91AF9188
:101390009F918F917F916F915F914F913F912F918D
:1013A0000F900BBE0F900FBE0F901F9018951F92BD
:1013B0000F920FB60F9211240BB60F922F933F93FB
:1013C0004F935F936F937F938F939F93AF93BF934D
:1013D000EF93FF9380910E0387FF05C01092850065
:1013E0001092840016C020910E03022E000C330BC5
:1013F0008091A80690E0281739075CF430910E031D
:1014000025E03203F0011124E459F94F808186FD73
:1014100015C080910E038F5F80930E0320910E0301
:10142000022E000C330B8091A80690E02817390794
:1014300094F480910E038C302CF10DC030910E038A
:101440003203F0011124E459F94F808160E08F7379
:101450000E940407DECF809184009091850084343F
:101460009C4918F480E49CE905C080918400909127
:101470008500049690938900809388008FEF809375
:101480000E032AC0409184005091850030910E03D4
:1014900025E03203F0011124E459F94F8181928152
:1014A000840F951F909389008093880030910E03DC
:1014B0003203F0011124E459F94F808186FF0CC0FA
:1014C00030910E033203F0011124E459F94F808169
:1014D00061E08F730E940407FF91EF91BF91AF917C
:1014E0009F918F917F916F915F914F913F912F913C
:1014F0000F900BBE0F900FBE0F901F901895E091AC
:10150000FD04F091FE040190F081E02D682F8DEF35
:1015100094E01994009769F0FC0101900020E9F72C
:101520003197AF01481B590BBC018DEF94E00C942F
:10153000010380E090E008958F929F92AF92BF9256
:101540000F931F93CF93DF93CDB7DEB7A1970FB65D
:10155000F894DEBF0FBECDBF19A2423008F44AE0B6
:101560008E010F5D1F4F842E912CA12CB12CA50153
:1015700094010E945D10E62FB901CA0101501109C2
:10158000EA3014F4E05D01C0E95CD801EC93232B50
:10159000242B252B61F7C8010E948A0AA1960FB659
:1015A000F894DEBF0FBECDBFDF91CF911F910F9199
:1015B000BF90AF909F908F900895CF93DF930E943C
:1015C0008A0AEC018EE892E00E948A0A8C0F9D1F25
:1015D000DF91CF9108954F925F926F927F928F9299
:1015E0009F92AF92BF92CF92DF92EF92FF926B01E8
:1015F0007C019B01AC010E94A111882319F081E9B3
:1016000092E01AC046015701E894B7F82FEF3FEF78
:101610004FE75FE7C501B4010E94A111811110C01D
:101620002FEF3FEF4FE75FE7C501B4010E94390F8D
:10163000181634F485E992E00E948A0A7C017FC082
:101640002FEF3FEF4FE75FE4C701B6010E949C1107
:1016500018161CF489E992E0EFCF2FEF3FEF4FE728
:101660005FECC701B6010E94390F87FDF3CF20E080
:1016700030E0A901C701B6010E94390F87FF09C0F8
:101680008DE20E947F0A5C01F7FAF094F7F8F0947B
:1016900002C0A12CB12C2AE037ED43EA5BE3C7017D
:1016A000B6010E9488102B013C010E946D116B0154
:1016B0007C010E943E0F9B01AC01C301B2010E945C
:1016C00087102B013C014AE0C701B6010E949C0A29
:1016D0007C01EA0CFB1C8EE20E947F0AE80EF91ED8
:1016E00020E030E040E251E4C301B2010E949F0FCC
:1016F0002B013C010E946D114B01A12CB12C4AE041
:10170000C501B4010E949C0AE80EF91EC501B4018E
:101710000E943E0F9B01AC01C301B2010E948710E1
:1017200020E030E040E251E40E949F0F0E946D11E2
:1017300080E090E04AE00E949C0AE80EF91E8EE8E4
:1017400092E00E948A0A8E0D9F1DFF90EF90DF901D
:10175000CF90BF90AF909F908F907F906F905F9051
:101760004F9008950C948A0ACF92DF92EF92FF92E5
:10177000CF93DF936C01990FEE08FF08F7FE12C0BC
:101780008DE20E947F0AEC0166277727CB016C1956
:101790007D098E099F094AE00E949C0A7C01EC0E9B
:1017A000FD1E06C04AE0C701B6010E949C0A7C01EA
:1017B0008EE892E00E948A0A8E0D9F1DDF91CF91E4
:1017C000FF90EF90DF90CF900895AF92BF92CF92AD
:1017D000DF92EF92FF920F931F93CF93DF936B01F2
:1017E0007C0120E030E046E155E40E949F0F0E941A
:1017F0006611EB0177FF04C0CC27DD27C61BD70B92
:101800008DE992E00E94B20BCE010E94B40B20E061
:1018100030E0A901C701B6010E949C1187FD07C0F5
:1018200061E087E20E9404078CEA92E006C060E073
:1018300087E20E94040786EB92E00E94DD0A82ECB8
:1018400092E00E94B20B60E070E080E89FE30E94AB
:10185000EB0A8DEC92E00E94B20BC701B6010E9428
:10186000EB0A00E010E083E2A82E8AE0B82E0C1705
:101870001D07E1F0809199070E94DB06892B29F072
:1018800089ED92E00E94DD0A11C061E085E20E94CC
:101890000407C5010197F1F760E085E20E940407A3
:1018A000C5010197F1F70F5F1F4FE1CFA701960127
:1018B0006091B3037091B4038091B5039091B60326
:1018C0000E9488106093B3037093B4038093B503B0
:1018D0009093B6038FED92E00E94B20B6091B30338
:1018E0007091B4038091B5039091B6030E94EB0A06
:1018F00080E992E0DF91CF911F910F91FF90EF90DF
:10190000DF90CF90BF90AF900C94DD0A789484B5AF
:10191000826084BD84B5816084BD85B5826085BDEB
:1019200085B5816085BD80916E00816080936E0079
:10193000109281008091810082608093810080916B
:10194000810081608093810080918000816080931C
:1019500080008091B10084608093B1008091B000DC
:1019600081608093B00080919100826080939100AB
:1019700080919100816080939100809190008160BE
:10198000809390008091A10082608093A10080915B
:10199000A10081608093A1008091A000816080936C
:1019A000A00080912101826080932101809121011A
:1019B00081608093210180912001816080932001CA
:1019C00080917A00846080937A0080917A008260AE
:1019D00080937A0080917A00816080937A00809170
:1019E0007A00806880937A001092C100E0910D0522
:1019F000F0910E0582E08083E0910905F0910A05DF
:101A00001082E0910B05F0910C058FEC8083109211
:101A10001505E0911105F091120586E08083E091B3
:101A20000F05F0911005808180618083E0910F05A2
:101A3000F0911005808188608083E0910F05F0911E
:101A40001005808180688083E0910F05F09110057A
:101A500080818F7D808387E20E94900185E20E94D1
:101A6000900184E792E00E94DD0A8AE792E00E94FA
:101A7000B20B6091B3037091B4038091B503909160
:101A8000B6030E94EB0A81E090E00E94FD040E94F0
:101A9000C90260E070E080E09FE30E94E50B0E94D5
:101AA000C90280E090E00E94FD040E942D04D9CF7D
:101AB0008091A9069091AA060C943B121092BA0349
:101AC0001092B90388EE93E0A0E0B0E08093BB03EE
:101AD0009093BC03A093BD03B093BE0327E132E013
:101AE0003093B8032093B7031092C6031092C50336
:101AF0008093C7039093C803A093C903B093CA030C
:101B000029E232E03093C4032093C30345E351E05C
:101B10005093D0034093CF0344E351E05093D2035A
:101B20004093D10340E351E05093D4034093D30357
:101B300041E351E05093D6034093D50342E351E093
:101B40005093D8034093D70346E351E05093DA0310
:101B50004093D9031092DC031092DD031092DE0350
:101B60001092DF0310926304109262048093640465
:101B700090936504A0936604B09367043093610466
:101B80002093600445ED50E050936D0440936C0445
:101B900044ED50E050936F0440936E0440ED50E0EC
:101BA000509371044093700441ED50E050937304DE
:101BB0004093720442ED50E05093750440937404D6
:101BC00046ED50E0509377044093760410927904E8
:101BD00010927A0410927B0410927C0410920005FB
:101BE0001092FF048093010590930205A0930305D2
:101BF000B09304053093FE042093FD0485EC90E03F
:101C000090930A058093090584EC90E090930C056D
:101C100080930B0580EC90E090930E0580930D056A
:101C200081EC90E09093100580930F0582EC90E09A
:101C3000909312058093110586EC90E09093140523
:101C4000809313051092160510921705109218052F
:101C50001092190586E38093930787E38093940796
:101C600088E38093950789E3809396078BE18093BF
:101C700097078DE1809398078AE1809399078CE11B
:101C800080939A0784E080939B0787E080939C076A
:101C900010929D0784EB80939E0786E180939F07B7
:101CA00088E18093A00787E18093A10789E1809371
:101CB000A207E091A806EC3020F08FEF8093A307F5
:101CC00010C081E08E0F8093A806E093A30725E063
:101CD000E29FF0011124E459F94F88EB9BE09283D5
:101CE0008183E091A806EC3020F08FEF8093A40769
:101CF00010C081E08E0F8093A806E093A40785E0D2
:101D0000E89FF0011124E459F94F88EB9BE092839E
:101D100081838CE08093720784E28093730786E06E
:101D20008093740785E0809375078FE18093760731
:101D30008EE18093770783E28093780782E2809335
:101D4000790785E480937A0784E480937B0780E4B5
:101D500080937E0710928307109284071092850764
:101D600010928607109287071092880710928907B1
:101D700010928A07E4EBF6E08FEF9FEFDC0112820E
:101D80001382148215821682178210861186838729
:101D90009487A587B6878787908BA18BB28B128695
:101DA00011821082739627E0E237F20741F78DE047
:101DB00090E00E94A611FC01138212828BE392E054
:101DC00091838083118687E2848384E1828784E023
:101DD00083871486F093B106E093B0061092B206A2
:101DE0001092B30685E280939B0510929D05109298
:101DF000AA061092A9061092AC061092AB06109299
:101E0000AE061092AD0661E070E080E090E00E94C6
:101E1000D312009789F09093AA068093A906109296
:101E2000AC061092AB062091AD063091AE06232B86
:101E3000C1F4FC01108215C08091A9069091AA06F8
:101E4000009711F00E943B121092AA061092A90668
:101E50001092AE061092AD061092AC061092AB0630
:101E600008951092AE061092AD0660E972E00C94EF
:101E7000CA130E947B0F08F481E00895E89409C01A
:101E800097FB3EF490958095709561957F4F8F4FAD
:101E90009F4F9923A9F0F92F96E9BB279395F695C3
:101EA000879577956795B795F111F8CFFAF4BB0F41
:101EB00011F460FF1BC06F5F7F4F8F4F9F4F16C0A5
:101EC000882311F096E911C0772321F09EE8872F2F
:101ED000762F05C0662371F096E8862F70E060E0EB
:101EE0002AF09A95660F771F881FDAF7880F969564
:101EF000879597F90895990F0008550FAA0BE0E808
:101F0000FEEF16161706E807F907C0F012161306BB
:101F1000E407F50798F0621B730B840B950B39F4FB
:101F20000A2661F0232B242B252B21F408950A2661
:101F300009F4A140A6958FEF811D811D08950E948F
:101F4000B20F0C9423100E94151038F00E941C1040
:101F500020F0952311F00C940C100C941210112405
:101F60000C9457100E94341070F3959FC1F3950F95
:101F700050E0551F629FF001729FBB27F00DB11D0D
:101F8000639FAA27F00DB11DAA1F649F6627B00D9D
:101F9000A11D661F829F2227B00DA11D621F739F86
:101FA000B00DA11D621F839FA00D611D221F749F94
:101FB0003327A00D611D231F849F600D211D822FDB
:101FC000762F6A2F11249F5750409AF0F1F0882302
:101FD0004AF0EE0FFF1FBB1F661F771F881F91502F
:101FE0005040A9F79E3F510580F00C940C100C94C2
:101FF00057105F3FE4F3983ED4F386957795679545
:10200000B795F795E7959F5FC1F7FE2B880F911D58
:102010009695879597F9089597F99F6780E870E0FE
:1020200060E008959FEF80EC089500240A9416164E
:10203000170618060906089500240A9412161306B6
:10204000140605060895092E0394000C11F4882344
:1020500052F0BB0F40F4BF2B11F460FF04C06F5F60
:102060007F4F8F4F9F4F089557FD9058440F551F36
:1020700059F05F3F71F04795880F97FB991F61F00A
:102080009F3F79F087950895121613061406551F81
:10209000F2CF4695F1DF08C0161617061806991FED
:1020A000F1CF86957105610508940895E894BB27E2
:1020B00066277727CB0197F90895A1E21A2EAA1B6C
:1020C000BB1BFD010DC0AA1FBB1FEE1FFF1FA217E8
:1020D000B307E407F50720F0A21BB30BE40BF50BE5
:1020E000661F771F881F991F1A9469F7609570956E
:1020F000809590959B01AC01BD01CF010895EE0F35
:10210000FF1F881F8BBF0790F691E02D1994505840
:10211000BB27AA270E949F100C9423100E94151021
:1021200038F00E941C1020F039F49F3F19F426F477
:102130000C9412100EF4E095E7FB0C940C10E92FB0
:102140000E94341058F3BA17620773078407950783
:1021500020F079F4A6F50C9456100EF4E0950B2EB1
:10216000BA2FA02D0B01B90190010C01CA01A001E9
:102170001124FF27591B99F0593F50F4503E68F144
:102180001A16F040A22F232F342F4427585FF3CF85
:10219000469537952795A795F0405395C9F77EF456
:1021A0001F16BA0B620B730B840BBAF09150A1F09F
:1021B000FF0FBB1F661F771F881FC2F70EC0BA0F25
:1021C000621F731F841F48F4879577956795B795AD
:1021D000F7959E3F08F0B0CF9395880F08F09927A8
:1021E000EE0F9795879508950E9408110C9423107F
:1021F0000E941C1058F00E94151040F029F45F3F17
:1022000029F00C940C1051110C9457100C941210CE
:102210000E94341068F39923B1F3552391F3951B71
:10222000550BBB27AA2762177307840738F09F5FF7
:102230005F4F220F331F441FAA1FA9F335D00E2E64
:102240003AF0E0E832D091505040E695001CCAF7D1
:102250002BD0FE2F29D0660F771F881FBB1F261794
:1022600037074807AB07B0E809F0BB0B802DBF016B
:10227000FF2793585F4F3AF09E3F510578F00C943A
:102280000C100C9457105F3FE4F3983ED4F38695FE
:1022900077956795B795F7959F5FC9F7880F911D5B
:1022A0009695879597F90895E1E0660F771F881F47
:1022B000BB1F621773078407BA0720F0621B730BFA
:1022C000840BBA0BEE1F88F7E09508950E946D11FC
:1022D0006894B1110C94571008950E943C1088F036
:1022E0009F5798F0B92F9927B751B0F0E1F0660FDA
:1022F000771F881F991F1AF0BA95C9F714C0B1301B
:1023000091F00E945610B1E008950C945610672F7A
:10231000782F8827B85F39F0B93FCCF38695779549
:102320006795B395D9F73EF4909580957095619532
:102330007F4F8F4F9F4F08950E947B0F08F48FEFC0
:1023400008950E947B0F880B990B0895CF93DF931C
:102350008230910510F482E090E0E091AB07F091BB
:10236000AC0720E030E0C0E0D0E0309711F14081D0
:10237000518148175907C0F04817590761F4828105
:102380009381209719F09B838A832BC09093AC078D
:102390008093AB0726C02115310519F0421753076A
:1023A00018F49A01BE01DF01EF010280F381E02DF4
:1023B000DCCF2115310509F1281B390B24303105FB
:1023C00090F412968D919C9113976115710521F0EF
:1023D000FB019383828304C09093AC078093AB0787
:1023E000FD01329644C0FD01E20FF31F81939193EA
:1023F000225031092D933C933AC02091A907309186
:10240000AA07232B41F42091030230910402309358
:10241000AA072093A90720910102309102022115F9
:10242000310541F42DB73EB74091050250910602A7
:10243000241B350BE091A907F091AA07E217F307D7
:10244000A0F42E1B3F0B2817390778F0AC014E5F24
:102450005F4F2417350748F04E0F5F1F5093AA07B0
:102460004093A9078193919302C0E0E0F0E0CF018F
:10247000DF91CF9108950F931F93CF93DF93009730
:1024800009F48CC0FC013297138212820091AB07D1
:102490001091AC070115110581F420813181820F63
:1024A000931F2091A9073091AA072817390779F5BA
:1024B000F093AA07E093A90771C0D80140E050E06B
:1024C000AE17BF0750F412962D913C911397AD01B2
:1024D0002115310509F1D901F3CF9D01DA013383CB
:1024E000228360817181860F971F8217930769F499
:1024F000EC0128813981260F371F2E5F3F4F318332
:1025000020838A819B8193838283452B29F4F093D6
:10251000AC07E093AB0742C01396FC93EE9312977F
:10252000ED01499159919E01240F351FE217F307E0
:1025300071F480819181840F951F029611969C936E
:102540008E938281938113969C938E931297E0E0F1
:10255000F0E0D80112968D919C911397009719F095
:10256000F8018C01F6CF8D919C9198012E5F3F4F21
:10257000820F931F2091A9073091AA0728173907C6
:1025800069F4309729F41092AC071092AB0702C09F
:10259000138212821093AA070093A907DF91CF91AB
:1025A0001F910F9108956F927F928F929F92AF9299
:1025B000BF92CF92DF92EF92FF920F931F93CF9330
:1025C000DF93EC01009789F4CB01DF91CF911F914C
:1025D0000F91FF90EF90DF90CF90BF90AF909F90C2
:1025E0008F907F906F900C94A611FC01E60FF71F5F
:1025F0009C0122503109E217F30708F4ACC0D9015D
:102600000D911C91119706171707B0F005301105B1
:1026100008F49FC0C80104978617970708F499C06B
:1026200002501109061B170B019311936D937C93B4
:10263000CF010E943B128DC05B01A01AB10A4C0170
:10264000800E911EA091AB07B091AC0740E050E026
:10265000E12CF12C109709F44AC0A815B905D1F561
:102660006D907C901197630182E0C80ED11CCA1452
:10267000DB0480F1A3014A195B096A0182E0C80EFC
:10268000D11C1296BC9012971396AC91B5E0CB1664
:10269000D10440F0B282A38351834083D9016D936A
:1026A0007C930AC00E5F1F4FC301800F911FF90179
:1026B00091838083EB2DFA2FE114F10431F0D701DF
:1026C0001396FC93EE93129744C0F093AC07E093FB
:1026D000AB073FC08D919C9111974817590708F49B
:1026E000AC017D0112960D90BC91A02DB3CF8091CD
:1026F000A9079091AA0788159905E1F4461757078D
:10270000C8F48091010290910202009741F48DB7C4
:102710009EB74091050250910602841B950BE81765
:10272000F907C8F4F093AA07E093A907F9017183A8
:1027300060830FC0CB010E94A6117C01009759F065
:10274000A801BE010E94C113CE010E943B12C70125
:1027500004C0CE0102C080E090E0DF91CF911F91D4
:102760000F91FF90EF90DF90CF90BF90AF909F9030
:102770008F907F906F90089581E090E0F8940C9492
:10278000D113FB01DC0102C001900D924150504079
:10279000D8F70895FB01DC0101900D920020E1F7CC
:1027A000089511E0CCE5D1E000E006C0802FFE01E5
:1027B0000E947F102196011DCD35D10780E00807CA
:0627C000A9F7F894FFCF19
:1027C600FF0000AD072000000000000000E8400008
:1027D600001041000000001F02EF01FA04E101E8C9
:1027E60001E501E20100000000C103010345030801
:1027F6000476035403680300000000D4040103FABE
:1028060004F904476F20746F2065746167652000C2
:1028160054656D7073203D20005669746573736549
:1028260020287365632F706F29203D200052504D7C
:10283600203D20005374617274004861757465759B
:102846007220696E697469616C65203D20000D0A0D
:10285600006E616E00696E66006F7666004E6220DD
:102866006465207374657073203D200053656E7334
:10287600203D2055700053656E73203D20446F77D0
:102886006E0056697465737365203D200044697354
:1028960074616E6365203D2000627265616B00485D
:1028A6006175746575722061637475656C6C6520FD
:0428B6003D200000C1
:00000001FF
