:100000000C94A5010C94D6010C94D6010C94D60145
:100010000C94D6010C94D6010C94D6010C94D60104
:100020000C94D6010C94290B0C94290B0C94290BDD
:100030000C94D6010C945E080C94D6010C94D60155
:100040000C94D6010C94F2030C94D6010C94D601B6
:100050000C94D6010C94D6010C94D6010C94AD07E7
:100060000C94D6010C9479150C944F150C94D60170
:100070000C94D6010C94D6010C94D6010C94D601A4
:100080000C94D6010C94D6010C94D6010C94D60194
:100090000C94D6010C94D6010C94D6010C94330B1D
:1000A0000C94D6010C94D6010C94D6010C94D60174
:1000B0000C94D6010C94D6010C94D6010C94A31583
:1000C0000C94D6010C94D6010C94D6010C942515F1
:1000D0000C94FB140C94D6010C94D1140C94A7141A
:1000E0000C94D60139033E0343034D035703D00359
:1000F0006103690371037B0385038F039E03A803D8
:10010000D003B203BC03C603CF09D209C109C50994
:10011000CB09090AD609DA09E009E409E809EE0978
:10012000F209F609090AFC09000A040A0C943903C9
:100130000C94F6090C94C5090C94A9100C9469034D
:100140000C9430090C94480F0C94000A0C9429105C
:100150000C949E030C9420110C9485030C94D901EB
:100160000C94BC030C94930F0C9457030C94AB07A2
:100170000C948F030C94DA0F0C942F090C944D03FC
:100180000C943A0F0C94CB090C94260F0C94C109D3
:100190000C94541E0C94E8090C94BE100C94380274
:1001A0000C94D3100C943E090C9461030C94FC1E27
:1001B0000C94EE090C94D30E0C94FC090C94E409F5
:1001C0000C94040A0C94170F0C94B2030C943E0385
:1001D0000C94DC010C9455090C94E0090C94D209A0
:1001E0000C9443030C9485090C9471030C94071F21
:1001F0000C94A8030C94DA090C94D0030C94D80145
:100200000C94CF090C94F2090C9487190C944D09A5
:100210000C94C6030C9413020C947B030C94090AEF
:100220000C94D6090200002100240027002A002D8A
:10023000003000330001010000040107010A010041
:10024000002200250028002B002E0031003400027F
:10025000010000050108010B010000200023002619
:100260000029002C002F00320000010000030106CD
:10027000010901050505050705080808080202022D
:10028000020A0A0808040404040101010101010131
:10029000010303030303030303040707070C0C0C08
:1002A0000C0C0C0C0C0202020206060606060606E0
:1002B000060B0B0B0B0B0B0B0B010210202008087D
:1002C00010204010204080020102010804020101B8
:1002D00002040810204080804020100804020180A1
:1002E00004020180402010080402010804020101F8
:1002F0000204081020408001020408102040800001
:10030000000A0B02090C0D0E08070304010000008F
:1003100000000000000000000000000000000000DD
:10032000000000000000000000000012111000009A
:1003300000000000000000000000000000000000BD
:10034000000000000000071F871911241FBECFEF17
:10035000D1E2DEBFCDBF00E00CBF13E0A0E0B2E011
:10036000ECEEFBE400E00BBF02C007900D92A2345C
:10037000B107D9F728E0A2E4B3E001C01D92AF3382
:10038000B207E1F711E0C4EAD1E000E006C021972E
:100390000109802FFE010E949222C33AD10780E01A
:1003A0000807A9F70E94C7190C94E4250C940000D3
:1003B000089580E090E0089580915B0390915C0344
:1003C000019690935C0380935B030895E0914A0348
:1003D000F0914B031994FC01248131E030930A041D
:1003E00020932C0410920B0410922D048485682B0A
:1003F0008EE294E00E9485090C94CD160F931F9312
:10040000CF938C01C62F64600E94EB016C2F6B7F31
:10041000C8010E94EB0183EC90E00197F1F7CF91C6
:100420001F910F9108950F931F93CF93DF938C012A
:10043000C62FD62FD07FD1606D2F0E94EB016D2F7C
:10044000C8010E94FE0180E1C89FB0011124C62F9F
:10045000C1606C2FC8010E94EB016C2FC8010E9483
:10046000FE0181E090E0DF91CF911F910F910895FF
:100470000F931F93CF93DF93CDB7DEB728970FB6B7
:10048000F894DEBF0FBECDBF28EE33E040E050E071
:1004900068E873E1809105080E9441118BE792E0C2
:1004A0000E94381867E972E0CE0101960E9449085F
:1004B00087ED94E00E94480F892BF9F087ED94E0D6
:1004C0000E94260F8F8318860D811E810F5F1F4F9C
:1004D000B801CE0101960E94F707882349F32981CC
:1004E0003A818D819E81BE01695F7F4F820F931F8C
:1004F0000E94DD251E830D83DBCF80912007909124
:1005000021070097C9F069817A816115710591F021
:1005100040912207509123072D813E8142175307B6
:1005200048F00E94DD258D819E8190932507809360
:10053000240718C00E944E2489819A819093210734
:10054000809320078B819C819093230780932207BF
:100550008D819E8190932507809324071A821982AA
:100560001C821B821E821D8289819A810E944E24D8
:100570004091240750912507609120077091210731
:1005800084E795E00E94D30E85E992E00E946C1604
:1005900081E090E090934D0380934C0328960FB632
:1005A000F894DEBF0FBECDBFDF91CF911F910F91A9
:1005B00008958F929F92AF92BF92CF92DF92EF9267
:1005C000FF920F931F93CF93DF93EC016A017B019E
:1005D00020E030E04FE753E4C701B6010E943D211F
:1005E0004B015C0120E030E0A9010E94AF23181606
:1005F0001CF4C501B40103C0C501B40190580E94A8
:1006000079238B0120E030E0A901C701B6010E94E7
:10061000AF23181614F460E001C061E089810E94E4
:100620008E0C0F3F110509F014F4112702C00FEFD3
:1006300010E0C88161E08C2F0E94BE0C01151105ED
:1006400009F4B1C00F3F110509F4AFC0EC2FF0E081
:10065000E150FD4FE4914E2F50E0FA013197E23125
:10066000F10508F09DC08827EE58FF4F8F4F0C947E
:10067000922284B5806884BD07BDA7C084B580621E
:1006800084BD08BDA2C080918000806880938000F6
:10069000109389000093880098C080918000806248
:1006A0008093800010938B0000938A008EC080910D
:1006B000800088608093800010938D0000938C00F0
:1006C00084C08091B00080688093B0000093B30034
:1006D0007CC08091B00080628093B0000093B40031
:1006E00074C080919000806880939000109399006E
:1006F000009398006AC0809190008062809390007F
:1007000010939B0000939A0060C0809190008860D5
:100710008093900010939D0000939C0056C08091A0
:10072000A00080688093A0008091A0008F7B8093C0
:10073000A0001093A9000093A80047C08091A000DA
:1007400080628093A0001093AB000093AA003DC08C
:100750008091A00088608093A0001093AD0000936A
:10076000AC0033C0809120018068809320011093F9
:1007700029010093280129C0809120018062809383
:10078000200110932B0100932A011FC080912001AA
:1007900088608093200110932D0100932C0115C0D7
:1007A0000038110514F460E001C061E08C2FDF9186
:1007B000CF911F910F91FF90EF90DF90CF90BF905E
:1007C000AF909F908F900C948E0CDF91CF911F91E2
:1007D0000F91FF90EF90DF90CF90BF90AF909F90E0
:1007E0008F9008951F920F920FB60F9211240BB69F
:1007F0000F922F933F934F935F936F937F938F93BA
:100800009F93AF93BF93EF93FF938091420387FF32
:1008100005C0109285001092840016C020914203FA
:10082000022E000C330B80911F0790E02817390728
:100830005CF43091420325E03203F0011124ED51C4
:10084000F94F808186FD15C0809142038F5F8093B0
:10085000420320914203022E000C330B80911F07AC
:1008600090E02817390794F4809142038C302CF1E2
:100870000DC0309142033203F0011124ED51F94FC4
:10088000808160E08F730E948E0CDECF80918400A7
:100890009091850084349C4918F480E49CE905C05B
:1008A00080918400909185000496909389008093B4
:1008B00088008FEF809342032AC0409184005091BA
:1008C00085003091420325E03203F0011124ED51FF
:1008D000F94F81819281840F951F909389008093B5
:1008E0008800309142033203F0011124ED51F94F99
:1008F000808186FF0CC0309142033203F001112445
:10090000ED51F94F808161E08F730E948E0CFF9151
:10091000EF91BF91AF919F918F917F916F915F9177
:100920004F913F912F910F900BBE0F900FBE0F90E4
:100930001F9018958EBD00000DB407FEFDCF8EB53B
:100940000895CF93DF93EC0160E088810E948E0CC4
:1009500088E90E949A0480E00E949A0480E00E9444
:100960009A0480E00E949A0480E00E949A0461E068
:1009700088810E948E0C8BE891E00197F1F760E08E
:1009800088810E948E0C80EE0E949A0461E088812A
:10099000DF91CF910C948E0CAF92BF92CF92DF92E9
:1009A000EF92FF920F931F93CF93DF93CDB7DEB7F4
:1009B00060970FB6F894DEBF0FBECDBF5C0160E05C
:1009C000FC0180810E948E0C80E60E949A048E01B8
:1009D0000F5F1F4F7E01F1E1EF0EF11C680180E017
:1009E0000E949A0490E0A0E0B0E0F6018193919318
:1009F000A193B1936F01EE15FF0589F761E0F50151
:100A000080810E948E0C80E090E0DC01F801419131
:100A10005191619171918F01BA2FA92F982F882739
:100A2000840F951FA61FB71FEE15FF0579F79C01D0
:100A3000AD0166277727CB01621B730B840B950BE7
:100A400060960FB6F894DEBF0FBECDBFDF91CF9199
:100A50001F910F91FF90EF90DF90CF90BF90AF90DC
:100A600008958F929F92AF92BF92CF92DF92EF92B2
:100A7000FF924DEC5CEC6CE47EE38DE198E00E942B
:100A8000D9024DEC5CEC6CE47EE38FE198E00E94CF
:100A9000D90281E298E00E94CC0481E298E00E94B1
:100AA000A10483E298E00E94CC0483E298E00E94D3
:100AB000A10481E298E00E94CC0490958095709505
:100AC00061957F4F8F4F9F4F0E94DE2029EA35E8C6
:100AD00041EC51E40E943D2120E030E048E455E43F
:100AE0000E9407234B015C0183E298E00E94CC0442
:100AF0000E94DE2029EA35E841EC51EC0E943D21BC
:100B000020E030E048E455E40E9407236B017C01BB
:100B100028E631E142EF51E4C501B4010E94AF2360
:100B200018163CF440E050E0BA018DE198E00E94D4
:100B3000D90228E631E142EF51E4C701B6010E9433
:100B4000AF23181644F440E050E060E070E88FE115
:100B500098E00E94D90228E631E142EF51E4C50154
:100B6000B4010E94D72087FDA4CF28E631E142EFEF
:100B700051E4C701B6010E94D72087FD9ACF6AEFE2
:100B800070E080E090E0FF90EF90DF90CF90BF901A
:100B9000AF909F908F900C94FA0C4F925F926F924F
:100BA0007F928F929F92AF92BF92CF92DF92EF92FD
:100BB000FF92CF93DF93CDB7DEB728970FB6F894A7
:100BC000DEBF0FBECDBFBC01990F880B990B0E94F1
:100BD000DE206B017C012DEC3CEC4CE45EE30E94DA
:100BE0003D214B015C01AB01BC018DE198E00E940D
:100BF000D902B501A4018FE198E00E94D90281E2F7
:100C000098E00E94CC0481E298E00E94A10483E273
:100C100098E00E94CC0483E298E00E94A10429EAB3
:100C200035E841EC51E4C701B6010E943D216983DA
:100C30007A838B839C8381E298E00E94CC04909518
:100C40008095709561957F4F8F4F9F4F0E94DE205A
:100C50009B01AC0169817A818B819C810E943D213D
:100C600020E030E048E455E40E9407234B015C019A
:100C700083E298E00E94CC042B013C0129EA35E88C
:100C800041EC51ECC701B6010E943D216D837E838A
:100C90008F839887C301B2010E94DE209B01AC01C3
:100CA0006D817E818F8198850E943D2120E030E01A
:100CB00048E455E40E9407232B013C012FEE36EF58
:100CC00045E651E4C501B4010E94AF2318163CF477
:100CD00040E050E0BA018DE198E00E94D9022FEE89
:100CE00036EF45E651E4C301B2010E94AF23181666
:100CF00044F440E050E060E070E88FE198E00E944A
:100D0000D90241E06DE277E08BE297E00E942F0A82
:100D10002FEE36EF45E651E4C501B4010E94D7201D
:100D200087FD89CF2FEE36EF45E651E4C301B201CE
:100D30000E94D72087FD7FCF28960FB6F894DEBF9C
:100D40000FBECDBFDF91CF91FF90EF90DF90CF909E
:100D5000BF90AF909F908F907F906F905F904F90DB
:100D600008954F925F926F927F928F929F92AF926F
:100D7000BF92CF92DF92EF92FF92CF93DF9300D09A
:100D80001F92CDB7DEB749835A836B837C83BC0146
:100D9000990F880B990B0E94DE204B015C012DEC12
:100DA0003CEC4CE45EE30E943D216B017C01AB0115
:100DB000BC018DE198E00E94D902B701A6017058EC
:100DC0008FE198E00E94D90281E298E00E94CC0471
:100DD00081E298E00E94A104C12CD12C76012981E6
:100DE0003A814B815C81C701B6010E94D72087FF01
:100DF0002FC081E298E00E94CC046B017C0129EABB
:100E000035E841EC51E4C501B4010E943D212B01BC
:100E10003C0166277727CB016C197D098E099F0954
:100E20000E94DE209B01AC01C301B2010E943D2162
:100E300020E030E048E455E40E9407236B017C0188
:100E400041E06DE277E08BE297E00E942F0AC7CF86
:100E500040E050E0BA018DE198E00E94D90240E004
:100E600050E060E070E88FE198E00F900F900F90F5
:100E70000F90DF91CF91FF90EF90DF90CF90BF90D8
:100E8000AF909F908F907F906F905F904F900C9459
:100E9000D902CF92DF92EF92FF920F931F93CF93DD
:100EA000DF93C6E4D7E000E517E00E94C70ECE80CE
:100EB000DF80E884F984C616D706E806F906C8F587
:100EC000F80180818823A9F18B859C85AD85BE853D
:100ED000892B8A2B8B2B69F1E881F98119958B85F8
:100EE0009C85AD85BE85181619061A061B068CF45E
:100EF0008F859889A989BA890197A109B1098F8736
:100F0000988BA98BBA8B892B8A2B8B2B11F4F80128
:100F100010820E94C70ECA80DB80EC80FD80DC015D
:100F2000CB018C0D9D1DAE1DBF1D8E839F83A88799
:100F3000B98763960D5E1F4FF8E0C430DF0709F0F4
:100F4000B4CFDF91CF911F910F91FF90EF90DF9081
:100F5000CF90089508950E94CF251F920F920FB64B
:100F60000F9211242F933F938F939F93AF93BF932F
:100F70008091510390915203A0915303B091540377
:100F80003091500323E0230F2D3720F40196A11D4B
:100F9000B11D05C026E8230F0296A11DB11D2093A7
:100FA00050038093510390935203A0935303B09343
:100FB00054038091550390915603A0915703B0912B
:100FC00058030196A11DB11D8093550390935603BC
:100FD000A0935703B0935803BF91AF919F918F9106
:100FE0003F912F910F900FBE0F901F9018950F9368
:100FF0001F93CF93DF93EC0188819981009729F0AB
:101000002A813B812617370788F48B016F5F7F4F5A
:101010000E94E624009761F0998388831B830A83EA
:101020002C813D81232B11F4FC01108281E001C051
:1010300080E0DF91CF911F910F910895EF92FF9281
:101040000F931F93CF93DF93EC017B018A01BA01C9
:101050000E94F7072881398181110DC021153105C2
:1010600019F0C9010E944E24198218821D821C8227
:101070001B821A8206C01D830C83B701C9010E941E
:10108000DD25CE01DF91CF911F910F91FF90EF9061
:101090000895FC011182108213821282158214823B
:1010A0006115710551F0FB0101900020E9F73197BE
:1010B000AF01461B570B0C941E0808951F920F9208
:1010C0000FB60F9211240BB60F922F933F934F93AD
:1010D0005F936F937F938F939F93AF93BF93EF93A0
:1010E000FF938091460390914703A0914803B091EC
:1010F0004903892B8A2B8B2B59F180914503E09171
:101100004303F091440390818927808380914603B3
:1011100090914703A0914803B0914903181619060E
:101120001A061B060CF056C08091460390914703A7
:10113000A0914803B09149030197A109B109809397
:10114000460390934703A0934803B093490342C0DA
:1011500080910002E4E2F2E0E4919FEF90930002BC
:10116000E230C9F050F4EE2399F0E13081F590912E
:101170006F009D7F90936F002AC0E43019F1E0F07A
:10118000E53029F5909173009D7F909373001FC007
:1011900010926E001CC0909170009D7F9093700023
:1011A00091E09093B0009091B100987F94609093FB
:1011B000B1001092B3000BC0909171009D7F90938D
:1011C000710005C0909172009D7F9093720060E065
:1011D0000E948E0CFF91EF91BF91AF919F918F91E3
:1011E0007F916F915F914F913F912F910F900BBE27
:1011F0000F900FBE0F901F90189585ED8093BC0047
:101200008091BC0084FDFCCF1092090408954091A8
:101210007F03262F30E0240F311D21323105DCF40D
:10122000209109042430C9F4FC0180E090E0861785
:1012300058F430917F032191DC01A35ABC4FA30FD6
:10124000B11D2C930196F3CF80917F03680F6093BB
:101250007F0380E0089581E0089582E00895089575
:1012600081E090E030915A0320915903321710F435
:1012700080E090E0919581959109089580915A03BD
:1012800090915903891730F48F5F80935A0380E05F
:1012900090E008958FEF9FEF08958091590390E0BB
:1012A00020915A03821B91090895CF92DF92EF9209
:1012B000FF920F931F93CF93DF937C01262F972FDD
:1012C0008A0180910A04882391F0C62FD72F6E01DE
:1012D000C40ED51ECC15DD0571F06991D701ED91D5
:1012E000FC910190F081E02DC7011995F3CF642F97
:1012F000822F0E940709C801DF91CF911F910F91A2
:10130000FF90EF90DF90CF900895CF93DF931F92DF
:10131000CDB7DEB7698320910A042223D1F0209152
:101320002D04203240F021E030E0FC0133832283A1
:1013300080E090E015C080910B04E82FF0E0E45FBE
:10134000FB4F998190838F5F80930B0480932D04D2
:1013500005C061E0CE0101960E94070981E090E09E
:101360000F90DF91CF91089590E0FC013197E23129
:10137000F10508F04EC08827EC57FF4F8F4F0C94B3
:101380009222809180008F7703C0809180008F7DB2
:1013900080938000089580918000877FF9CF84B585
:1013A0008F7702C084B58F7D84BD08958091B00091
:1013B0008F7703C08091B0008F7D8093B000089537
:1013C000809190008F7707C0809190008F7D03C03F
:1013D00080919000877F8093900008958091A00075
:1013E0008F7707C08091A0008F7D03C08091A000FF
:1013F000877F8093A0000895809120018F7707C098
:10140000809120018F7D03C080912001877F809390
:10141000200108953FB7F8948091550390915603A9
:10142000A0915703B091580326B5A89B05C02F3F44
:1014300019F00196A11DB11D3FBFBA2FA92F982FFA
:101440008827820F911DA11DB11DBC01CD0142E075
:10145000660F771F881F991F4A95D1F708952F921D
:101460003F924F925F927F928F929F92AF92BF92E4
:10147000CF92DF92EF92FF920F931F93CF93DF9360
:10148000CDB7DEB7C056D1090FB6F894DEBF0FBE98
:10149000CDBF7C016B01742EDB018D919C91892B5A
:1014A00031F0F70180819181892BD9F41DC08091A1
:1014B000350790E0880F991F0E94B923D6018D93BC
:1014C0009C93009709F4ACC02091350730E0FC01F3
:1014D00080E090E08217930724F711921192019611
:1014E000F9CF00E010E01EC08091350790E0880F32
:1014F000991F0E94B923F70191838083009709F413
:101500008FC02091350730E0409137075091380760
:10151000FC0180E090E0821793071CF74193519300
:101520000196F9CFE0912907F0912A070190F08107
:10153000E02D472DBE016F5B7F4F89E297E0199543
:1015400040903507512CCE0101964C01FE01EF5B16
:10155000FF4FDE0191965D019D011C0180E090E04E
:10156000841595054CF50115110589F0D9016D918A
:101570007C91408151816417750748F0D1016D91CC
:101580007C91408151814617570748F00DC040813A
:101590005181D9014D935C930115110579F7408173
:1015A0005181D1014D935C930196B2E02B0E311C19
:1015B00032962E5F3F4FD4CF0F5F1F4F0A30110579
:1015C00009F0B0CF20E030E08091350790E0281797
:1015D000390734F5F401419151914F01C901880F48
:1015E000991FD601ED91FC91E80FF91F608171817F
:1015F0006417750710F451834083F50141915191AF
:101600005F01D701ED91FC91E80FF91F8081918175
:101610004817590710F4518340832F5F3F4FD4CFB1
:10162000C05ADF4F0FB6F894DEBF0FBECDBFDF91BB
:10163000CF911F910F91FF90EF90DF90CF90BF90CF
:10164000AF909F908F907F905F904F903F902F90A2
:1016500008951F920F920FB60F9211240F900FBE94
:101660000F901F9018951F920F920FB60F92112492
:101670000BB60F922F933F934F935F936F937F938C
:101680008F939F93AF93BF93EF93FF938091B90094
:10169000887F803609F49CC068F5883209F45BC005
:1016A00090F4803109F454C038F4882309F4F6C06A
:1016B000883009F44DC0F6C0883109F44CC080323E
:1016C00009F45DC0EFC0803409F468C048F4803389
:1016D00009F455C0883309F0E5C080930704D8C0E9
:1016E000803509F44FC0883509F45DC0883409F0AD
:1016F000D9C0D6C0883909F4C7C0A8F4883709F41E
:1017000067C038F4883609F463C0803709F460C0D4
:10171000C9C0883809F4B8C0803909F45FC080387E
:1017200009F0C0C05BC0803B09F486C038F4803A41
:1017300009F466C0883A09F47FC0B4C0803C09F45B
:10174000A7C0883C09F4A4C0883B09F48AC0AAC099
:101750008091E40310C090910604809105049817CD
:1017600070F5E091060481E08E0F80930604F0E0AE
:10177000EB51FC4F80818093BB0085EC86C0809349
:1017800007048EC0E091060481E08E0F809306046A
:101790008091BB00F0E0EB51FC4F808390910604F8
:1017A000809105046EC0E091060481E08E0F809365
:1017B00006048091BB00F0E0EB51FC4F80838091E8
:1017C000080481116DC081E08093E30384EA61C065
:1017D00083E0809309041092A303CFCF8091A303E9
:1017E000803208F051C0E091A30381E08E0F809316
:1017F000A3038091BB00F0E0ED57FC4F8083BDCF89
:1018000085EC8093BC00109209048091A303803280
:1018100030F4E091A303F0E0ED57FC4F10826091AB
:10182000A30370E0E0918103F091820383E893E0E9
:1018300019951092A30336C084E080930904109296
:10184000800310927F03E0917D03F0917E03199550
:1018500080917F03811105C081E080937F03109206
:101860005D03E091800381E08E0F80938003F0E0C0
:10187000E35AFC4F80818093BB009091800380915C
:101880007F03981708F479CF85E88093BC000AC0DD
:1018900085EC8093BC001092090404C010920704E8
:1018A0000E94FD08FF91EF91BF91AF919F918F91A1
:1018B0007F916F915F914F913F912F910F900BBE50
:1018C0000F900FBE0F901F901895CF93DF93282F86
:1018D00030E0F901E150FD4F8491F901E754FD4FEB
:1018E000D491F901ED58FD4FC491CC2391F08111B1
:1018F0000E94B409EC2FF0E0EE0FFF1FE75AFD4FF6
:10190000A591B491EC91ED2381E090E021F480E089
:1019100002C080E090E0DF91CF9108951F93CF93B4
:10192000DF93282F30E0F901E150FD4F8491F90158
:10193000E754FD4FD491F901ED58FD4FC491CC23EC
:10194000C9F0162F81110E94B409EC2FF0E0EE0FC0
:10195000FF1FE15CFD4FA591B4918FB7F894111171
:1019600005C09C91ED2FE095E92302C0EC91ED2B91
:10197000EC938FBFDF91CF911F910895CF93DF93A9
:1019800090E0FC01E754FD4F2491FC01ED58FD4F20
:101990008491882361F190E0880F991FFC01EB5D31
:1019A000FD4FC591D491FC01E15CFD4FA591B4912F
:1019B000611109C09FB7F89488812095822388839C
:1019C000EC912E230BC0623061F49FB7F8943881FC
:1019D000822F809583238883EC912E2B2C939FBF9D
:1019E00006C08FB7F894E8812E2B28838FBFDF9134
:1019F000CF9108958F929F92AF92BF92CF92DF9234
:101A0000EF92FF926B017C010E940A0A4B015C017C
:101A1000C114D104E104F104F1F00E940A0ADC01CE
:101A2000CB0188199909AA09BB09883E9340A105F1
:101A3000B10570F321E0C21AD108E108F10888EE7F
:101A4000880E83E0981EA11CB11CC114D104E104CE
:101A5000F10419F7DDCFFF90EF90DF90CF90BF90AA
:101A6000AF909F908F9008952F923F924F925F92E8
:101A70006F927F928F929F92AF92BF92CF92DF929E
:101A8000EF92FF920F931F93CF93DF93CDB7DEB703
:101A900027970FB6F894DEBF0FBECDBF9D838C8312
:101AA00040E050E060E87EE38DE198E00E94D902DA
:101AB00040E050E060E87EEB8FE198E00E94D902C0
:101AC00000E010E0712C612C512C412CEC81FD8147
:101AD0000E171F070CF058C08AE0E82EF12CA12C3D
:101AE000B12C6AE070E080E090E00E94FA0C0E9465
:101AF00014194FEC53E05A834983FA018191919173
:101B000021E08E35914008F420E0C22ED12C83E0F4
:101B1000EF3DF80721F02111F1CFC12CD12C0E940B
:101B20004907AC0CBD1C91E0E91AF108D1F6A3E01D
:101B3000AA16B1040CF465C080915B0390915C031C
:101B40002091AA033091AB03FC01E21BF30B1E169C
:101B50001F060CF056C00F5F1F4F9093AB0380938E
:101B6000AA0324E630E040E050E060ED77E08091A9
:101B700005080E944111272C362C5B824982722C69
:101B8000632C5B804980A2CF4DEC5CEC6CE47EE37F
:101B90008DE198E00E94D9024DEC5CEC6CE47EEBA8
:101BA0008FE198E00E94D9026CE271E080E090E061
:101BB0000E94FA0C40E050E0BA018DE198E00E94EA
:101BC000D90240E050E060E070E88FE198E02796AD
:101BD0000FB6F894DEBF0FBECDBFDF91CF911F913E
:101BE0000F91FF90EF90DF90CF90BF90AF909F90BC
:101BF0008F907F906F905F904F903F902F900C94BC
:101C0000D9020E941419F0913507FB83812C912C85
:101C10005401E0E0F0E0C12CD12C7601212C312CD4
:101C20008B81381629F1A981BA814D915D91BA83D2
:101C3000A9835F834E83493C510524F44333510506
:101C40007CF002C022242394AE81BF81A5019401BF
:101C50000E942522C60ED71EE81EF91EEA0FFB1FA2
:101C6000339458EE850E53E0951EA11CB11CD8CFBD
:101C700021101DC0832D90E00197A4EFB1E08A9F51
:101C800090018B9F300D9A9F300D112440913907A0
:101C900050913A0742175307BCF028EE33E0829F79
:101CA000B001839F700D929F700D11240FC09F0192
:101CB00040E050E0C701B6010E942D22B9013093E7
:101CC0003A072093390702C060E070E0072E000C4D
:101CD000880B990B0E94DE2020E030E44CE155E4B3
:101CE0000E949A221B018B8399832091A603309135
:101CF000A7034091A8035091A9030E949B226B0166
:101D00007C016093A6037093A7038093A80390932C
:101D1000A9032CEA35EC47EA57E3B1018B8199819D
:101D20000E943D2120E030E040E85EE30E949B22DB
:101D30004B015C0125E93FEB46ED54E3C701B601D9
:101D40000E943D219B01AC01C501B4010E949B2270
:101D50006B017C01272D362D452D542DB1018B8132
:101D600099810E949A2227E137EB41E558E30E94CE
:101D70003D219B01AC01C701B6010E949B22AB0132
:101D8000BC0170588FE198E00E94D902F8CE2FB7BD
:101D9000F894609151037091520380915303909194
:101DA00054032FBF0895CF92DF92EF92FF920F93CB
:101DB0001F93CF93DF936C017A018B01C0E0D0E0D9
:101DC000CE15DF0589F0D8016D918D01D601ED9119
:101DD000FC910190F081E02DC6011995892B11F439
:101DE0007E0102C02196ECCFC701DF91CF911F91F8
:101DF0000F91FF90EF90DF90CF900895FC01A089A4
:101E0000B1898C91A689B78982FD0FC09C91818D83
:101E10008F5F8F73228D821749F0218DDF01A20F12
:101E2000B11D5D969C93818F08958C910895FC015E
:101E3000538D448D252F30E0842F90E0821B930B2F
:101E4000541710F0CF96089501970895FC01918DD5
:101E5000828D981761F0828DDF01A80FB11D5D960C
:101E60008C91928D9F5F9F73928F90E008958FEF7A
:101E70009FEF0895FC01918D828D981731F0828D2E
:101E8000E80FF11D858D90E008958FEF9FEF089585
:101E9000FC01918D228D892F90E0805C9F4F821BE9
:101EA00091098F73992708958AE394E00E94480F5F
:101EB00021E0892B09F420E0822F089587ED94E03A
:101EC0000E94480F21E0892B09F420E0822F089519
:101ED00084E795E00E94480F21E0892B09F420E077
:101EE000822F0895FC01848DDF01A80FB11DA35A34
:101EF000BF4F2C91848D90E001968F739927848F2A
:101F0000A689B7892C93A089B1898C9180648C9320
:101F1000938D848D981306C00288F389E02D80810B
:101F20008F7D80830895EF92FF920F931F93CF933D
:101F3000DF93EC0181E0888F9B8D8C8D981305C019
:101F4000E889F989808185FD24C0F62E0B8D10E08B
:101F50000F5F1F4F0F731127E02E8C8DE8120CC0FE
:101F60000FB607FCFACFE889F989808185FFF5CFA4
:101F7000CE010E94720FF1CF8B8DFE01E80FF11D93
:101F8000E35AFF4FF0820B8FEA89FB8980818062E0
:101F900007C0EE89FF896083E889F98980818064C0
:101FA000808381E090E0DF91CF911F910F91FF90AE
:101FB000EF900895CF93DF93EC01888D8823C9F0CB
:101FC000EA89FB89808185FD05C0A889B9898C9142
:101FD00086FD0FC00FB607FCF5CF808185FFF2CFDD
:101FE000A889B9898C9185FFEDCFCE010E94720F2F
:101FF000E7CFDF91CF91089580E090E0892B21F029
:102000000E94680F811119C080E090E0892B41F097
:1020100080E090E0892B21F00E940000811110C027
:102020000E945E0F81110FC080E090E0892B81F04B
:102030000E94540F81110AC008950E940000E4CF4D
:102040000E940000EDCF0E94E601EECF0C9400004C
:102050000895DF92EF92FF920F931F93CF93DF9338
:10206000CDB7DEB7EE970FB6F894DEBF0FBECDBF8B
:102070008C017B01D42E8FEF840FD801ED91FC9160
:10208000823020F40480F581E02D05C0411105C0A7
:102090000280F381E02DC8011995D801ED91FC91E2
:1020A0000084F185E02D20E041E0B701C8011995D9
:1020B000B5E0DB1609F43FC0D801ED91FC91028038
:1020C000F381E02DC8011995B2E0DB1234C0D801CC
:1020D000ED91FC910084F185E02D20E041E0BE010E
:1020E0006F5F7F4FC801199540E0D8011C968C9115
:1020F000481708F5842F90E0880F991FF701E80F23
:10210000F91F21E030E02C0F3D1F820F931FD801F3
:102110001E962D913C911F97DC018D919C91B901E8
:10212000681B790BCB0120813181820F931F918332
:1021300080834F5FDACFEE960FB6F894DEBF0FBE06
:10214000CDBFDF91CF911F910F91FF90EF90DF9066
:102150000895CF93DF93FC0185858F3F61F0EF01F8
:1021600061E00E94BE0C61E08D850E948E0C8BE1C7
:1021700093E00197F1F7DF91CF910895CF93DF932B
:10218000FC0185858F3F61F0EF0161E00E94BE0C8C
:1021900060E08D850E948E0C8BE193E00197F1F752
:1021A000DF91CF910895EF92FF920F931F93CF93FA
:1021B000DF931F92CDB7DEB77C018B01FC01138248
:1021C0001282158214821782168211861086118A55
:1021D000108A403218F08FE1848702C0FC014487E6
:1021E000F70182859385892B11F080E00DC0F701FE
:1021F000848590E029830E94B923F7019387828721
:102200002981892B91F714C0F7019485891778F4F7
:10221000482F50E0F801E40FF51F9081F701628527
:102220007385FB01E40FF51F90838F5FEDCF25874A
:102230000F90DF91CF911F910F91FF90EF90089534
:102240000F931F93CF93DF93EC01122F202FE88180
:10225000F9813697808191818C0F9D1F0E94D31048
:102260001A83E881F981369780819181C80FD91F3F
:102270008FEF93E09F878E87DF91CF911F910F9112
:1022800008953F924F925F926F927F928F929F92AA
:10229000AF92BF92CF92DF92EF92FF920F931F9374
:1022A000CF93DF9300D01F92CDB7DEB729013A015B
:1022B00090910002981721F09F3F09F032C304C0AB
:1022C000E4E2F2E0349004C180930002E4E2F2E040
:1022D000E491EF3F09F425C3E23009F480C074F5BE
:1022E000EE2309F45BC0E13009F0F1C010928000E8
:1022F000109281009091810098609093810090915C
:102300008100916090938100282F30E0F901ED5811
:10231000FD4FE491F0E0EE0FFF1FE15CFD4F4591B2
:1023200054915093B7034093B603F901E754FD4F1E
:10233000E491E093B50333243394CCC0E43009F442
:102340009EC00CF474C0E53009F0C1C010922001A9
:102350001092210190912101986090932101909118
:102360002101916090932101482F50E0FA01ED582E
:10237000FD4FE491F0E0EE0FFF1FE15CFD4F259172
:1023800034913093AE032093AD03FA01E754FD4F2F
:10239000E491E093AC03B5E03B2E9CC014BC15BCAB
:1023A00094B5926094BD95B5916095BD282F30E0AD
:1023B000F901ED58FD4FE491F0E0EE0FFF1FE15CF5
:1023C000FD4F459154915093BA034093B903F901DD
:1023D000E754FD4FE491E093B803312C7BC0109299
:1023E000B0001092B1009091B00092609093B00054
:1023F0009091B10091609093B100282F30E0F901E5
:10240000ED58FD4FE491F0E0EE0FFF1FE15CFD4F52
:10241000459154915093440340934303F901E75489
:10242000FD4FE491E093450352E0352E53C01092E6
:10243000900010929100909191009860909391007B
:1024400090919100916090939100282F30E0F901D4
:10245000ED58FD4FE491F0E0EE0FFF1FE15CFD4F02
:10246000459154915093B4034093B303F901E75459
:10247000FD4FE491E093B20323E0322E2BC0109283
:10248000A0001092A1009091A10098609093A100EB
:102490009091A10091609093A100282F30E0F90164
:1024A000ED58FD4FE491F0E0EE0FFF1FE15CFD4FB2
:1024B000459154915093B1034093B003F901E7540F
:1024C000FD4FE491E093AF0304E0302E03C03E2EB5
:1024D00037FC27C28B0161E00E94BE0C4801A12C91
:1024E000B12C832D8D7F09F0BBC060E072E18AE7DB
:1024F00090E0A50194010E94FB2129833A834B833C
:102500005C8369017A0121E0C21AD108E108F1086F
:102510008FEFC816D104E104F10409F008F44CC0AF
:1025200060E472E48FE090E0A50194010E94FB2139
:1025300069017A0191E0C91AD108E108F108E2E0E5
:102540003E1220C0FFEFCF16D104E104F10409F0E0
:1025500008F4E5C160E970ED83E090E0A501940125
:102560000E94FB2169017A0181E0C81AD108E108C3
:10257000F1089FEFC916D104E104F10409F0D0F588
:1025800083E067C0EFEFCE16D104E104F104B1F0AF
:10259000A8F068E478EE81E090E0A50194010E9443
:1025A000FB2169017A01F1E0CF1AD108E108F108B5
:1025B000332009F45AC1AAC181E001C082E033206E
:1025C000A1F047C089819A81AB81BC812AE0B59591
:1025D000A795979587952A95D1F76C017D01F1E034
:1025E000CF1AD108E108F10885E095B5987F892BCD
:1025F00085BDA6C068E478EE81E090E0A501940175
:102600000E94FB2169017A0181E0C81AD108E10822
:10261000F1089FEFC916D104E104F10409F008F4B0
:1026200022C164E274EF80E090E0A50194010E9471
:10263000FB2169017A0181E0C81AD108E108F1089B
:102640009FEFC916D104E104F10411F008F02FC185
:1026500085E09091B100987F892B8093B10070C084
:1026600060E072E18AE790E0A50194010E94FB21FD
:1026700069017A01F1E0CF1AD108E108F108C1142B
:10268000D10421E0E206F10488F068E478EE81E00C
:1026900090E0A50194010E94FB2169017A0181E08B
:1026A000C81AD108E108F10883E001C081E091E097
:1026B000391210C090918100987F892B80938100FE
:1026C000411451046104710409F03FC02FEF3FEF42
:1026D000A90171C0E3E03E120FC090919100987F74
:1026E000892B80939100411451046104710469F5B0
:1026F0002FEF3FEFA90181C0F4E03F120FC090918E
:10270000A100987F892B8093A1004114510461049A
:102710007104D9F42FEF3FEFA90181C025E03212F7
:102720000FC090912101987F892B80932101411442
:1027300051046104710449F42FEF3FEFA90181C0F6
:10274000411451046104710471F0D801AA0FBB1F38
:10275000A30192010E941A2228EE33E040E050E0EB
:102760000E942D2203C02FEF3FEFA90182E038160F
:10277000A1F1831534F0332079F091E03916D9F0C6
:10278000D0C0E4E03E1609F44AC03E16B4F1F5E0CC
:102790003F1609F456C0C5C0C7BC2093CB03309385
:1027A000CC034093CD035093CE0380916E008260A2
:1027B00080936E00B6C0D0928900C09288002093AA
:1027C000C7033093C8034093C9035093CA03809151
:1027D0006F00826080936F00A4C0C092B30020930A
:1027E0004603309347034093480350934903809135
:1027F000700082608093700094C0D0929900C09263
:1028000098002093C3033093C4034093C5035093AF
:10281000C6038091710082608093710082C0D09263
:10282000A900C092A8002093BF033093C003409337
:10283000C1035093C2038091720082608093720042
:1028400070C0D0922901C09228012093BB0330931D
:10285000BC034093BD035093BE038091730082601C
:10286000809373005EC084E0F4CE2FEFC216D104D3
:10287000E104F104D1F0C8F062E17AE780E090E091
:10288000A50194010E94FB2169017A01E1E0CE1AC1
:10289000D108E108F108FFEFCF16D104E104F104FB
:1028A00011F008F08FCE84E0A0CE83E09ECE62E1EE
:1028B0007AE780E090E0A50194010E94FB21690184
:1028C0007A0181E0C81AD108E108F1089FEFC91622
:1028D000D104E104F104C1F0B8F089819A81AB819F
:1028E000BC814AE0B595A795979587954A95D1F70C
:1028F0006C017D01E1E0CE1AD108E108F108332036
:1029000009F472CE87E0A5CE86E059CEEFEFCE1661
:10291000D104E104F10409F050F684E050CE82E0E5
:1029200098CE0F900F900F900F90DF91CF911F9145
:102930000F91FF90EF90DF90CF90BF90AF909F905E
:102940008F907F906F905F904F903F9008951F926F
:102950000F920FB60F9211240BB60F922F933F9345
:102960004F935F936F937F938F939F93AF93BF9397
:10297000EF93FF938AE394E00E94720FFF91EF912F
:10298000BF91AF919F918F917F916F915F914F9187
:102990003F912F910F900BBE0F900FBE0F901F9085
:1029A00018951F920F920FB60F9211240BB60F922B
:1029B0002F933F934F935F936F937F938F939F9347
:1029C000AF93BF93EF93FF938AE394E00E94FE0ED0
:1029D000FF91EF91BF91AF919F918F917F916F91F7
:1029E0005F914F913F912F910F900BBE0F900FBEB3
:1029F0000F901F9018951F920F920FB60F921124EF
:102A00000BB60F922F933F934F935F936F937F93E8
:102A10008F939F93AF93BF93EF93FF9387ED94E0D2
:102A20000E94720FFF91EF91BF91AF919F918F9193
:102A30007F916F915F914F913F912F910F900BBEBE
:102A40000F900FBE0F901F9018951F920F920FB608
:102A50000F9211240BB60F922F933F934F935F93D6
:102A60006F937F938F939F93AF93BF93EF93FF9356
:102A700087ED94E00E94FE0EFF91EF91BF91AF9120
:102A80009F918F917F916F915F914F913F912F9186
:102A90000F900BBE0F900FBE0F901F9018951F92B6
:102AA0000F920FB60F9211240BB60F922F933F93F4
:102AB0004F935F936F937F938F939F93AF93BF9346
:102AC000EF93FF9384E795E00E94720FFF91EF91DF
:102AD000BF91AF919F918F917F916F915F914F9136
:102AE0003F912F910F900BBE0F900FBE0F901F9034
:102AF00018951F920F920FB60F9211240BB60F92DA
:102B00002F933F934F935F936F937F938F939F93F5
:102B1000AF93BF93EF93FF9384E795E00E94FE0E7F
:102B2000FF91EF91BF91AF919F918F917F916F91A5
:102B30005F914F913F912F910F900BBE0F900FBE61
:102B40000F901F9018951F920F920FB60F9211249D
:102B50000BB60F922F933F934F935F936F937F9397
:102B60008F939F93AF93BF93EF93FF938091120640
:102B70000E94650C20911606309117062F5F3F4F7B
:102B8000309317062093160690911506953618F087
:102B900096E090931106909111069430C9F128F4B3
:102BA000923069F09330D1F05EC0953009F451C095
:102BB000963009F058C091E09093E20651C081111F
:102BC00052C020911606309117062436310508F4BC
:102BD00042C01092E206109215061CC0813009F026
:102BE00042C0E091150691E09E0F90931506F0E02B
:102BF0002091160630911706EE0FFF1FEF5EF94F7A
:102C000030872783109217061092160694E029C089
:102C1000811117C0E091150691E09E0F9093150663
:102C2000F0E02091160630911706EE0FFF1FEF5EC1
:102C3000F94F30872783109217061092160693E0FB
:102C400010C020911606309117062536310558F030
:102C500007C0811108C0109217061092160603C013
:102C600095E090931106909114069923B9F0811183
:102C70000AC080911306882321F08091130661E039
:102C800009C02F9A0BC080911306882331F08091E0
:102C9000130660E00E948E0C01C02F98FF91EF9107
:102CA000BF91AF919F918F917F916F915F914F9164
:102CB0003F912F910F900BBE0F900FBE0F901F9062
:102CC0001895E0917405F09175050190F081E02D63
:102CD000682F84E795E01994009769F0FC01019052
:102CE0000020E9F73197AF01481B590BBC0184E77D
:102CF00095E00C94D30E80E090E008958F929F921F
:102D0000AF92BF920F931F93CF93DF93CDB7DEB7F0
:102D1000A1970FB6F894DEBF0FBECDBF19A2423007
:102D200008F44AE08E010F5D1F4F842E912CA12CD8
:102D3000B12CA50194010E942D22E62FB901CA01F0
:102D400001501109EA3014F4E05D01C0E95CD801DA
:102D5000EC93232B242B252B61F7C8010E946C16C2
:102D6000A1960FB6F894DEBF0FBECDBFDF91CF9115
:102D70001F910F91BF90AF909F908F900895CF9328
:102D8000DF930E946C16EC0185E992E00E946C16BC
:102D90008C0F9D1FDF91CF91089520912D0490916C
:102DA0002C04213208F04AC0809109048111FCCF23
:102DB00032E03093090431E0309308043FEF309360
:102DC00007041092060420930504ACE0B4E045EE3D
:102DD00053E0FA013E2F341B321718F43D91319322
:102DE000F9CF1092E4032091E403990F922B909372
:102DF000E4039091E303913061F41092E303909126
:102E0000E4039093BB009091BC0093FDF8CF95EC48
:102E100001C095EE9093BC00909109049230E1F3CB
:102E2000909107049F3F79F080910704803241F030
:102E300080910704803331F084E005C081E003C055
:102E400082E001C083E010920B0410922D041092D6
:102E50000A040895EF92FF921F93CF93DF931F927E
:102E6000CDB7DEB7162F94E0E92E98E0F92ED70102
:102E70001C969C911C9721E020930A0490932C04AB
:102E800010920B0410922D041A960D90BC91A02D57
:102E9000ED91FC9111970190F081E02D682FCD010B
:102EA00079831995F70182859385DC01ED91FC9179
:102EB0000190F081E02D7981672F1995F7018285C6
:102EC0009385DC01ED91FC910190F081E02D612F63
:102ED00019950F90DF91CF911F91FF90EF900C9477
:102EE000CD164F925F926F927F928F929F92AF9288
:102EF000BF92CF92DF92EF92FF926B017C019B0118
:102F0000AC010E94B423882319F08FED92E01AC01F
:102F100046015701E894B7F82FEF3FEF4FE75FE71F
:102F2000C501B4010E94B423811110C02FEF3FEFFF
:102F30004FE75FE7C501B4010E94D720181634F4AB
:102F400083EE92E00E946C167C017FC02FEF3FEF72
:102F50004FE75FE4C701B6010E94AF2318161CF4C7
:102F600087EE92E0EFCF2FEF3FEF4FE75FECC70127
:102F7000B6010E94D72087FDF3CF20E030E0A90101
:102F8000C701B6010E94D72087FF09C08DE20E94C9
:102F900061165C01F7FAF094F7F8F09402C0A12CE6
:102FA000B12C2AE037ED43EA5BE3C701B6010E948A
:102FB0009B222B013C010E9480236B017C010E941B
:102FC000DC209B01AC01C301B2010E949A222B01BB
:102FD0003C014AE0C701B6010E947E167C01EA0C62
:102FE000FB1C8EE20E946116E80EF91E20E030E024
:102FF00040E251E4C301B2010E943D212B013C019A
:103000000E9480234B01A12CB12C4AE0C501B401E0
:103010000E947E16E80EF91EC501B4010E94DC2054
:103020009B01AC01C301B2010E949A2220E030E072
:1030300040E251E40E943D210E94802380E090E024
:103040004AE00E947E16E80EF91E85E992E00E9491
:103050006C168E0D9F1DFF90EF90DF90CF90BF906C
:10306000AF909F908F907F906F905F904F9008955A
:103070000C946C16CF92DF92EF92FF92CF93DF9376
:103080006C01990FEE08FF08F7FE12C08DE20E9456
:103090006116EC0166277727CB016C197D098E0933
:1030A0009F094AE00E947E167C01EC0EFD1E06C0C0
:1030B0004AE0C701B6010E947E167C0185E992E0D4
:1030C0000E946C168E0D9F1DDF91CF91FF90EF90A7
:1030D000DF90CF900895AF92BF92CF92DF92EF92A0
:1030E000FF920F931F93CF93DF936B017C0120E03E
:1030F00030E046E155E40E943D210E947923EB0136
:1031000077FF04C0CC27DD27C61BD70B8BEE92E0E0
:103110000E943818CE010E943A1820E030E0A90140
:10312000C701B6010E94AF2387FD07C061E087E2B7
:103130000E948E0C8AEF92E006C060E087E20E9457
:103140008E0C84E093E00E94BF1680E193E00E9421
:10315000381860E070E080E89FE30E9471178BE10F
:1031600093E00E943818C701B6010E94711700E071
:1031700010E083E2A82E8AE0B82E0C171D0799F004
:1031800080912B080E94650C892BE9F120E030E04A
:10319000A901C701B6010E94D72087FF34C08BE385
:1031A00093E00E94BF16A70196016091DF03709122
:1031B000E0038091E1039091E2030E949B226093DF
:1031C000DF037093E0038093E1039093E20387E2CF
:1031D00093E00E9438186091DF037091E0038091C2
:1031E000E1039091E2030E94711787E992E0DF9179
:1031F000CF911F910F91FF90EF90DF90CF90BF90F4
:10320000AF900C94BF1661E085E20E948E0CC50160
:103210000197F1F760E085E20E948E0CC5010197ED
:10322000F1F70F5F1F4FA9CFAF92BF92CF92DF92FE
:10323000EF92FF920F931F93CF93DF9380912B0711
:1032400090912C07892B09F457C080912D079091FC
:103250002E07892B09F450C041E06FEC73E089E23E
:1032600097E00E942910C0913507D0E08FECE82E3E
:1032700083E0F82EA0902D07B0902E07C0902B076A
:10328000D0902C0700E010E00C171D07ACF5D5011D
:10329000ED91FD915D01D6018D919D916D01E81B30
:1032A000F90BC1F0D7012D913C91A90160E070E0CC
:1032B0009A01AB01281B390B41095109A8EEB3E073
:1032C0000E941A229F0140E050E00E94FB2137FD3E
:1032D0000AC002C020E030E0293EB3E03B072CF0FA
:1032E00028EE33E002C020E030E0F7012193319373
:1032F0007F010F5F1F4FC8CFDF91CF911F910F91BB
:10330000FF90EF90DF90CF90BF90AF9008958091A5
:103310002007909121070E944E2483E592E090932C
:1033200027078093260783E492E090932A078093EF
:1033300029078091330790913407009711F00E947C
:103340004E2480912D0790912E07009711F00E9436
:103350004E248091310790913207009711F00E941E
:103360004E2480912B0790912C07009711F00E941A
:103370004E2480912F0790913007009711F00E9402
:103380004E2480913B0790913C070C944E24CF93A0
:10339000DF93CDB7DEB728970FB6F894DEBF0FBE28
:1033A000CDBF789484B5826084BD84B5816084BDCE
:1033B00085B5826085BD85B5816085BD80916E00D3
:1033C000816080936E001092810080918100826004
:1033D0008093810080918100816080938100809141
:1033E00080008160809380008091B1008460809330
:1033F000B1008091B00081608093B0008091910015
:10340000826080939100809191008160809391000F
:10341000809190008160809390008091A1008260F3
:103420008093A1008091A10081608093A100809190
:10343000A00081608093A000809121018260809330
:1034400021018091210181608093210180912001DF
:1034500081608093200180917A00846080937A005B
:1034600080917A00826080937A0080917A008160F6
:1034700080937A0080917A00806880937A0010921D
:10348000C100E0918405F091850582E08083E091A0
:103490008005F09181051082E0918205F09183050D
:1034A0008FEC808310928C05E0918805F09189055E
:1034B00086E08083E0918605F091870580818061B8
:1034C0008083E0918605F091870580818860808304
:1034D000E0918605F0918705808180688083E09186
:1034E0008605F091870580818F7D808361E08091E2
:1034F00005080E94BE0C60E0809105080E948E0CB9
:1035000060E0809104080E94BE0C8EE294E09093EB
:103510000F0880930E0810925A03109259031092CC
:103520000B0410922D041092090481E0809308048A
:103530001092E30361E084E10E948E0C61E085E17A
:103540000E948E0C8091B9008E7F8093B90080918B
:10355000B9008D7F8093B90088E48093B80085E43A
:103560008093BC0080E090E1A0E0B0E0809311087F
:1035700090931208A0931308B09314088AE090E087
:10358000A0E0B0E08093150890931608A093170868
:10359000B093180880E090E0A0E0B0E480931908B0
:1035A00090931A08A0931B08B0931C0860E070E188
:1035B00085E00E942A176FE979E380E00E942A17CC
:1035C00001E218E0812C912CA12CB12C88EA282E44
:1035D00082E0382E9EEE492E92E0592E2BEC622E80
:1035E00027E0722E95012C5F374F6901D90114969F
:1035F0009C91149712968C91F401EC5FF74F7F0128
:10360000818F928F61E00E94BE0C61E0D7015A96D3
:103610008C910E94BE0CF60190858681D8018C9316
:10362000F701968F61E00E94BE0C60E0D7015E96C4
:103630008C910E94BE0C61E0F80180810E948E0C8A
:10364000FFB6F89480914E03811125C0F101849159
:10365000F2019491E82FF0E0EE0FFF1FEB5DFD4FBC
:10366000A591B4918C91982321F461E085E30E94A7
:103670008E0C61E085E30E94BE0C8CB580618CBD30
:103680008CB580648CBD61E084E30E94BE0C61E077
:1036900083E30E94BE0C80914E038F5F80934E03A4
:1036A000FFBEC3010197F1F760E0D8018C910E9441
:1036B0008E0C88E80E949A0483E00E949A0461E0DC
:1036C000F80180810E948E0CC3010197F1F7C801B7
:1036D0000E94A104F2E08F0E911C0E5F1F4FAA946E
:1036E000AB2821F0AA24A394B12C7CCF09E218E0E6
:1036F000E4E0FE2EF00E60E0D8018D918D010E9475
:10370000BE0CF012F8CF38E3E32E38E0F32E05E3D9
:1037100018E045E0A42E5CE0C52E62E0962E72E033
:10372000B72EB00EF8013897D080F80180818C3028
:1037300008F046C061E08D2D0E94BE0CD8018C912E
:10374000A89EF0011124ED51F94F9D2D9F7320810A
:10375000207CD22ED92AD082138214826C2D0E9412
:103760005E22BCE08B9FA001112420E030E0B90173
:10377000640F751FA69EF001A79EF00D1124ED5158
:10378000F94F908196FD12C02F5F3F4F2C303105CD
:1037900071F781110BC010928000909281001092FD
:1037A00085001092840096BA90926F00D801EC9137
:1037B000AE9EF0011124ED51F94F80818064808329
:1037C000F8013297908132978081F7013197808399
:1037D000F701908360E00E94BE0C61E0D7018C91FC
:1037E0000E94BE0C60E0F70180810E948E0C0F5F8A
:1037F0001F4FF2E0EF0EF11CB01294CFF89410922C
:10380000200189E08093210180E293E090932901D7
:1038100080932801109225011092240182E0809368
:103820007300789480931106109215068091120609
:1038300060E00E94BE0C8CED91E090938007809335
:103840007F0788EE93E0A0E0B0E08093810790933B
:103850008207A0938307B09384078FEF9FEFDC016B
:1038600080938A0790938B07A0938C07B0938D0762
:1038700081E0809389070E94C70E00918107109113
:1038800082072091830730918407DC01CB01800FF0
:10389000911FA21FB31F8093850790938607A09363
:1038A0008707B093880780918A0790918B07A09132
:1038B0008C07B0918D0780938E0790938F07A0930C
:1038C0009007B093910761E087E20E94BE0C61E02F
:1038D00085E20E94BE0C49EA55E861EC70E481E0A3
:1038E00090E00E94B10681E090E00E94CD0549EA97
:1038F00055E861E471E48FEF9FEF0E94B10649EA59
:1039000055E861E471E481E090E00E94B1068FEF38
:103910009FEF0E94CD0588E992E00E94BF1660E00B
:1039200087E20E948E0C03E21AE080912B080E942D
:10393000650C892B79F461E085E20E948E0CC80148
:103940000197F1F760E085E20E948E0CC8010197B3
:10395000F1F7EBCF1092DF031092E0031092E10336
:103960001092E203E091E704F091E80482E08083A2
:10397000E091E304F091E4041082E091E504F09119
:10398000E60480E180831092EF04E091EB04F09173
:10399000EC0486E08083E091E904F091EA04808100
:1039A00080618083E091E904F091EA04808188607D
:1039B0008083E091E904F091EA048081806880834B
:1039C000E091E904F091EA0480818F7D808368EEC4
:1039D00073E080E090E00E94FA0C88E392E090931C
:1039E0004B0380934A0364EF71E080E090E00E9413
:1039F000FA0C24E630E040E050E068EE73E080919D
:103A000005080E9441110E94490780914C03909142
:103A10004D03019709F045C12DB73EB738872F8375
:103A20001A8219821C821B821E821D8260912007CD
:103A3000709121076115710541F040912407509163
:103A40002507CE0101960E941E08ED80FE80C70169
:103A5000880F991F4DB75EB7481B590B0FB6F894E6
:103A60005EBF0FBE4DBF8DB79EB701961C01498149
:103A70005A81FC0180E090E08E159F05C4F48E15FC
:103A80009F0518F44115510529F410924F03AFE436
:103A9000B3E003C0DA01A80FB91F2C91022E000C6D
:103AA000330B20533109219331930196E5CFC12C7B
:103AB000D12CCE14DF040CF0E5C0D1012D913D9145
:103AC0001D01C90163E070E00E947E225B014DEFA1
:103AD00046038001479F100D1124020F131F84EA33
:103AE00092E00E943818C8010E943A1889EA92E0D0
:103AF0000E943818C5010E943A180F5F1F4FC80175
:103B00000E94340D81E090E00E94CD058EEA92E0A3
:103B10000E943818C5010E943A18F501EE0FFF1FE8
:103B2000EE0FFF1FE15FFD4F2091DF033091E003B7
:103B30004091E1035091E203608171818281938120
:103B40000E949A222B013C010E94C70E4B015C018E
:103B5000C301B2010E946B180E94C70E681979094F
:103B60008A099B090E94DC2020E030E04AE754E407
:103B70000E9407234B015C018BEB92E00E943818F6
:103B8000C501B4010E94711784EC92E00E943818BC
:103B9000A3019201C501B4010E9407230E94792369
:103BA0009B0177FF04C022273327261B370BC9014F
:103BB0000E943A1888ED92E00E94381820E030E028
:103BC00040E451E4C301B2010E943D21A5019401EA
:103BD0000E94072320E030E040E752E40E943D21AC
:103BE0000E9479239B0177FF04C022273327261BDD
:103BF000370BC9010E943A1883E992E00E94BF1670
:103C000081E090E00E94340D60E070E080E09FE38E
:103C10000E946B184DEC5CEC6CE47EEB8DE198E05F
:103C20000E94D9024DEC5CEC6CE47EE38FE198E0FD
:103C30000E94D9026CED75E080E090E00E94FA0CE1
:103C400040E050E0BA018DE198E00E94D90240E0E6
:103C500050E060E070E88FE198E00E94D9020E9495
:103C6000310581E090E00E94340D8FEF9FEF0E94BC
:103C7000CD05C8010E94340D0E9431055FEFC51AC1
:103C8000D50A17CF10924D0310924C0389819A8167
:103C90000E944E248F8198850FB6F8949EBF0FBE68
:103CA0008DBF0E94FC0FAFCECF92DF92EF92FF92BA
:103CB0000F931F93CF93DF93FC01EB016081718120
:103CC00066507109DB018D919C91DC01AE0FBF1F25
:103CD0001A968D919C911B97892B09F484C0822F91
:103CE000DB010D911C91D801AE0FBF1F1C969C915A
:103CF000891748F4DE01A80FB11DA80FB11D1D9250
:103D00001C92840FEDCF50E08281581708F046C016
:103D1000322FA081B18116978D919C918E0F9F1F9C
:103D2000DC011C966C913617B8F5032F10E0DC010E
:103D30001A968D919C911B97800F911FDC018C919D
:103D4000863308F0865390917B00682F6870977FC8
:103D5000962B90937B008770806480937C00809189
:103D60007A00806480937A0080917A0086FDFCCF8F
:103D7000809178006091790090E0962BD801AA0F8D
:103D8000BB1FAC0FBD1F6D917C911197860F971FC4
:103D90008D939C93340FBDCF5F5FB6CFE080F180F1
:103DA000B6E0EB1AF108D7018D919C91DC01AE0FC2
:103DB000BF1F1C968C912817B0F48E01020F111DA5
:103DC000020F111D628170E06B01D594C794D80178
:103DD0008D919C918C0D9D1D0E946A22D8016D933E
:103DE0007C93240FE0CFDF91CF911F910F91FF9033
:103DF000EF90DF90CF900895DC01ED91FC913E971C
:103E00000190F081E02D8E0F9F1F0C94541E0F9394
:103E1000109231041092300488EE93E0A0E0B0E0FC
:103E20008093320490933304A0933404B093350408
:103E30002FE132E030932F0420932E0410923D04A2
:103E400010923C0480933E0490933F04A09340045E
:103E5000B093410421E332E030933B0420933A04D1
:103E600045E351E0509347044093460444E351E056
:103E7000509349044093480440E351E050934B046D
:103E800040934A0441E351E050934D0440934C0465
:103E900042E351E050934F0440934E0446E351E017
:103EA00050935104409350041092530410925404C0
:103EB00010925504109256041092DA041092D9040C
:103EC0008093DB049093DC04A093DD04B093DE04C4
:103ED0003093D8042093D70445ED50E05093E40488
:103EE0004093E30444ED50E05093E6044093E5042E
:103EF00040ED50E05093E8044093E70441ED50E07A
:103F00005093EA044093E90442ED50E05093EC04EE
:103F10004093EB0446ED50E05093EE044093ED04E3
:103F20001092F0041092F1041092F2041092F30433
:103F30001092770510927605809378059093790515
:103F4000A0937A05B0937B05309375052093740593
:103F500085EC90E0909381058093800584EC90E05F
:103F6000909383058093820580EC90E09093850583
:103F70008093840581EC90E090938705809386057B
:103F800082EC90E0909389058093880586EC90E020
:103F900090938B0580938A0510928D0510928E0563
:103FA00010928F051092900586E38093250887E391
:103FB0008093260888E38093270889E38093280864
:103FC0008BE1809329088DE180932A088AE1809310
:103FD0002B088CE180932C0884E080932D0887E0E7
:103FE00080932E0810922F0884EB8093300886E18E
:103FF0008093310888E18093320887E18093330809
:1040000089E180933408E0911F07EC3020F08FEFB6
:104010008093350810C081E08E0F80931F07E093D6
:10402000350825E0E29FF0011124ED51F94F88EBAE
:104030009BE092838183E0911F07EC3020F08FEFAB
:104040008093360810C081E08E0F80931F07E093A5
:10405000360885E0E89FF0011124ED51F94F88EB17
:104060009BE0928381838CE08093040884E28093B8
:10407000050886E08093060885E0809307088FE1B5
:10408000809308088EE18093090883E280930A08F0
:1040900082E280930B0885E480930C0884E480938B
:1040A0000D0880E4809310081092150810921608ED
:1040B00010921708109218081092190810921A08F6
:1040C00010921B0810921C08E6E4F7E08FEF9FEFB8
:1040D000DC011282138214821582168217821086E6
:1040E000118683879487A587B6878787908BA18B56
:1040F000B28B128611821082739628E0E430F207A8
:1041000041F78DE090E00E94B923FC0113821282F6
:1041100083E792E091838083118687E2848384E140
:10412000828784E083871486F0934307E0934207F5
:10413000109244071092450785E280931206109270
:10414000140667E972E08BE397E00E944908109239
:104150002C0710922B0710922E0710922D07109209
:10416000300710922F0710923207109231071092E9
:1041700034071092330783E592E0909327078093EA
:10418000260785E692E090932A07809329070FEF90
:1041900024E048E061E072E086E297E00E942011AE
:1041A00067E972E080E297E00F910C9449080E9461
:1041B000192108F481E00895E89409C097FB3EF4C2
:1041C00090958095709561957F4F8F4F9F4F992364
:1041D000A9F0F92F96E9BB279395F69587957795E2
:1041E0006795B795F111F8CFFAF4BB0F11F460FFA2
:1041F0001BC06F5F7F4F8F4F9F4F16C0882311F0FA
:1042000096E911C0772321F09EE8872F762F05C00D
:10421000662371F096E8862F70E060E02AF09A95A8
:10422000660F771F881FDAF7880F9695879597F99D
:104230000895990F0008550FAA0BE0E8FEEF161637
:104240001706E807F907C0F012161306E407F5078A
:1042500098F0621B730B840B950B39F40A2661F0FE
:10426000232B242B252B21F408950A2609F4A140A1
:10427000A6958FEF811D811D08950E9450210C94F9
:10428000C1210E94B32138F00E94BA2120F0952369
:1042900011F00C94AA210C94B02111240C94F52156
:1042A0000E94D22170F3959FC1F3950F50E0551FE6
:1042B000629FF001729FBB27F00DB11D639FAA277B
:1042C000F00DB11DAA1F649F6627B00DA11D661FCA
:1042D000829F2227B00DA11D621F739FB00DA11DEB
:1042E000621F839FA00D611D221F749F3327A00DA5
:1042F000611D231F849F600D211D822F762F6A2F41
:1043000011249F5750409AF0F1F088234AF0EE0FA5
:10431000FF1FBB1F661F771F881F91505040A9F7D2
:104320009E3F510580F00C94AA210C94F5215F3F2B
:10433000E4F3983ED4F3869577956795B795F7950E
:10434000E7959F5FC1F7FE2B880F911D9695879586
:1043500097F9089597F99F6780E870E060E0089505
:104360009FEF80EC089500240A941616170618068D
:104370000906089500240A94121613061406050669
:104380000895092E0394000C11F4882352F0BB0FFA
:1043900040F4BF2B11F460FF04C06F5F7F4F8F4F5D
:1043A0009F4F089557FD9058440F551F59F05F3F98
:1043B00071F04795880F97FB991F61F09F3F79F047
:1043C00087950895121613061406551FF2CF4695C9
:1043D000F1DF08C0161617061806991FF1CF86954B
:1043E0007105610508940895E894BB27662777272F
:1043F000CB0197F90895052E97FB1EF400940E94B7
:10440000122257FD07D00E942D2207FC03D04EF444
:104410000C94122250954095309521953F4F4F4F67
:104420005F4F089590958095709561957F4F8F4F60
:104430009F4F08950E944F22A59F900DB49F900D0D
:10444000A49F800D911D11240895B7FF0C941A228A
:104450000E941A22821B930B0895A1E21A2EAA1B16
:10446000BB1BFD010DC0AA1FBB1FEE1FFF1FA21724
:10447000B307E407F50720F0A21BB30BE40BF50B21
:10448000661F771F881F991F1A9469F760957095AA
:10449000809590959B01AC01BD01CF010895A29F2D
:1044A000B001B39FC001A39F700D811D1124911D08
:1044B000B29F700D811D1124911D0895991B79E003
:1044C00004C0991F961708F0961B881F7A95C9F7A4
:1044D00080950895AA1BBB1B51E107C0AA1FBB1FF3
:1044E000A617B70710F0A61BB70B881F991F5A9580
:1044F000A9F780959095BC01CD01089597FB072EF3
:1045000016F4009407D077FD09D00E946A2207FCB8
:1045100005D03EF4909581959F4F089570956195D3
:104520007F4F0895EE0FFF1F881F8BBF0790F691F6
:10453000E02D19945058BB27AA270E94B2220C9450
:10454000C1210E94B32138F00E94BA2120F039F431
:104550009F3F19F426F40C94B0210EF4E095E7FB8C
:104560000C94AA21E92F0E94D22158F3BA176207AE
:1045700073078407950720F079F4A6F50C94F421CD
:104580000EF4E0950B2EBA2FA02D0B01B90190016E
:104590000C01CA01A0011124FF27591B99F0593FB2
:1045A00050F4503E68F11A16F040A22F232F342FFA
:1045B0004427585FF3CF469537952795A795F04048
:1045C0005395C9F77EF41F16BA0B620B730B840B5D
:1045D000BAF09150A1F0FF0FBB1F661F771F881F15
:1045E000C2F70EC0BA0F621F731F841F48F487956D
:1045F00077956795B795F7959E3F08F0B0CF93955F
:10460000880F08F09927EE0F9795879508950E94D7
:104610001B230C94C1210E94BA2158F00E94B3219F
:1046200040F029F45F3F29F00C94AA2151110C9419
:10463000F5210C94B0210E94D22168F39923B1F3A3
:10464000552391F3951B550BBB27AA2762177307B8
:10465000840738F09F5F5F4F220F331F441FAA1F4C
:10466000A9F335D00E2E3AF0E0E832D09150504008
:10467000E695001CCAF72BD0FE2F29D0660F771FB6
:10468000881FBB1F261737074807AB07B0E809F09C
:10469000BB0B802DBF01FF2793585F4F3AF09E3F21
:1046A000510578F00C94AA210C94F5215F3FE4F3B6
:1046B000983ED4F3869577956795B795F7959F5F64
:1046C000C9F7880F911D9695879597F90895E1E0B0
:1046D000660F771F881FBB1F621773078407BA070F
:1046E00020F0621B730B840BBA0BEE1F88F7E0956A
:1046F00008950E9480236894B1110C94F5210895C7
:104700000E94DA2188F09F5798F0B92F9927B75166
:10471000B0F0E1F0660F771F881F991F1AF0BA9565
:10472000C9F714C0B13091F00E94F421B1E00895AE
:104730000C94F421672F782F8827B85F39F0B93FA0
:10474000CCF3869577956795B395D9F73EF4909518
:104750008095709561957F4F8F4F9F4F08950E9470
:10476000192108F48FEF08950E941921880B990BE5
:104770000895CF93DF938230910510F482E090E0AA
:10478000E0913D08F0913E0820E030E0C0E0D0E04C
:10479000309711F14081518148175907C0F04817EF
:1047A000590761F482819381209719F09B838A8352
:1047B0002BC090933E0880933D0826C021153105FB
:1047C00019F04217530718F49A01BE01DF01EF01F7
:1047D0000280F381E02DDCCF2115310509F1281B82
:1047E000390B2430310590F412968D919C911397DA
:1047F0006115710521F0FB019383828304C09093BE
:104800003E0880933D08FD01329644C0FD01E20F51
:10481000F31F81939193225031092D933C933AC019
:1048200020913B0830913C08232B41F420910B024E
:1048300030910C0230933C0820933B0820910902F0
:1048400030910A022115310541F42DB73EB7409150
:104850000D0250910E02241B350BE0913B08F091A4
:104860003C08E217F307A0F42E1B3F0B281739076B
:1048700078F0AC014E5F5F4F2417350748F04E0FBC
:104880005F1F50933C0840933B088193919302C073
:10489000E0E0F0E0CF01DF91CF9108950F931F93F7
:1048A000CF93DF93009709F48CC0FC0132971382F9
:1048B000128200913D0810913E080115110581F406
:1048C00020813181820F931F20913B0830913C0859
:1048D0002817390779F5F0933C08E0933B0871C03D
:1048E000D80140E050E0AE17BF0750F412962D916A
:1048F0003C911397AD012115310509F1D901F3CF91
:104900009D01DA013383228360817181860F971FB5
:104910008217930769F4EC0128813981260F371F2C
:104920002E5F3F4F318320838A819B8193838283D3
:10493000452B29F4F0933E08E0933D0842C01396BE
:10494000FC93EE931297ED01499159919E01240F2A
:10495000351FE217F30771F480819181840F951F51
:10496000029611969C938E938281938113969C93C9
:104970008E931297E0E0F0E0D80112968D919C9111
:104980001397009719F0F8018C01F6CF8D919C9147
:1049900098012E5F3F4F820F931F20913B0830916B
:1049A0003C082817390769F4309729F410923E081B
:1049B00010923D0802C01382128210933C080093AB
:1049C0003B08DF91CF911F910F9108956F927F92D5
:1049D0008F929F92AF92BF92CF92DF92EF92FF920F
:1049E0000F931F93CF93DF93EC01009789F4CB01D2
:1049F000DF91CF911F910F91FF90EF90DF90CF90BB
:104A0000BF90AF909F908F907F906F900C94B92340
:104A1000FC01E60FF71F9C0122503109E217F30752
:104A200008F4ACC0D9010D911C9111970617170716
:104A3000B0F00530110508F49FC0C801049786172F
:104A4000970708F499C002501109061B170B019330
:104A500011936D937C93CF010E944E248DC05B0116
:104A6000A01AB10A4C01800E911EA0913D08B09190
:104A70003E0840E050E0E12CF12C109709F44AC0C8
:104A8000A815B905D1F56D907C901197630182E06E
:104A9000C80ED11CCA14DB0480F1A3014A195B09BA
:104AA0006A0182E0C80ED11C1296BC901297139630
:104AB000AC91B5E0CB16D10440F0B282A383518310
:104AC0004083D9016D937C930AC00E5F1F4FC301D1
:104AD000800F911FF90191838083EB2DFA2FE11450
:104AE000F10431F0D7011396FC93EE93129744C072
:104AF000F0933E08E0933D083FC08D919C91119743
:104B00004817590708F4AC017D0112960D90BC912D
:104B1000A02DB3CF80913B0890913C088815990552
:104B2000E1F446175707C8F48091090290910A02F0
:104B3000009741F48DB79EB740910D0250910E023F
:104B4000841B950BE817F907C8F4F0933C08E09331
:104B50003B08F901718360830FC0CB010E94B92328
:104B60007C01009759F0A801BE010E94D425CE0116
:104B70000E944E24C70104C0CE0102C080E090E034
:104B8000DF91CF911F910F91FF90EF90DF90CF9029
:104B9000BF90AF909F908F907F906F90089581E02D
:104BA00090E0F8940C94E425FB01DC0102C0019034
:104BB0000D9241505040D8F70895FB01DC0101905F
:104BC0000D920020E1F7089511E0C4EAD1E000E081
:104BD00006C0802FFE010E9492222196011DC53A37
:0C4BE000D10780E00807A9F7F894FFCF88
:104BEC00FF000102030405060700003F0820000037
:104BFC000000000000B84066662A410000000085F5
:104C0C00095509D9012F094D093E09300900000049
:104C1C0000930FD30E170FDA0F480F260F3A0F0021
:104C2C000000002910BE10A910D310AB0703000020
:104C3C000000002011541EFDFF00000000000000C9
:104C4C0000FDFF00002910BE10A910D310FC1E009F
:104C5C000000001302D30ED901D801594F206A2746
:104C6C006169207265637520756E204D4553534103
:104C7C0047453A20000D0A0043616C696272617409
:104C8C00696F6E0078203D200079203D2000476F31
:104C9C0020746F206574616765200054656D7073B6
:104CAC00203D200056697465737365202873656315
:104CBC002F706F29203D200052504D203D20006E5A
:104CCC00616E00696E66006F7666004E62206465E8
:104CDC00207374657073203D200053656E73203D06
:104CEC002055700053656E73203D20446F776E0025
:104CFC0056697465737365203D2000446973746153
:104D0C006E6365203D200048617574657572206185
:104D1C00637475656C6C65203D2000627265616B17
:024D2C00000085
:00000001FF
