:100000000C94A5010C94D6010C94D6010C94D60145
:100010000C94D6010C94D6010C94D6010C94D60104
:100020000C94D6010C9448160C9448160C9448165F
:100030000C94D6010C9415100C94D6010C94D60196
:100040000C94D6010C94F5050C94D6010C94D601B1
:100050000C94D6010C94D6010C94D6010C94531830
:100060000C94D6010C94EC140C94C2140C94D6018C
:100070000C94D6010C94D6010C94D6010C94D601A4
:100080000C94D6010C94D6010C94D6010C94D60194
:100090000C94D6010C94D6010C94D6010C945216F3
:1000A0000C94D6010C94D6010C94D6010C94D60174
:1000B0000C94D6010C94D6010C94D6010C941E0419
:1000C0000C94D6010C94D6010C94D6010C9498147F
:1000D0000C946E140C94D6010C9444140C941A14C1
:1000E0000C94D6013C054105460550055A05D3053B
:1000F00064056C0574057E0588059205A105AB05B0
:10010000D305B505BF05C905E815EB15DA15DE15EC
:10011000E4152216EF15F315F915FD15011607164E
:100120000B160F162216151619161D160C945715B8
:100130000C9401160C946E150C940F030C94151668
:100140000C9441050C9492050C947D030C945A0573
:100150000C9474050C94F9150C9445190C94F80E34
:100160000C94AD020C948E020C94D3050C94E415FF
:100170000C94EA0E0C9498020C943C050C94E8152F
:100180000C9446050C94C9050C9422160C941D166B
:100190000C94F3150C9458030C94FD150C94430F18
:1001A0000C940B160C94A1050C94DA150C94D60E35
:1001B0000C949E150C94EF150C94DE150C940A0209
:1001C0000C94501F0C94AB050C9488050C948A0277
:1001D0000C9466150C9450190C94C70E0C94B5052C
:1001E0000C940F160C94C2020C94EB150C94AC0FEB
:1001F0000C947E050C94830E0C9448150C949D1859
:100200000C948A0F0C9407160C946C050C94BF0583
:100210000C948B020C9464050C9449150C945005B5
:100220000C9419160200002100240027002A002D3A
:10023000003000330001010000040107010A010041
:10024000002200250028002B002E0031003400027F
:10025000010000050108010B010000200023002619
:100260000029002C002F00320000010000030106CD
:10027000010901050505050705080808080202022D
:10028000020A0A0808040404040101010101010131
:10029000010303030303030303040707070C0C0C08
:1002A0000C0C0C0C0C0202020206060606060606E0
:1002B000060B0B0B0B0B0B0B0B010210202008087D
:1002C00010204010204080020102010804020101B8
:1002D00002040810204080804020100804020180A1
:1002E00004020180402010080402010804020101F8
:1002F0000204081020408001020408102040800001
:10030000000A0B02090C0D0E08070304010000008F
:1003100000000000000000000000000000000000DD
:10032000000000000000000000000012111000009A
:1003300000000000000000000000000000000000BD
:10034000000000000000501F501911241FBECFEF05
:10035000D1E2DEBFCDBF00E00CBF12E0A0E0B2E012
:10036000E4E7FCE400E00BBF02C007900D92A63B5F
:10037000B107D9F727E0A6EBB2E001C01D92AD3A74
:10038000B207E1F711E0C4EAD1E000E006C021972E
:100390000109802FFE010E94DB22C33AD10780E0D1
:1003A0000807A9F70E9490190C9428260C940000C5
:1003B000E091B902F091BA02199480E090E0892BA3
:1003C00021F00E94180F811119C080E090E0892B64
:1003D00041F080E090E0892B21F00E940000811123
:1003E00010C00E940E0F81110FC080E090E0892B99
:1003F00081F00E94040F81110AC008950E9400003C
:10040000E4CF0E940000EDCF0E94D801EECF0C9403
:1004100000000895DF92EF92FF920F931F93CF9306
:10042000DF93CDB7DEB7EE970FB6F894DEBF0FBE01
:10043000CDBF8C017B01D42E8FEF840FD801ED91BD
:10044000FC91823020F40480F581E02D05C041113B
:1004500005C00280F381E02DC8011995D801ED9106
:10046000FC910084F185E02D20E041E0B701C80156
:100470001995B5E0DB1609F43FC0D801ED91FC9168
:100480000280F381E02DC8011995B2E0DB1234C07F
:10049000D801ED91FC910084F185E02D20E041E050
:1004A000BE016F5F7F4FC801199540E0D8011C96CF
:1004B0008C91481708F5842F90E0880F991FF70159
:1004C000E80FF91F21E030E02C0F3D1F820F931F32
:1004D000D8011E962D913C911F97DC018D919C9126
:1004E000B901681B790BCB0120813181820F931FE9
:1004F000918380834F5FDACFEE960FB6F894DEBF1C
:100500000FBECDBFDF91CF911F910F91FF90EF9064
:10051000DF900895089580E090E008958091B602FC
:100520009091B70201969093B7028093B602089516
:10053000CF93DF93FC0185858F3F61F0EF0161E090
:100540000E94DD1761E08D850E94AD178BE193E07D
:100550000197F1F7DF91CF910895CF93DF93FC01DD
:1005600085858F3F61F0EF0161E00E94DD1760E05B
:100570008D850E94AD178BE193E00197F1F7DF9134
:10058000CF910895EF92FF920F931F93CF93DF9334
:100590001F92CDB7DEB77C018B01FC011382128262
:1005A000158214821782168211861086118A108A8B
:1005B000403218F08FE1848702C0FC014487F701C4
:1005C00082859385892B11F080E00DC0F701848529
:1005D00090E029830E94FD23F70193878287298178
:1005E000892B91F714C0F7019485891778F4482F67
:1005F00050E0F801E40FF51F9081F70162857385E3
:10060000FB01E40FF51F90838F5FEDCF25870F90DF
:10061000DF91CF911F910F91FF90EF9008950F936D
:100620001F93CF93DF93EC01122F202FE881F981E4
:100630003697808191818C0F9D1F0E94C2021A8380
:10064000E881F981369780819181C80FD91F8FEF9A
:1006500093E09F878E87DF91CF911F910F9108952F
:10066000FC01248131E03093EA0220930C031092C4
:10067000EB0210920D038485682B8EE093E00E94BC
:100680009E150C94590A0F931F93CF938C01C62F7C
:1006900064600E9430036C2F6B7FC8010E9430039E
:1006A00083EC90E00197F1F7CF911F910F9108959E
:1006B0000F931F93CF93DF938C01C62FD62FD07F3C
:1006C000D1606D2F0E9430036D2FC8010E9443033B
:1006D00080E1C89FB0011124C62FC1606C2FC801F2
:1006E0000E9430036C2FC8010E94430381E090E018
:1006F000DF91CF911F910F9108950F931F93CF9387
:10070000DF93CDB7DEB728970FB6F894DEBF0FBEE4
:10071000CDBF2CED35E040E050E064EC79E0809115
:10072000E5060E94B4108BE792E00E94470A67E951
:1007300072E0CE0101960E94001087EB93E00E94C8
:10074000F80E892BF9F087EB93E00E94D60E8F8389
:1007500018860D811E810F5F1F4FB801CE010196D3
:100760000E94AE0F882349F329813A818D819E81B1
:10077000BE01695F7F4F820F931F0E9421261E8357
:100780000D83DBCF80910006909101060097C9F0A0
:1007900069817A816115710591F04091020650914D
:1007A00003062D813E814217530748F00E942126FF
:1007B0008D819E81909305068093040618C00E9447
:1007C000922489819A8190930106809300068B81FF
:1007D0009C8190930306809302068D819E81909365
:1007E0000506809304061A8219821C821B821E82CF
:1007F0001D8289819A810E94922440910406509121
:100800000506609100067091010684E594E00E945F
:10081000830E85E992E00E94470A81E090E0909380
:10082000BC028093BB0228960FB6F894DEBF0FBEC1
:10083000CDBFDF91CF911F910F9108951F920F921D
:100840000FB60F9211240BB60F922F933F934F9335
:100850005F936F937F938F939F93AF93BF93EF9328
:10086000FF938091F2040E9484172091F604309146
:10087000F7042F5F3F4F3093F7042093F6049091D5
:10088000F504953618F096E09093F1049091F104F8
:100890009430C9F128F4923069F09330D1F05EC001
:1008A000953009F451C0963009F058C091E090930A
:1008B000C20551C0811152C02091F6043091F70455
:1008C0002436310508F442C01092C2051092F50496
:1008D0001CC0813009F042C0E091F50491E09E0F08
:1008E0009093F504F0E02091F6043091F704EE0FB8
:1008F000FF1FEF50FB4F308727831092F7041092B1
:10090000F60494E029C0811117C0E091F50491E04C
:100910009E0F9093F504F0E02091F6043091F704D7
:10092000EE0FFF1FEF50FB4F308727831092F70425
:100930001092F60493E010C02091F6043091F70471
:100940002536310558F007C0811108C01092F70410
:100950001092F60403C095E09093F1049091F40492
:100960009923B9F081110AC08091F304882321F002
:100970008091F30461E009C02F9A0BC08091F304C9
:10098000882331F08091F30460E00E94AD1701C02C
:100990002F98FF91EF91BF91AF919F918F917F9190
:1009A0006F915F914F913F912F910F900BBE0F90E0
:1009B0000FBE0F901F9018958F929F92AF92BF928B
:1009C000CF92DF92EF92FF920F931F93CF93DF931B
:1009D000EC016A017B0120E030E04FE753E4C701FE
:1009E000B6010E9486214B015C0120E030E0A901A4
:1009F0000E94F82318161CF4C501B40103C0C501F8
:100A0000B40190580E94C2238B0120E030E0A9017C
:100A1000C701B6010E94F823181614F460E001C063
:100A200061E089810E94AD170F3F110509F014F4B0
:100A3000112702C00FEF10E0C88161E08C2F0E94E7
:100A4000DD170115110509F4B1C00F3F110509F4B7
:100A5000AFC0EC2FF0E0E150FD4FE4914E2F50E09D
:100A6000FA013197E231F10508F09DC08827EE5870
:100A7000FF4F8F4F0C94DB2284B5806884BD07BD87
:100A8000A7C084B5806284BD08BDA2C080918000EB
:100A9000806880938000109389000093880098C03C
:100AA0008091800080628093800010938B0000937F
:100AB0008A008EC0809180008860809380001093AF
:100AC0008D0000938C0084C08091B000806880937A
:100AD000B0000093B3007CC08091B000806280932E
:100AE000B0000093B40074C080919000806880933F
:100AF000900010939900009398006AC08091900034
:100B000080628093900010939B0000939A0060C0D5
:100B10008091900088608093900010939D000093D6
:100B20009C0056C08091A00080688093A0008091B6
:100B3000A0008F7B8093A0001093A9000093A800D1
:100B400047C08091A00080628093A0001093AB000A
:100B50000093AA003DC08091A00088608093A0000F
:100B60001093AD000093AC0033C0809120018068E9
:100B700080932001109329010093280129C08091BE
:100B8000200180628093200110932B0100932A01A1
:100B90001FC08091200188608093200110932D0157
:100BA00000932C0115C00038110514F460E001C059
:100BB00061E08C2FDF91CF911F910F91FF90EF900B
:100BC000DF90CF90BF90AF909F908F900C94AD1717
:100BD000DF91CF911F910F91FF90EF90DF90CF9019
:100BE000BF90AF909F908F9008951F920F920FB675
:100BF0000F9211240BB60F922F933F934F935F9355
:100C00006F937F938F939F93AF93BF93EF93FF93D4
:100C10008091B80287FF05C0109285001092840071
:100C200016C02091B802022E000C330B8091FF05F4
:100C300090E0281739075CF43091B80225E03203C0
:100C4000F0011124ED53FA4F808186FD15C080918B
:100C5000B8028F5F8093B8022091B802022E000C78
:100C6000330B8091FF0590E02817390794F48091A9
:100C7000B8028C302CF10DC03091B8023203F00173
:100C80001124ED53FA4F808160E08F730E94AD17FD
:100C9000DECF809184009091850084349C4918F4C3
:100CA00080E49CE905C080918400909185000496C1
:100CB00090938900809388008FEF8093B8022AC0B8
:100CC00040918400509185003091B80225E03203B4
:100CD000F0011124ED53FA4F81819281840F951F09
:100CE00090938900809388003091B8023203F0011C
:100CF0001124ED53FA4F808186FF0CC03091B80269
:100D00003203F0011124ED53FA4F808161E08F73BB
:100D10000E94AD17FF91EF91BF91AF919F918F917D
:100D20007F916F915F914F913F912F910F900BBEEB
:100D30000F900FBE0F901F9018958EBD00000DB440
:100D400007FEFDCF8EB50895CF93DF93EC0160E0F1
:100D500088810E94AD1788E90E949D0680E00E946C
:100D60009D0680E00E949D0680E00E949D0680E036
:100D70000E949D0661E088810E94AD178BE891E09A
:100D80000197F1F760E088810E94AD1780EE0E9424
:100D90009D0661E08881DF91CF910C94AD17AF92F1
:100DA000BF92CF92DF92EF92FF920F931F93CF9358
:100DB000DF93CDB7DEB760970FB6F894DEBF0FBEF6
:100DC000CDBF5C0160E0FC0180810E94AD1780E630
:100DD0000E949D068E010F5F1F4F7E01F1E1EF0E15
:100DE000F11C680180E00E949D0690E0A0E0B0E068
:100DF000F60181939193A193B1936F01EE15FF05D5
:100E000089F761E0F50180810E94AD1780E090E0F4
:100E1000DC01F80141915191619171918F01BA2FDB
:100E2000A92F982F8827840F951FA61FB71FEE158F
:100E3000FF0579F79C01AD0166277727CB01621B7F
:100E4000730B840B950B60960FB6F894DEBF0FBE44
:100E5000CDBFDF91CF911F910F91FF90EF90DF9069
:100E6000CF90BF90AF9008950F931F93CF93DF93D0
:100E7000C6E2D6E000E316E08FB7F894409155073C
:100E80005091560760915707709158078FBF8E8118
:100E90009F81A885B98584179507A607B70708F02D
:100EA00040C0F80180818823E1F18B859C85AD8568
:100EB000BE85892B8A2B8B2BA1F1E881F9811995AD
:100EC0008B859C85AD85BE85181619061A061B06EE
:100ED0008CF48F859889A989BA890197A109B109EC
:100EE0008F87988BA98BBA8B892B8A2B8B2B11F42C
:100EF000F80110822FB7F89480915507909156070A
:100F0000A0915707B09158072FBF4A815B816C8130
:100F10007D81840F951FA61FB71F8E839F83A8878F
:100F2000B98763960D5E1F4FF6E0C43EDF0709F0F8
:100F3000A3CFDF91CF911F910F910895CF92DF92B0
:100F4000EF92FF92823060F088E992E00E94470AB7
:100F500085E992E00E94470A60E070E0CB0120C082
:100F6000882391F083E097E00E94CF066B017C011B
:100F700083E097E00E94A40666277727CB016C19CF
:100F80007D098E099F090CC081E097E00E94CF0681
:100F90006B017C0181E097E00E94A406B601C701C5
:100FA000FF90EF90DF90CF9008958F929F92AF9235
:100FB000BF92CF92DF92EF92FF924DEC5CEC6CE42B
:100FC0007EE38DEF96E00E94DC044DEC5CEC6CE47B
:100FD0007EE38FEF96E00E94DC0480E00E949E0793
:100FE00081E00E949E0781E097E00E94CF069095E5
:100FF0008095709561957F4F8F4F9F4F0E9427215D
:1010000029EA35E841EC51E40E94862120E030E0F5
:1010100048E455E40E9450234B015C0183E097E0D3
:101020000E94CF060E94272129EA35E841EC51ECC5
:101030000E94862120E030E048E455E40E945023DD
:101040006B017C0123E830EB4DEE51E4C501B401A6
:101050000E94F82318163CF440E050E0BA018DEFEE
:1010600096E00E94DC0423E830EB4DEE51E4C7012A
:10107000B6010E94F823181644F440E050E060E006
:1010800070E88FEF96E00E94DC0423E830EB4DEE31
:1010900051E4C501B4010E94202187FDA4CF23E8BB
:1010A00030EB4DEE51E4C701B6010E94202187FDCF
:1010B0009ACF64EF71E080E090E0FF90EF90DF90D6
:1010C000CF90BF90AF909F908F900C9419184F9233
:1010D0005F926F927F928F929F92AF92BF92CF92C8
:1010E000DF92EF92FF92CF93DF93CDB7DEB72897D1
:1010F0000FB6F894DEBF0FBECDBFBC01990F880BB1
:10110000990B0E9427216B017C012DEC3CEC4CE4F7
:101110005EE30E9486214B015C01AB01BC018DEFB7
:1011200096E00E94DC04B501A4018FEF96E00E94D6
:10113000DC0480E00E949E0781E00E949E0729EA6D
:1011400035E841EC51E4C701B6010E94862169836C
:101150007A838B839C8381E097E00E94CF069095F1
:101160008095709561957F4F8F4F9F4F0E942721EB
:101170009B01AC0169817A818B819C810E948621CF
:1011800020E030E048E455E40E9450234B015C012C
:1011900083E097E00E94CF062B013C0129EA35E865
:1011A00041EC51ECC701B6010E9486216D837E831C
:1011B0008F839887C301B2010E9427219B01AC0154
:1011C0006D817E818F8198850E94862120E030E0AC
:1011D00048E455E40E9450232B013C012FEE36EFEA
:1011E00045E651E4C501B4010E94F82318163CF409
:1011F00040E050E0BA018DEF96E00E94DC042FEE53
:1012000036EF45E651E4C301B2010E94F8231816F7
:1012100044F440E050E060E070E88FEF96E00E9418
:10122000DC0441E06DE076E08BE096E00E940C0D7E
:101230002FEE36EF45E651E4C501B4010E942021AE
:1012400087FD89CF2FEE36EF45E651E4C301B201A9
:101250000E94202187FD7FCF28960FB6F894DEBF2D
:101260000FBECDBFDF91CF91FF90EF90DF90CF9079
:10127000BF90AF909F908F907F906F905F904F90B6
:1012800008954F925F926F927F928F929F92AF924A
:10129000BF92CF92DF92EF92FF92CF93DF9300D075
:1012A0001F92CDB7DEB749835A836B837C83BC0121
:1012B000990F880B990B0E9427214B015C012DECA3
:1012C0003CEC4CE45EE30E9486216B017C01AB01A7
:1012D000BC018DEF96E00E94DC04B701A6017058B6
:1012E0008FEF96E00E94DC0480E00E949E07C12CF4
:1012F000D12C760129813A814B815C81C701B601ED
:101300000E94202187FF2FC081E097E00E94CF0636
:101310006B017C0129EA35E841EC51E4C501B401D7
:101320000E9486212B013C0166277727CB016C198F
:101330007D098E099F090E9427219B01AC01C301F1
:10134000B2010E94862120E030E048E455E40E948A
:1013500050236B017C0141E06DE076E08BE096E08C
:101360000E940C0DC7CF40E050E0BA018DEF96E02F
:101370000E94DC0440E050E060E070E88FEF96E00F
:101380000F900F900F900F90DF91CF91FF90EF9003
:10139000DF90CF90BF90AF909F908F907F906F9095
:1013A0005F904F900C94DC04AF92BF92CF92DF928B
:1013B000EF92FF920F931F93CF93DF9380910B06D1
:1013C00090910C06892B09F457C080910D069091DD
:1013D0000E06892B09F450C041E06BE177E089E00B
:1013E00096E00E940A02C0911506D0E08BE1E82E3B
:1013F00087E0F82EA0900D06B0900E06C0900B0668
:10140000D0900C0600E010E00C171D07ACF5D501DC
:10141000ED91FD915D01D6018D919D916D01E81BCE
:10142000F90BC1F0D7012D913C91A90160E070E06A
:101430009A01AB01281B390B41095109A8EEB3E011
:101440000E9463229F0140E050E00E94442237FD49
:101450000AC002C020E030E0293EB3E03B072CF098
:1014600028EE33E002C020E030E0F7012193319311
:101470007F010F5F1F4FC8CFDF91CF911F910F9159
:10148000FF90EF90DF90CF90BF90AF9008950097BE
:1014900069F0FC0101900020E9F73197AF01481B8A
:1014A000590BBC0184E594E00C94830E80E090E03D
:1014B000089520910D0390910C03213208F04AC049
:1014C0008091E9028111FCCF32E03093E90231E0F2
:1014D0003093E8023FEF3093E7021092E602209348
:1014E000E502ACEEB2E045EC52E0FA013E2F341BCF
:1014F000321718F43D913193F9CF1092C402209124
:10150000C402990F922B9093C4029091C302913020
:1015100061F41092C3029091C4029093BB00909129
:10152000BC0093FDF8CF95EC01C095EE9093BC0004
:101530009091E9029230E1F39091E7029F3F79F0B8
:101540008091E702803241F08091E702803331F0F0
:1015500084E005C081E003C082E001C083E0109216
:10156000EB0210920D031092EA020895EF92FF929F
:101570001F93CF93DF931F92CDB7DEB7162F94EE54
:10158000E92E96E0F92ED7011C969C911C9721E03C
:101590002093EA0290930C031092EB0210920D0339
:1015A0001A960D90BC91A02DED91FC911197019090
:1015B000F081E02D682FCD0179831995F70182859F
:1015C0009385DC01ED91FC910190F081E02D798112
:1015D000672F1995F70182859385DC01ED91FC91C8
:1015E0000190F081E02D612F19950F90DF91CF913F
:1015F0001F91FF90EF900C94590AAF92BF92CF9237
:10160000DF92EF92FF920F931F93CF93DF936B01C3
:101610007C0120E030E046E155E40E9486210E94F2
:10162000C2238B0177FF04C000271127061B170B6D
:1016300020E030E0A901C701B6010E94F82387FD30
:101640000BC061E087E20E94AD17C0E0D0E08BECF8
:10165000A82E87E0B82E17C060E0F4CF80910B076A
:101660000E948417892B99F461E085E20E94AD17EE
:10167000C5010197F1F760E085E20E94AD17C50151
:101680000197F1F72196C017D10741F709C020E073
:1016900030E0A901C701B6010E94202187FFE4CFF5
:1016A000A70196016091BF027091C0028091C102B2
:1016B0009091C2020E94E4226093BF027093C00224
:1016C0008093C1029093C202DF91CF911F910F913D
:1016D000FF90EF90DF90CF90BF90AF9008952F9242
:1016E0003F924F925F926F927F928F929F92AF92B2
:1016F000BF92CF92DF92EF92FF920F931F93CF93FF
:10170000DF93CDB7DEB72D970FB6F894DEBF0FBECF
:10171000CDBF9B878A8740E050E060E87EE38DEF95
:1017200096E00E94DC0440E050E060E87EEB8FEF42
:1017300096E00E94DC041D861C86212C312C1E8222
:101740001F82188600E0C12CD12C76012A853B85AA
:10175000221633060CF023C18AE0A82EB12CEC85AA
:10176000FD8535975CF50E94D4092BE137E03D8378
:101770002C83F90180E090E021913191253F3140A7
:1017800008F0019657E0EB32F507B1F7069734F011
:101790008C859D8501969D878C8702C01D861C8641
:1017A0006AE070E080E090E00E94191891E0A91AC8
:1017B000B108A9F6AC85BD85159784F0FFEF2F1A07
:1017C0003F0A24E630E040E050E060ED77E08091B1
:1017D000E5060E94B4101D861C86B8CF0E94D4096D
:1017E000EBE1F7E08191919121E08E35914008F491
:1017F00020E0A22EB12C47E0EB32F40721F02111BA
:10180000F1CFA12CB12C0E943407AB2809F09ECF58
:101810000E94D409E0911506E987412C512C320130
:101820001A821982812C912C54011B8210E0E985C7
:101830001E1731F1AC81BD81ED91FD91BD83AC836B
:10184000E93CF10524F4E333F10594F002C0B1E082
:10185000BB83DF01A30192010E946E22860E971EB8
:10186000A81EB91E29813A812E0F3F1F3A83298372
:101870001F5F38EE430E33E0531E611C711CD7CF3F
:10188000FB81F1111DC0812F90E0019744EF51E0E1
:10189000849F9001859F300D949F300D11244091BD
:1018A000190650911A0642175307CCF0A8EEB3E080
:1018B0008A9FB0018B9F700D9A9F700D112411C0EB
:1018C000E981FA819F0140E050E0C501B4010E9426
:1018D0007622B90130931A062093190602C060E0FF
:1018E00070E0072E000C880B990B0E94272120E046
:1018F00030E44CE155E40E94E322962EA72EB82E48
:10190000192F262F372F482F592FC701B6010E94B4
:10191000E4226B017C012CE933E549EC57E3692DA6
:101920007A2D8B2D912F0E94862120E030E040E817
:101930005EE30E94E4222B013C0125E93FEB46EDEA
:1019400054E3C701B6010E9486219B01AC01C3018B
:10195000B2010E94E4222B013C012E813F81488587
:10196000502F692D7A2D8B2D912F0E94E32227E194
:1019700037EB41E558E30E9486219B01AC01C3018E
:10198000B2010E94E422AB01BC0170588FEF96E0D7
:101990000E94DC049E82AF82B886012FD7CE4DEC28
:1019A0005CEC6CE47EE38DEF96E00E94DC044DEC91
:1019B0005CEC6CE47EEB8FEF96E00E94DC046CE262
:1019C00071E080E090E00E94191840E050E0BA0118
:1019D0008DEF96E00E94DC0440E050E060E070E8AB
:1019E0008FEF96E02D960FB6F894DEBF0FBECDBFF9
:1019F000DF91CF911F910F91FF90EF90DF90CF90EB
:101A0000BF90AF909F908F907F906F905F904F901E
:101A10003F902F900C94DC042F923F924F925F9254
:101A20007F928F929F92AF92BF92CF92DF92EF926E
:101A3000FF920F931F93CF93DF93CDB7DEB7C056BE
:101A4000D1090FB6F894DEBF0FBECDBF7C016B018C
:101A5000742EDB018D919C91892B31F0F7018081EF
:101A60009181892BD9F41DC08091150690E0880FD3
:101A7000991F0E94FD23D6018D939C93009709F432
:101A8000A6C02091150630E0FC0180E090E08217AE
:101A9000930724F7119211920196F9CF00E010E01C
:101AA0001EC08091150690E0880F991F0E94FD23AB
:101AB000F70191838083009709F489C0209115066E
:101AC00030E04091170650911806FC0180E090E04C
:101AD000821793071CF7419351930196F9CF472D35
:101AE000BE016F5B7F4F89E096E00E940A02409042
:101AF0001506512CCE0101964C01FE01EF5BFF4F04
:101B0000DE0191965D019D011C0180E090E084154D
:101B100095054CF50115110589F0D9016D917C9160
:101B2000408151816417750748F0D1016D917C9116
:101B3000408151814617570748F00DC040815181BF
:101B4000D9014D935C930115110579F740815181BD
:101B5000D1014D935C930196B2E02B0E311C32966D
:101B60002E5F3F4FD4CF0F5F1F4F0A30110509F092
:101B7000B6CF20E030E08091150690E028173907B5
:101B800034F5F401419151914F01C901880F991F1A
:101B9000D601ED91FC91E80FF91F60817181641706
:101BA000750710F451834083F501419151915F0114
:101BB000D701ED91FC91E80FF91F808191814817C1
:101BC000590710F4518340832F5F3F4FD4CFC05A41
:101BD000DF4F0FB6F894DEBF0FBECDBFDF91CF91C0
:101BE0001F910F91FF90EF90DF90CF90BF90AF903B
:101BF0009F908F907F905F904F903F902F9008958F
:101C00008F929F92AF92BF92CF92DF92EF92FF920C
:101C10000F931F93CF93DF93CDB7DEB7A1970FB686
:101C2000F894DEBF0FBECDBF6C01990FEE08FF0820
:101C3000F7FE31C0E0915404F09155040190F08119
:101C4000E02D6DE284E594E019958C01222733277D
:101C5000A9012C193D094E095F0919A2CE018196EF
:101C60007C019AE0892E912CA12CB12CCA01B901DA
:101C7000A50194010E947622605DF70162937F01C5
:101C8000211531054105510589F7CF010E94470A09
:101C9000080F191F1EC0A701960119A28E010F5D22
:101CA0001F4F8AE0C82ED12CE12CF12CCA01B901BA
:101CB000A70196010E947622605DF80162938F0170
:101CC000211531054105510589F7CF010E94470AC9
:101CD0008C0185E992E00E94470A800F911FA1962E
:101CE0000FB6F894DEBF0FBECDBFDF91CF911F912D
:101CF0000F91FF90EF90DF90CF90BF90AF909F90AB
:101D00008F9008950895CF92DF92EF92FF920F93F4
:101D10001F93CF93DF936C017A018B01C0E0D0E079
:101D2000CE15DF0589F0D8016D918D01D601ED91B9
:101D3000FC910190F081E02DC6011995892B11F4D9
:101D40007E0102C02196ECCFC701DF91CF911F9198
:101D50000F91FF90EF90DF90CF900895FC01A08944
:101D6000B1898C91A689B78982FD0FC09C91818D24
:101D70008F5F8F73228D821749F0218DDF01A20FB3
:101D8000B11D5D969C93818F08958C910895FC01FF
:101D9000538D448D252F30E0842F90E0821B930BD0
:101DA000541710F0CF96089501970895FC01918D76
:101DB000828D981761F0828DDF01A80FB11D5D96AD
:101DC0008C91928D9F5F9F73928F90E008958FEF1B
:101DD0009FEF0895FC01918D828D981731F0828DCF
:101DE000E80FF11D858D90E008958FEF9FEF089526
:101DF000FC01918D228D892F90E0805C9F4F821B8A
:101E000091098F73992708958AE193E00E94F80E53
:101E100021E0892B09F420E0822F089587EB93E0DD
:101E20000E94F80E21E0892B09F420E0822F08950A
:101E300084E594E00E94F80E21E0892B09F420E06B
:101E4000822F0895FC01848DDF01A80FB11DA35AD4
:101E5000BF4F2C91848D90E001968F739927848FCA
:101E6000A689B7892C93A089B1898C9180648C93C1
:101E7000938D848D981306C00288F389E02D8081AC
:101E80008F7D80830895EF92FF920F931F93CF93DE
:101E9000DF93EC0181E0888F9B8D8C8D981305C0BA
:101EA000E889F989808185FD24C0F62E0B8D10E02C
:101EB0000F5F1F4F0F731127E02E8C8DE8120CC09F
:101EC0000FB607FCFACFE889F989808185FFF5CF45
:101ED000CE010E94220FF1CF8B8DFE01E80FF11D84
:101EE000E35AFF4FF0820B8FEA89FB898081806281
:101EF00007C0EE89FF896083E889F9898081806461
:101F0000808381E090E0DF91CF911F910F91FF904E
:101F1000EF900895CF93DF93EC01888D8823C9F06B
:101F2000EA89FB89808185FD05C0A889B9898C91E2
:101F300086FD0FC00FB607FCF5CF808185FFF2CF7D
:101F4000A889B9898C9185FFEDCFCE010E94220F1F
:101F5000E7CFDF91CF9108950E9413260F931F932F
:101F6000CF93DF93EC0188819981009729F02A8132
:101F70003B812617370788F48B016F5F7F4F0E94E4
:101F80002A25009761F0998388831B830A832C811B
:101F90003D81232B11F4FC01108281E001C080E01F
:101FA000DF91CF911F910F910895EF92FF920F93C0
:101FB0001F93CF93DF93EC017B018A01BA010E944A
:101FC000AE0F2881398181110DC02115310519F01D
:101FD000C9010E949224198218821D821C821B82D0
:101FE0001A8206C01D830C83B701C9010E942126F5
:101FF000CE01DF91CF911F910F91FF90EF90089547
:10200000FC011182108213821282158214826115E2
:10201000710551F0FB0101900020E9F73197AF0104
:10202000461B570B0C94D50F08951F920F920FB6B5
:102030000F9211240BB60F922F933F934F935F9300
:102040006F937F938F939F93AF93BF93EF93FF9380
:102050008091510790915207A0915307B091540776
:10206000892B8A2B8B2B59F180915007E0914E07D9
:10207000F0914F079081892780838091510790913B
:102080005207A0915307B0915407181619061A0663
:102090001B060CF056C08091510790915207A091F9
:1020A0005307B09154070197A109B10980935107D3
:1020B00090935207A0935307B093540742C0809166
:1020C0000802E4E2F2E0E4919FEF90930802E2302C
:1020D000C9F050F4EE2399F0E13081F590916F0052
:1020E0009D7F90936F002AC0E43019F1E0F0E53055
:1020F00029F5909173009D7F909373001FC01092FB
:102100006E001CC0909170009D7F9093700091E0D4
:102110009093B0009091B100987F94609093B1003B
:102120001092B3000BC0909171009D7F909371004D
:1021300005C0909172009D7F9093720060E00E94B4
:10214000AD17FF91EF91BF91AF919F918F917F91CB
:102150006F915F914F913F912F910F900BBE0F9018
:102160000FBE0F901F9018953F924F925F926F9203
:102170007F928F929F92AF92BF92CF92DF92EF9217
:10218000FF920F931F93CF93DF9300D01F92CDB791
:10219000DEB729013A0190910802981721F09F3F7C
:1021A00009F032C304C0E4E2F2E0349004C1809349
:1021B0000802E4E2F2E0E491EF3F09F425C3E230E3
:1021C00009F480C074F5EE2309F45BC0E13009F036
:1021D000F1C010928000109281009091810098606F
:1021E0009093810090918100916090938100282FBD
:1021F00030E0F901ED58FD4FE491F0E0EE0FFF1FE4
:10220000E15CFD4F4591549150933607409335075B
:10221000F901E754FD4FE491E093340733243394FC
:10222000CCC0E43009F49EC00CF474C0E53009F071
:10223000C1C010922001109221019091210198605B
:102240009093210190912101916090932101482F59
:1022500050E0FA01ED58FD4FE491F0E0EE0FFF1F62
:10226000E15CFD4F2591349130932D0720932C078D
:10227000FA01E754FD4FE491E0932B07B5E03B2EC4
:102280009CC014BC15BC94B5926094BD95B591608A
:1022900095BD282F30E0F901ED58FD4FE491F0E0B5
:1022A000EE0FFF1FE15CFD4F4591549150933907AC
:1022B00040933807F901E754FD4FE491E093370765
:1022C000312C7BC01092B0001092B1009091B00000
:1022D00092609093B0009091B10091609093B100A2
:1022E000282F30E0F901ED58FD4FE491F0E0EE0FBA
:1022F000FF1FE15CFD4F4591549150934F07409370
:102300004E07F901E754FD4FE491E093500752E086
:10231000352E53C010929000109291009091910030
:1023200098609093910090919100916090939100AA
:10233000282F30E0F901ED58FD4FE491F0E0EE0F69
:10234000FF1FE15CFD4F459154915093330740933B
:102350003207F901E754FD4FE491E093310723E0A0
:10236000322E2BC01092A0001092A1009091A100DB
:1023700098609093A1009091A10091609093A1002A
:10238000282F30E0F901ED58FD4FE491F0E0EE0F19
:10239000FF1FE15CFD4F45915491509330074093EE
:1023A0002F07F901E754FD4FE491E0932E0704E075
:1023B000302E03C03E2E37FC27C28B0161E00E9405
:1023C000DD174801A12CB12C832D8D7F09F0BBC0F6
:1023D00060E072E18AE790E0A50194010E94442246
:1023E00029833A834B835C8369017A0121E0C21A15
:1023F000D108E108F1088FEFC816D104E104F10417
:1024000009F008F44CC060E472E48FE090E0A501AC
:1024100094010E94442269017A0191E0C91AD1080D
:10242000E108F108E2E03E1220C0FFEFCF16D10430
:10243000E104F10409F008F4E5C160E970ED83E01E
:1024400090E0A50194010E94442269017A0181E093
:10245000C81AD108E108F1089FEFC916D104E104B8
:10246000F10409F0D0F583E067C0EFEFCE16D10498
:10247000E104F104B1F0A8F068E478EE81E090E0C6
:10248000A50194010E94442269017A01F1E0CF1A6A
:10249000D108E108F108332009F45AC1AAC181E04A
:1024A00001C082E03320A1F047C089819A81AB81CD
:1024B000BC812AE0B595A795979587952A95D1F780
:1024C0006C017D01F1E0CF1AD108E108F10885E047
:1024D00095B5987F892B85BDA6C068E478EE81E02C
:1024E00090E0A50194010E94442269017A0181E0F3
:1024F000C81AD108E108F1089FEFC916D104E10418
:10250000F10409F008F422C164E274EF80E090E085
:10251000A50194010E94442269017A0181E0C81A50
:10252000D108E108F1089FEFC916D104E104F104D4
:1025300011F008F02FC185E09091B100987F892BB0
:102540008093B10070C060E072E18AE790E0A5017D
:1025500094010E94442269017A01F1E0CF1AD10866
:10256000E108F108C114D10421E0E206F10488F089
:1025700068E478EE81E090E0A50194010E94442295
:1025800069017A0181E0C81AD108E108F10883E005
:1025900001C081E091E0391210C090918100987FD4
:1025A000892B80938100411451046104710409F066
:1025B0003FC02FEF3FEFA90171C0E3E03E120FC013
:1025C00090919100987F892B809391004114510440
:1025D0006104710469F52FEF3FEFA90181C0F4E0B8
:1025E0003F120FC09091A100987F892B8093A1008A
:1025F0004114510461047104D9F42FEF3FEFA90194
:1026000081C025E032120FC090912101987F892B63
:1026100080932101411451046104710449F42FEFA6
:102620003FEFA90181C0411451046104710471F0AC
:10263000D801AA0FBB1FA30192010E94632228EEBA
:1026400033E040E050E00E94762203C02FEF3FEFDE
:10265000A90182E03816A1F1831534F0332079F016
:1026600091E03916D9F0D0C0E4E03E1609F44AC032
:102670003E16B4F1F5E03F1609F456C0C5C0C7BC1C
:1026800020934A0730934B0740934C0750934D07D4
:1026900080916E00826080936E00B6C0D0928900F7
:1026A000C09288002093460730934707409348071D
:1026B0005093490780916F00826080936F00A4C09F
:1026C000C092B300209351073093520740935307B1
:1026D000509354078091700082608093700094C082
:1026E000D0929900C09298002093420730934307FC
:1026F0004093440750934507809171008260809316
:10270000710082C0D092A900C092A80020933E0719
:1027100030933F07409340075093410780917200E8
:1027200082608093720070C0D0922901C09228010B
:1027300020933A0730933B0740933C0750933D0763
:10274000809173008260809373005EC084E0F4CE59
:102750002FEFC216D104E104F104D1F0C8F062E118
:102760007AE780E090E0A50194010E94442269018B
:102770007A01E1E0CE1AD108E108F108FFEFCF16A7
:10278000D104E104F10411F008F08FCE84E0A0CE72
:1027900083E09ECE62E17AE780E090E0A5019401BB
:1027A0000E94442269017A0181E0C81AD108E10837
:1027B000F1089FEFC916D104E104F104C1F0B8F0AB
:1027C00089819A81AB81BC814AE0B595A79597959F
:1027D00087954A95D1F76C017D01E1E0CE1AD108C9
:1027E000E108F108332009F472CE87E0A5CE86E037
:1027F00059CEEFEFCE16D104E104F10409F050F602
:1028000084E050CE82E098CE0F900F900F900F9002
:10281000DF91CF911F910F91FF90EF90DF90CF90BC
:10282000BF90AF909F908F907F906F905F904F90F0
:102830003F9008951F920F920FB60F9211240BB67E
:102840000F922F933F934F935F936F937F938F9349
:102850009F93AF93BF93EF93FF938AE193E00E941E
:10286000220FFF91EF91BF91AF919F918F917F9137
:102870006F915F914F913F912F910F900BBE0F90F1
:102880000FBE0F901F9018951F920F920FB60F92C8
:1028900011240BB60F922F933F934F935F936F9337
:1028A0007F938F939F93AF93BF93EF93FF938AE1AF
:1028B00093E00E94AE0EFF91EF91BF91AF919F9177
:1028C0008F917F916F915F914F913F912F910F90D9
:1028D0000BBE0F900FBE0F901F9018951F920F9276
:1028E0000FB60F9211240BB60F922F933F934F9375
:1028F0005F936F937F938F939F93AF93BF93EF9368
:10290000FF9387EB93E00E94220FFF91EF91BF911D
:10291000AF919F918F917F916F915F914F913F9177
:102920002F910F900BBE0F900FBE0F901F90189518
:102930001F920F920FB60F9211240BB60F922F9386
:102940003F934F935F936F937F938F939F93AF9337
:10295000BF93EF93FF9387EB93E00E94AE0EFF913E
:10296000EF91BF91AF919F918F917F916F915F9107
:102970004F913F912F910F900BBE0F900FBE0F9074
:102980001F9018951F920F920FB60F9211240BB63D
:102990000F922F933F934F935F936F937F938F93F8
:1029A0009F93AF93BF93EF93FF9384E594E00E94CE
:1029B000220FFF91EF91BF91AF919F918F917F91E6
:1029C0006F915F914F913F912F910F900BBE0F90A0
:1029D0000FBE0F901F9018951F920F920FB60F9277
:1029E00011240BB60F922F933F934F935F936F93E6
:1029F0007F938F939F93AF93BF93EF93FF9384E560
:102A000094E00E94AE0EFF91EF91BF91AF919F9124
:102A10008F917F916F915F914F913F912F910F9087
:102A20000BBE0F900FBE0F901F90189585ED8093F1
:102A3000BC008091BC0084FDFCCF1092E902089597
:102A400040918207262F30E0240F311D21323105BD
:102A5000DCF42091E9022430C9F4FC0180E090E02C
:102A6000861758F4309182072191DC01A05AB84FA3
:102A7000A30FB11D2C930196F3CF80918207680FAD
:102A80006093820780E0089581E0089582E00895D0
:102A9000089581E090E030915A072091590732174C
:102AA00010F480E090E091958195910908958091CE
:102AB0005A0790915907891730F48F5F80935A070E
:102AC00080E090E008958FEF9FEF0895809159077F
:102AD00090E020915A07821B91090895CF92DF92CE
:102AE000EF92FF920F931F93CF93DF937C01262FDA
:102AF000972F8A018091EA02882391F0C62FD72F61
:102B00006E01C40ED51ECC15DD0571F06991D7019B
:102B1000ED91FC910190F081E02DC7011995F3CF63
:102B2000642F822F0E942015C801DF91CF911F9141
:102B30000F91FF90EF90DF90CF900895CF93DF93A8
:102B40001F92CDB7DEB769832091EA022223D1F02C
:102B500020910D03203240F021E030E0FC0133836E
:102B6000228380E090E015C08091EB02E82FF0E036
:102B7000E451FD4F998190838F5F8093EB028093A6
:102B80000D0305C061E0CE0101960E94201581E091
:102B900090E00F90DF91CF91089590E0FC01319784
:102BA000E231F10508F04EC08827EC57FF4F8F4FF8
:102BB0000C94DB22809180008F7703C0809180008D
:102BC0008F7D80938000089580918000877FF9CF6A
:102BD00084B58F7702C084B58F7D84BD08958091C0
:102BE000B0008F7703C08091B0008F7D8093B000DC
:102BF0000895809190008F7707C0809190008F7D1D
:102C000003C080919000877F809390000895809109
:102C1000A0008F7707C08091A0008F7D03C08091B6
:102C2000A000877F8093A0000895809120018F7776
:102C300007C0809120018F7D03C080912001877F94
:102C40008093200108953FB7F89480915C0790919C
:102C50005D07A0915E07B0915F0726B5A89B05C0F0
:102C60002F3F19F00196A11DB11D3FBFBA2FA92F0B
:102C7000982F8827820F911DA11DB11DBC01CD0188
:102C800042E0660F771F881F991F4A95D1F7089574
:102C90001F920F920FB60F9211240F900FBE0F903C
:102CA0001F9018951F920F920FB60F9211240BB61A
:102CB0000F922F933F934F935F936F937F938F93D5
:102CC0009F93AF93BF93EF93FF938091B900887F59
:102CD000803609F49CC068F5883209F45BC090F432
:102CE000803109F454C038F4882309F4F6C08830E0
:102CF00009F44DC0F6C0883109F44CC0803209F4A3
:102D00005DC0EFC0803409F468C048F4803309F432
:102D100055C0883309F0E5C08093E702D8C08035FC
:102D200009F44FC0883509F45DC0883409F0D9C072
:102D3000D6C0883909F4C7C0A8F4883709F467C039
:102D400038F4883609F463C0803709F460C0C9C01C
:102D5000883809F4B8C0803909F45FC0803809F0B8
:102D6000C0C05BC0803B09F486C038F4803A09F4E7
:102D700066C0883A09F47FC0B4C0803C09F4A7C09B
:102D8000883C09F4A4C0883B09F48AC0AAC0809199
:102D9000C40210C09091E6028091E502981770F588
:102DA000E091E60281E08E0F8093E602F0E0EB53C3
:102DB000FD4F80818093BB0085EC86C08093E70245
:102DC0008EC0E091E60281E08E0F8093E602809152
:102DD000BB00F0E0EB53FD4F80839091E6028091C1
:102DE000E5026EC0E091E60281E08E0F8093E6027C
:102DF0008091BB00F0E0EB53FD4F80838091E802AF
:102E000081116DC081E08093C30284EA61C083E0D8
:102E10008093E9021092A607CFCF8091A607803257
:102E200008F051C0E091A60781E08E0F8093A607BD
:102E30008091BB00F0E0EA57F84F8083BDCF85EC6E
:102E40008093BC001092E9028091A607803230F492
:102E5000E091A607F0E0EA57F84F10826091A607CC
:102E600070E0E0918407F091850786E897E0199576
:102E70001092A60736C084E08093E902109283077F
:102E800010928207E0918007F09181071995809157
:102E90008207811105C081E080938207109260074C
:102EA000E091830781E08E0F80938307F0E0E05A82
:102EB000F84F80818093BB009091830780918207B7
:102EC000981708F479CF85E88093BC000AC085EC98
:102ED0008093BC001092E90204C01092E7020E94A5
:102EE0001615FF91EF91BF91AF919F918F917F91B7
:102EF0006F915F914F913F912F910F900BBE0F906B
:102F00000FBE0F901F901895CF93DF93282F30E0BE
:102F1000F901E150FD4F8491F901E754FD4FD4913F
:102F2000F901ED58FD4FC491CC2391F081110E941D
:102F3000CD15EC2FF0E0EE0FFF1FE75AFD4FA591E6
:102F4000B491EC91ED2381E090E021F480E002C0A7
:102F500080E090E0DF91CF9108951F93CF93DF93AE
:102F6000282F30E0F901E150FD4F8491F901E75439
:102F7000FD4FD491F901ED58FD4FC491CC23C9F018
:102F8000162F81110E94CD15EC2FF0E0EE0FFF1FE0
:102F9000E15CFD4FA591B4918FB7F894111105C074
:102FA0009C91ED2FE095E92302C0EC91ED2BEC9381
:102FB0008FBFDF91CF911F910895CF93DF9390E062
:102FC000FC01E754FD4F2491FC01ED58FD4F849125
:102FD000882361F190E0880F991FFC01EB5DFD4FA4
:102FE000C591D491FC01E15CFD4FA591B4916111B3
:102FF00009C09FB7F8948881209582238883EC913B
:103000002E230BC0623061F49FB7F8943881822F71
:10301000809583238883EC912E2B2C939FBF06C031
:103020008FB7F894E8812E2B28838FBFDF91CF9143
:1030300008958F929F92AF92BF92CF92DF92EF92BC
:10304000FF926B017C010E9423164B015C01C114AD
:10305000D104E104F104F1F00E942316DC01CB015C
:1030600088199909AA09BB09883E9340A105B105B1
:1030700070F321E0C21AD108E108F10888EE880E49
:1030800083E0981EA11CB11CC114D104E104F10419
:1030900019F7DDCFFF90EF90DF90CF90BF90AF900A
:1030A0009F908F9008951F920F920FB60F92112448
:1030B0002F933F938F939F93AF93BF938091550727
:1030C00090915607A0915707B091580730915B0730
:1030D00023E0230F2D3720F40196A11DB11D05C05B
:1030E00026E8230F0296A11DB11D20935B07809354
:1030F000550790935607A0935707B09358078091B0
:103100005C0790915D07A0915E07B0915F07019603
:10311000A11DB11D80935C0790935D07A0935E078E
:10312000B0935F07BF91AF919F918F913F912F9186
:103130000F900FBE0F901F901895CF92DF92EF92D5
:10314000FF920F931F93CF93DF93FC01EB016081FC
:10315000718166507109DB018D919C91DC01AE0F8C
:10316000BF1F1A968D919C911B97892B09F484C0DF
:10317000822FDB010D911C91D801AE0FBF1F1C9651
:103180009C91891748F4DE01A80FB11DA80FB11D4D
:103190001D921C92840FEDCF50E08281581708F0E9
:1031A00046C0322FA081B18116978D919C918E0FD0
:1031B0009F1FDC011C966C913617B8F5032F10E0A9
:1031C000DC011A968D919C911B97800F911FDC0159
:1031D0008C91863308F0865390917B00682F68703D
:1031E000977F962B90937B008770806480937C0000
:1031F00080917A00806480937A0080917A0086FDC5
:10320000FCCF809178006091790090E0962BD801F6
:10321000AA0FBB1FAC0FBD1F6D917C911197860F3C
:10322000971F8D939C93340FBDCF5F5FB6CFE08027
:10323000F180B6E0EB1AF108D7018D919C91DC0189
:10324000AE0FBF1F1C968C912817B0F48E01020F91
:10325000111D020F111D628170E06B01D594C7949E
:10326000D8018D919C918C0D9D1D0E94B322D80197
:103270006D937C93240FE0CFDF91CF911F910F913D
:10328000FF90EF90DF90CF900895DC01ED91FC91DD
:103290003E970190F081E02D8E0F9F1F0C949D189A
:1032A00080910006909101060E94922483E592E0AD
:1032B000909307068093060683E492E090930A06B3
:1032C000809309068091130690911406009711F0DF
:1032D0000E94922480910D0690910E06009711F0A5
:1032E0000E9492248091110690911206009711F08D
:1032F0000E94922480910B0690910C06009711F089
:103300000E94922480910F0690911006009711F070
:103310000E94922480911B0690911C060C9492248A
:10332000CF93DF93CDB7DEB72A970FB6F894DEBF01
:103330000FBECDBF789484B5826084BD84B58160B2
:1033400084BD85B5826085BD85B5816085BD809170
:103350006E00816080936E001092810080918100E8
:1033600082608093810080918100816080938100E0
:10337000809180008160809380008091B1008460A2
:103380008093B1008091B00081608093B000809103
:103390009100826080939100809191008160809380
:1033A0009100809190008160809390008091A100B5
:1033B00082608093A1008091A10081608093A10030
:1033C0008091A00081608093A000809121018260A3
:1033D000809321018091210181608093210180915E
:1033E000200181608093200180917A008460809325
:1033F0007A0080917A00826080937A0080917A00CE
:10340000816080937A0080917A00806880937A004E
:103410001092C100E0916404F091650482E0808321
:10342000E0916004F09161041082E0916204F091F7
:1034300063048FEC808310926C04E0916804F09137
:10344000690486E08083E0916604F09167048081DE
:1034500080618083E0916604F091670480818860D8
:103460008083E0916604F0916704808180688083A6
:10347000E0916604F091670480818F7D808361E034
:103480008091E5060E94DD1760E08091E5060E94CC
:10349000AD1760E08091E4060E94DD178EE093E0B6
:1034A0009093EF068093EE0610925A0710925907F8
:1034B0001092EB0210920D031092E90281E08093CA
:1034C000E8021092C30261E084E10E94AD1761E05E
:1034D00085E10E94AD178091B9008E7F8093B9007D
:1034E0008091B9008D7F8093B90088E48093B80003
:1034F00085E48093BC0080E090E1A0E0B0E08093A0
:10350000F1069093F206A093F306B093F4068AE0D6
:1035100090E0A0E0B0E08093F5069093F606A093CB
:10352000F706B093F80680E090E0A0E0B0E4809366
:10353000F9069093FA06A093FB06B093FC0660E0B0
:1035400070E185E00E94B60A6FE979E380E00E94AD
:10355000B60A01E017E0812C912CA12CB12C88EA4D
:10356000282E82E0382E9EEE492E92E0592E2BEC2A
:10357000622E27E0722E95012C51394F6901D90135
:1035800014969C91149712968C91F401EC51F94F7A
:103590007F01818F928F61E00E94DD1761E0D7018A
:1035A0005A968C910E94DD17F60190858681D8018C
:1035B0008C93F701968F61E00E94DD1760E0D701E0
:1035C0005E968C910E94DD1761E0F80180810E9477
:1035D000AD17FFB6F8948091BD02811125C0F101AD
:1035E0008491F2019491E82FF0E0EE0FFF1FEB5D64
:1035F000FD4FA591B4918C91982321F461E085E36E
:103600000E94AD1761E085E30E94DD178CB58061F3
:103610008CBD8CB580648CBD61E084E30E94DD17B5
:1036200061E083E30E94DD178091BD028F5F80938C
:10363000BD02FFBEC3010197F1F760E0D8018C9194
:103640000E94AD1788E80E949D0683E00E949D06B7
:1036500061E0F80180810E94AD17C3010197F1F785
:10366000C8010E94A406F2E08F0E911C0E5F1F4F4E
:10367000AA94AB2821F0AA24A394B12C7CCF09E012
:1036800017E0E4E0FE2EF00E60E0D8018D918D0190
:103690000E94DD17F012F8CF38E1E32E37E0F32E69
:1036A00005E117E045E0A42E5CE0C52E62E0962E11
:1036B00072E0B72EB00EF8013897D080F801808103
:1036C0008C3008F046C061E08D2D0E94DD17D801D6
:1036D0008C91A89EF0011124ED53FA4F9D2D9F73FC
:1036E0002081207CD22ED92AD082138214826C2D84
:1036F0000E94A722BCE08B9FA001112420E030E0B3
:10370000B901640F751FA69EF001A79EF00D11244C
:10371000ED53FA4F908196FD12C02F5F3F4F2C3032
:10372000310571F781110BC01092800090928100D9
:10373000109285001092840096BA90926F00D80182
:10374000EC91AE9EF0011124ED53FA4F808180641C
:103750008083F8013297908132978081F701319709
:103760008083F701908360E00E94DD1761E0D7015C
:103770008C910E94DD1760E0F70180810E94AD17F7
:103780000F5F1F4FF2E0EF0EF11CB01294CFF894D0
:103790001092200189E08093210180E293E09093D0
:1037A000290180932801109225011092240182E0C2
:1037B0008093730078948093F1041092F5048091C3
:1037C000F20460E00E94DD178EE892E090936006BC
:1037D00080935F0688EE93E0A0E0B0E080936106FE
:1037E00090936206A0936306B09364068FEF9FEFF9
:1037F000DC0180936A0690936B06A0936C06B093ED
:103800006D0681E0809369062FB7F8948091550783
:1038100090915607A0915707B09158072FBF40913C
:103820006106509162066091630670916406840F90
:10383000951FA61FB71F8093650690936606A093F9
:103840006706B093680680916A0690916B06A09116
:103850006C06B0916D0680936E0690936F06A093F0
:103860007006B093710661E087E20E94DD1761E0A7
:1038700085E20E94DD1749EA55E861EC70E481E0D9
:1038800090E00E94410981E090E00E94670849EAC7
:1038900055E861E471E48FEF9FEF0E94410949EA26
:1038A00055E861E471E481E090E00E9441098FEF06
:1038B0009FEF0E94670824E630E040E050E060EDB2
:1038C00077E08091E5060E94B41060E087E20E94F4
:1038D000AD170BEC17E080910B070E948417892B22
:1038E00079F461E085E20E94AD17C8010197F1F714
:1038F00060E085E20E94AD17C8010197F1F7EBCFB8
:103900001092BF021092C0021092C1021092C20225
:1039100024E630E040E050E068EE73E08091E50698
:103920000E94B410E091C703F091C80382E0808345
:10393000E091C303F091C4031082E091C503F091BC
:10394000C60380E180831092CF03E091CB03F09116
:10395000CC0386E08083E091C903F091CA038081A3
:1039600080618083E091C903F091CA0380818860FF
:103970008083E091C903F091CA03808180688083CD
:10398000E091C903F091CA0380818F7D808368EE46
:1039900073E080E090E00E9419188DE793E0909327
:1039A000BA028093B90264EF71E080E090E00E9477
:1039B000191824E630E040E050E068EE73E08091B2
:1039C000E5060E94B4100E9434078091BB029091DA
:1039D000BC02019709F061C22DB73EB73A8729872B
:1039E0001A8219821C821B821E821D82609100062F
:1039F000709101066115710541F0409104065091E6
:103A00000506CE0101960E94D50FED80FE80C7010C
:103A1000880F991F4DB75EB7481B590B0FB6F89426
:103A20005EBF0FBE4DBF8DB79EB7019649815A81CB
:103A30001C01FC0180E090E08E159F05C4F48E15FA
:103A40009F0518F44115510529F41092BE02AEEB02
:103A5000B2E003C0DA01A80FB91F2C91022E000CAE
:103A6000330B20533109219331930196E5CFC12CBB
:103A7000D12CCE14DF040CF001C2D1012D913D9167
:103A80001D01C90163E070E00E94C7228B014DEF68
:103A90004603C001479F900D1124D901A80FB91FFB
:103AA000B887AF838CEA92E00E94470A8F8198859D
:103AB0000E94000E81EB92E00E94470AC8010E941A
:103AC000000E4DEC5CEC6CE47EE38DEF96E00E9422
:103AD000DC044DEC5CEC6CE47EEB8FEF96E00E9436
:103AE000DC0480E00E949E0781E00E949E0781E046
:103AF00097E00E94CF0690958095709561957F4FD5
:103B00008F4F9F4F0E94272129EA35E841EC51E46D
:103B10000E94862120E030E048E455E40E945023D2
:103B20002B013C0183E097E00E94CF060E942721F1
:103B300029EA35E841EC51E40E94862120E030E09A
:103B400048E455E40E9450234B015C0126EC33E02D
:103B500041E051E4C301B2010E94F82318163CF47D
:103B600040E050E0BA018DEF96E00E94DC0426ECC4
:103B700033E041E051E4C501B4010E94F823181676
:103B800044F440E050E060E070E88FEF96E00E947F
:103B9000DC0426EC33E041E051E4C301B2010E94B1
:103BA000202187FDA4CF26EC33E041E051E4C5019C
:103BB000B4010E94202187FD9ACFEF81F8853196CC
:103BC000F887EF83CF010E946F0B81E090E00E94A5
:103BD0006708000F111F000F111FF801E15FFD4F73
:103BE0002091BF023091C0024091C1025091C202A7
:103BF00060817181828193810E94E3220E94FD0A8B
:103C000081E090E00E946F0B60E070E080E09FE355
:103C10000E94FD0A4DEC5CEC6CE47EEB8DEF96E0CF
:103C20000E94DC044DEC5CEC6CE47EE38FEF96E0EC
:103C30000E94DC0480E00E949E0781E00E949E07B3
:103C400081E097E00E94CF069095809570956195F0
:103C50007F4F8F4F9F4F0E94272129EA35E841EC83
:103C600051EC0E94862120E030E048E455E40E94B7
:103C700050234B015C0183E097E00E94CF060E9435
:103C8000272129EA35E841EC51EC0E94862120E009
:103C900030E048E455E40E9450232B013C0120E031
:103CA00030E040E751E4C501B4010E94F823181642
:103CB0003CF440E050E0BA018DEF96E00E94DC0455
:103CC00020E030E040E751E4C301B2010E94F82354
:103CD000181644F440E050E060E070E88FEF96E0A2
:103CE0000E94DC0420E030E040E751E4C501B4016B
:103CF0000E94202187FDA4CF20E030E040E751E47E
:103D0000C301B2010E94202187FD9ACF64EF71E0C8
:103D100080E090E00E9419180E94D50781E090E0B1
:103D20000E946F0B8FEF9FEF0E9467084090BF02C9
:103D30005090C0026090C1027090C20220E030E05A
:103D400048EB50E4C301B2010E94202187FF0AC062
:103D5000A301920160E070E088EB90E40E94E3220E
:103D60000E94FD0A8F8198850E946F0B4DEC5CECE0
:103D70006CEC7EE38DEF96E00E94DC044DEC5CEC95
:103D80006CEC7EEB8FEF96E00E94DC0464E670E062
:103D900080E090E00E94191840E050E060E87FE386
:103DA0008DEF96E00E94DC0440E050E060E87FEB9D
:103DB0008FEF96E00E94DC0468EC70E080E090E019
:103DC0000E94191840E050E0BA018DEF96E00E9481
:103DD000DC0440E050E060E070E88FEF96E00E9485
:103DE000DC046AE070E080E090E00E9419184DEC7D
:103DF0005CEC6CEC7EEB8DEF96E00E94DC044DEC0D
:103E00005CEC6CEC7EE38FEF96E00E94DC0464E6F1
:103E100070E080E090E00E94191840E050E060E817
:103E20007FEB8DEF96E00E94DC0440E050E060E81C
:103E30007FE38FEF96E00E94DC0468EC70E080E0A6
:103E400090E00E94191840E050E0BA018DEF96E032
:103E50000E94DC0440E050E060E070E88FEF96E004
:103E60000E94DC0464EF71E080E090E00E94191889
:103E70000E94D507FFEFCF1ADF0AFBCD1092BC02DC
:103E80001092BB0289819A810E94922429853A85E9
:103E90000FB6F8943EBF0FBE2DBF0E94DD0193CD3B
:103EA0000F93109211031092100388EE93E0A0E09C
:103EB000B0E08093120390931303A0931403B09384
:103EC00015032FE132E030930F0320930E0310927D
:103ED0001D0310921C0380931E0390931F03A09355
:103EE0002003B093210321E332E030931B0320939E
:103EF0001A0345E351E0509327034093260344E31C
:103F000051E0509329034093280340E351E050933C
:103F10002B0340932A0341E351E050932D03409338
:103F20002C0342E351E050932F0340932E0346E3CA
:103F300051E05093310340933003109233031092B9
:103F4000340310923503109236031092BA03109284
:103F5000B9038093BB039093BC03A093BD03B093BC
:103F6000BE033093B8032093B70345ED50E0509360
:103F7000C4034093C30344ED50E05093C603409301
:103F8000C50340ED50E05093C8034093C70341ED93
:103F900050E05093CA034093C90342ED50E0509360
:103FA000CC034093CB0346ED50E05093CE034093B7
:103FB000CD031092D0031092D1031092D20310922D
:103FC000D303109257041092560480935804909390
:103FD0005904A0935A04B0935B0430935504209382
:103FE000540485EC90E0909361048093600484EC29
:103FF00090E0909363048093620480EC90E090934F
:1040000065048093640481EC90E09093670480934E
:10401000660482EC90E0909369048093680486ECD7
:1040200090E090936B0480936A0410926D04109258
:104030006E0410926F041092700486E3809305075B
:1040400087E38093060788E38093070789E38093DB
:1040500008078BE1809309078DE180930A078AE1C5
:1040600080930B078CE180930C0784E080930D070D
:1040700087E080930E0710920F0784EB8093100760
:1040800086E18093110788E18093120787E180938E
:10409000130789E180931407E091FF05EC3020F0CD
:1040A0008FEF8093150710C081E08E0F8093FF057E
:1040B000E093150725E0E29FF0011124ED53FA4F3C
:1040C00088EB9BE092838183E091FF05EC3020F048
:1040D0008FEF8093160710C081E08E0F8093FF054D
:1040E000E093160785E0E89FF0011124ED53FA4FA5
:1040F00088EB9BE0928381838CE08093E40684E2EA
:104100008093E50686E08093E60685E08093E706E7
:104110008FE18093E8068EE18093E90683E2809345
:10412000EA0682E28093EB0685E48093EC0684E461
:104130008093ED0680E48093F0061092F5061092CD
:10414000F6061092F7061092F8061092F9061092F1
:10415000FA061092FB061092FC06E6E2F6E08FEFFC
:104160009FEFDC011282138214821582168217825D
:104170001086118683879487A587B6878787908B5B
:10418000A18BB28B128611821082739626E0E43ED8
:10419000F20741F78DE090E00E94FD23FC011382BD
:1041A000128283E792E091838083118687E2848381
:1041B00084E1828784E083871486F0932306E0936A
:1041C0002206109224061092250685E28093F204BE
:1041D0001092F40467E972E08BE196E00E9400100F
:1041E00010920C0610920B0610920E0610920D06FD
:1041F0001092100610920F061092120610921106DD
:10420000109214061092130683E592E0909307062D
:104210008093060685E692E090930A06809309064D
:104220000FEF24E048E060E072E086E096E00E9454
:104230000F0367E972E080E096E00F910C940010A4
:104240000E94622108F481E00895E89409C097FB78
:104250003EF490958095709561957F4F8F4F9F4F5D
:104260009923A9F0F92F96E9BB279395F6958795A1
:1042700077956795B795F111F8CFFAF4BB0F11F464
:1042800060FF1BC06F5F7F4F8F4F9F4F16C088230B
:1042900011F096E911C0772321F09EE8872F762F41
:1042A00005C0662371F096E8862F70E060E02AF082
:1042B0009A95660F771F881FDAF7880F969587956E
:1042C00097F90895990F0008550FAA0BE0E8FEEF43
:1042D00016161706E807F907C0F012161306E407CA
:1042E000F50798F0621B730B840B950B39F40A26C3
:1042F00061F0232B242B252B21F408950A2609F4A1
:10430000A140A6958FEF811D811D08950E949921DE
:104310000C940A220E94FC2138F00E94032220F013
:10432000952311F00C94F3210C94F92111240C9491
:104330003E220E941B2270F3959FC1F3950F50E01F
:10434000551F629FF001729FBB27F00DB11D639F47
:10435000AA27F00DB11DAA1F649F6627B00DA11DED
:10436000661F829F2227B00DA11D621F739FB00D93
:10437000A11D621F839FA00D611D221F749F332703
:10438000A00D611D231F849F600D211D822F762F9C
:104390006A2F11249F5750409AF0F1F088234AF079
:1043A000EE0FFF1FBB1F661F771F881F91505040E5
:1043B000A9F79E3F510580F00C94F3210C943E2206
:1043C0005F3FE4F3983ED4F3869577956795B7956C
:1043D000F795E7959F5FC1F7FE2B880F911D969586
:1043E000879597F9089597F99F6780E870E060E0F6
:1043F00008959FEF80EC089500240A94161617067E
:1044000018060906089500240A94121613061406C5
:1044100005060895092E0394000C11F4882352F028
:10442000BB0F40F4BF2B11F460FF04C06F5F7F4FE0
:104430008F4F9F4F089557FD9058440F551F59F0C7
:104440005F3F71F04795880F97FB991F61F09F3F81
:1044500079F087950895121613061406551FF2CFAA
:104460004695F1DF08C0161617061806991FF1CFFA
:1044700086957105610508940895E894BB27662721
:104480007727CB0197F90895052E97FB1EF400942A
:104490000E945B2257FD07D00E94762207FC03D0C2
:1044A0004EF40C945B2250954095309521953F4FEA
:1044B0004F4F5F4F089590958095709561957F4F10
:1044C0008F4F9F4F08950E949822A59F900DB49FF3
:1044D000900DA49F800D911D11240895B7FF0C9499
:1044E00063220E946322821B930B0895A1E21A2E7D
:1044F000AA1BBB1BFD010DC0AA1FBB1FEE1FFF1F88
:10450000A217B307E407F50720F0A21BB30BE40BD7
:10451000F50B661F771F881F991F1A9469F760951E
:104520007095809590959B01AC01BD01CF010895D8
:10453000A29FB001B39FC001A39F700D811D1124E4
:10454000911DB29F700D811D1124911D0895991B1D
:1045500079E004C0991F961708F0961B881F7A957A
:10456000C9F780950895AA1BBB1B51E107C0AA1F7C
:10457000BB1FA617B70710F0A61BB70B881F991F04
:104580005A95A9F780959095BC01CD01089597FBA8
:10459000072E16F4009407D077FD09D00E94B322AD
:1045A00007FC05D03EF4909581959F4F0895709536
:1045B00061957F4F0895EE0FFF1F881F8BBF0790F7
:1045C000F691E02D19945058BB27AA270E94FB2290
:1045D0000C940A220E94FC2138F00E94032220F051
:1045E00039F49F3F19F426F40C94F9210EF4E09568
:1045F000E7FB0C94F321E92F0E941B2258F3BA1712
:10460000620773078407950720F079F4A6F50C94E8
:104610003D220EF4E0950B2EBA2FA02D0B01B9010F
:1046200090010C01CA01A0011124FF27591B99F028
:10463000593F50F4503E68F11A16F040A22F232F34
:10464000342F4427585FF3CF469537952795A79584
:10465000F0405395C9F77EF41F16BA0B620B730B2B
:10466000840BBAF09150A1F0FF0FBB1F661F771F9C
:10467000881FC2F70EC0BA0F621F731F841F48F451
:10468000879577956795B795F7959E3F08F0B0CFDA
:104690009395880F08F09927EE0F979587950895C1
:1046A0000E9464230C940A220E94032258F00E9464
:1046B000FC2140F029F45F3F29F00C94F3215111C3
:1046C0000C943E220C94F9210E941B2268F399233A
:1046D000B1F3552391F3951B550BBB27AA276217FE
:1046E0007307840738F09F5F5F4F220F331F441F0B
:1046F000AA1FA9F335D00E2E3AF0E0E832D091503F
:104700005040E695001CCAF72BD0FE2F29D0660F2B
:10471000771F881FBB1F261737074807AB07B0E86E
:1047200009F0BB0B802DBF01FF2793585F4F3AF074
:104730009E3F510578F00C94F3210C943E225F3F8C
:10474000E4F3983ED4F3869577956795B795F795FA
:104750009F5FC9F7880F911D9695879597F90895E2
:10476000E1E0660F771F881FBB1F6217730784077E
:10477000BA0720F0621B730B840BBA0BEE1F88F78D
:10478000E09508950E94C9236894B1110C943E22CB
:1047900008950E94232288F09F5798F0B92F9927F7
:1047A000B751B0F0E1F0660F771F881F991F1AF01C
:1047B000BA95C9F714C0B13091F00E943D22B1E022
:1047C00008950C943D22672F782F8827B85F39F021
:1047D000B93FCCF3869577956795B395D9F73EF4B5
:1047E00090958095709561957F4F8F4F9F4F08955D
:1047F0000E94622108F48FEF0895CF93DF938230F7
:10480000910510F482E090E0E091AB07F091AC07E5
:1048100020E030E0C0E0D0E0309711F140815181DC
:1048200048175907C0F04817590761F482819381EE
:10483000209719F09B838A832BC09093AC078093B9
:10484000AB0726C02115310519F04217530718F49C
:104850009A01BE01DF01EF010280F381E02DDCCF80
:104860002115310509F1281B390B2430310590F44D
:1048700012968D919C9113976115710521F0FB01A2
:104880009383828304C09093AC078093AB07FD01B0
:10489000329644C0FD01E20FF31F819391932250A1
:1048A00031092D933C933AC02091A9073091AA0772
:1048B000232B41F420910B0230910C023093AA0774
:1048C0002093A9072091090230910A022115310590
:1048D00041F42DB73EB740910D0250910E02241BBA
:1048E000350BE091A907F091AA07E217F307A0F4AE
:1048F0002E1B3F0B2817390778F0AC014E5F5F4F36
:104900002417350748F04E0F5F1F5093AA074093B6
:10491000A9078193919302C0E0E0F0E0CF01DF911D
:10492000CF9108950F931F93CF93DF93009709F4CE
:104930008CC0FC013297138212820091AB07109158
:10494000AC070115110581F420813181820F931F7D
:104950002091A9073091AA072817390779F5F09314
:10496000AA07E093A90771C0D80140E050E0AE1754
:10497000BF0750F412962D913C911397AD0121156C
:10498000310509F1D901F3CF9D01DA013383228387
:1049900060817181860F971F8217930769F4EC017C
:1049A00028813981260F371F2E5F3F4F31832083A7
:1049B0008A819B8193838283452B29F4F093AC07F2
:1049C000E093AB0742C01396FC93EE931297ED0170
:1049D000499159919E01240F351FE217F30771F495
:1049E00080819181840F951F029611969C938E93DE
:1049F0008281938113969C938E931297E0E0F0E06E
:104A0000D80112968D919C911397009719F0F80197
:104A10008C01F6CF8D919C9198012E5F3F4F820FB4
:104A2000931F2091A9073091AA072817390769F425
:104A3000309729F41092AC071092AB0702C0138292
:104A400012821093AA070093A907DF91CF911F91BB
:104A50000F9108956F927F928F929F92AF92BF9223
:104A6000CF92DF92EF92FF920F931F93CF93DF933A
:104A7000EC01009789F4CB01DF91CF911F910F9149
:104A8000FF90EF90DF90CF90BF90AF909F908F906E
:104A90007F906F900C94FD23FC01E60FF71F9C01A3
:104AA00022503109E217F30708F4ACC0D9010D9187
:104AB0001C91119706171707B0F00530110508F47F
:104AC0009FC0C80104978617970708F499C0025041
:104AD0001109061B170B019311936D937C93CF0162
:104AE0000E9492248DC05B01A01AB10A4C01800E75
:104AF000911EA091AB07B091AC0740E050E0E12CD3
:104B0000F12C109709F44AC0A815B905D1F56D909C
:104B10007C901197630182E0C80ED11CCA14DB049B
:104B200080F1A3014A195B096A0182E0C80ED11C19
:104B30001296BC9012971396AC91B5E0CB16D104A7
:104B400040F0B282A38351834083D9016D937C935B
:104B50000AC00E5F1F4FC301800F911FF90191839F
:104B60008083EB2DFA2FE114F10431F0D701139675
:104B7000FC93EE93129744C0F093AC07E093AB071D
:104B80003FC08D919C9111974817590708F4AC01CB
:104B90007D0112960D90BC91A02DB3CF8091A907F5
:104BA0009091AA0788159905E1F446175707C8F4AC
:104BB0008091090290910A02009741F48DB79EB747
:104BC00040910D0250910E02841B950BE817F907D6
:104BD000C8F4F093AA07E093A907F90171836083F1
:104BE0000FC0CB010E94FD237C01009759F0A80162
:104BF000BE010E941826CE010E949224C70104C063
:104C0000CE0102C080E090E0DF91CF911F910F9123
:104C1000FF90EF90DF90CF90BF90AF909F908F90DC
:104C20007F906F90089581E090E0F8940C9428268E
:104C3000FB01DC0102C001900D9241505040D8F7B9
:104C40000895FB01DC0101900D920020E1F7089529
:104C500011E0C4EAD1E000E006C0802FFE010E940E
:104C6000DB222196011DC53AD10780E00807A9F78C
:044C7000F894FFCFE6
:104C74000001020304050607FF0000AD0720000041
:104C84000000000000B84033332B41000000009EB8
:104C9400156E158B02481566155715491500000049
:104CA40000430F830EC70E8A0FF80ED60EEA0E00CD
:104CB4000000000A02AD029802C202AC0F03000019
:104CC4000000000F039D18FDFF000000000000001D
:104CD40000FDFF00000A02AD029802C2024519005D
:104CE4000000005803830E8B028A02594F206A2762
:104CF4006169207265637520756E204D455353417B
:104D040047453A20000D0A00496E76616C696420BB
:104D1400656E636F646572206964210078203D20AC
:064D24000079203D200093
:00000001FF
