:100000000C945D010C948E010C948E010C948E0165
:100010000C948E010C948E010C948E010C948E0124
:100020000C948E010C9497060C9497060C949706EA
:100030000C948E010C941D080C948E010C948E016E
:100040000C948E010C94760A0C948E010C948E0103
:100050000C948E010C948E010C948E010C94D30799
:100060000C948E010C948E090C9464090C948E01EE
:100070000C948E010C948E010C948E010C948E01C4
:100080000C948E010C948E010C948E010C948E01B4
:100090000C948E010C948E010C948E010C94A1068C
:1000A0000C948E010C948E010C948E010C948E0194
:1000B0000C948E010C948E010C948E010C94B80952
:1000C0000C948E010C948E010C948E010C943A09C0
:1000D0000C9410090C948E010C94E6080C94BC0846
:1000E0000C948E0169026C025B025F026502A3023E
:1000F000700274027A027E02820288028C029002EE
:10010000A30296029A029E020C945F020C9488024B
:100110000C949E020C941F020C9490020C94E50126
:100120000C9452050C94630D0C94A3020C94E10101
:100130000C941A040C945B020C945A030C94E20184
:100140000C9474020C942D050C9470020C948C0287
:100150000C9465020C94C1030C946C020C949E03E5
:100160000C949A020C94AD030C94EF010C94690268
:100170000C9496020C9453050C94690D0C94820215
:100180000C94E8010C94CF030C9461040C947A0253
:100190000C947E0202000020002300260029002C7F
:1001A000002F0032000001000003010601090100D8
:1001B000000A0B02090C0D0E0807030401000000E1
:1001C000000000000000000000000000000000002F
:1001D00000000000000000000000001211100000EC
:1001E000000000000000000000000000000000000F
:1001F000000000000000002200250028002B002E37
:10020000003100340002010000050108010B01006B
:10021000002100240027002A002D003000330001B7
:10022000010000040107010A01050505050705088D
:10023000080808020202020A0A0808040404040169
:10024000010101010101010303030303030303048B
:100250000707070C0C0C0C0C0C0C0C02020202061B
:10026000060606060606060B0B0B0B0B0B0B0B010B
:1002700002102020080810204010204080020102B7
:10028000010804020101020408102040808040207F
:1002900010080402018004020180402010080402BA
:1002A0000108040201010204081020408001020438
:1002B000081020408000690D630D11241FBECFEF90
:1002C000D1E2DEBFCDBF00E00CBF12E0A0E0B2E0A3
:1002D000ECEDF7E200E00BBF02C007900D92A63EE6
:1002E000B107D9F727E0A6EEB2E001C01D92AF3901
:1002F000B207E1F711E0CCE5D1E000E006C02197BC
:100300000109802FFE010E948A10CB35D10780E0C1
:100310000807A9F70E94840C0C94DC130C940000CD
:1003200090E0FC01E159FD4F2491FC01E75DFD4F98
:100330008491882399F090E0880F991FFC01E15F78
:10034000FD4FA591B491FC01EB50FE4F8591949126
:100350008FB7F894EC91E22BEC938FBF089585ED65
:100360008093BC008091BC0084FDFCCF1092790387
:10037000089540915303262F30E0240F311D213280
:100380003105DCF4209179032430C9F4FC0180E0CC
:1003900090E0861758F4309153032191DC01AF5C53
:1003A000BC4FA30FB11D2C930196F3CF8091530343
:1003B000680F6093530380E0089581E0089582E020
:1003C000089508958FEF9FEF08958FEF9FEF0895A1
:1003D0008091300390E09195819591090895CF9295
:1003E000DF92EF92FF920F931F93CF93DF937C01E5
:1003F000262F972F8A0180912F03882391F0C62FF3
:10040000D72F6E01C40ED51ECC15DD0571F0699194
:10041000D701ED91FC910190F081E02DC701199574
:10042000F3CF642F822F0E94B901C801DF91CF91D1
:100430001F910F91FF90EF90DF90CF900895CF9391
:10044000DF931F92CDB7DEB7698320912F0322235C
:10045000D1F020912E03203240F021E030E0FC0169
:100460003383228380E090E015C080912D03E82F34
:10047000F0E0E35FFC4F998190838F5F80932D03C1
:1004800080932E0305C061E0CE0101960E94B90160
:1004900081E090E00F90DF91CF91089590E0FC0112
:1004A0003197E231F10508F04EC08827EE58FF4F32
:1004B0008F4F0C948A10809180008F7703C08091B9
:1004C00080008F7D80938000089580918000877FD9
:1004D000F9CF84B58F7702C084B58F7D84BD089530
:1004E0008091B0008F7703C08091B0008F7D8093A2
:1004F000B0000895809190008F7707C080919000A0
:100500008F7D03C080919000877F80939000089535
:100510008091A0008F7707C08091A0008F7D03C0DD
:100520008091A000877F8093A00008958091200192
:100530008F7707C0809120018F7D03C080912001BB
:10054000877F809320010895CF93DF93282F30E099
:10055000F901E155FE4F8491F901E159FD4FD49124
:10056000F901E75DFD4FC491CC2391F081110E9408
:100570004E02EC2FF0E0EE0FFF1FEB56FE4FA59161
:10058000B491EC91ED2381E090E021F480E002C091
:1005900080E090E0DF91CF9108951F93CF93DF9398
:1005A000282F30E0F901E155FE4F8491F901E1591E
:1005B000FD4FD491F901E75DFD4FC491CC23C9F003
:1005C000162F81110E944E02EC2FF0E0EE0FFF1F5C
:1005D000EB50FE4FA591B4918FB7F894111105C05F
:1005E0009C91ED2FE095E92302C0EC91ED2BEC936B
:1005F0008FBFDF91CF911F9108953FB7F8948091FD
:10060000090390910A03A0910B03B0910C0326B546
:10061000A89B05C02F3F19F00196A11DB11D3FBF3A
:10062000BA2FA92F982F8827820F911DA11DB11DC8
:10063000BC01CD0142E0660F771F881F991F4A95C4
:10064000D1F708958F929F92AF92BF92CF92DF928F
:10065000EF92FF920E94FD024B015C0188EEC82ED2
:1006600083E0D82EE12CF12C0E94FD02DC01CB01AD
:1006700088199909AA09BB09883E9340A105B105CB
:1006800058F021E0C21AD108E108F10888EE880E7E
:1006900083E0981EA11CB11CC114D104E104F10433
:1006A00019F7FF90EF90DF90CF90BF90AF909F90A1
:1006B0008F900895CF92DF92EF92FF920F931F9346
:1006C000CF93DF936C017A018B01C0E0D0E0CE15AF
:1006D000DF0589F0D8016D918D01D601ED91FC9176
:1006E0000190F081E02DC6011995892B11F47E014E
:1006F00002C02196ECCFC701DF91CF911F910F91DE
:10070000FF90EF90DF90CF900895FC01A089B18910
:100710008C91A689B78982FD0FC09C91818D8F5FD6
:100720008F73228D821749F0218DDF01A20FB11D39
:100730005D969C93818F08958C910895FC01538D53
:10074000448D252F30E0842F90E0821B930B5417AB
:1007500010F0CF96089501970895FC01918D828D38
:10076000981761F0828DDF01A80FB11D5D968C9105
:10077000928D9F5F9F73928F90E008958FEF9FEF10
:100780000895FC01918D828D981731F0828DE80FCC
:10079000F11D858D90E008958FEF9FEF0895FC0186
:1007A000918D228D892F90E0805C9F4F821B910953
:1007B0008F739927089585EB93E00E94CF0321E082
:1007C000892B09F420E0822F089582E594E00E94AD
:1007D000CF0321E0892B09F420E0822F08958FEECA
:1007E00094E00E94CF0321E0892B09F420E0822FBE
:1007F0000895FC01848DDF01A80FB11DA35ABF4FDE
:100800002C91848D90E001968F739927848FA6890F
:10081000B7892C93A089B1898C9180648C93938D36
:10082000848D981306C00288F389E02D80818F7D26
:1008300080830895EF92FF920F931F93CF93DF93DE
:10084000EC0181E0888F9B8D8C8D981305C0E88921
:10085000F989808185FD24C0F62E0B8D10E00F5F95
:100860001F4F0F731127E02E8C8DE8120CC00FB6AE
:1008700007FCFACFE889F989808185FFF5CFCE01A1
:100880000E94F903F1CF8B8DFE01E80FF11DE35AB1
:10089000FF4FF0820B8FEA89FB898081806207C05D
:1008A000EE89FF896083E889F9898081806480838B
:1008B00081E090E0DF91CF911F910F91FF90EF9039
:1008C0000895CF93DF93EC01888D8823C9F0EA89DE
:1008D000FB89808185FD05C0A889B9898C9186FD39
:1008E0000FC00FB607FCF5CF808185FFF2CFA88936
:1008F000B9898C9185FFEDCFCE010E94F903E7CF36
:10090000DF91CF910895E0E0F0E0199480E090E06D
:10091000892B21F00E94EF03811119C080E090E043
:10092000892B41F080E090E0892B21F00E940000AB
:10093000811110C00E94E50381110FC080E090E09A
:10094000892B81F00E94DB0381110AC008950E9467
:100950000000E4CF0E940000EDCF0E948304EECFA0
:100960000C9400000895CF93FC01C48121E02093F2
:100970002F03C093FF0210922D0310922E03848543
:10098000682B89EA93E00E941F0280912E03813236
:1009900008F046C0909179039111FCCF92E09093BA
:1009A000790391E090937B039FEF909378031092EB
:1009B0009D0380939C03ADE0B3E02CE733E0F901A5
:1009C0009E2F921B981718F49D919193F9CF109236
:1009D0009E0380919E03CC0FC82BC0939E038091F1
:1009E0007A03813061F410927A0380919E038093A0
:1009F000BB008091BC0083FDF8CF85EC01C085EE83
:100A00008093BC00809179038230E1F38091780378
:100A10008F3F31F080917803803211F0809178031C
:100A200010922D0310922E0310922F03CF91089550
:100A30000F931F93CF938C01C62F64600E94B30461
:100A40006C2F6B7FC8010E94B30483EC90E0019788
:100A5000F1F7CF911F910F9108950F931F93CF93AB
:100A6000DF938C01C62FD62FD07FD1606D2F0E94CF
:100A7000B3046D2FC8010E94180580E1C89FB00122
:100A80001124C62FC1606C2FC8010E94B3046C2FC3
:100A9000C8010E94180581E090E0DF91CF911F917D
:100AA0000F910895089580E090E008954F925F922D
:100AB0006F927F928F929F92AF92BF92CF92DF926E
:100AC000EF92FF920F931F93CF93DF937C0183E408
:100AD00092E00E94510CC7010E94530CF701EE0FE7
:100AE000FF1FEE0FFF1FE95FFD4F2091A50330911F
:100AF000A6034091A7035091A80360817181828170
:100B000093810E9492106B017C018FB7F894409002
:100B1000A1035090A2036090A3037090A4038FBF21
:100B200020E030E046E155E4C701B6010E94AA0F7B
:100B30000E947111EB0177FF04C0CC27DD27C61B93
:100B4000D70B80E592E00E94510CCE010E94530C1D
:100B500020E030E0A901C701B6010E94A71187FD7E
:100B600007C061E087E20E94CD028FE592E006C0F7
:100B700060E087E20E94CD0289E692E00E947C0B51
:100B800085E792E00E94510C60E070E080E89FE30E
:100B90000E948A0B80E892E00E94510CC701B601C6
:100BA0000E948A0B00E010E08BE7A82E8CE0B82EA4
:100BB0000C171D07A1F080918B070E94A402892BBE
:100BC00009F4A2C020E030E0A901C701B6010E94EB
:100BD000440F87FF99C084EC92E00E947C0BA70130
:100BE00096016091A5037091A6038091A70390914F
:100BF000A8030E9493106093A5037093A6038093AB
:100C0000A7039093A8038CE892E00E94510C609196
:100C1000A5037091A6038091A7039091A8030E9459
:100C20008A0B88ED92E00E947C0B2FB7F89480919C
:100C3000A1039091A203A091A303B091A4032FBF9D
:100C4000BC01CD0164197509860997090E94490FF5
:100C500020E030E04AE754E40E94FF104B015C01C1
:100C600080EA92E00E94510CC501B4010E948A0BF7
:100C700089EA92E00E94510CA7019601C501B401D6
:100C80000E94FF100E9471119B0177FF04C0222770
:100C90003327261B370BC9010E94530C8DEB92E0C2
:100CA0000E94510C20E030E040E451E4C701B6015D
:100CB0000E94AA0FA50194010E94FF1020E030E0DD
:100CC00040E752E40E94AA0F0E9471119B0177FF36
:100CD00004C022273327261B370BC9010E94530C5F
:100CE0008BEB92E0DF91CF911F910F91FF90EF90EE
:100CF000DF90CF90BF90AF909F908F907F906F903C
:100D00005F904F900C947C0B61E085E20E94CD02D5
:100D1000C5010197F1F760E085E20E94CD02C501AF
:100D20000197F1F70F5F1F4F43CF0E94C7131F9228
:100D30000F920FB60F9211240F900FBE0F901F90BD
:100D400018951F920F920FB60F9211240BB60F92A7
:100D50002F933F934F935F936F937F938F939F93C3
:100D6000AF93BF93EF93FF938091B900887F803654
:100D700009F49CC068F5883209F45BC090F48031B6
:100D800009F454C038F4882309F4F6C0883009F413
:100D90004DC0F6C0883109F44CC0803209F45DC002
:100DA000EFC0803409F468C048F4803309F455C0BA
:100DB000883309F0E5C080937803D8C0803509F402
:100DC0004FC0883509F45DC0883409F0D9C0D6C059
:100DD000883909F4C7C0A8F4883709F467C038F423
:100DE000883609F463C0803709F460C0C9C0883808
:100DF00009F4B8C0803909F45FC0803809F0C0C078
:100E00005BC0803B09F486C038F4803A09F466C0C0
:100E1000883A09F47FC0B4C0803C09F4A7C0883C7C
:100E200009F4A4C0883B09F48AC0AAC080919E033B
:100E300010C090919D0380919C03981770F5E091EC
:100E40009D0381E08E0F80939D03F0E0E458FC4FFA
:100E500080818093BB0085EC86C0809378038EC030
:100E6000E0919D0381E08E0F80939D038091BB00F4
:100E7000F0E0E458FC4F808390919D0380919C03A7
:100E80006EC0E0919D0381E08E0F80939D03809161
:100E9000BB00F0E0E458FC4F808380917B0381111C
:100EA0006DC081E080937A0384EA61C083E080931F
:100EB000790310927703CFCF80917703803208F0C7
:100EC00051C0E091770381E08E0F8093770380918A
:100ED000BB00F0E0E95AFC4F8083BDCF85EC8093E6
:100EE000BC001092790380917703803230F4E09156
:100EF0007703F0E0E95AFC4F10826091770370E0CD
:100F0000E0915503F091560387E593E0199510920F
:100F1000770336C084E080937903109254031092D3
:100F20005303E0915103F0915203199580915303BB
:100F3000811105C081E08093530310923103E09149
:100F4000540381E08E0F80935403F0E0EF5CFC4F7C
:100F500080818093BB009091540380915303981734
:100F600008F479CF85E88093BC000AC085EC8093B3
:100F7000BC001092790304C0109278030E94AF0164
:100F8000FF91EF91BF91AF919F918F917F916F9161
:100F90005F914F913F912F910F900BBE0F900FBE1D
:100FA0000F901F9018951F920F920FB60F92112459
:100FB0002F933F938F939F93AF93BF938091A10300
:100FC0009091A203A091A303B091A40330910803D0
:100FD00023E0230F2D3720F40196A11DB11D05C07C
:100FE00026E8230F0296A11DB11D209308038093CC
:100FF000A1039093A203A093A303B093A4038091B1
:10100000090390910A03A0910B03B0910C03019680
:10101000A11DB11D8093090390930A03A0930B03B4
:10102000B0930C03BF91AF919F918F913F912F91FE
:101030000F900FBE0F901F9018951F920F920FB632
:101040000F9211240BB60F922F933F934F935F9300
:101050006F937F938F939F93AF93BF93EF93FF9380
:101060008091040390910503A0910603B0910703BA
:10107000892B8A2B8B2B59F180910303E09101037B
:10108000F0910203908189278083809104039091DD
:101090000503A0910603B0910703181619061A0656
:1010A0001B060CF056C08091040390910503A0919B
:1010B0000603B09107030197A109B10980930403C6
:1010C00090930503A0930603B093070342C0809159
:1010D0000002E4E9F1E0E4919FEF90930002E23036
:1010E000C9F050F4EE2399F0E13081F590916F0052
:1010F0009D7F90936F002AC0E43019F1E0F0E53055
:1011000029F5909173009D7F909373001FC01092FA
:101110006E001CC0909170009D7F9093700091E0D4
:101120009093B0009091B100987F94609093B1003B
:101130001092B3000BC0909171009D7F909371004D
:1011400005C0909172009D7F9093720060E00E94B4
:10115000CD02FF91EF91BF91AF919F918F917F91C0
:101160006F915F914F913F912F910F900BBE0F9018
:101170000FBE0F901F9018951F920F920FB60F92EF
:1011800011240BB60F922F933F934F935F936F935E
:101190007F938F939F93AF93BF93EF93FF9385EBD1
:1011A00093E00E94F903FF91EF91BF91AF919F915E
:1011B0008F917F916F915F914F913F912F910F9000
:1011C0000BBE0F900FBE0F901F9018951F920F929D
:1011D0000FB60F9211240BB60F922F933F934F939C
:1011E0005F936F937F938F939F93AF93BF93EF938F
:1011F000FF9385EB93E00E948503FF91EF91BF91F0
:10120000AF919F918F917F916F915F914F913F919E
:101210002F910F900BBE0F900FBE0F901F9018953F
:101220001F920F920FB60F9211240BB60F922F93AD
:101230003F934F935F936F937F938F939F93AF935E
:10124000BF93EF93FF9382E594E00E94F903FF912F
:10125000EF91BF91AF919F918F917F916F915F912E
:101260004F913F912F910F900BBE0F900FBE0F909B
:101270001F9018951F920F920FB60F9211240BB664
:101280000F922F933F934F935F936F937F938F931F
:101290009F93AF93BF93EF93FF9382E594E00E94F7
:1012A0008503FF91EF91BF91AF919F918F917F91B6
:1012B0006F915F914F913F912F910F900BBE0F90C7
:1012C0000FBE0F901F9018951F920F920FB60F929E
:1012D00011240BB60F922F933F934F935F936F930D
:1012E0007F938F939F93AF93BF93EF93FF938FEE73
:1012F00094E00E94F903FF91EF91BF91AF919F910C
:101300008F917F916F915F914F913F912F910F90AE
:101310000BBE0F900FBE0F901F9018951F920F924B
:101320000FB60F9211240BB60F922F933F934F934A
:101330005F936F937F938F939F93AF93BF93EF933D
:10134000FF938FEE94E00E948503FF91EF91BF9190
:10135000AF919F918F917F916F915F914F913F914D
:101360002F910F900BBE0F900FBE0F901F901895EE
:101370001F920F920FB60F9211240BB60F922F935C
:101380003F934F935F936F937F938F939F93AF930D
:10139000BF93EF93FF9380918D050E94A40220914B
:1013A0009105309192052F5F3F4F30939205209326
:1013B000910590919005953618F096E090938C05E4
:1013C00090918C059430C9F128F4923069F09330F3
:1013D000D1F05EC0953009F451C0963009F058C084
:1013E00091E090935D0651C0811152C0209191050A
:1013F000309192052436310508F442C010925D0602
:10140000109290051CC0813009F042C0E091900517
:1014100091E09E0F90939005F0E02091910530911E
:101420009205EE0FFF1FE457FA4F30872783109283
:1014300092051092910594E029C0811117C0E091A6
:10144000900591E09E0F90939005F0E0209191051A
:1014500030919205EE0FFF1FE457FA4F3087278334
:10146000109292051092910593E010C02091910581
:10147000309192052536310558F007C0811108C01A
:10148000109292051092910503C095E090938C05FF
:1014900090918F059923B9F081110AC080918E0532
:1014A000882321F080918E0561E009C02F9A0BC03E
:1014B00080918E05882331F080918E0560E00E9436
:1014C000CD0201C02F98FF91EF91BF91AF919F91F5
:1014D0008F917F916F915F914F913F912F910F90DD
:1014E0000BBE0F900FBE0F901F9018951F920F927A
:1014F0000FB60F9211240BB60F922F933F934F9379
:101500005F936F937F938F939F93AF93BF93EF936B
:10151000FF938091000387FF05C010928500109211
:10152000840016C020910003022E000C330B809122
:101530009A0690E0281739075CF43091000325E003
:101540003203F0011124E25AF94F808186FD15C063
:10155000809100038F5F8093000320910003022E8F
:10156000000C330B80919A0690E02817390794F409
:10157000809100038C302CF10DC0309100033203B8
:10158000F0011124E25AF94F808160E08F730E94CC
:10159000CD02DECF809184009091850084349C49F7
:1015A00018F480E49CE905C0809184009091850046
:1015B000049690938900809388008FEF80930003B6
:1015C0002AC040918400509185003091000325E0AD
:1015D0003203F0011124E25AF94F81819281840F84
:1015E000951F909389008093880030910003320307
:1015F000F0011124E25AF94F808186FF0CC030912E
:1016000000033203F0011124E25AF94F808161E0B6
:101610008F730E94CD02FF91EF91BF91AF919F9187
:101620008F917F916F915F914F913F912F910F908B
:101630000BBE0F900FBE0F901F901895E091EF0416
:10164000F091F0040190F081E02D682F8FEE94E08E
:101650001994009769F0FC0101900020E9F7319797
:10166000AF01481B590BBC018FEE94E00C945A0358
:1016700080E090E008958F929F92AF92BF920F9377
:101680001F93CF93DF93CDB7DEB7A1970FB6F89432
:10169000DEBF0FBECDBF19A2423008F44AE08E0172
:1016A0000F5D1F4F842E912CA12CB12CA50194010C
:1016B0000E946810E62FB901CA0101501109EA30F1
:1016C00014F4E05D01C0E95CD801EC93232B242BDA
:1016D000252B61F7C8010E94290BA1960FB6F8943B
:1016E000DEBF0FBECDBFDF91CF911F910F91BF9095
:1016F000AF909F908F900895CF93DF930E94290B16
:10170000EC0186ED92E00E94290B8C0F9D1FDF916A
:10171000CF9108954F925F926F927F928F929F9296
:10172000AF92BF92CF92DF92EF92FF926B017C015A
:101730009B01AC010E94AC11882319F089ED92E065
:101740001AC046015701E894B7F82FEF3FEF4FE773
:101750005FE7C501B4010E94AC11811110C02FEFE9
:101760003FEF4FE75FE7C501B4010E94440F181631
:1017700034F48DED92E00E94290B7C017FC02FEFA5
:101780003FEF4FE75FE4C701B6010E94A7111816AB
:101790001CF481EE92E0EFCF2FEF3FEF4FE75FECCD
:1017A000C701B6010E94440F87FDF3CF20E030E06F
:1017B000A901C701B6010E94440F87FF09C08DE24D
:1017C0000E941E0B5C01F7FAF094F7F8F09402C047
:1017D000A12CB12C2AE037ED43EA5BE3C701B60147
:1017E0000E9493102B013C010E9478116B017C0137
:1017F0000E94490F9B01AC01C301B2010E949210EB
:101800002B013C014AE0C701B6010E943B0B7C0161
:10181000EA0CFB1C8EE20E941E0BE80EF91E20E073
:1018200030E040E251E4C301B2010E94AA0F2B0153
:101830003C010E9478114B01A12CB12C4AE0C5015A
:10184000B4010E943B0BE80EF91EC501B4010E94D1
:10185000490F9B01AC01C301B2010E94921020E02C
:1018600030E040E251E40E94AA0F0E94781180E02B
:1018700090E04AE00E943B0BE80EF91E86ED92E0F4
:101880000E94290B8E0D9F1DFF90EF90DF90CF904F
:10189000BF90AF909F908F907F906F905F904F9090
:1018A00008950C94290BCF92DF92EF92FF92CF9381
:1018B000DF936C01990FEE08FF08F7FE12C08DE26E
:1018C0000E941E0BEC0166277727CB016C197D095E
:1018D0008E099F094AE00E943B0B7C01EC0EFD1E25
:1018E00006C04AE0C701B6010E943B0B7C0186EDB1
:1018F00092E00E94290B8E0D9F1DDF91CF91FF90EA
:10190000EF90DF90CF900895789484B5826084BD85
:1019100084B5816084BD85B5826085BD85B58160F3
:1019200085BD80916E00816080936E001092810071
:10193000809181008260809381008091810081602C
:1019400080938100809180008160809380008091ED
:10195000B10084608093B1008091B0008160809379
:10196000B0008091910082608093910080919100FD
:1019700081608093910080919000816080939000BD
:101980008091A10082608093A1008091A10081607C
:101990008093A1008091A00081608093A00080913D
:1019A00021018260809321018091210181608093D7
:1019B00021018091200181608093200180917A0033
:1019C000846080937A0080917A00826080937A00AC
:1019D00080917A00816080937A0080917A0080689B
:1019E00080937A001092C100E091FF04F09100050D
:1019F00082E08083E091FB04F091FC041082E0918E
:101A0000FD04F091FE048FEC808310920705E091B5
:101A10000305F091040586E08083E0910105F091D3
:101A20000205808180618083E0910105F0910205CB
:101A3000808188608083E0910105F09102058081BA
:101A400080688083E0910105F091020580818F7D9F
:101A5000808387E20E94900185E20E9490018AECD7
:101A600092E00E947C0B60E087E20E94CD02CBE70F
:101A7000DCE080918B070E94A402892B79F461E05D
:101A800085E20E94CD02CE010197F1F760E085E288
:101A90000E94CD02CE010197F1F7EBCF1092A50382
:101AA0001092A6031092A7031092A8030E9422038B
:101AB00081E090E00E9456050E94220380E090E0C1
:101AC0000E945605F3CF80919B0690919C060C9442
:101AD00046121092AC031092AB0388EE93E0A0E0A4
:101AE000B0E08093AD039093AE03A093AF03B093A7
:101AF000B00327E132E03093AA032093A9031092A8
:101B0000B8031092B7038093B9039093BA03A093DC
:101B1000BB03B093BC0329E232E03093B6032093B9
:101B2000B50345E351E05093C2034093C10344E33E
:101B300051E05093C4034093C30340E351E05093FA
:101B4000C6034093C50341E351E05093C80340935B
:101B5000C70342E351E05093CA034093C90346E3ED
:101B600051E05093CC034093CB031092CE031092DC
:101B7000CF031092D0031092D1031092550410920B
:101B800054048093560490935704A0935804B09340
:101B90005904309353042093520445ED50E0509380
:101BA0005F0440935E0444ED50E050936104409321
:101BB000600440ED50E0509363044093620441EDB3
:101BC00050E0509365044093640442ED50E050931C
:101BD00067044093660446ED50E0509369044093D7
:101BE000680410926B0410926C0410926D041092B1
:101BF0006E041092F2041092F1048093F304909317
:101C0000F404A093F504B093F6043093F004209309
:101C1000EF0485EC90E09093FC048093FB0484EC4B
:101C200090E09093FE048093FD0480EC90E090930C
:101C300000058093FF0481EC90E09093020580936F
:101C4000010582EC90E0909304058093030586ECF7
:101C500090E0909306058093050510920805109278
:101C6000090510920A0510920B0586E380938507FB
:101C700087E38093860788E38093870789E38093CF
:101C800088078BE1809389078DE180938A078AE139
:101C900080938B078CE180938C0784E080938D0781
:101CA00087E080938E0710928F0784EB80939007D4
:101CB00086E18093910788E18093920787E1809382
:101CC000930789E180939407E0919A06EC3020F025
:101CD0008FEF8093950710C081E08E0F80939A0656
:101CE000E093950725E0E29FF0011124E25AF94FB5
:101CF00088EB9BE092838183E0919A06EC3020F0A0
:101D00008FEF8093960710C081E08E0F80939A0624
:101D1000E093960785E0E89FF0011124E25AF94F1D
:101D200088EB9BE0928381838CE08093640784E25C
:101D30008093650786E08093660785E08093670758
:101D40008FE1809368078EE18093690783E2809337
:101D50006A0782E280936B0785E480936C0784E4D2
:101D600080936D0780E4809370071092750710923E
:101D700076071092770710927807109279071092E1
:101D80007A0710927B0710927C07E6EAF6E08FEF65
:101D90009FEFDC0112821382148215821682178251
:101DA0001086118683879487A587B6878787908B4F
:101DB000A18BB28B128611821082739627E0E436D3
:101DC000F20741F78DE090E00E94B111FC0113820F
:101DD00012828BE392E091838083118687E2848371
:101DE00084E1828784E083871486F093A306E093DE
:101DF000A2061092A4061092A50685E280938D0596
:101E000010928F0510929C0610929B0610929E06CF
:101E100010929D061092A00610929F0661E070E05D
:101E200080E090E00E94DE12009789F090939C067B
:101E300080939B0610929E0610929D0620919F060D
:101E40003091A006232BC1F4FC01108215C08091B3
:101E50009B0690919C06009711F00E9446121092EA
:101E60009C0610929B061092A00610929F0610925C
:101E70009E0610929D0608951092A00610929F064D
:101E800068ED72E00C94D5130E94860F08F481E08F
:101E90000895E89409C097FB3EF49095809570955D
:101EA00061957F4F8F4F9F4F9923A9F0F92F96E9A6
:101EB000BB279395F695879577956795B795F1111B
:101EC000F8CFFAF4BB0F11F460FF1BC06F5F7F4FB8
:101ED0008F4F9F4F16C0882311F096E911C07723CA
:101EE00021F09EE8872F762F05C0662371F096E8D3
:101EF000862F70E060E02AF09A95660F771F881FA2
:101F0000DAF7880F9695879597F90895990F000845
:101F1000550FAA0BE0E8FEEF16161706E807F907BB
:101F2000C0F012161306E407F50798F0621B730B56
:101F3000840B950B39F40A2661F0232B242B252BD7
:101F400021F408950A2609F4A140A6958FEF811D7A
:101F5000811D08950E94BD0F0C942E100E94201028
:101F600038F00E94271020F0952311F00C941710E0
:101F70000C941D1011240C9462100E943F1070F3F9
:101F8000959FC1F3950F50E0551F629FF001729F1E
:101F9000BB27F00DB11D639FAA27F00DB11DAA1F2D
:101FA000649F6627B00DA11D661F829F2227B00D7A
:101FB000A11D621F739FB00DA11D621F839FA00D05
:101FC000611D221F749F3327A00D611D231F849F55
:101FD000600D211D822F762F6A2F11249F575040AC
:101FE0009AF0F1F088234AF0EE0FFF1FBB1F661F27
:101FF000771F881F91505040A9F79E3F510580F0F0
:102000000C9417100C9462105F3FE4F3983ED4F3E5
:10201000869577956795B795F795E7959F5FC1F793
:10202000FE2B880F911D9695879597F9089597F93E
:102030009F6780E870E060E008959FEF80EC08956E
:1020400000240A9416161706180609060895002497
:102050000A9412161306140605060895092E039411
:10206000000C11F4882352F0BB0F40F4BF2B11F485
:1020700060FF04C06F5F7F4F8F4F9F4F089557FDE4
:102080009058440F551F59F05F3F71F04795880FE6
:1020900097FB991F61F09F3F79F08795089512167D
:1020A00013061406551FF2CF4695F1DF08C0161629
:1020B00017061806991FF1CF8695710561050894DA
:1020C0000895E894BB2766277727CB0197F90895F1
:1020D000A1E21A2EAA1BBB1BFD010DC0AA1FBB1F2C
:1020E000EE1FFF1FA217B307E407F50720F0A21B9E
:1020F000B30BE40BF50B661F771F881F991F1A940B
:1021000069F760957095809590959B01AC01BD0134
:10211000CF010895EE0FFF1F881F8BBF0790F69128
:10212000E02D19945058BB27AA270E94AA100C949E
:102130002E100E94201038F00E94271020F039F451
:102140009F3F19F426F40C941D100EF4E095E7FB64
:102150000C941710E92F0E943F1058F3BA1762072A
:1021600073078407950720F079F4A6F50C946110A5
:102170000EF4E0950B2EBA2FA02D0B01B9019001A2
:102180000C01CA01A0011124FF27591B99F0593FE6
:1021900050F4503E68F11A16F040A22F232F342F2E
:1021A0004427585FF3CF469537952795A795F0407C
:1021B0005395C9F77EF41F16BA0B620B730B840B91
:1021C000BAF09150A1F0FF0FBB1F661F771F881F49
:1021D000C2F70EC0BA0F621F731F841F48F48795A1
:1021E00077956795B795F7959E3F08F0B0CF939593
:1021F000880F08F09927EE0F9795879508950E940C
:1022000013110C942E100E94271058F00E942010D9
:1022100040F029F45F3F29F00C94171051110C94F1
:1022200062100C941D100E943F1068F39923B1F3C3
:10223000552391F3951B550BBB27AA2762177307EC
:10224000840738F09F5F5F4F220F331F441FAA1F80
:10225000A9F335D00E2E3AF0E0E832D0915050403C
:10226000E695001CCAF72BD0FE2F29D0660F771FEA
:10227000881FBB1F261737074807AB07B0E809F0D0
:10228000BB0B802DBF01FF2793585F4F3AF09E3F55
:10229000510578F00C9417100C9462105F3FE4F332
:1022A000983ED4F3869577956795B795F7959F5F98
:1022B000C9F7880F911D9695879597F90895E1E0E4
:1022C000660F771F881FBB1F621773078407BA0743
:1022D00020F0621B730B840BBA0BEE1F88F7E0959E
:1022E00008950E9478116894B1110C9462100895B9
:1022F0000E94471088F09F5798F0B92F9927B7513F
:10230000B0F0E1F0660F771F881F991F1AF0BA9599
:10231000C9F714C0B13091F00E946110B1E0089586
:102320000C946110672F782F8827B85F39F0B93F78
:10233000CCF3869577956795B395D9F73EF490954C
:102340008095709561957F4F8F4F9F4F08950E94A4
:10235000860F08F48FEF08950E94860F880B990B63
:102360000895CF93DF938230910510F482E090E0DE
:10237000E0919D07F0919E0720E030E0C0E0D0E0C2
:10238000309711F14081518148175907C0F0481723
:10239000590761F482819381209719F09B838A8386
:1023A0002BC090939E0780939D0726C02115310571
:1023B00019F04217530718F49A01BE01DF01EF012B
:1023C0000280F381E02DDCCF2115310509F1281BB6
:1023D000390B2430310590F412968D919C9113970E
:1023E0006115710521F0FB019383828304C09093F2
:1023F0009E0780939D07FD01329644C0FD01E20FC8
:10240000F31F81939193225031092D933C933AC04D
:1024100020919B0730919C07232B41F420910302CC
:102420003091040230939C0720939B072091010276
:10243000309102022115310541F42DB73EB740918C
:10244000050250910602241B350BE0919B07F09189
:102450009C07E217F307A0F42E1B3F0B2817390740
:1024600078F0AC014E5F5F4F2417350748F04E0FF0
:102470005F1F50939C0740939B078193919302C0E9
:10248000E0E0F0E0CF01DF91CF9108950F931F932B
:10249000CF93DF93009709F48CC0FC01329713822D
:1024A000128200919D0710919E070115110581F47C
:1024B00020813181820F931F20919B0730919C07CF
:1024C0002817390779F5F0939C07E0939B0771C0B3
:1024D000D80140E050E0AE17BF0750F412962D919E
:1024E0003C911397AD012115310509F1D901F3CFC5
:1024F0009D01DA013383228360817181860F971FEA
:102500008217930769F4EC0128813981260F371F60
:102510002E5F3F4F318320838A819B819383828307
:10252000452B29F4F0939E07E0939D0742C0139634
:10253000FC93EE931297ED01499159919E01240F5E
:10254000351FE217F30771F480819181840F951F85
:10255000029611969C938E938281938113969C93FD
:102560008E931297E0E0F0E0D80112968D919C9145
:102570001397009719F0F8018C01F6CF8D919C917B
:1025800098012E5F3F4F820F931F20919B07309140
:102590009C072817390769F4309729F410929E0791
:1025A00010929D0702C01382128210939C07009321
:1025B0009B07DF91CF911F910F9108956F927F92AA
:1025C0008F929F92AF92BF92CF92DF92EF92FF9243
:1025D0000F931F93CF93DF93EC01009789F4CB0106
:1025E000DF91CF911F910F91FF90EF90DF90CF90EF
:1025F000BF90AF909F908F907F906F900C94B1118F
:10260000FC01E60FF71F9C0122503109E217F30786
:1026100008F4ACC0D9010D911C911197061717074A
:10262000B0F00530110508F49FC0C8010497861763
:10263000970708F499C002501109061B170B019364
:1026400011936D937C93CF010E9446128DC05B0164
:10265000A01AB10A4C01800E911EA0919D07B09165
:102660009E0740E050E0E12CF12C109709F44AC09D
:10267000A815B905D1F56D907C901197630182E0A2
:10268000C80ED11CCA14DB0480F1A3014A195B09EE
:102690006A0182E0C80ED11C1296BC901297139664
:1026A000AC91B5E0CB16D10440F0B282A383518344
:1026B0004083D9016D937C930AC00E5F1F4FC30105
:1026C000800F911FF90191838083EB2DFA2FE11484
:1026D000F10431F0D7011396FC93EE93129744C0A6
:1026E000F0939E07E0939D073FC08D919C911197B9
:1026F0004817590708F4AC017D0112960D90BC9162
:10270000A02DB3CF80919B0790919C0788159905C8
:10271000E1F446175707C8F4809101029091020234
:10272000009741F48DB79EB7409105025091060283
:10273000841B950BE817F907C8F4F0939C07E09306
:102740009B07F901718360830FC0CB010E94B11117
:102750007C01009759F0A801BE010E94CC13CE0164
:102760000E944612C70104C0CE0102C080E090E082
:10277000DF91CF911F910F91FF90EF90DF90CF905D
:10278000BF90AF909F908F907F906F90089581E061
:1027900090E0F8940C94DC13FB01DC0102C0019082
:1027A0000D9241505040D8F70895FB01DC01019093
:1027B0000D920020E1F7089511E0CCE5D1E000E0B2
:1027C00006C0802FFE010E948A102196011DCD3582
:0C27D000D10780E00807A9F7F894FFCFBC
:1027DC00FF00009F072000000000000000404100A7
:1027EC00008040000000001F02EF015305E101E8EA
:1027FC0001E501E201000000001A045A039E036186
:10280C0004CF03AD03C103000000002D055A035390
:10281C00055205476F20746F206574616765200051
:10282C004E62206465207374657073203D200053E4
:10283C00656E73203D2055700053656E73203D20EE
:10284C00446F776E0056697465737365203D200084
:10285C0044697374616E6365203D20004861757432
:10286C006575722061637475656C6C65203D200024
:10287C0054656D7073203D200056697465737365E3
:10288C0020287365632F706F29203D200052504D16
:10289C00203D2000627265616B0043616C6962725D
:1028AC006174696F6E000D0A006E616E00696E6670
:0628BC00006F76660000CB
:00000001FF
