:100000000C94A5010C94D6010C94D6010C94D60145
:100010000C94D6010C94D6010C94D6010C94D60104
:100020000C94D6010C940E170C940E170C940E170A
:100030000C94D6010C9406100C94D6010C94D601A5
:100040000C94D6010C94A7050C94D6010C94D601FF
:100050000C94D6010C94D6010C94D6010C94DD0DB1
:100060000C94D6010C94DD140C94B3140C94D601AA
:100070000C94D6010C94D6010C94D6010C94D601A4
:100080000C94D6010C94D6010C94D6010C94D60194
:100090000C94D6010C94D6010C94D6010C9418172C
:1000A0000C94D6010C94D6010C94D6010C94D60174
:1000B0000C94D6010C94D6010C94D6010C94D00368
:1000C0000C94D6010C94D6010C94D6010C9489148E
:1000D0000C945F140C94D6010C9435140C940B14EE
:1000E0000C94D601EE04F304F80402050C05850512
:1000F00016051E05260530053A05440553055D0520
:100100008505670571057B05D915DC15CB15CF1560
:10011000D5151316E015E415EA15EE15F215F815C8
:10012000FC150016131606160A160E160C94481522
:100130000C947B050C943A050C9459020C94D5153B
:100140000C9439150C9467050C94B60D0C945F153E
:100150000C945C020C94DB200C9419190C94260569
:100160000C94FC150C94CD0E0C94E4150C94CF1546
:100170000C940C050C94F8040C94F3040C9457158F
:100180000C94E0150C94F8150C9485050C946B02F6
:100190000C9495020C940A160C941E050C940016EF
:1001A0000C94EE040C9459190C945D050C94710593
:1001B0000C94EF0E0C94E10E0C94EE150C940E16AC
:1001C0000C948F150C947A0E0C94F2150C94530524
:1001D0000C94D8010C94D00F0C940A030C941316B1
:1001E0000C942F030C9444050C9430050C940616C3
:1001F0000C9458020C9416050C94EA150C94800289
:100200000C9402050C94D9150C943A150C94CB154A
:100210000C94DC150C943A0F0C94BE0E0C94810FC8
:100220000C9433200200002100240027002A002D16
:10023000003000330001010000040107010A010041
:10024000002200250028002B002E0031003400027F
:10025000010000050108010B010000200023002619
:100260000029002C002F00320000010000030106CD
:10027000010901050505050705080808080202022D
:10028000020A0A0808040404040101010101010131
:10029000010303030303030303040707070C0C0C08
:1002A0000C0C0C0C0C0202020206060606060606E0
:1002B000060B0B0B0B0B0B0B0B010210202008087D
:1002C00010204010204080020102010804020101B8
:1002D00002040810204080804020100804020180A1
:1002E00004020180402010080402010804020101F8
:1002F0000204081020408001020408102040800001
:10030000000A0B02090C0D0E08070304010000008F
:1003100000000000000000000000000000000000DD
:10032000000000000000000000000012111000009A
:1003300000000000000000000000000000000000BD
:100340000000000000005919191911241FBECFEF39
:10035000D1E2DEBFCDBF00E00CBF13E0A0E0B2E011
:10036000EAE0FCE400E00BBF02C007900D92A63467
:10037000B107D9F728E0A6E4B3E001C01D92AD3380
:10038000B207E1F711E0C4EAD1E000E006C021972E
:100390000109802FFE010E94A122C33AD10780E00B
:1003A0000807A9F70E94291B0C94F3250C94000060
:1003B000DF92EF92FF920F931F93CF93DF93CDB70E
:1003C000DEB7EE970FB6F894DEBF0FBECDBF8C013F
:1003D0007B01D42E8FEF840FD801ED91FC918230F8
:1003E00020F40480F581E02D05C0411105C0028094
:1003F000F381E02DC8011995D801ED91FC9100849D
:10040000F185E02D20E041E0B701C8011995B5E084
:10041000DB1609F43FC0D801ED91FC910280F38115
:10042000E02DC8011995B2E0DB1234C0D801ED917E
:10043000FC910084F185E02D20E041E0BE016F5F7A
:100440007F4FC801199540E0D8011C968C91481740
:1004500008F5842F90E0880F991FF701E80FF91F26
:1004600021E030E02C0F3D1F820F931FD8011E9614
:100470002D913C911F97DC018D919C91B901681BD6
:10048000790BCB0120813181820F931F918380836F
:100490004F5FDACFEE960FB6F894DEBF0FBECDBF3A
:1004A000DF91CF911F910F91FF90EF90DF90089512
:1004B000089580E090E0089580914603909147036D
:1004C000019690934703809346030895E091B50702
:1004D000F091B6071994CF93DF93FC0185858F3F88
:1004E00061F0EF0161E00E94A31861E08D850E9438
:1004F00073188BE193E00197F1F7DF91CF910895A5
:10050000CF93DF93FC0185858F3F61F0EF0161E0C0
:100510000E94A31860E08D850E9473188BE193E020
:100520000197F1F7DF91CF910895EF92FF920F932A
:100530001F93CF93DF931F92CDB7DEB77C018B0162
:10054000FC01138212821582148217821682118690
:100550001086118A108A403218F08FE1848702C019
:10056000FC014487F70182859385892B11F080E097
:100570000DC0F701848590E029830E94C823F7010C
:10058000938782872981892B91F714C0F70194857D
:10059000891778F4482F50E0F801E40FF51F908197
:1005A000F70162857385FB01E40FF51F90838F5F70
:1005B000EDCF25870F90DF91CF911F910F91FF9085
:1005C000EF900895FC01248131E03093840320935F
:1005D000A603109285031092A7038485682B88EAEE
:1005E00093E00E948F150C9429090F931F93CF93CA
:1005F0008C01C62F64600E94E2026C2F6B7FC801E1
:100600000E94E20283EC90E00197F1F7CF911F91F5
:100610000F9108950F931F93CF93DF938C01C62FF3
:10062000D62FD07FD1606D2F0E94E2026D2FC801BE
:100630000E94F50280E1C89FB0011124C62FC1605D
:100640006C2FC8010E94E2026C2FC8010E94F502C3
:1006500081E090E0DF91CF911F910F9108950F936A
:100660001F93CF93DF93CDB7DEB728970FB6F894DB
:10067000DEBF0FBECDBF2CED35E040E050E064ECB6
:1006800079E080917F070E94A5108BE792E00E949D
:10069000D50A67E972E0CE0101960E94F10F81E56B
:1006A00094E00E94EF0E892BF9F081E594E00E941E
:1006B000CD0E8F8318860D811E810F5F1F4FB801ED
:1006C000CE0101960E94270E882349F329813A81A1
:1006D0008D819E81BE01695F7F4F820F931F0E94B3
:1006E000EC251E830D83DBCF80919A0690919B06AB
:1006F0000097C9F069817A816115710591F0409187
:100700009C0650919D062D813E814217530748F06B
:100710000E94EC258D819E8190939F0680939E067A
:1007200018C00E945D2489819A8190939B068093D2
:100730009A068B819C8190939D0680939C068D8167
:100740009E8190939F0680939E061A8219821C8236
:100750001B821E821D8289819A810E945D244091A4
:100760009E0650919F0660919A0670919B068EEEB0
:1007700094E00E947A0E85E992E00E94090981E0E6
:1007800090E09093B8078093B70728960FB6F89437
:10079000DEBF0FBECDBFDF91CF911F910F910895A6
:1007A0001F920F920FB60F9211240BB60F922F9338
:1007B0003F934F935F936F937F938F939F93AF93E9
:1007C000BF93EF93FF9380918C050E944A1820916C
:1007D0009005309191052F5F3F4F30939105209305
:1007E000900590918F05953618F096E090938B05C3
:1007F00090918B059430C9F128F4923069F09330D0
:10080000D1F05EC0953009F451C0963009F058C05F
:1008100091E090935C0651C0811152C020919005E7
:10082000309191052436310508F442C010925C06DF
:1008300010928F051CC0813009F042C0E0918F05F5
:1008400091E09E0F90938F05F0E0209190053091FC
:100850009105EE0FFF1FE557FA4F3087278310925F
:1008600091051092900594E029C0811117C0E09184
:100870008F0591E09E0F90938F05F0E020919005F9
:1008800030919105EE0FFF1FE557FA4F3087278310
:10089000109291051092900593E010C02091900560
:1008A000309191052536310558F007C0811108C0F7
:1008B000109291051092900503C095E090938B05DE
:1008C00090918E059923B9F081110AC080918D0510
:1008D000882321F080918D0561E009C02F9A0BC01B
:1008E00080918D05882331F080918D0560E00E9414
:1008F000731801C02F98FF91EF91BF91AF919F9115
:100900008F917F916F915F914F913F912F910F90B8
:100910000BBE0F900FBE0F901F9018958F929F9255
:10092000AF92BF92CF92DF92EF92FF920F931F93FD
:10093000CF93DF93EC016A017B0120E030E04FE7C9
:1009400053E4C701B6010E944C214B015C0120E039
:1009500030E0A9010E94BE2318161CF4C501B401A1
:1009600003C0C501B40190580E9488238B0120E088
:1009700030E0A901C701B6010E94BE23181614F485
:1009800060E001C061E089810E9473180F3F11058A
:1009900009F014F4112702C00FEF10E0C88161E0E4
:1009A0008C2F0E94A3180115110509F4B1C00F3F47
:1009B000110509F4AFC0EC2FF0E0E150FD4FE491D8
:1009C0004E2F50E0FA013197E231F10508F09DC059
:1009D0008827EE58FF4F8F4F0C94A12284B5806872
:1009E00084BD07BDA7C084B5806284BD08BDA2C018
:1009F000809180008068809380001093890000932C
:100A0000880098C08091800080628093800010935D
:100A10008B0000938A008EC0809180008860809354
:100A2000800010938D0000938C0084C08091B000F2
:100A300080688093B0000093B3007CC08091B000C8
:100A400080628093B0000093B40074C080919000E5
:100A500080688093900010939900009398006AC07A
:100A60008091900080628093900010939B0000938F
:100A70009A0060C0809190008860809390001093ED
:100A80009D0000939C0056C08091A00080688093D8
:100A9000A0008091A0008F7B8093A0001093A900FC
:100AA0000093A80047C08091A00080628093A000BE
:100AB0001093AB000093AA003DC08091A000886015
:100AC0008093A0001093AD000093AC0033C08091E0
:100AD0002001806880932001109329010093280150
:100AE00029C08091200180628093200110932B0106
:100AF00000932A011FC0809120018860809320010B
:100B000010932D0100932C0115C00038110514F429
:100B100060E001C061E08C2FDF91CF911F910F91B8
:100B2000FF90EF90DF90CF90BF90AF909F908F900D
:100B30000C947318DF91CF911F910F91FF90EF905C
:100B4000DF90CF90BF90AF909F908F9008951F92AD
:100B50000F920FB60F9211240BB60F922F933F9363
:100B60004F935F936F937F938F939F93AF93BF93B5
:100B7000EF93FF938091480387FF05C01092850093
:100B80001092840016C020914803022E000C330BF3
:100B90008091990690E0281739075CF4309148035A
:100BA00025E03203F0011124E35AF94F808186FDDC
:100BB00015C0809148038F5F8093480320914803BC
:100BC000022E000C330B8091990690E0281739070C
:100BD00094F4809148038C302CF10DC0309148037F
:100BE0003203F0011124E35AF94F808160E08F73E2
:100BF0000E947318DECF8091840090918500843428
:100C00009C4918F480E49CE905C08091840090918F
:100C10008500049690938900809388008FEF8093DD
:100C200048032AC0409184005091850030914803C8
:100C300025E03203F0011124E35AF94F81819281BA
:100C4000840F951F9093890080938800309148030A
:100C50003203F0011124E35AF94F808186FF0CC062
:100C6000309148033203F0011124E35AF94F808197
:100C700061E08F730E947318FF91EF91BF91AF9164
:100C80009F918F917F916F915F914F913F912F91A4
:100C90000F900BBE0F900FBE0F901F9018958EBD3A
:100CA00000000DB407FEFDCF8EB50895CF93DF93FE
:100CB000EC0160E088810E94731888E90E944F0669
:100CC00080E00E944F0680E00E944F0680E00E9474
:100CD0004F0680E00E944F0661E088810E947318F1
:100CE0008BE891E00197F1F760E088810E9473182A
:100CF00080EE0E944F0661E08881DF91CF910C94D5
:100D00007318AF92BF92CF92DF92EF92FF920F9340
:100D10001F93CF93DF93CDB7DEB760970FB6F894EC
:100D2000DEBF0FBECDBF5C0160E0FC0180810E9490
:100D3000731880E60E944F068E010F5F1F4F7E01E1
:100D4000F1E1EF0EF11C680180E00E944F0690E097
:100D5000A0E0B0E0F60181939193A193B1936F016C
:100D6000EE15FF0589F761E0F50180810E94731897
:100D700080E090E0DC01F801419151916191719125
:100D80008F01BA2FA92F982F8827840F951FA61F90
:100D9000B71FEE15FF0579F79C01AD016627772790
:100DA000CB01621B730B840B950B60960FB6F89406
:100DB000DEBF0FBECDBFDF91CF911F910F91FF908E
:100DC000EF90DF90CF90BF90AF9008958F929F9259
:100DD000AF92BF92CF92DF92EF92FF924DEC5CEC1C
:100DE0006CE47EE387E997E00E948E044DEC5CECB6
:100DF0006CE47EE389E997E00E948E048BE997E03A
:100E00000E9481068BE997E00E9456068DE997E0E3
:100E10000E9481068DE997E00E9456068BE997E0D3
:100E20000E94810690958095709561957F4F8F4FB8
:100E30009F4F0E94ED2029EA35E841EC51E40E94E1
:100E40004C2120E030E048E455E40E9416234B0199
:100E50005C018DE997E00E9481060E94ED2029EA5D
:100E600035E841EC51EC0E944C2120E030E048E4B0
:100E700055E40E9416236B017C0128E631E142EF24
:100E800051E4C501B4010E94BE2318163CF440E0B1
:100E900050E0BA0187E997E00E948E0428E631E12C
:100EA00042EF51E4C701B6010E94BE23181644F474
:100EB00040E050E060E070E889E997E00E948E042D
:100EC00028E631E142EF51E4C501B4010E94E62079
:100ED00087FDA4CF28E631E142EF51E4C701B60116
:100EE0000E94E62087FD9ACF6AEF70E080E090E0F4
:100EF000FF90EF90DF90CF90BF90AF909F908F903A
:100F00000C94DF184F925F926F927F928F929F9214
:100F1000AF92BF92CF92DF92EF92FF92CF93DF9387
:100F2000CDB7DEB728970FB6F894DEBF0FBECDBFA2
:100F3000BC01990F880B990B0E94ED206B017C017D
:100F40002DEC3CEC4CE45EE30E944C214B015C0137
:100F5000AB01BC0187E997E00E948E04B501A401B2
:100F600089E997E00E948E048BE997E00E94810650
:100F70008BE997E00E9456068DE997E00E94810672
:100F80008DE997E00E94560629EA35E841EC51E4E4
:100F9000C701B6010E944C2169837A838B839C83AD
:100FA0008BE997E00E9481069095809570956195F8
:100FB0007F4F8F4F9F4F0E94ED209B01AC016981B5
:100FC0007A818B819C810E944C2120E030E048E4B2
:100FD00055E40E9416234B015C018DE997E00E94C5
:100FE00081062B013C0129EA35E841EC51ECC701AF
:100FF000B6010E944C216D837E838F839887C30145
:10100000B2010E94ED209B01AC016D817E818F8138
:1010100098850E944C2120E030E048E455E40E948D
:1010200016232B013C012FEE36EF45E651E4C501B6
:10103000B4010E94BE2318163CF440E050E0BA010F
:1010400087E997E00E948E042FEE36EF45E651E4E3
:10105000C301B2010E94BE23181644F440E050E0E0
:1010600060E070E889E997E00E948E0441E067EA59
:1010700076E085EA96E00E9414162FEE36EF45E6FC
:1010800051E4C501B4010E94E62087FD89CF2FEE0F
:1010900036EF45E651E4C301B2010E94E62087FD28
:1010A0007FCF28960FB6F894DEBF0FBECDBFDF917D
:1010B000CF91FF90EF90DF90CF90BF90AF909F9037
:1010C0008F907F906F905F904F9008954F925F92B6
:1010D0006F927F928F929F92AF92BF92CF92DF9248
:1010E000EF92FF92CF93DF9300D01F92CDB7DEB780
:1010F00049835A836B837C83BC01990F880B990BBE
:101100000E94ED204B015C012DEC3CEC4CE45EE3D5
:101110000E944C216B017C01AB01BC0187E997E087
:101120000E948E04B701A601705889E997E00E94D9
:101130008E048BE997E00E9481068BE997E00E947C
:101140005606C12CD12C760129813A814B815C81D4
:10115000C701B6010E94E62087FF2FC08BE997E008
:101160000E9481066B017C0129EA35E841EC51E4DB
:10117000C501B4010E944C212B013C016627772751
:10118000CB016C197D098E099F090E94ED209B01FE
:10119000AC01C301B2010E944C2120E030E048E4E0
:1011A00055E40E9416236B017C0141E067EA76E07A
:1011B00085EA96E00E941416C7CF40E050E0BA01DD
:1011C00087E997E00E948E0440E050E060E070E81C
:1011D00089E997E00F900F900F900F90DF91CF91DA
:1011E000FF90EF90DF90CF90BF90AF909F908F9047
:1011F0007F906F905F904F900C948E04E091EE047E
:10120000F091EF040190F081E02D682F8EEE94E0D4
:101210001994009769F0FC0101900020E9F73197DB
:10122000AF01481B590BBC018EEE94E00C947A0E72
:1012300080E090E00895CF93DF930E940909EC01CC
:1012400085E992E00E9409098C0F9D1FDF91CF91E3
:1012500008952091A7039091A603213208F04AC077
:10126000809183038111FCCF32E03093830331E01E
:10127000309382033FEF30938103109280032093D9
:101280007F03A6E8B3E04FE553E0FA013E2F341B9D
:10129000321718F43D913193F9CF10925E032091EB
:1012A0005E03990F922B90935E0390915D039130B2
:1012B00061F410925D0390915E039093BB00909156
:1012C000BC0093FDF8CF95EC01C095EE9093BC0067
:1012D000909183039230E1F3909181039F3F79F0E5
:1012E00080918103803241F080918103803331F01D
:1012F00084E005C081E003C082E001C083E0109279
:1013000085031092A703109284030895EF92FF9231
:101310001F93CF93DF931F92CDB7DEB7162F9EE7B3
:10132000E92E97E0F92ED7011C969C911C9721E09D
:10133000209384039093A603109285031092A70331
:101340001A960D90BC91A02DED91FC9111970190F2
:10135000F081E02D682FCD0179831995F701828501
:101360009385DC01ED91FC910190F081E02D798174
:10137000672F1995F70182859385DC01ED91FC912A
:101380000190F081E02D612F19950F90DF91CF91A1
:101390001F91FF90EF900C9429098F929F92AF922A
:1013A000BF920F931F93CF93DF93CDB7DEB7A19773
:1013B0000FB6F894DEBF0FBECDBF19A2423008F4BD
:1013C0004AE08E010F5D1F4F842E912CA12CB12C71
:1013D000A50194010E943C22E62FB901CA010150E7
:1013E0001109EA3014F4E05D01C0E95CD801EC9326
:1013F000232B242B252B61F7C8010E940909A196F4
:101400000FB6F894DEBF0FBECDBFDF91CF911F9115
:101410000F91BF90AF909F908F9008954F925F92E1
:101420006F927F928F929F92AF92BF92CF92DF92F4
:10143000EF92FF926B017C019B01AC010E94C323E0
:10144000882319F088E992E01AC046015701E89410
:10145000B7F82FEF3FEF4FE75FE7C501B4010E94F8
:10146000C323811110C02FEF3FEF4FE75FE7C501A6
:10147000B4010E94E620181634F48CE992E00E9430
:1014800009097C017FC02FEF3FEF4FE75FE4C70101
:10149000B6010E94BE2318161CF480EA92E0EFCF3A
:1014A0002FEF3FEF4FE75FECC701B6010E94E62048
:1014B00087FDF3CF20E030E0A901C701B6010E940B
:1014C000E62087FF09C08DE20E94FE085C01F7FA62
:1014D000F094F7F8F09402C0A12CB12C2AE037ED7B
:1014E00043EA5BE3C701B6010E94AA222B013C013B
:1014F0000E948F236B017C010E94EB209B01AC01B9
:10150000C301B2010E94A9222B013C014AE0C7019C
:10151000B6010E94CD097C01EA0CFB1C8EE20E9400
:10152000FE08E80EF91E20E030E040E251E4C3017D
:10153000B2010E944C212B013C010E948F234B01E0
:10154000A12CB12C4AE0C501B4010E94CD09E80EDE
:10155000F91EC501B4010E94EB209B01AC01C3013F
:10156000B2010E94A92220E030E040E251E40E9452
:101570004C210E948F2380E090E04AE00E94CD0938
:10158000E80EF91E85E992E00E9409098E0D9F1D63
:10159000FF90EF90DF90CF90BF90AF909F908F9093
:1015A0007F906F905F904F9008950C940909CF92AF
:1015B000DF92EF92FF92CF93DF936C01990FEE08C9
:1015C000FF08F7FE12C08DE20E94FE08EC016627BC
:1015D0007727CB016C197D098E099F094AE00E948B
:1015E000CD097C01EC0EFD1E06C04AE0C701B60124
:1015F0000E94CD097C0185E992E00E9409098E0DC7
:101600009F1DDF91CF91FF90EF90DF90CF900895D5
:10161000AF92BF92CF92DF92EF92FF920F931F9300
:10162000CF93DF936B017C0120E030E046E155E48D
:101630000E944C210E948823EB0177FF04C0CC2735
:10164000DD27C61BD70B84EA92E00E94D50ACE01A3
:101650000E94D70A20E030E0A901C701B6010E942C
:10166000BE2387FD07C061E087E20E94731883EB09
:1016700092E006C060E087E20E9473188DEB92E072
:101680000E941B0989EC92E00E94D50A60E070E09C
:1016900080E89FE30E940E0A84ED92E00E94D50A42
:1016A000C701B6010E940E0A00E010E083E2A82EF6
:1016B0008AE0B82E0C171D0799F08091A5070E94AB
:1016C0004A18892BE9F120E030E0A901C701B601F1
:1016D0000E94E62087FF34C084EF92E00E941B093D
:1016E000A70196016091590370915A0380915B03A1
:1016F00090915C030E94AA226093590370935A034D
:1017000080935B0390935C0380EE92E00E94D50A85
:101710006091590370915A0380915B0390915C032F
:101720000E940E0A87E992E0DF91CF911F910F91FD
:10173000FF90EF90DF90CF90BF90AF900C941B097B
:1017400061E085E20E947318C5010197F1F760E03E
:1017500085E20E947318C5010197F1F70F5F1F4FD3
:10176000A9CFAF92BF92CF92DF92EF92FF920F93E9
:101770001F93CF93DF938091A5069091A606892BA6
:1017800009F457C08091A7069091A806892B09F407
:1017900050C041E069E473E083EA96E00E94D8011A
:1017A000C091AF06D0E089E4E82E83E0F82EA09047
:1017B000A706B090A806C090A506D090A60600E0A7
:1017C00010E00C171D07ACF5D501ED91FD915D0101
:1017D000D6018D919D916D01E81BF90BC1F0D701E8
:1017E0002D913C91A90160E070E09A01AB01281BAA
:1017F000390B41095109A8EEB3E00E9429229F014B
:1018000040E050E00E940A2237FD0AC002C020E0FA
:1018100030E0293EB3E03B072CF028EE33E002C075
:1018200020E030E0F701219331937F010F5F1F4FDC
:10183000C8CFDF91CF911F910F91FF90EF90DF9074
:10184000CF90BF90AF9008952F923F924F925F92AA
:101850006F927F928F929F92AF92BF92CF92DF92C0
:10186000EF92FF920F931F93CF93DF93CDB7DEB725
:101870002D970FB6F894DEBF0FBECDBF9B878A872A
:1018800040E050E060E87EE387E997E00E948E0444
:1018900040E050E060E87EEB89E997E00E948E042A
:1018A00000E010E0212C312C1B821D861C821D8241
:1018B000C12CD12C76012A853B85221633060CF0EB
:1018C0000CC18AE0A82EB12C043011053CF50E9411
:1018D000B10B29E433E038872F83F90180E090E0F1
:1018E00021913191253F314008F0019653E0E935CF
:1018F000F507B1F706971CF00F5F1F4F02C000E01D
:1019000010E06AE070E080E090E00E94DF1881E083
:10191000A81AB108C9F604301105A4F09FEF291ADE
:10192000390A24E630E040E050E060ED77E0809155
:101930007F070E94A5109B80AD84BC808D8000E055
:1019400010E0C6C00E94B10BE091AF06E987412CC0
:10195000512C32011A821982812C912C54011E8241
:101960001C86EC85F985EF1741F1AF81B885ED91C3
:10197000FD91B887AF83E93CF10524F4E333F10529
:1019800094F002C0B1E0BE83DF01A30192010E9486
:101990003422860E971EA81EB91E29813A812E0F69
:1019A0003F1F3A832983EC85EF5FEC87F8EE4F0EFB
:1019B000F3E05F1E611C711CD4CFEE81E1111EC0EB
:1019C000FC858F2F90E0019744EF51E0849F9001B8
:1019D000859F300D949F300D11244091B306509196
:1019E000B40642175307CCF0A8EEB3E08A9FB001CB
:1019F0008B9F700D9A9F700D112411C0E981FA819F
:101A00009F0140E050E0C501B4010E943C22B901B1
:101A10003093B4062093B30602C060E070E0072E56
:101A2000000C880B990B0E94ED2020E030E44CE183
:101A300055E40E94A922962EA72EB82E892E262F75
:101A4000372F482F592FC701B6010E94AA226B01D8
:101A50007C012CEA35EC47EA57E3692D7A2D8B2D72
:101A6000982D0E944C2120E030E040E85EE30E9487
:101A7000AA222B013C0125E93FEB46ED54E3C701C7
:101A8000B6010E944C219B01AC01C301B2010E942E
:101A9000AA222B013C012B813D854C815D81692D62
:101AA0007A2D8B2D982D0E94A92227E137EB41E555
:101AB00058E30E944C219B01AC01C301B2010E947A
:101AC000AA22AB01BC01705889E997E00E948E04FC
:101AD0009B82AD86BC828D82EECE4DEC5CEC6CE4DC
:101AE0007EE387E997E00E948E044DEC5CEC6CE4A9
:101AF0007EEB89E997E00E948E046CE271E080E061
:101B000090E00E94DF1840E050E0BA0187E997E0DA
:101B10000E948E0440E050E060E070E889E997E0C0
:101B20002D960FB6F894DEBF0FBECDBFDF91CF91DB
:101B30001F910F91FF90EF90DF90CF90BF90AF90EB
:101B40009F908F907F906F905F904F903F902F90DD
:101B50000C948E042FB7F8946091BC077091BD0768
:101B60008091BE079091BF072FBF08950E94DE2588
:101B70003FB7F8948091C0079091C107A091C20728
:101B8000B091C30726B5A89B05C02F3F19F0019659
:101B9000A11DB11D3FBFBA2FA92F982F8827820FF3
:101BA000911DA11DB11DBC01CD0142E0660F771F43
:101BB000881F991F4A95D1F708951F920F920FB66B
:101BC0000F9211242F933F938F939F93AF93BF93C3
:101BD0008091BC079091BD07A091BE07B091BF074F
:101BE0003091BB0723E0230F2D3720F40196A11D70
:101BF000B11D05C026E8230F0296A11DB11D20933B
:101C0000BB078093BC079093BD07A093BE07B0931A
:101C1000BF078091C0079091C107A091C207B09102
:101C2000C3070196A11DB11D8093C0079093C10702
:101C3000A093C207B093C307BF91AF919F918F91BB
:101C40003F912F910F900FBE0F901F9018950F93FB
:101C50001F93CF93DF93EC0188819981009729F03E
:101C60002A813B812617370788F48B016F5F7F4FEE
:101C70000E94F524009761F0998388831B830A836F
:101C80002C813D81232B11F4FC01108281E001C0E5
:101C900080E0DF91CF911F910F910895EF92FF9215
:101CA0000F931F93CF93DF93EC017B018A01BA015D
:101CB0000E94270E2881398181110DC0211531051F
:101CC00019F0C9010E945D24198218821D821C82AC
:101CD0001B821A8206C01D830C83B701C9010E94B2
:101CE000EC25CE01DF91CF911F910F91FF90EF90E6
:101CF00008950895CF92DF92EF92FF920F931F9372
:101D0000CF93DF936C017A018B01C0E0D0E0CE1558
:101D1000DF0589F0D8016D918D01D601ED91FC911F
:101D20000190F081E02DC6011995892B11F47E01F7
:101D300002C02196ECCFC701DF91CF911F910F9187
:101D4000FF90EF90DF90CF900895FC01A089B189BA
:101D50008C91A689B78982FD0FC09C91818D8F5F80
:101D60008F73228D821749F0218DDF01A20FB11DE3
:101D70005D969C93818F08958C910895FC01538DFD
:101D8000448D252F30E0842F90E0821B930B541755
:101D900010F0CF96089501970895FC01918D828DE2
:101DA000981761F0828DDF01A80FB11D5D968C91AF
:101DB000928D9F5F9F73928F90E008958FEF9FEFBA
:101DC0000895FC01918D828D981731F0828DE80F76
:101DD000F11D858D90E008958FEF9FEF0895FC0130
:101DE000918D228D892F90E0805C9F4F821B9109FD
:101DF0008F739927089584EB93E00E94EF0E21E002
:101E0000892B09F420E0822F089581E594E00E9457
:101E1000EF0E21E0892B09F420E0822F08958EEE49
:101E200094E00E94EF0E21E0892B09F420E0822F3C
:101E30000895FC01848DDF01A80FB11DA35ABF4F87
:101E40002C91848D90E001968F739927848FA689B9
:101E5000B7892C93A089B1898C9180648C93938DE0
:101E6000848D981306C00288F389E02D80818F7DD0
:101E700080830895EF92FF920F931F93CF93DF9388
:101E8000EC0181E0888F9B8D8C8D981305C0E889CB
:101E9000F989808185FD24C0F62E0B8D10E00F5F3F
:101EA0001F4F0F731127E02E8C8DE8120CC00FB658
:101EB00007FCFACFE889F989808185FFF5CFCE014B
:101EC0000E94190FF1CF8B8DFE01E80FF11DE35A2F
:101ED000FF4FF0820B8FEA89FB898081806207C007
:101EE000EE89FF896083E889F98980818064808335
:101EF00081E090E0DF91CF911F910F91FF90EF90E3
:101F00000895CF93DF93EC01888D8823C9F0EA8987
:101F1000FB89808185FD05C0A889B9898C9186FDE2
:101F20000FC00FB607FCF5CF808185FFF2CFA889DF
:101F3000B9898C9185FFEDCFCE010E94190FE7CFB3
:101F4000DF91CF91089580E090E0892B21F00E94ED
:101F50000F0F811119C080E090E0892B41F080E0E3
:101F600090E0892B21F00E940000811110C00E9496
:101F7000050F81110FC080E090E0892B81F00E9455
:101F8000FB0E81110AC008950E940000E4CF0E9458
:101F90000000EDCF0E946602EECF0C940000089581
:101FA0000F931F93CF93DF93EC01122F202FE88123
:101FB000F9813697808191818C0F9D1F0E94950237
:101FC0001A83E881F981369780819181C80FD91FE2
:101FD0008FEF93E09F878E87DF91CF911F910F91B5
:101FE0000895FC01118210821382128215821482DC
:101FF0006115710551F0FB0101900020E9F731975F
:10200000AF01461B570B0C944E0E08951F920F9272
:102010000FB60F9211240BB60F922F933F934F934D
:102020005F936F937F938F939F93AF93BF93EF9340
:10203000FF938091EA079091EB07A091EC07B09194
:10204000ED07892B8A2B8B2B59F18091E907E091C1
:10205000E707F091E8079081892780838091EA075C
:102060009091EB07A091EC07B091ED0718161906B7
:102070001A061B060CF056C08091EA079091EB07F8
:10208000A091EC07B091ED070197A109B1098093E8
:10209000EA079093EB07A093EC07B093ED0742C0DB
:1020A00080910802E4E2F2E0E4919FEF909308024D
:1020B000E230C9F050F4EE2399F0E13081F59091CF
:1020C0006F009D7F90936F002AC0E43019F1E0F01B
:1020D000E53029F5909173009D7F909373001FC0A8
:1020E00010926E001CC0909170009D7F90937000C4
:1020F00091E09093B0009091B100987F946090939C
:10210000B1001092B3000BC0909171009D7F90932D
:10211000710005C0909172009D7F9093720060E005
:102120000E947318FF91EF91BF91AF919F918F9192
:102130007F916F915F914F913F912F910F900BBEC7
:102140000F900FBE0F901F9018953F924F925F9285
:102150006F927F928F929F92AF92BF92CF92DF92B7
:10216000EF92FF920F931F93CF93DF9300D01F92B4
:10217000CDB7DEB729013A0190910802981721F0F6
:102180009F3F09F032C304C0E4E2F2E0349004C19E
:1021900080930802E4E2F2E0E491EF3F09F425C302
:1021A000E23009F480C074F5EE2309F45BC0E1303D
:1021B00009F0F1C01092800010928100909181008E
:1021C000986090938100909181009160909381003C
:1021D000282F30E0F901ED58FD4FE491F0E0EE0FCB
:1021E000FF1FE15CFD4F459154915093CF07409301
:1021F000CE07F901E754FD4FE491E093CD07332476
:102200003394CCC0E43009F49EC00CF474C0E530C3
:1022100009F0C1C01092200110922101909121017A
:1022200098609093210190912101916090932101F8
:10223000482F50E0FA01ED58FD4FE491F0E0EE0F29
:10224000FF1FE15CFD4F259134913093C607209329
:10225000C507FA01E754FD4FE491E093C407B5E0E8
:102260003B2E9CC014BC15BC94B5926094BD95B532
:10227000916095BD282F30E0F901ED58FD4FE491B4
:10228000F0E0EE0FFF1FE15CFD4F4591549150933C
:10229000D2074093D107F901E754FD4FE491E09351
:1022A000D007312C7BC01092B0001092B1009091F9
:1022B000B00092609093B0009091B10091609093C3
:1022C000B100282F30E0F901ED58FD4FE491F0E026
:1022D000EE0FFF1FE15CFD4F459154915093E807CD
:1022E0004093E707F901E754FD4FE491E093E907D4
:1022F00052E0352E53C010929000109291009091B0
:1023000091009860909391009091910091609093CA
:102310009100282F30E0F901ED58FD4FE491F0E0F5
:10232000EE0FFF1FE15CFD4F459154915093CC0798
:102330004093CB07F901E754FD4FE491E093CA07BE
:1023400023E0322E2BC01092A0001092A100909199
:10235000A10098609093A1009091A100916090934A
:10236000A100282F30E0F901ED58FD4FE491F0E095
:10237000EE0FFF1FE15CFD4F459154915093C9074B
:102380004093C807F901E754FD4FE491E093C70774
:1023900004E0302E03C03E2E37FC27C28B0161E0E3
:1023A0000E94A3184801A12CB12C832D8D7F09F028
:1023B000BBC060E072E18AE790E0A50194010E9451
:1023C0000A2229833A834B835C8369017A0121E0E5
:1023D000C21AD108E108F1088FEFC816D104E10450
:1023E000F10409F008F44CC060E472E48FE090E07E
:1023F000A50194010E940A2269017A0191E0C91A9B
:10240000D108E108F108E2E03E1220C0FFEFCF164C
:10241000D104E104F10409F008F4E5C160E970EDCC
:1024200083E090E0A50194010E940A2269017A01EB
:1024300081E0C81AD108E108F1089FEFC916D1045C
:10244000E104F10409F0D0F583E067C0EFEFCE16A8
:10245000D104E104F104B1F0A8F068E478EE81E081
:1024600090E0A50194010E940A2269017A01F1E03D
:10247000CF1AD108E108F108332009F45AC1AAC1E2
:1024800081E001C082E03320A1F047C089819A81B8
:10249000AB81BC812AE0B595A795979587952A953C
:1024A000D1F76C017D01F1E0CF1AD108E108F10804
:1024B00085E095B5987F892B85BDA6C068E478EE48
:1024C00081E090E0A50194010E940A2269017A014D
:1024D00081E0C81AD108E108F1089FEFC916D104BC
:1024E000E104F10409F008F422C164E274EF80E031
:1024F00090E0A50194010E940A2269017A0181E01D
:10250000C81AD108E108F1089FEFC916D104E10407
:10251000F10411F008F02FC185E09091B100987F8F
:10252000892B8093B10070C060E072E18AE790E08F
:10253000A50194010E940A2269017A01F1E0CF1AF3
:10254000D108E108F108C114D10421E0E206F10448
:1025500088F068E478EE81E090E0A50194010E94A3
:102560000A2269017A0181E0C81AD108E108F1085C
:1025700083E001C081E091E0391210C090918100A8
:10258000987F892B80938100411451046104710468
:1025900009F03FC02FEF3FEFA90171C0E3E03E1209
:1025A0000FC090919100987F892B809391004114E6
:1025B00051046104710469F52FEF3FEFA90181C057
:1025C000F4E03F120FC09091A100987F892B809377
:1025D000A1004114510461047104D9F42FEF3FEFBD
:1025E000A90181C025E032120FC090912101987F8E
:1025F000892B80932101411451046104710449F431
:102600002FEF3FEFA90181C041145104610471040F
:1026100071F0D801AA0FBB1FA30192010E942922C9
:1026200028EE33E040E050E00E943C2203C02FEF50
:102630003FEFA90182E03816A1F1831534F0332071
:1026400079F091E03916D9F0D0C0E4E03E1609F4F3
:102650004AC03E16B4F1F5E03F1609F456C0C5C0B5
:10266000C7BC2093E3073093E4074093E5075093FA
:10267000E60780916E00826080936E00B6C0D092B3
:102680008900C09288002093DF073093E0074093D1
:10269000E1075093E20780916F00826080936F00A2
:1026A000A4C0C092B3002093EA073093EB07409395
:1026B000EC075093ED07809170008260809370006A
:1026C00094C0D0929900C09298002093DB07309379
:1026D000DC074093DD075093DE0780917100826034
:1026E0008093710082C0D092A900C092A80020936C
:1026F000D7073093D8074093D9075093DA078091D2
:10270000720082608093720070C0D0922901C092E2
:1027100028012093D3073093D4074093D5075093D3
:10272000D607809173008260809373005EC084E05E
:10273000F4CE2FEFC216D104E104F104D1F0C8F0B9
:1027400062E17AE780E090E0A50194010E940A220C
:1027500069017A01E1E0CE1AD108E108F108FFEF42
:10276000CF16D104E104F10411F008F08FCE84E01B
:10277000A0CE83E09ECE62E17AE780E090E0A50102
:1027800094010E940A2269017A0181E0C81AD108E5
:10279000E108F1089FEFC916D104E104F104C1F08A
:1027A000B8F089819A81AB81BC814AE0B595A79543
:1027B000979587954A95D1F76C017D01E1E0CE1A96
:1027C000D108E108F108332009F472CE87E0A5CEE4
:1027D00086E059CEEFEFCE16D104E104F10409F002
:1027E00050F684E050CE82E098CE0F900F900F907C
:1027F0000F90DF91CF911F910F91FF90EF90DF909D
:10280000CF90BF90AF909F908F907F906F905F9090
:102810004F903F9008951F920F920FB60F92112480
:102820000BB60F922F933F934F935F936F937F93CA
:102830008F939F93AF93BF93EF93FF9384EB93E0BA
:102840000E94190FFF91EF91BF91AF919F918F91CE
:102850007F916F915F914F913F912F910F900BBEA0
:102860000F900FBE0F901F9018951F920F920FB6EA
:102870000F9211240BB60F922F933F934F935F93B8
:102880006F937F938F939F93AF93BF93EF93FF9338
:1028900084EB93E00E94A50EFF91EF91BF91AF9161
:1028A0009F918F917F916F915F914F913F912F9168
:1028B0000F900BBE0F900FBE0F901F9018951F9298
:1028C0000F920FB60F9211240BB60F922F933F93D6
:1028D0004F935F936F937F938F939F93AF93BF9328
:1028E000EF93FF9381E594E00E94190FFF91EF9120
:1028F000BF91AF919F918F917F916F915F914F9118
:102900003F912F910F900BBE0F900FBE0F901F9015
:1029100018951F920F920FB60F9211240BB60F92BB
:102920002F933F934F935F936F937F938F939F93D7
:10293000AF93BF93EF93FF9381E594E00E94A50EC0
:10294000FF91EF91BF91AF919F918F917F916F9187
:102950005F914F913F912F910F900BBE0F900FBE43
:102960000F901F9018951F920F920FB60F9211247F
:102970000BB60F922F933F934F935F936F937F9379
:102980008F939F93AF93BF93EF93FF938EEE94E05B
:102990000E94190FFF91EF91BF91AF919F918F917D
:1029A0007F916F915F914F913F912F910F900BBE4F
:1029B0000F900FBE0F901F9018951F920F920FB699
:1029C0000F9211240BB60F922F933F934F935F9367
:1029D0006F937F938F939F93AF93BF93EF93FF93E7
:1029E0008EEE94E00E94A50EFF91EF91BF91AF9102
:1029F0009F918F917F916F915F914F913F912F9117
:102A00000F900BBE0F900FBE0F901F90189585ED85
:102A10008093BC008091BC0084FDFCCF10928303A6
:102A2000089540911208262F30E0240F311D2132E5
:102A30003105DCF4209183032430C9F4FC0180E0EB
:102A400090E0861758F4309112082191DC01A051D2
:102A5000B84FA30FB11D2C930196F3CF80911208AC
:102A6000680F6093120880E0089581E0089582E085
:102A70000895089581E090E03091EF072091EE07EE
:102A8000321710F480E090E09195819591090895B6
:102A90008091EF079091EE07891730F48F5F809354
:102AA000EF0780E090E008958FEF9FEF0895809109
:102AB000EE0790E02091EF07821B91090895CF92D5
:102AC000DF92EF92FF920F931F93CF93DF937C01DE
:102AD000262F972F8A0180918403882391F0C62F97
:102AE000D72F6E01C40ED51ECC15DD0571F069918E
:102AF000D701ED91FC910190F081E02DC70119956E
:102B0000F3CF642F822F0E941115C801DF91CF915E
:102B10001F910F91FF90EF90DF90CF900895CF938A
:102B2000DF931F92CDB7DEB7698320918403222300
:102B3000D1F02091A703203240F021E030E0FC01E9
:102B40003383228380E090E015C080918503E82FD5
:102B5000F0E0EA57FC4F998190838F5F8093850363
:102B60008093A70305C061E0CE0101960E94111574
:102B700081E090E00F90DF91CF91089590E0FC010B
:102B80003197E231F10508F04EC08827EC57FF4F2E
:102B90008F4F0C94A122809180008F7703C0809189
:102BA00080008F7D80938000089580918000877FD2
:102BB000F9CF84B58F7702C084B58F7D84BD089529
:102BC0008091B0008F7703C08091B0008F7D80939B
:102BD000B0000895809190008F7707C08091900099
:102BE0008F7D03C080919000877F8093900008952F
:102BF0008091A0008F7707C08091A0008F7D03C0D7
:102C00008091A000877F8093A0000895809120018B
:102C10008F7707C0809120018F7D03C080912001B4
:102C2000877F8093200108952F923F924F925F9269
:102C30007F928F929F92AF92BF92CF92DF92EF924C
:102C4000FF920F931F93CF93DF93CDB7DEB7C0569C
:102C5000D1090FB6F894DEBF0FBECDBF7C016B016A
:102C6000742EDB018D919C91892B31F0F7018081CD
:102C70009181892BD9F41DC08091AF0690E0880F17
:102C8000991F0E94C823D6018D939C93009709F445
:102C9000ACC02091AF0630E0FC0180E090E08217EC
:102CA000930724F7119211920196F9CF00E010E0FA
:102CB0001EC08091AF0690E0880F991F0E94C82324
:102CC000F70191838083009709F48FC02091AF06AC
:102CD00030E04091B1065091B206FC0180E090E0F6
:102CE000821793071CF7419351930196F9CFE09116
:102CF000A306F091A4060190F081E02D472DBE01BE
:102D00006F5B7F4F83EA96E019954090AF06512C98
:102D1000CE0101964C01FE01EF5BFF4FDE01919663
:102D20005D019D011C0180E090E0841595054CF546
:102D30000115110589F0D9016D917C914081518176
:102D40006417750748F0D1016D917C9140815181E4
:102D50004617570748F00DC040815181D9014D9366
:102D60005C930115110579F740815181D1014D9393
:102D70005C930196B2E02B0E311C32962E5F3F4FD2
:102D8000D4CF0F5F1F4F0A30110509F0B0CF20E0FC
:102D900030E08091AF0690E02817390734F5F40150
:102DA000419151914F01C901880F991FD601ED91B1
:102DB000FC91E80FF91F608171816417750710F4A9
:102DC00051834083F501419151915F01D701ED910C
:102DD000FC91E80FF91F808191814817590710F481
:102DE000518340832F5F3F4FD4CFC05ADF4F0FB680
:102DF000F894DEBF0FBECDBFDF91CF911F910F9131
:102E0000FF90EF90DF90CF90BF90AF909F908F900A
:102E10007F905F904F903F902F9008951F920F9258
:102E20000FB60F9211240F900FBE0F901F901895A0
:102E30001F920F920FB60F9211240BB60F922F9381
:102E40003F934F935F936F937F938F939F93AF9332
:102E5000BF93EF93FF938091B900887F803609F488
:102E60009CC068F5883209F45BC090F4803109F4A5
:102E700054C038F4882309F4F6C0883009F44DC0F2
:102E8000F6C0883109F44CC0803209F45DC0EFC04F
:102E9000803409F468C048F4803309F455C088339D
:102EA00009F0E5C080938103D8C0803509F44FC094
:102EB000883509F45DC0883409F0D9C0D6C0883996
:102EC00009F4C7C0A8F4883709F467C038F4883615
:102ED00009F463C0803709F460C0C9C0883809F4B8
:102EE000B8C0803909F45FC0803809F0C0C05BC049
:102EF000803B09F486C038F4803A09F466C0883A09
:102F000009F47FC0B4C0803C09F4A7C0883C09F430
:102F1000A4C0883B09F48AC0AAC080915E0310C097
:102F20009091800380917F03981770F5E091800362
:102F300081E08E0F80938003F0E0E15AFC4F8081A6
:102F40008093BB0085EC86C0809381038EC0E091A6
:102F5000800381E08E0F809380038091BB00F0E0BE
:102F6000E15AFC4F80839091800380917F036EC073
:102F7000E091800381E08E0F809380038091BB00FD
:102F8000F0E0E15AFC4F80838091820381116DC093
:102F900081E080935D0384EA61C083E080938303D2
:102FA00010923608CFCF80913608803208F051C099
:102FB000E091360881E08E0F809336088091BB0047
:102FC000F0E0EA5EF74F8083BDCF85EC8093BC00D4
:102FD0001092830380913608803230F4E0913608F5
:102FE000F0E0EA5EF74F10826091360870E0E09101
:102FF0001408F091150886E198E0199510923608AA
:1030000036C084E080938303109213081092120854
:10301000E0911008F0911108199580911208811122
:1030200005C081E0809312081092F007E091130828
:1030300081E08E0F80931308F0E0E051F84F80811B
:103040008093BB009091130880911208981708F4A0
:1030500079CF85E88093BC000AC085EC8093BC00E2
:103060001092830304C0109281030E940715FF9100
:10307000EF91BF91AF919F918F917F916F915F91F0
:103080004F913F912F910F900BBE0F900FBE0F905D
:103090001F901895CF93DF93282F30E0F901E1506E
:1030A000FD4F8491F901E754FD4FD491F901ED589A
:1030B000FD4FC491CC2391F081110E94BE15EC2FDD
:1030C000F0E0EE0FFF1FE75AFD4FA591B491EC9190
:1030D000ED2381E090E021F480E002C080E090E008
:1030E000DF91CF9108951F93CF93DF93282F30E086
:1030F000F901E150FD4F8491F901E754FD4FD4915E
:10310000F901ED58FD4FC491CC23C9F0162F811160
:103110000E94BE15EC2FF0E0EE0FFF1FE15CFD4FAB
:10312000A591B4918FB7F894111105C09C91ED2F22
:10313000E095E92302C0EC91ED2BEC938FBFDF917A
:10314000CF911F910895CF93DF9390E0FC01E75456
:10315000FD4F2491FC01ED58FD4F8491882361F1CE
:1031600090E0880F991FFC01EB5DFD4FC591D49154
:10317000FC01E15CFD4FA591B491611109C09FB7BD
:10318000F8948881209582238883EC912E230BC0AC
:10319000623061F49FB7F8943881822F8095832341
:1031A0008883EC912E2B2C939FBF06C08FB7F89489
:1031B000E8812E2B28838FBFDF91CF9108958F92C6
:1031C0009F92AF92BF92CF92DF92EF92FF926B01EC
:1031D0007C010E94B80D4B015C01C114D104E104D3
:1031E000F104F1F00E94B80DDC01CB0188199909B6
:1031F000AA09BB09883E9340A105B10570F321E0FF
:10320000C21AD108E108F10888EE880E83E0981E02
:10321000A11CB11CC114D104E104F10419F7DDCFE4
:10322000FF90EF90DF90CF90BF90AF909F908F90E6
:10323000089580919A0690919B060E945D2487E4F0
:1032400092E09093A1068093A00687E392E090938A
:10325000A4068093A3068091AD069091AE060097D8
:1032600011F00E945D248091A7069091A806009716
:1032700011F00E945D248091AB069091AC060097FE
:1032800011F00E945D248091A5069091A6060097FA
:1032900011F00E945D248091A9069091AA060097E2
:1032A00011F00E945D248091B5069091B6060C94B1
:1032B0005D240F931092AB031092AA0388EE93E063
:1032C000A0E0B0E08093AC039093AD03A093AE0375
:1032D000B093AF0323E132E03093A9032093A80316
:1032E0001092B7031092B6038093B8039093B9037A
:1032F000A093BA03B093BB0325E232E03093B50349
:103300002093B40345E351E05093C1034093C003BD
:1033100044E351E05093C3034093C20340E351E0C0
:103320005093C5034093C40341E351E05093C70356
:103330004093C60342E351E05093C9034093C8034E
:1033400046E351E05093CB034093CA031092CD0360
:103350001092CE031092CF031092D0031092540417
:10336000109253048093550490935604A0935704ED
:10337000B0935804309352042093510445ED50E02B
:1033800050935E0440935D0444ED50E0509360041C
:1033900040935F0440ED50E0509362044093610419
:1033A00041ED50E0509364044093630442ED50E0DB
:1033B000509366044093650446ED50E050936804D2
:1033C0004093670410926A0410926B0410926C048C
:1033D00010926D041092F1041092F0048093F204A4
:1033E0009093F304A093F404B093F5043093EF04A6
:1033F0002093EE0485EC90E09093FB048093FA0414
:1034000084EC90E09093FD048093FC0480EC90E0C9
:103410009093FF048093FE0481EC90E0909301056B
:103420008093000582EC90E0909303058093020561
:1034300086EC90E0909305058093040510920705B3
:10344000109208051092090510920A0586E38093F0
:103450009F0787E38093A00788E38093A10789E310
:103460008093A2078BE18093A3078DE18093A4074B
:103470008AE18093A5078CE18093A60784E080937E
:10348000A70787E08093A8071092A90784EB809391
:10349000AA0786E18093AB0788E18093AC0787E1B8
:1034A0008093AD0789E18093AE07E0919906EC30F7
:1034B00020F08FEF8093AF0710C081E08E0F8093D4
:1034C0009906E093AF0725E0E29FF0011124E35A4B
:1034D000F94F88EB9BE092838183E0919906EC3071
:1034E00020F08FEF8093B00710C081E08E0F8093A3
:1034F0009906E093B00785E0E89FF0011124E35AB4
:10350000F94F88EB9BE0928381838CE080937E0768
:1035100084E280937F0786E08093800785E0809334
:1035200081078FE1809382078EE18093830783E296
:103530008093840782E28093850785E480938607E1
:1035400084E48093870780E480938A0710928F0732
:103550001092900710929107109292071092930781
:10356000109294071092950710929607E0ECF6E0FF
:103570008FEF9FEFDC011282138214821582168274
:1035800017821086118683879487A587B6878787D9
:10359000908BA18BB28B128611821082739627E0DA
:1035A000EE37F20741F78DE090E00E94C823FC015E
:1035B0001382128287E692E091838083118687E2EC
:1035C000848384E1828784E083871486F093BD0638
:1035D000E093BC061092BE061092BF0685E280936F
:1035E0008C0510928E0567E972E085EB96E00E94EB
:1035F000F10F1092A6061092A5061092A80610923E
:10360000A7061092AA061092A9061092AC06109274
:10361000AB061092AE061092AD0687E492E090934E
:10362000A1068093A00689E592E09093A40680937A
:10363000A3060FEF24E048E060E072E080EA96E045
:103640000E94D00F67E972E08AE996E00F910C942E
:10365000F10FCF93DF93CDB7DEB728970FB6F8946D
:10366000DEBF0FBECDBF789484B5826084BD84B5C3
:10367000816084BD85B5826085BD85B5816085BD6D
:1036800080916E00816080936E0010928100809125
:1036900081008260809381008091810081608093AD
:1036A0008100809180008160809380008091B100D2
:1036B00084608093B1008091B00081608093B000FD
:1036C000809191008260809391008091910081604F
:1036D0008093910080919000816080939000809110
:1036E000A10082608093A1008091A10081608093FD
:1036F000A1008091A00081608093A00080912101B1
:103700008260809321018091210181608093210159
:103710008091200181608093200180917A008460F3
:1037200080937A0080917A00826080937A00809101
:103730007A00816080937A0080917A00806880931B
:103740007A001092C100E091FE04F091FF0482E043
:103750008083E091FA04F091FB041082E091FC0474
:10376000F091FD048FEC808310920605E091020534
:10377000F091030586E08083E0910005F09101055A
:10378000808180618083E0910005F0910105808156
:1037900088608083E0910005F09101058081806858
:1037A0008083E0910005F091010580818F7D808309
:1037B00061E080917F070E94A31860E080917F07FD
:1037C0000E94731860E080917E070E94A31888EA27
:1037D00093E090938907809388071092EF071092E7
:1037E000EE07109285031092A7031092830381E0E5
:1037F0008093820310925D0361E084E10E9473185C
:1038000061E085E10E9473188091B9008E7F8093FA
:10381000B9008091B9008D7F8093B90088E48093CE
:10382000B80085E48093BC0080E090E1A0E0B0E0C7
:1038300080938B0790938C07A0938D07B0938E078E
:103840008AE090E0A0E0B0E080938F07909390072B
:10385000A0939107B093920780E090E0A0E0B0E4DD
:103860008093930790939407A0939507B09396073E
:1038700060E070E185E00E9486096FE979E380E00D
:103880000E9486090BE917E0812C912CA12CB12C08
:1038900088EA282E82E0382E9EEE492E92E0592E9C
:1038A0002BEC622E27E0722E95012258384F6901C9
:1038B000D90114969C91149712968C91F401E258B8
:1038C000F84F7F01818F928F61E00E94A31861E021
:1038D000D7015A968C910E94A318F6019085868193
:1038E000D8018C93F701968F61E00E94A31860E0E5
:1038F000D7015E968C910E94A31861E0F801808147
:103900000E947318FFB6F8948091B907811125C001
:10391000F1018491F2019491E82FF0E0EE0FFF1F86
:10392000EB5DFD4FA591B4918C91982321F461E05A
:1039300085E30E94731861E085E30E94A3188CB5AB
:1039400080618CBD8CB580648CBD61E084E30E9495
:10395000A31861E083E30E94A3188091B9078F5FE9
:103960008093B907FFBEC3010197F1F760E0D8016A
:103970008C910E94731888E80E944F0683E00E9491
:103980004F0661E0F80180810E947318C30101971E
:10399000F1F7C8010E945606F2E08F0E911C0E5FEF
:1039A0001F4FAA94AB2821F0AA24A394B12C7CCF5A
:1039B00003EA17E0F4E0FF2EF00E60E0D8018D91ED
:1039C0008D010E94A318F012F8CF42EBE42E47E0DD
:1039D000F42E0FEA17E055E0A52E6CE0C62E72E03B
:1039E000972EE2E0BE2EB00EF8013897D080F80195
:1039F00080818C3008F046C061E08D2D0E94A318B4
:103A0000D8018C91A89EF0011124E35AF94F9D2D05
:103A10009F732081207CD22ED92AD08213821482D7
:103A20006C2D0E946D22BCE08B9FA001112420E030
:103A300030E0B901640F751FA69EF001A79EF00D3E
:103A40001124E35AF94F908196FD12C02F5F3F4F2A
:103A50002C30310571F781110BC0109280009092CB
:103A60008100109285001092840096BA90926F00A7
:103A7000D801EC91AE9EF0011124E35AF94F8081F8
:103A800080648083F8013297908132978081F701BA
:103A900031978083F701908360E00E94A31861E072
:103AA000D7018C910E94A31860E0F70180810E94E9
:103AB00073180F5F1F4FF2E0EF0EF11CB01294CF9E
:103AC000F8941092200189E08093210180E293E034
:103AD00090932901809328011092250110922401CE
:103AE00082E080937300789480938B0510928F0509
:103AF00080918C0560E00E94A3188CE592E0909381
:103B0000FA068093F90688EE93E0A0E0B0E0809397
:103B1000FB069093FC06A093FD06B093FE068FEF84
:103B20009FEFDC018093040790930507A09306079D
:103B3000B093070781E0809303070E94AA0D0091CC
:103B4000FB061091FC062091FD063091FE06DC017B
:103B5000CB01800F911FA21FB31F8093FF0690938C
:103B60000007A0930107B09302078091040790918A
:103B70000507A0910607B091070780930807909367
:103B80000907A0930A07B0930B0761E087E20E9440
:103B9000A31861E085E20E94A31849EA55E861ECA8
:103BA00070E481E090E00E94660881E090E00E946D
:103BB000820749EA55E861E471E48FEF9FEF0E94C4
:103BC000660849EA55E861E471E481E090E00E940A
:103BD00066088FEF9FEF0E9482078AEF92E00E94B3
:103BE0001B0960E087E20E94731803E21AE08091EB
:103BF000A5070E944A18892B79F461E085E20E94AA
:103C00007318C8010197F1F760E085E20E9473180C
:103C1000C8010197F1F7EBCF1092590310925A03A4
:103C200010925B0310925C03E0916104F0916204D6
:103C300082E08083E0915D04F0915E041082E09167
:103C40005F04F091600480E1808310926904E09148
:103C50006504F091660486E08083E0916304F0914E
:103C60006404808180618083E0916304F091640446
:103C7000808188608083E0916304F0916404808196
:103C800080688083E0916304F091640480818F7D7B
:103C9000808368EE73E080E090E00E94DF188FE29E
:103CA00093E09093B6078093B50764EF71E080E0EE
:103CB00090E00E94DF1824E630E040E050E068EE3B
:103CC00073E080917F070E94A51081E090E09093BF
:103CD000B8078093B70743E050E066E073E08AE9F5
:103CE00096E00E944E0E0E94B10B09E413E0D80149
:103CF0006D917D918D0180E090E04AE00E94CD09B8
:103D000083E992E00E94D50AB3E009351B0779F7F1
:103D100085E992E00E94090900EC16E03AECE32EF6
:103D200036E0F32E0E94AA0DF80186809780A084C9
:103D3000B18486169706A806B906E8F5D7018C91D6
:103D40008823C9F183859485A585B685892B8A2B1F
:103D50008B2B89F10190F081E02D1995F801838575
:103D60009485A585B685181619061A061B0694F4BF
:103D7000F80187859089A189B2890197A109B109C4
:103D80008787908BA18BB28B892B8A2B8B2B11F47D
:103D9000D7011C920E94AA0DF80182809380A48012
:103DA000B580DC01CB01880D991DAA1DBB1D868342
:103DB0009783A087B1870D5E1F4FF3E1EF0EF11CD3
:103DC00027E00E37120709F0ADCF8091B707909129
:103DD000B807019709F044C14DB75EB758874F83C4
:103DE0001A8219821C821B821E821D8260919A0691
:103DF00070919B066115710541F040919E065091AE
:103E00009F06CE0101960E944E0EED80FE80C701F6
:103E1000880F991FADB7BEB7A81BB90B0FB6F894A2
:103E2000BEBF0FBEADBFEDB7FEB731961F014981D2
:103E30005A8180E090E08E159F05C4F48E159F0591
:103E400018F44115510529F41092BA07AAEBB7E00E
:103E500003C0DA01A80FB91F2C91022E000C330BFE
:103E600020533109219331930196E5CFC12CD12CF8
:103E7000CE14DF040CF0E5C0D1012D913D911D0160
:103E8000C90163E070E00E948D225B014DEF4603A3
:103E90008001479F100D1124020F131F8AE093E049
:103EA0000E94D50AC8010E94D70A8FE093E00E94C1
:103EB000D50AC5010E94D70A0F5F1F4FC8010E9493
:103EC000240C81E090E00E94820784E193E00E944C
:103ED000D50AC5010E94D70AF501EE0FFF1FEE0FAC
:103EE000FF1FE159FD4F2091590330915A03409132
:103EF0005B0350915C0360817181828193810E9498
:103F0000A9222B013C010E94AA0D4B015C01C301B7
:103F1000B2010E94080B0E94AA0D681979098A094A
:103F20009B090E94EB2020E030E04AE754E40E9425
:103F300016234B015C0181E293E00E94D50AC50182
:103F4000B4010E940E0A8AE293E00E94D50AA301FE
:103F50009201C501B4010E9416230E9488239B018F
:103F600077FF04C022273327261B370BC9010E9485
:103F7000D70A8EE393E00E94D50A20E030E040E4C7
:103F800051E4C301B2010E944C21A50194010E9499
:103F9000162320E030E040E752E40E944C210E94CA
:103FA00088239B0177FF04C022273327261B370B6A
:103FB000C9010E94D70A83E992E00E941B0981E0AF
:103FC00090E00E94240C60E070E080E09FE30E949B
:103FD000080B4DEC5CEC6CE47EEB87E997E00E940B
:103FE0008E044DEC5CEC6CE47EE389E997E00E9482
:103FF0008E046CED75E080E090E00E94DF1840E0F8
:1040000050E0BA0187E997E00E948E0440E050E05A
:1040100060E070E889E997E00E948E040E94E6065D
:1040200081E090E00E94240C8FEF9FEF0E948207B6
:10403000C8010E94240C0E94E6065FEFC51AD50A4B
:1040400017CF1092B8071092B70789819A810E9402
:104050005D248F8198850FB6F8949EBF0FBE8DBFEB
:104060000E94A30F59CECF92DF92EF92FF920F934F
:104070001F93CF93DF93FC01EB0160817181665048
:104080007109DB018D919C91DC01AE0FBF1F1A9667
:104090008D919C911B97892B09F484C0822FDB01A1
:1040A0000D911C91D801AE0FBF1F1C969C918917D2
:1040B00048F4DE01A80FB11DA80FB11D1D921C927E
:1040C000840FEDCF50E08281581708F046C0322FA0
:1040D000A081B18116978D919C918E0F9F1FDC015D
:1040E0001C966C913617B8F5032F10E0DC011A9678
:1040F0008D919C911B97800F911FDC018C918633D1
:1041000008F0865390917B00682F6870977F962BFC
:1041100090937B008770806480937C0080917A000C
:10412000806480937A0080917A0086FDFCCF809134
:1041300078006091790090E0962BD801AA0FBB1F00
:10414000AC0FBD1F6D917C911197860F971F8D93BA
:104150009C93340FBDCF5F5FB6CFE080F180B6E0B7
:10416000EB1AF108D7018D919C91DC01AE0FBF1FB6
:104170001C968C912817B0F48E01020F111D020FAE
:10418000111D628170E06B01D594C794D8018D91A7
:104190009C918C0D9D1D0E947922D8016D937C937A
:1041A000240FE0CFDF91CF911F910F91FF90EF90FF
:1041B000DF90CF900895DC01ED91FC913E97019046
:1041C000F081E02D8E0F9F1F0C9433200E94282138
:1041D00008F481E00895E89409C097FB3EF49095B7
:1041E0008095709561957F4F8F4F9F4F9923A9F0D0
:1041F000F92F96E9BB279395F6958795779567955F
:10420000B795F111F8CFFAF4BB0F11F460FF1BC0A2
:104210006F5F7F4F8F4F9F4F16C0882311F096E935
:1042200011C0772321F09EE8872F762F05C06623E3
:1042300071F096E8862F70E060E02AF09A95660F9C
:10424000771F881FDAF7880F9695879597F9089555
:10425000990F0008550FAA0BE0E8FEEF1616170697
:10426000E807F907C0F012161306E407F50798F0FF
:10427000621B730B840B950B39F40A2661F0232B18
:10428000242B252B21F408950A2609F4A140A69594
:104290008FEF811D811D08950E945F210C94D02114
:1042A0000E94C22138F00E94C92120F0952311F00C
:1042B0000C94B9210C94BF2111240C9404220E9467
:1042C000E12170F3959FC1F3950F50E0551F629F58
:1042D000F001729FBB27F00DB11D639FAA27F00D5F
:1042E000B11DAA1F649F6627B00DA11D661F829F86
:1042F0002227B00DA11D621F739FB00DA11D621F6B
:10430000839FA00D611D221F749F3327A00D611D87
:10431000231F849F600D211D822F762F6A2F112469
:104320009F5750409AF0F1F088234AF0EE0FFF1F9C
:10433000BB1F661F771F881F91505040A9F79E3FF3
:10434000510580F00C94B9210C9404225F3FE4F3F2
:10435000983ED4F3869577956795B795F795E79549
:104360009F5FC1F7FE2B880F911D9695879597F952
:10437000089597F99F6780E870E060E008959FEFE7
:1043800080EC089500240A941616170618060906EC
:10439000089500240A9412161306140605060895BB
:1043A000092E0394000C11F4882352F0BB0F40F443
:1043B000BF2B11F460FF04C06F5F7F4F8F4F9F4F83
:1043C000089557FD9058440F551F59F05F3F71F005
:1043D0004795880F97FB991F61F09F3F79F087956C
:1043E0000895121613061406551FF2CF4695F1DFF5
:1043F00008C0161617061806991FF1CF8695710585
:10440000610508940895E894BB2766277727CB01B8
:1044100097F90895052E97FB1EF400940E9421221F
:1044200057FD07D00E943C2207FC03D04EF40C94A9
:10443000212250954095309521953F4F4F4F5F4F2A
:10444000089590958095709561957F4F8F4F9F4F00
:1044500008950E945E22A59F900DB49F900DA49F89
:10446000800D911D11240895B7FF0C9429220E94FC
:104470002922821B930B0895A1E21A2EAA1BBB1BB3
:10448000FD010DC0AA1FBB1FEE1FFF1FA217B30720
:10449000E407F50720F0A21BB30BE40BF50B661F36
:1044A000771F881F991F1A9469F7609570958095FA
:1044B00090959B01AC01BD01CF010895A29FB00171
:1044C000B39FC001A39F700D811D1124911DB29F48
:1044D000700D811D1124911D0895991B79E004C070
:1044E000991F961708F0961B881F7A95C9F7809533
:1044F0000895AA1BBB1B51E107C0AA1FBB1FA6172B
:10450000B70710F0A61BB70B881F991F5A95A9F77C
:1045100080959095BC01CD01089597FB072E16F468
:10452000009407D077FD09D00E94792207FC05D0BE
:104530003EF4909581959F4F0895709561957F4FBA
:104540000895EE0FFF1F881F8BBF0790F691E02D97
:1045500019945058BB27AA270E94C1220C94D0213D
:104560000E94C22138F00E94C92120F039F49F3FF7
:1045700019F426F40C94BF210EF4E095E7FB0C949B
:10458000B921E92F0E94E12158F3BA176207730796
:104590008407950720F079F4A6F50C9403220EF415
:1045A000E0950B2EBA2FA02D0B01B90190010C0143
:1045B000CA01A0011124FF27591B99F0593F50F45B
:1045C000503E68F11A16F040A22F232F342F4427B3
:1045D000585FF3CF469537952795A795F0405395AB
:1045E000C9F77EF41F16BA0B620B730B840BBAF07B
:1045F0009150A1F0FF0FBB1F661F771F881FC2F7E6
:104600000EC0BA0F621F731F841F48F487957795F9
:104610006795B795F7959E3F08F0B0CF9395880FB3
:1046200008F09927EE0F9795879508950E942A2301
:104630000C94D0210E94C92158F00E94C22140F060
:1046400029F45F3F29F00C94B92151110C940422F4
:104650000C94BF210E94E12168F39923B1F3552303
:1046600091F3951B550BBB27AA2762177307840785
:1046700038F09F5F5F4F220F331F441FAA1FA9F31B
:1046800035D00E2E3AF0E0E832D091505040E69509
:10469000001CCAF72BD0FE2F29D0660F771F881F6A
:1046A000BB1F261737074807AB07B0E809F0BB0B5D
:1046B000802DBF01FF2793585F4F3AF09E3F510571
:1046C00078F00C94B9210C9404225F3FE4F3983EF7
:1046D000D4F3869577956795B795F7959F5FC9F75A
:1046E000880F911D9695879597F90895E1E0660FDB
:1046F000771F881FBB1F621773078407BA0720F054
:10470000621B730B840BBA0BEE1F88F7E0950895BC
:104710000E948F236894B1110C94042208950E9482
:10472000E92188F09F5798F0B92F9927B751B0F039
:10473000E1F0660F771F881F991F1AF0BA95C9F725
:1047400014C0B13091F00E940322B1E008950C949E
:104750000322672F782F8827B85F39F0B93FCCF351
:10476000869577956795B395D9F73EF490958095A2
:10477000709561957F4F8F4F9F4F08950E9428211C
:1047800008F48FEF08950E942821880B990B089553
:10479000CF93DF938230910510F482E090E0E091B6
:1047A0003B08F0913C0820E030E0C0E0D0E03097DA
:1047B00011F14081518148175907C0F04817590736
:1047C00061F482819381209719F09B838A832BC0A7
:1047D00090933C0880933B0826C02115310519F0C1
:1047E0004217530718F49A01BE01DF01EF0102805E
:1047F000F381E02DDCCF2115310509F1281B390BA0
:104800002430310590F412968D919C911397611587
:10481000710521F0FB019383828304C090933C08CF
:1048200080933B08FD01329644C0FD01E20FF31F67
:1048300081939193225031092D933C933AC020915A
:10484000390830913A08232B41F420910B02309122
:104850000C0230933A0820933908209109023091D4
:104860000A022115310541F42DB73EB740910D02E2
:1048700050910E02241B350BE0913908F0913A0853
:10488000E217F307A0F42E1B3F0B2817390778F027
:10489000AC014E5F5F4F2417350748F04E0F5F1F86
:1048A00050933A08409339088193919302C0E0E015
:1048B000F0E0CF01DF91CF9108950F931F93CF9335
:1048C000DF93009709F48CC0FC01329713821282A7
:1048D00000913B0810913C080115110581F42081DD
:1048E0003181820F931F2091390830913A0828179F
:1048F000390779F5F0933A08E093390871C0D80187
:1049000040E050E0AE17BF0750F412962D913C9155
:104910001397AD012115310509F1D901F3CF9D019F
:10492000DA013383228360817181860F971F82179A
:10493000930769F4EC0128813981260F371F2E5F18
:104940003F4F318320838A819B8193838283452BD0
:1049500029F4F0933C08E0933B0842C01396FC9383
:10496000EE931297ED01499159919E01240F351F45
:10497000E217F30771F480819181840F951F0296ED
:1049800011969C938E938281938113969C938E9320
:104990001297E0E0F0E0D80112968D919C91139768
:1049A000009719F0F8018C01F6CF8D919C91980138
:1049B0002E5F3F4F820F931F2091390830913A08A4
:1049C0002817390769F4309729F410923C0810929F
:1049D0003B0802C01382128210933A0800933908F0
:1049E000DF91CF911F910F9108956F927F928F92D7
:1049F0009F92AF92BF92CF92DF92EF92FF920F936E
:104A00001F93CF93DF93EC01009789F4CB01DF91E3
:104A1000CF911F910F91FF90EF90DF90CF90BF90BB
:104A2000AF909F908F907F906F900C94C823FC0163
:104A3000E60FF71F9C0122503109E217F30708F433
:104A4000ACC0D9010D911C91119706171707B0F052
:104A50000530110508F49FC0C80104978617970711
:104A600008F499C002501109061B170B019311930A
:104A70006D937C93CF010E945D248DC05B01A01AD1
:104A8000B10A4C01800E911EA0913B08B0913C08E8
:104A900040E050E0E12CF12C109709F44AC0A81531
:104AA000B905D1F56D907C901197630182E0C80E35
:104AB000D11CCA14DB0480F1A3014A195B096A0105
:104AC00082E0C80ED11C1296BC9012971396AC913E
:104AD000B5E0CB16D10440F0B282A383518340836A
:104AE000D9016D937C930AC00E5F1F4FC301800FE5
:104AF000911FF90191838083EB2DFA2FE114F104CA
:104B000031F0D7011396FC93EE93129744C0F093C3
:104B10003C08E0933B083FC08D919C91119748174A
:104B2000590708F4AC017D0112960D90BC91A02D9F
:104B3000B3CF8091390890913A0888159905E1F42E
:104B400046175707C8F48091090290910A0200970E
:104B500041F48DB79EB740910D0250910E02841B17
:104B6000950BE817F907C8F4F0933A08E093390871
:104B7000F901718360830FC0CB010E94C8237C01BF
:104B8000009759F0A801BE010E94E325CE010E94C2
:104B90005D24C70104C0CE0102C080E090E0DF9137
:104BA000CF911F910F91FF90EF90DF90CF90BF902A
:104BB000AF909F908F907F906F90089581E090E0EC
:104BC000F8940C94F325FB01DC0102C001900D92D6
:104BD00041505040D8F70895FB01DC0101900D923F
:104BE0000020E1F7089511E0C4EAD1E000E006C03A
:104BF000802FFE010E94A1222196011DC53AD107F6
:0A4C000080E00807A9F7F894FFCF41
:104C0A000001020304050607FF00003D082000001A
:104C1A000000008F155F1559023915571548153AC6
:104C2A0015000000003A0F7A0EBE0E810FEF0ECD6E
:104C3A000EE10E00000000D80180026B029502B658
:104C4A000D030000000000D00F3320FDFF0000001C
:104C5A000000000000FDFF0000D80180026B0295F1
:104C6A0002DB20000000000A037A0E5902580200F3
:104C7A000000000000B84066662A41594F206A27A2
:104C8A006169207265637520756E204D45535341E5
:104C9A0047453A20000D0A006E616E00696E660093
:104CAA006F7666004E6220646520737465707320A7
:104CBA003D200053656E73203D2055700053656E8C
:104CCA0073203D20446F776E00566974657373656F
:104CDA00203D200044697374616E6365203D2000A5
:104CEA00486175746575722061637475656C6C656D
:104CFA00203D2000627265616B0043616C696272DB
:104D0A006174696F6E003031320078203D2000797D
:104D1A00203D2000476F20746F206574616765200D
:104D2A000054656D7073203D200056697465737375
:104D3A006520287365632F706F29203D200052502B
:064D4A004D203D20000099
:00000001FF
