:100000000C94A5010C94D6010C94D6010C94D60145
:100010000C94D6010C94D6010C94D6010C94D60104
:100020000C94D6010C94140B0C94140B0C94140B1C
:100030000C94D6010C9490130C94D6010C94D60118
:100040000C94D6010C9406050C94D6010C94D601A0
:100050000C94D6010C94D6010C94D6010C94521831
:100060000C94D6010C9428180C94FE170C94D6010D
:100070000C94D6010C94D6010C94D6010C94D601A4
:100080000C94D6010C94D6010C94D6010C94D60194
:100090000C94D6010C94D6010C94D6010C941E0B32
:1000A0000C94D6010C94D6010C94D6010C94D60174
:1000B0000C94D6010C94D6010C94D6010C942F0309
:1000C0000C94D6010C94D6010C94D6010C94D41740
:1000D0000C94AA170C94D6010C9480170C94561704
:1000E0000C94D6014D045204570461046B04E404DB
:1000F00075047D0485048F049904A304B204BC0430
:10010000E404C604D004DA04BA09BD09AC09B00994
:10011000B609F409C109C509CB09CF09D309D90921
:10012000DD09E109F409E709EB09EF090C94B609C7
:100130000C945C020C94BC040C947D040C94D309C4
:100140000C94BA090C94CF090C941B090C94C109A6
:100150000C94EB090C94D0040C9495020C94BF11F0
:100160000C9473120C949C180C9499040C941A0916
:100170000C94C4120C944D040C942F210C9459022D
:100180000C94F4090C9457040C946C110C947504A1
:100190000C94DA040C94D8010C9461040C94D311DF
:1001A0000C94B2040C94E1110C9487200C9429094E
:1001B0000C948F040C94B0110C9480020C94C6041F
:1001C0000C94B0090C9470090C94CB090C942C126B
:1001D0000C94C5090C9458020C9440090C94E40446
:1001E0000C9485040C94C2120C946B020C94A3041E
:1001F0000C94E7090C94DD090C943D080C94BD099E
:100200000C9438090C94D9090C94B71E0C946B0407
:100210000C94E1090C94EF090C94AC090C94520471
:100220000C940A0300002100240027002A002D005E
:100230003000330001010000040107010A01000041
:100240002200250028002B002E003100340002017E
:100250000000050108010B0100002000230026001A
:1002600029002C002F0032000001000003010601CC
:10027000090105050505070508080808020202022C
:100280000A0A080804040404010101010101010132
:100290000303030303030303040707070C0C0C0CFD
:1002A0000C0C0C0C020202020606060606060606E6
:1002B0000B0B0B0B0B0B0B0B010210202008081073
:1002C00020401020408002010201080402010102C6
:1002D000040810204080804020100804020180049F
:1002E00002018040201008040201080402010102FA
:1002F0000408102040800102040810204080000003
:100300000A0B02090C0D0E0807030401000000008F
:1003100000000000000000000000000000000000DD
:10032000000000000000000000001211100000009A
:1003300000000000000000000000000000000000BD
:10034000000000000200B71E9C1811241FBECFEF52
:10035000D1E2DEBFCDBF00E00CBF13E0A0E0B2E011
:10036000E8EAFCE400E00BBF02C007900D92A6355E
:10037000B107D9F728E0A6E5B3E001C01D92AD347E
:10038000B207E1F711E0C4EAD1E000E006C021972E
:100390000109802FFE010E94F522C33AD10780E0B7
:1003A0000807A9F70E94DC180C9442260C94000060
:1003B000DF92EF92FF920F931F93CF93DF93CDB70E
:1003C000DEB7EE970FB6F894DEBF0FBECDBF8C013F
:1003D0007B01D42E8FEF840FD801ED91FC918230F8
:1003E00020F40480F581E02D05C0411105C0028094
:1003F000F381E02DC8011995D801ED91FC9100849D
:10040000F185E02D20E041E0B701C8011995B5E084
:10041000DB1609F43FC0D801ED91FC910280F38115
:10042000E02DC8011995B2E0DB1234C0D801ED917E
:10043000FC910084F185E02D20E041E0BE016F5F7A
:100440007F4FC801199540E0D8011C968C91481740
:1004500008F5842F90E0880F991FF701E80FF91F26
:1004600021E030E02C0F3D1F820F931FD8011E9614
:100470002D913C911F97DC018D919C91B901681BD6
:10048000790BCB0120813181820F931F918380836F
:100490004F5FDACFEE960FB6F894DEBF0FBECDBF3A
:1004A000DF91CF911F910F91FF90EF90DF90089512
:1004B000089580E090E0089580915603909157034D
:1004C000019690935703809356030895E091590342
:1004D000F0915A031994CF93DF93FC0185858F3FE8
:1004E00061F0EF0161E00E94A90C61E08D850E943E
:1004F000790C8BE193E00197F1F7DF91CF910895AB
:10050000CF93DF93FC0185858F3F61F0EF0161E0C0
:100510000E94A90C60E08D850E94790C8BE193E02C
:100520000197F1F7DF91CF910895EF92FF920F932A
:100530001F93CF93DF931F92CDB7DEB77C018B0162
:10054000FC01138212821582148217821682118690
:100550001086118A108A403218F08FE1848702C019
:10056000FC014487F70182859385892B11F080E097
:100570000DC0F701848590E029830E941724F701BC
:10058000938782872981892B91F714C0F70194857D
:10059000891778F4482F50E0F801E40FF51F908197
:1005A000F70162857385FB01E40FF51F90838F5F70
:1005B000EDCF25870F90DF91CF911F910F91FF9085
:1005C000EF900895FC01248131E03093D90320930A
:1005D000FB031092DA031092FC038485682B8DEFE5
:1005E00093E00E9470090C94A40D0F931F93CF9376
:1005F0008C01C62F64600E94E2026C2F6B7FC801E1
:100600000E94E20283EC90E00197F1F7CF911F91F5
:100610000F9108950F931F93CF93DF938C01C62FF3
:10062000D62FD07FD1606D2F0E94E2026D2FC801BE
:100630000E94F50280E1C89FB0011124C62FC1605D
:100640006C2FC8010E94E2026C2FC8010E94F502C3
:1006500081E090E0DF91CF911F910F9108951F925B
:100660000F920FB60F9211240BB60F922F933F9358
:100670004F935F936F937F938F939F93AF93BF93AA
:10068000EF93FF938091E1050E94500C2091E505C6
:100690003091E6052F5F3F4F3093E6052093E50547
:1006A0009091E405953618F096E09093E0059091CE
:1006B000E0059430C9F128F4923069F09330D1F01C
:1006C0005EC0953009F451C0963009F058C091E0F1
:1006D0009093B10651C0811152C02091E50530912F
:1006E000E6052436310508F442C01092B106109296
:1006F000E4051CC0813009F042C0E091E40591E0BE
:100700009E0F9093E405F0E02091E5053091E60519
:10071000EE0FFF1FE052FA4F308727831092E60555
:100720001092E50594E029C0811117C0E091E4051D
:1007300091E09E0F9093E405F0E02091E505309163
:10074000E605EE0FFF1FE052FA4F30872783109225
:10075000E6051092E50593E010C02091E505309183
:10076000E6052536310558F007C0811108C0109202
:10077000E6051092E50503C095E09093E0059091A1
:10078000E3059923B9F081110AC08091E20588231D
:1007900021F08091E20561E009C02F9A0BC08091A1
:1007A000E205882331F08091E20560E00E94790C37
:1007B00001C02F98FF91EF91BF91AF919F918F91C1
:1007C0007F916F915F914F913F912F910F900BBE51
:1007D0000F900FBE0F901F9018958F929F92AF921F
:1007E000BF92CF92DF92EF92FF920F931F93CF931E
:1007F000DF93EC016A017B0120E030E04FE753E436
:10080000C701B6010E94A0214B015C0120E030E04D
:10081000A9010E94122418161CF4C501B40103C0DA
:10082000C501B40190580E94DC238B0120E030E028
:10083000A901C701B6010E941224181614F460E041
:1008400001C061E089810E94790C0F3F110509F018
:1008500014F4112702C00FEF10E0C88161E08C2F63
:100860000E94A90C0115110509F4B1C00F3F110533
:1008700009F4AFC0EC2FF0E0E250FD4FE4914E2FB1
:1008800050E0FA013197E231F10508F09DC0882768
:10089000EE58FF4F8F4F0C94F52284B5806884BDCD
:1008A00007BDA7C084B5806284BD08BDA2C0809189
:1008B00080008068809380001093890000938800F6
:1008C00098C08091800080628093800010938B009C
:1008D00000938A008EC080918000886080938000A1
:1008E00010938D0000938C0084C08091B0008068CC
:1008F0008093B0000093B3007CC08091B000806210
:100900008093B0000093B40074C080919000806820
:100910008093900010939900009398006AC0809192
:10092000900080628093900010939B0000939A0047
:1009300060C08091900088608093900010939D002B
:1009400000939C0056C08091A00080688093A00016
:100950008091A0008F7B8093A0001093A90000934A
:10096000A80047C08091A00080628093A0001093EF
:10097000AB000093AA003DC08091A00088608093E6
:10098000A0001093AD000093AC0033C08091200113
:10099000806880932001109329010093280129C0C9
:1009A0008091200180628093200110932B0100939D
:1009B0002A011FC08091200188608093200110933C
:1009C0002D0100932C0115C00038110514F460E0CE
:1009D00001C061E08C2FDF91CF911F910F91FF90AB
:1009E000EF90DF90CF90BF90AF909F908F900C943E
:1009F000790CDF91CF911F910F91FF90EF90DF90D5
:100A0000CF90BF90AF909F908F9008951F920F92BC
:100A10000FB60F9211240BB60F922F933F934F9363
:100A20005F936F937F938F939F93AF93BF93EF9356
:100A3000FF938091580387FF05C0109285001092A4
:100A4000840016C020915803022E000C330B8091B5
:100A5000EE0690E0281739075CF43091580325E042
:100A60003203F0011124EE54F94F808186FD15C048
:100A7000809158038F5F8093580320915803022E72
:100A8000000C330B8091EE0690E02817390794F4A0
:100A9000809158038C302CF10DC0309158033203F3
:100AA000F0011124EE54F94F808160E08F730E94B1
:100AB000790CDECF809184009091850084349C492C
:100AC00018F480E49CE905C0809184009091850031
:100AD000049690938900809388008FEF8093580349
:100AE0002AC040918400509185003091580325E040
:100AF0003203F0011124EE54F94F81819281840F69
:100B0000951F909389008093880030915803320399
:100B1000F0011124EE54F94F808186FF0CC0309112
:100B200058033203F0011124EE54F94F808161E043
:100B30008F730E94790CFF91EF91BF91AF919F91BC
:100B40008F917F916F915F914F913F912F910F9076
:100B50000BBE0F900FBE0F901F9018958EBD00001A
:100B60000DB407FEFDCF8EB50895CF93DF93EC0152
:100B700060E088810E94790C88E90E94AE0580E0DF
:100B80000E94AE0580E00E94AE0580E00E94AE05A6
:100B900080E00E94AE0561E088810E94790C8BE8BC
:100BA00091E00197F1F760E088810E94790C80EE76
:100BB0000E94AE0561E08881DF91CF910C94790CA1
:100BC000AF92BF92CF92DF92EF92FF920F931F935B
:100BD000CF93DF93CDB7DEB760970FB6F894DEBF43
:100BE0000FBECDBF5C0160E0FC0180810E94790CEA
:100BF00080E60E94AE058E010F5F1F4F7E01F1E17E
:100C0000EF0EF11C680180E00E94AE0590E0A0E0CC
:100C1000B0E0F60181939193A193B1936F01EE152A
:100C2000FF0589F761E0F50180810E94790C80E081
:100C300090E0DC01F80141915191619171918F0136
:100C4000BA2FA92F982F8827840F951FA61FB71F8B
:100C5000EE15FF0579F79C01AD0166277727CB01DB
:100C6000621B730B840B950B60960FB6F894DEBF76
:100C70000FBECDBFDF91CF911F910F91FF90EF90ED
:100C8000DF90CF90BF90AF9008958F929F92AF92D8
:100C9000BF92CF92DF92EF92FF924DEC5CEC6CE44E
:100CA0007EE38CEE97E00E94ED034DEC5CEC6CE48F
:100CB0007EE38EEE97E00E94ED0380EF97E00E94C6
:100CC000E00580EF97E00E94B50582EF97E00E9473
:100CD000E00582EF97E00E94B50580EF97E00E9463
:100CE000E00590958095709561957F4F8F4F9F4F50
:100CF0000E94412129EA35E841EC51E40E94A021FB
:100D000020E030E048E455E40E946A234B015C0196
:100D100082EF97E00E94E0050E94412129EA35E830
:100D200041EC51EC0E94A02120E030E048E455E481
:100D30000E946A236B017C0123E830EB4DEE51E405
:100D4000C501B4010E94122418163CF440E050E0A2
:100D5000BA018CEE97E00E94ED0323E830EB4DEEF4
:100D600051E4C701B6010E941224181644F440E071
:100D700050E060E070E88EEE97E00E94ED0323E81B
:100D800030EB4DEE51E4C501B4010E943A2187FDDC
:100D9000A4CF23E830EB4DEE51E4C701B6010E9429
:100DA0003A2187FD9ACF64EF71E080E090E0FF90F8
:100DB000EF90DF90CF90BF90AF909F908F900C946A
:100DC000E50C4F925F926F927F928F929F92AF92BB
:100DD000BF92CF92DF92EF92FF92CF93DF93CDB786
:100DE000DEB728970FB6F894DEBF0FBECDBFBC01AB
:100DF000990F880B990B0E9441216B017C012DEC0E
:100E00003CEC4CE45EE30E94A0214B015C01AB0191
:100E1000BC018CEE97E00E94ED03B501A4018EEEBB
:100E200097E00E94ED0380EF97E00E94E00580EFDD
:100E300097E00E94B50582EF97E00E94E00582EFFF
:100E400097E00E94B50529EA35E841EC51E4C70175
:100E5000B6010E94A02169837A838B839C8380EFF3
:100E600097E00E94E00590958095709561957F4F81
:100E70008F4F9F4F0E9441219B01AC0169817A8174
:100E80008B819C810E94A02120E030E048E455E461
:100E90000E946A234B015C0182EF97E00E94E0050B
:100EA0002B013C0129EA35E841EC51ECC701B601C0
:100EB0000E94A0216D837E838F839887C301B20136
:100EC0000E9441219B01AC016D817E818F819885BB
:100ED0000E94A02120E030E048E455E40E946A230B
:100EE0002B013C012FEE36EF45E651E4C501B4017C
:100EF0000E94122418163CF440E050E0BA018CEE37
:100F000097E00E94ED032FEE36EF45E651E4C30172
:100F1000B2010E941224181644F440E050E060E050
:100F200070E88EEE97E00E94ED0341E06CEF76E012
:100F30008AEF96E00E9477102FEE36EF45E651E4F7
:100F4000C501B4010E943A2187FD89CF2FEE36EF0B
:100F500045E651E4C301B2010E943A2187FD7FCFEB
:100F600028960FB6F894DEBF0FBECDBFDF91CF91AC
:100F7000FF90EF90DF90CF90BF90AF909F908F90B9
:100F80007F906F905F904F9008950F931F93CF9332
:100F9000DF93C5E1D7E00FE117E08FB7F8944091F8
:100FA00044085091450860914608709147088FBFEA
:100FB0008E819F81A885B98584179507A607B707F5
:100FC00008F040C0F80180818823E1F18B859C8581
:100FD000AD85BE85892B8A2B8B2BA1F1E881F98108
:100FE00019958B859C85AD85BE85181619061A0640
:100FF0001B068CF48F859889A989BA890197A10964
:10100000B1098F87988BA98BBA8B892B8A2B8B2B55
:1010100011F4F80110822FB7F89480914408909150
:101020004508A0914608B09147082FBF4A815B81CF
:101030006C817D81840F951FA61FB71F8E839F83B0
:10104000A887B98763960D5E1F4FF7E0C33DDF07A2
:1010500009F0A3CFDF91CF911F910F910895EF92E7
:10106000FF920F931F939701A8018091D4071F91BE
:101070000F91FF90EF900C94F013EF92FF920F936B
:101080001F93CF93DF93CDB7DEB728970FB6F894B1
:10109000DEBF0FBECDBF8CEDE82E95E0F92E00E04F
:1010A00010E020E030E040E050E064EC79E080E0E7
:1010B00090E00E942F088FE293E00E94920D6BE473
:1010C00073E0CE0101960E94371386EA94E00E94F5
:1010D000E111892BF9F086EA94E00E94BF118F8319
:1010E00018860D811E810F5F1F4FB801CE0101963A
:1010F0000E94E512882349F329813A818D819E81DE
:10110000BE01695F7F4F820F931F0E943B261E83A3
:101110000D83DBCF8091EF069091F0060097C9F028
:1011200069817A816115710591F04091F1065091C4
:10113000F2062D813E814217530748F00E943B265C
:101140008D819E819093F4068093F30618C00E94CF
:10115000AC2489819A819093F0068093EF068B816D
:101160009C819093F2068093F1068D819E819093ED
:10117000F4068093F3061A8219821C821B821E8257
:101180001D8289819A810E94AC244091F30650917E
:10119000F4066091EF067091F00683E495E00E94FA
:1011A0006C1189E493E00E94920D81E090E09093AD
:1011B0005C0380935B0328960FB6F894DEBF0FBEE6
:1011C000CDBFDF91CF911F910F91FF90EF900895C8
:1011D00085ED8093BC008091BC0084FDFCCF109213
:1011E000D803089540918703262F30E0240F311D46
:1011F00021323105DCF42091D8032430C9F4FC01FC
:1012000080E090E0861758F4309187032191DC014B
:10121000AB59BC4FA30FB11D2C930196F3CF809116
:101220008703680F6093870380E0089581E0089545
:1012300082E00895089581E090E030916403209168
:101240006303321710F480E090E091958195910945
:1012500008958091640390916303891730F48F5F40
:101260008093640380E090E008958FEF9FEF0895EE
:101270008091630390E020916403821B910908959B
:10128000CF92DF92EF92FF920F931F93CF93DF9352
:101290007C01262F972F8A018091D903882391F012
:1012A000C62FD72F6E01C40ED51ECC15DD0571F0EB
:1012B0006991D701ED91FC910190F081E02DC7017A
:1012C0001995F3CF642F822F0E94F208C801DF9195
:1012D000CF911F910F91FF90EF90DF90CF900895E5
:1012E000CF93DF931F92CDB7DEB769832091D903E7
:1012F0002223D1F02091FC03203240F021E030E0A5
:10130000FC013383228380E090E015C08091DA03F2
:10131000E82FF0E0E552FC4F998190838F5F809336
:10132000DA038093FC0305C061E0CE0101960E94C0
:10133000F20881E090E00F90DF91CF91089590E066
:10134000FC013197E231F10508F04EC08827EC57D7
:10135000FF4F8F4F0C94F522809180008F7703C050
:10136000809180008F7D809380000895809180001F
:10137000877FF9CF84B58F7702C084B58F7D84BD18
:1013800008958091B0008F7703C08091B0008F7D69
:101390008093B0000895809190008F7707C080916E
:1013A00090008F7D03C080919000877F8093900094
:1013B00008958091A0008F7707C08091A0008F7D55
:1013C00003C08091A000877F8093A0000895809142
:1013D00020018F7707C0809120018F7D03C080910D
:1013E0002001877F8093200108953FB7F894809172
:1013F0005F0390916003A0916103B091620326B5F1
:10140000A89B05C02F3F19F00196A11DB11D3FBF3C
:10141000BA2FA92F982F8827820F911DA11DB11DCA
:10142000BC01CD0142E0660F771F881F991F4A95C6
:10143000D1F708958F929F92AF92BF92CF92DF9291
:10144000EF92FF92BC01990F880B990B0E944121EA
:101450004B015C012DEC3CEC4CE45EE30E94A021CE
:101460006B017C01AB01BC018CEE97E00E94ED03A7
:10147000B701A60170588EEE97E00E94ED0380EF51
:1014800097E00E94E00580EF97E00E94B50529EA09
:1014900035E841EC51E4C501B4010E94A0214B01A3
:1014A0005C0180EF97E00E94E0056B017C0141E068
:1014B0006CEF76E08AEF96E00E9477106627772738
:1014C000CB016C197D098E099F090E9441219B0166
:1014D000AC01C501B4010E94A02120E030E048E445
:1014E00055E40E946A2329EA35E841E451E40E9468
:1014F0003A2187FDD6CF40E050E0BA018CEE97E06C
:101500000E94ED0340E050E060E070E88EEE97E06E
:10151000FF90EF90DF90CF90BF90AF909F908F9013
:101520000C94ED038F929F92AF92BF92CF92DF9275
:10153000EF92FF920F931F93CF93DF93CDB7DEB758
:10154000A1970FB6F894DEBF0FBECDBF6C01990F07
:10155000EE08FF08F7FE31C0E0914305F091440525
:101560000190F081E02D6DE283E495E019958C0106
:1015700022273327A9012C193D094E095F0919A219
:10158000CE0181967C019AE0892E912CA12CB12C60
:10159000CA01B901A50194010E949022605DF70182
:1015A00062937F01211531054105510589F7CF016E
:1015B0000E94920D080F191F1EC0A701960119A2C3
:1015C0008E010F5D1F4F8AE0C82ED12CE12CF12C2B
:1015D000CA01B901A70196010E949022605DF8013D
:1015E00062938F01211531054105510589F7CF011E
:1015F0000E94920D8C0189E493E00E94920D800F6D
:10160000911FA1960FB6F894DEBF0FBECDBFDF913C
:10161000CF911F910F91FF90EF90DF90CF90BF90EF
:10162000AF909F908F9008951F920F920FB60F92D8
:1016300011240F900FBE0F901F9018951F920F92BC
:101640000FB60F9211240BB60F922F933F934F9327
:101650005F936F937F938F939F93AF93BF93EF931A
:10166000FF938091B900887F803609F49CC068F5AB
:10167000883209F45BC090F4803109F454C038F426
:10168000882309F4F6C0883009F44DC0F6C08831CB
:1016900009F44CC0803209F45DC0EFC0803409F415
:1016A00068C048F4803309F455C0883309F0E5C0B8
:1016B0008093D603D8C0803509F44FC0883509F42B
:1016C0005DC0883409F0D9C0D6C0883909F4C7C0D4
:1016D000A8F4883709F467C038F4883609F463C081
:1016E000803709F460C0C9C0883809F4B8C08039AF
:1016F00009F45FC0803809F0C0C05BC0803B09F4CA
:1017000086C038F4803A09F466C0883A09F47FC08C
:10171000B4C0803C09F4A7C0883C09F4A4C0883B4D
:1017200009F48AC0AAC08091B30310C09091D50378
:101730008091D403981770F5E091D50381E08E0F66
:101740008093D503F0E0EC54FC4F80818093BB0084
:1017500085EC86C08093D6038EC0E091D50381E0EE
:101760008E0F8093D5038091BB00F0E0EC54FC4FCA
:1017700080839091D5038091D4036EC0E091D5030E
:1017800081E08E0F8093D5038091BB00F0E0EC5494
:10179000FC4F80838091D70381116DC081E08093DD
:1017A000B20384EA61C083E08093D8031092AB0354
:1017B000CFCF8091AB03803208F051C0E091AB03F2
:1017C00081E08E0F8093AB038091BB00F0E0E55782
:1017D000FC4F8083BDCF85EC8093BC001092D80372
:1017E0008091AB03803230F4E091AB03F0E0E55739
:1017F000FC4F10826091AB0370E0E0918903F0919F
:101800008A038BE893E019951092AB0336C084E00D
:101810008093D8031092880310928703E091850388
:10182000F0918603199580918703811105C081E0AD
:101830008093870310926503E091880381E08E0F07
:1018400080938803F0E0EB59FC4F80818093BB00CC
:101850009091880380918703981708F479CF85E8E1
:101860008093BC000AC085EC8093BC001092D80322
:1018700004C01092D6030E94E808FF91EF91BF9137
:10188000AF919F918F917F916F915F914F913F9118
:101890002F910F900BBE0F900FBE0F901F901895B9
:1018A000CF93DF93282F30E0F901E250FD4F849170
:1018B000F901E854FD4FD491F901EE58FD4FC49160
:1018C000CC2391F081110E949F09EC2FF0E0EE0FE4
:1018D000FF1FE85AFD4FA591B491EC91ED2381E0F3
:1018E00090E021F480E002C080E090E0DF91CF91B1
:1018F00008951F93CF93DF93282F30E0F901E25032
:10190000FD4F8491F901E854FD4FD491F901EE584F
:10191000FD4FC491CC23C9F0162F81110E949F095D
:10192000EC2FF0E0EE0FFF1FE25CFD4FA591B491AC
:101930008FB7F894111105C09C91ED2FE095E92324
:1019400002C0EC91ED2BEC938FBFDF91CF911F91F3
:101950000895CF93DF9390E0FC01E854FD4F24916C
:10196000FC01EE58FD4F8491882361F190E0880FCF
:10197000991FFC01EC5DFD4FC591D491FC01E25C27
:10198000FD4FA591B491611109C09FB7F89488816A
:10199000209582238883EC912E230BC0623061F462
:1019A0009FB7F8943881822F809583238883EC91A8
:1019B0002E2B2C939FBF06C08FB7F894E8812E2B57
:1019C00028838FBFDF91CF9108958F929F92AF921E
:1019D000BF92CF92DF92EF92FF926B017C010E9447
:1019E000F5094B015C01C114D104E104F104F1F0EB
:1019F0000E94F509DC01CB0188199909AA09BB09E4
:101A0000883E9340A105B10570F321E0C21AD108C8
:101A1000E108F10888EE880E83E0981EA11CB11C35
:101A2000C114D104E104F10419F7DDCFFF90EF9068
:101A3000DF90CF90BF90AF909F908F900895AF921E
:101A4000BF92CF92DF92EF92FF920F931F93CF93AB
:101A5000DF938091FA069091FB06892B09F457C019
:101A60008091FC069091FD06892B09F450C041E05D
:101A70006AE078E088EF96E00E94D801C091040700
:101A8000D0E08AE0E82E88E0F82EA090FC06B09026
:101A9000FD06C090FA06D090FB0600E010E00C179F
:101AA0001D07ACF5D501ED91FD915D01D6018D913C
:101AB0009D916D01E81BF90BC1F0D7012D913C916F
:101AC000A90160E070E09A01AB01281B390B4109C4
:101AD0005109A8EEB3E00E947D229F0140E050E052
:101AE0000E945E2237FD0AC002C020E030E0293E9D
:101AF000B3E03B072CF028EE33E002C020E030E0FA
:101B0000F701219331937F010F5F1F4FC8CFDF9102
:101B1000CF911F910F91FF90EF90DF90CF90BF90EA
:101B2000AF900895009769F0FC0101900020E9F75B
:101B30003197AF01481B590BBC0183E495E00C942D
:101B40006C1180E090E008952091FC039091FB03DC
:101B5000213208F04AC08091D8038111FCCF32E0D5
:101B60003093D80331E03093D7033FEF3093D6035F
:101B70001092D5032093D403ABEDB3E044EB53E0D4
:101B8000FA013E2F341B321718F43D913193F9CFEF
:101B90001092B3032091B303990F922B9093B30348
:101BA0009091B203913061F41092B2039091B3031B
:101BB0009093BB009091BC0093FDF8CF95EC01C0D1
:101BC00095EE9093BC009091D8039230E1F3909100
:101BD000D6039F3F79F08091D603803241F0809107
:101BE000D603803331F084E005C081E003C082E099
:101BF00001C083E01092DA031092FC031092D90323
:101C00000895EF92FF921F93CF93DF931F92CDB76A
:101C1000DEB7162F93EDE92E97E0F92ED7011C962B
:101C20009C911C9721E02093D9039093FB03109281
:101C3000DA031092FC031A960D90BC91A02DED9141
:101C4000FC9111970190F081E02D682FCD017983EF
:101C50001995F70182859385DC01ED91FC91019046
:101C6000F081E02D7981672F1995F70182859385A1
:101C7000DC01ED91FC910190F081E02D612F19952F
:101C80000F90DF91CF911F91FF90EF900C94A40DD6
:101C9000AF92BF92CF92DF92EF92FF920F931F937A
:101CA000CF93DF936B017C0120E030E046E155E407
:101CB0000E94A0210E94DC238B0177FF04C0002733
:101CC0001127061B170B20E030E0A901C701B60160
:101CD0000E94122487FD0BC061E087E20E94790C0C
:101CE000C0E0D0E08BECA82E87E0B82E17C060E0F3
:101CF000F4CF8091FA070E94500C892B99F461E08F
:101D000085E20E94790CC5010197F1F760E085E258
:101D10000E94790CC5010197F1F72196C017D107F0
:101D200041F709C020E030E0A901C701B6010E94D7
:101D30003A2187FFE4CFA70196016091AE0370912D
:101D4000AF038091B0039091B1030E94FE22609393
:101D5000AE037093AF038093B0039093B103DF9110
:101D6000CF911F910F91FF90EF90DF90CF90BF9098
:101D7000AF9008952F923F924F925F926F927F9211
:101D80008F929F92AF92BF92CF92DF92EF92FF928B
:101D90000F931F93CF93DF93CDB7DEB72E970FB678
:101DA000F894DEBF0FBECDBF9B878A876C8740E06B
:101DB00050E060E87EE38CEE97E00E94ED0340E0A7
:101DC00050E060E87EEB8EEE97E00E94ED03212C60
:101DD000312C1A8219821D861E821F821886812C40
:101DE000912C5401E981FA812A853B85E217F3079A
:101DF0000CF024C10AE010E0A4E02A16310444F5F6
:101E00000E941F0D2AE038E03D832C83F90180E019
:101E100090E021913191253F314008F0019658E042
:101E2000EA31F507B1F7069724F08FEF281A380A40
:101E300002C0212C312C6AE070E080E090E00E942A
:101E4000E50C01501109C1F694E029163104BCF0EB
:101E5000E981FA813196FA83E98384E6E82EF12C50
:101E600000E010E020E030E040E050E060ED77E09E
:101E700080E090E00E942F08212C312CB3CF0E94EB
:101E80001F0DEAE0F8E08191919121E08E359140BB
:101E900008F420E0022F10E048E0EA31F40721F0D6
:101EA0002111F1CF00E010E00E94C507012B09F0DD
:101EB00099CF0E941F0DE0910407E987412C512C16
:101EC000320100E010E0C12CD12C76011B821E866D
:101ED000EE85F985EF1721F1AC81BD81ED91FD9182
:101EE000BD83AC83E93CF10524F4E333F10574F0E0
:101EF00002C0B1E0BB83DF01A30192010E948822EE
:101F0000C60ED71EE81EF91E0E0F1F1FEE85EF5FCF
:101F1000EE87F8EE4F0EF3E05F1E611C711CD8CF08
:101F2000EB81E1111EC0FE858F2F90E0019744EFF9
:101F300051E0849F9001859F300D949F300D1124B6
:101F4000409108075091090742175307BCF0A8EECB
:101F5000B3E08A9FB0018B9F700D9A9F700D112482
:101F60000FC0980140E050E0C701B6010E949022E6
:101F7000B901309309072093080702C060E070E0C0
:101F8000072E000C880B990B0E94412120E030E4C1
:101F90004CE155E40E94FD22F62E072F182FE92E62
:101FA000262F372F482F592FC501B4010E94FE223A
:101FB0004B015C012CEA35EC47E258E36F2D702FA2
:101FC000812F9E2D0E94A02120E030E040E85EE3BA
:101FD0000E94FE222B013C0125E93FEB46E555E33B
:101FE000C501B4010E94A0219B01AC01C301B20153
:101FF0000E94FE222B013C012D853E814F81588598
:102000006F2D702F812F9E2D0E94FD2227E137EB2F
:1020100041ED58E30E94A0219B01AC01C301B20134
:102020000E94FE22AB01BC0170588EEE97E00E9428
:10203000ED03FD860E831F83E886D4CE40E050E09A
:1020400060E87EE38CEE97E00E94ED0340E050E014
:1020500060E87EEB8EEE97E00E94ED0363E171E0B5
:1020600080E090E00E94E50C3C85332339F140E0AC
:1020700050E0BA018CEE97E00E94ED0340E050E0A2
:1020800060E070E88EEE97E02E960FB6F894DEBF13
:102090000FBECDBFDF91CF911F910F91FF90EF90B9
:1020A000DF90CF90BF90AF909F908F907F906F9078
:1020B0005F904F903F902F900C94ED032E960FB6AB
:1020C000F894DEBF0FBECDBFDF91CF911F910F916E
:1020D000FF90EF90DF90CF90BF90AF909F908F9048
:1020E0007F906F905F904F903F902F9008952F9228
:1020F0003F924F925F927F928F929F92AF92BF9248
:10210000CF92DF92EF92FF920F931F93CF93DF93C3
:10211000CDB7DEB7C056D1090FB6F894DEBF0FBEFB
:10212000CDBF7C016B01742EDB018D919C91892BBD
:1021300031F0F70180819181892BD9F41DC0809104
:10214000040790E0880F991F0E941724D6018D93F1
:102150009C93009709F4A6C02091040730E0FC018D
:1021600080E090E08217930724F711921192019674
:10217000F9CF00E010E01EC08091040790E0880FC6
:10218000991F0E941724F70191838083009709F417
:1021900089C02091040730E040910607509107075D
:1021A000FC0180E090E0821793071CF74193519364
:1021B0000196F9CF472DBE016F5B7F4F88EF96E008
:1021C0000E94D80140900407512CCE0101964C0189
:1021D000FE01EF5BFF4FDE0191965D019D011C0149
:1021E00080E090E0841595054CF50115110589F006
:1021F000D9016D917C91408151816417750748F038
:10220000D1016D917C91408151814617570748F06B
:102210000DC040815181D9014D935C930115110589
:1022200079F740815181D1014D935C930196B2E0E1
:102230002B0E311C32962E5F3F4FD4CF0F5F1F4FB6
:102240000A30110509F0B6CF20E030E08091040794
:1022500090E02817390734F5F401419151914F016D
:10226000C901880F991FD601ED91FC91E80FF91F64
:10227000608171816417750710F451834083F50103
:10228000419151915F01D701ED91FC91E80FF91F48
:10229000808191814817590710F4518340832F5F43
:1022A0003F4FD4CFC05ADF4F0FB6F894DEBF0FBEFA
:1022B000CDBFDF91CF911F910F91FF90EF90DF90F5
:1022C000CF90BF90AF909F908F907F905F904F90F6
:1022D0003F902F9008950895CF92DF92EF92FF9252
:1022E0000F931F93CF93DF936C017A018B01C0E0B2
:1022F000D0E0CE15DF0589F0D8016D918D01D601B2
:10230000ED91FC910190F081E02DC6011995892B8A
:1023100011F47E0102C02196ECCFC701DF91CF916D
:102320001F910F91FF90EF90DF90CF900895FC01E7
:10233000A089B1898C91A689B78982FD0FC09C9133
:10234000818D8F5F8F73228D821749F0218DDF0180
:10235000A20FB11D5D969C93818F08958C91089575
:10236000FC01538D448D252F30E0842F90E0821B9B
:10237000930B541710F0CF96089501970895FC0120
:10238000918D828D981761F0828DDF01A80FB11DAC
:102390005D968C91928D9F5F9F73928F90E00895D0
:1023A0008FEF9FEF0895FC01918D828D981731F08A
:1023B000828DE80FF11D858D90E008958FEF9FEFDE
:1023C0000895FC01918D228D892F90E0805C9F4FB4
:1023D000821B91098F739927089589E094E00E94E8
:1023E000E11121E0892B09F420E0822F089586EA8B
:1023F00094E00E94E11121E0892B09F420E0822F72
:10240000089583E495E00E94E11121E0892B09F40D
:1024100020E0822F0895FC01848DDF01A80FB11DFB
:10242000A35ABF4F2C91848D90E001968F7399270A
:10243000848FA689B7892C93A089B1898C918064F7
:102440008C93938D848D981306C00288F389E02DB8
:1024500080818F7D80830895EF92FF920F931F9369
:10246000CF93DF93EC0181E0888F9B8D8C8D981347
:1024700005C0E889F989808185FD24C0F62E0B8D81
:1024800010E00F5F1F4F0F731127E02E8C8DE812A5
:102490000CC00FB607FCFACFE889F989808185FF67
:1024A000F5CFCE010E940B12F1CF8B8DFE01E80F0C
:1024B000F11DE35AFF4FF0820B8FEA89FB8980817F
:1024C000806207C0EE89FF896083E889F98980818D
:1024D0008064808381E090E0DF91CF911F910F9124
:1024E000FF90EF900895CF93DF93EC01888D8823C0
:1024F000C9F0EA89FB89808185FD05C0A889B98971
:102500008C9186FD0FC00FB607FCF5CF808185FF4B
:10251000F2CFA889B9898C9185FFEDCFCE010E94B9
:102520000B12E7CFDF91CF91089580E090E0892BE7
:1025300021F00E940112811119C080E090E0892BE6
:1025400041F080E090E0892B21F00E940000811191
:1025500010C00E94F71181110FC080E090E0892B1C
:1025600081F00E94ED1181110AC008950E940000BF
:10257000E4CF0E940000EDCF0E946602EECF0C94E3
:10258000000008950E942D260F931F93CF93DF9391
:10259000EC01122F202FE881F981369780819181FB
:1025A0008C0F9D1F0E9495021A83E881F98136974E
:1025B00080819181C80FD91F8FEF93E09F878E870D
:1025C000DF91CF911F910F9108950F931F93CF9398
:1025D000DF93EC0188819981009729F02A813B8162
:1025E0002617370788F48B016F5F7F4F0E944425C1
:1025F000009761F0998388831B830A832C813D8136
:10260000232B11F4FC01108281E001C080E0DF91F6
:10261000CF911F910F910895EF92FF920F931F9307
:10262000CF93DF93EC017B018A01BA010E94E5128E
:102630002881398181110DC02115310519F0C90199
:102640000E94AC24198218821D821C821B821A826D
:1026500006C01D830C83B701C9010E943B26CE0131
:10266000DF91CF911F910F91FF90EF900895FC01A2
:1026700011821082138212821582148261157105F3
:1026800051F0FB0101900020E9F73197AF01461BA3
:10269000570B0C940C1308959091080298133DC0A9
:1026A000E4E4F3E0E4919FEF90930802E230C9F094
:1026B00050F4EE2399F0E13081F590916F009D7F09
:1026C00090936F002AC0E43019F1E0F0E53029F56D
:1026D000909173009D7F909373001FC010926E00C5
:1026E0001CC0909170009D7F9093700091E090933A
:1026F000B0009091B100987F94609093B1001092D7
:10270000B3000BC0909171009D7F9093710005C044
:10271000909172009D7F9093720060E00C94790C10
:102720001F920F920FB60F9211240BB60F922F9398
:102730003F934F935F936F937F938F939F93AF9349
:10274000BF93EF93FF938091400890914108A0912F
:102750004208B0914308892B8A2B8B2B51F1809131
:102760003F08E0913D08F0913E08908189278083E1
:102770008091400890914108A0914208B09143088F
:10278000181619061A061B06C4F480914008909189
:102790004108A0914208B09143080197A109B109ED
:1027A0008093400890934108A0934208B093430857
:1027B00004C0809108020E944C13FF91EF91BF91D9
:1027C000AF919F918F917F916F915F914F913F91C9
:1027D0002F910F900BBE0F900FBE0F901F9018956A
:1027E0003F924F925F926F927F928F929F92AF92A1
:1027F000BF92CF92DF92EF92FF920F931F93CF93EE
:10280000DF9300D01F92CDB7DEB729013A01909136
:102810000802981721F09F3F09F032C304C0E4E496
:10282000F3E0349004C180930802E4E4F3E0E4911F
:10283000EF3F09F425C3E23009F480C074F5EE23BC
:1028400009F45BC0E13009F0F1C0109280001092F1
:102850008100909181009860909381009091810017
:10286000916090938100282F30E0F901EE58FD4FE0
:10287000E491F0E0EE0FFF1FE25CFD4F45915491B3
:102880005093250840932408F901E854FD4FE49142
:10289000E093230833243394CCC0E43009F49EC081
:1028A0000CF474C0E53009F0C1C010922001109200
:1028B0002101909121019860909321019091210133
:1028C000916090932101482F50E0FA01EE58FD4F9E
:1028D000E491F0E0EE0FFF1FE25CFD4F2591349193
:1028E00030931C0820931B08FA01E854FD4FE49133
:1028F000E0931A08B5E03B2E9CC014BC15BC94B5FF
:10290000926094BD95B5916095BD282F30E0F90196
:10291000EE58FD4FE491F0E0EE0FFF1FE25CFD4F3B
:10292000459154915093280840932708F901E854A1
:10293000FD4FE491E0932608312C7BC01092B0004B
:102940001092B1009091B00092609093B00090917D
:10295000B10091609093B100282F30E0F901EE585A
:10296000FD4FE491F0E0EE0FFF1FE25CFD4F45915B
:10297000549150933E0840933D08F901E854FD4FAF
:10298000E491E0933F0852E0352E53C0109290003E
:102990001092910090919100986090939100909185
:1029A0009100916090939100282F30E0F901EE584A
:1029B000FD4FE491F0E0EE0FFF1FE25CFD4F45910B
:1029C00054915093220840932108F901E854FD4F97
:1029D000E491E093200823E0322E2BC01092A00057
:1029E0001092A1009091A10098609093A100909105
:1029F000A10091609093A100282F30E0F901EE58DA
:102A0000FD4FE491F0E0EE0FFF1FE25CFD4F4591BA
:102A1000549150931F0840931E08F901E854FD4F4C
:102A2000E491E0931D0804E0302E03C03E2E37FCF5
:102A300027C28B0161E00E94A90C4801A12CB12C96
:102A4000832D8D7F09F0BBC060E072E18AE790E0E2
:102A5000A50194010E945E2229833A834B835C8303
:102A600069017A0121E0C21AD108E108F1088FEF6B
:102A7000C816D104E104F10409F008F44CC060E484
:102A800072E48FE090E0A50194010E945E2269014A
:102A90007A0191E0C91AD108E108F108E2E03E129A
:102AA00020C0FFEFCF16D104E104F10409F008F4CF
:102AB000E5C160E970ED83E090E0A50194010E941A
:102AC0005E2269017A0181E0C81AD108E108F108A3
:102AD0009FEFC916D104E104F10409F0D0F583E0B9
:102AE00067C0EFEFCE16D104E104F104B1F0A8F015
:102AF00068E478EE81E090E0A50194010E945E22F6
:102B000069017A01F1E0CF1AD108E108F108332018
:102B100009F45AC1AAC181E001C082E03320A1F0CA
:102B200047C089819A81AB81BC812AE0B595A79580
:102B3000979587952A95D1F76C017D01F1E0CF1A21
:102B4000D108E108F10885E095B5987F892B85BD0E
:102B5000A6C068E478EE81E090E0A50194010E94AF
:102B60005E2269017A0181E0C81AD108E108F10802
:102B70009FEFC916D104E104F10409F008F422C161
:102B800064E274EF80E090E0A50194010E945E226F
:102B900069017A0181E0C81AD108E108F1089FEFC4
:102BA000C916D104E104F10411F008F02FC185E049
:102BB0009091B100987F892B8093B10070C060E044
:102BC00072E18AE790E0A50194010E945E2269010A
:102BD0007A01F1E0CF1AD108E108F108C114D1045B
:102BE00021E0E206F10488F068E478EE81E090E00C
:102BF000A50194010E945E2269017A0181E0C81A50
:102C0000D108E108F10883E001C081E091E03912C8
:102C100010C090918100987F892B8093810041148E
:102C200051046104710409F03FC02FEF3FEFA90187
:102C300071C0E3E03E120FC090919100987F892B04
:102C400080939100411451046104710469F52FEFE0
:102C50003FEFA90181C0F4E03F120FC09091A100A5
:102C6000987F892B8093A100411451046104710461
:102C7000D9F42FEF3FEFA90181C025E032120FC038
:102C800090912101987F892B809321014114510457
:102C90006104710449F42FEF3FEFA90181C0411491
:102CA00051046104710471F0D801AA0FBB1FA30184
:102CB00092010E947D2228EE33E040E050E00E9425
:102CC000902203C02FEF3FEFA90182E03816A1F157
:102CD000831534F0332079F091E03916D9F0D0C063
:102CE000E4E03E1609F44AC03E16B4F1F5E03F16A2
:102CF00009F456C0C5C0C7BC2093390830933A08C0
:102D000040933B0850933C0880916E008260809312
:102D10006E00B6C0D0928900C0928800209335081A
:102D200030933608409337085093380880916F00ED
:102D3000826080936F00A4C0C092B30020934008CB
:102D400030934108409342085093430880917000AB
:102D500082608093700094C0D0929900C0929800D5
:102D6000209331083093320840933308509334084D
:102D70008091710082608093710082C0D092A9001E
:102D8000C092A80020932D0830932E0840932F085E
:102D9000509330088091720082608093720070C0FE
:102DA000D0922901C09228012093290830932A0843
:102DB00040932B0850932C0880917300826080937D
:102DC00073005EC084E0F4CE2FEFC216D104E1049C
:102DD000F104D1F0C8F062E17AE780E090E0A5016B
:102DE00094010E945E2269017A01E1E0CE1AD108C5
:102DF000E108F108FFEFCF16D104E104F10411F06E
:102E000008F08FCE84E0A0CE83E09ECE62E17AE728
:102E100080E090E0A50194010E945E2269017A01A0
:102E200081E0C81AD108E108F1089FEFC916D10462
:102E3000E104F104C1F0B8F089819A81AB81BC81D1
:102E40004AE0B595A795979587954A95D1F76C0176
:102E50007D01E1E0CE1AD108E108F108332009F440
:102E600072CE87E0A5CE86E059CEEFEFCE16D10424
:102E7000E104F10409F050F684E050CE82E098CEEF
:102E80000F900F900F900F90DF91CF911F910F91A6
:102E9000FF90EF90DF90CF90BF90AF909F908F907A
:102EA0007F906F905F904F903F9008951F920F9288
:102EB0000FB60F9211240BB60F922F933F934F939F
:102EC0005F936F937F938F939F93AF93BF93EF9392
:102ED000FF9389E094E00E940B12FF91EF91BF9164
:102EE000AF919F918F917F916F915F914F913F91A2
:102EF0002F910F900BBE0F900FBE0F901F90189543
:102F00001F920F920FB60F9211240BB60F922F93B0
:102F10003F934F935F936F937F938F939F93AF9361
:102F2000BF93EF93FF9389E094E00E949711FF9184
:102F3000EF91BF91AF919F918F917F916F915F9131
:102F40004F913F912F910F900BBE0F900FBE0F909E
:102F50001F9018951F920F920FB60F9211240BB667
:102F60000F922F933F934F935F936F937F938F9322
:102F70009F93AF93BF93EF93FF9386EA94E00E94F1
:102F80000B12FF91EF91BF91AF919F918F917F9124
:102F90006F915F914F913F912F910F900BBE0F90CA
:102FA0000FBE0F901F9018951F920F920FB60F92A1
:102FB00011240BB60F922F933F934F935F936F9310
:102FC0007F938F939F93AF93BF93EF93FF9386EA83
:102FD00094E00E949711FF91EF91BF91AF919F9163
:102FE0008F917F916F915F914F913F912F910F90B2
:102FF0000BBE0F900FBE0F901F9018951F920F924F
:103000000FB60F9211240BB60F922F933F934F934D
:103010005F936F937F938F939F93AF93BF93EF9340
:10302000FF9383E495E00E940B12FF91EF91BF9113
:10303000AF919F918F917F916F915F914F913F9150
:103040002F910F900BBE0F900FBE0F901F901895F1
:103050001F920F920FB60F9211240BB60F922F935F
:103060003F934F935F936F937F938F939F93AF9310
:10307000BF93EF93FF9383E495E00E949711FF9134
:10308000EF91BF91AF919F918F917F916F915F91E0
:103090004F913F912F910F900BBE0F900FBE0F904D
:1030A0001F9018951F920F920FB60F9211242F9315
:1030B0003F938F939F93AF93BF93809144089091D8
:1030C0004508A0914608B09147083091480823E090
:1030D000230F2D3720F40196A11DB11D05C026E850
:1030E000230F0296A11DB11D209348088093440828
:1030F00090934508A0934608B093470880915F03DA
:1031000090916003A0916103B09162030196A11DAB
:10311000B11D80935F0390936003A0936103B0930C
:103120006203BF91AF919F918F913F912F910F902B
:103130000FBE0F901F9018958091EF069091F006AA
:103140000E94AC2487E093E09093F6068093F50606
:1031500087EF92E09093F9068093F806809102073A
:1031600090910307009711F00E94AC248091FC0617
:103170009091FD06009711F00E94AC248091000709
:1031800090910107009711F00E94AC248091FA06FB
:103190009091FB06009711F00E94AC248091FE06EE
:1031A0009091FF06009711F00E94AC2480910A07CD
:1031B00090910B070C94AC24CF93DF93CDB7DEB77F
:1031C00028970FB6F894DEBF0FBECDBF789484B5B4
:1031D000826084BD84B5816084BD85B5826085BD13
:1031E00085B5816085BD80916E00816080936E00A1
:1031F0001092810080918100826080938100809193
:103200008100816080938100809180008160809343
:1032100080008091B10084608093B1008091B00003
:1032200081608093B00080919100826080939100D2
:1032300080919100816080939100809190008160E5
:10324000809390008091A10082608093A100809182
:10325000A10081608093A1008091A0008160809393
:10326000A000809121018260809321018091210141
:1032700081608093210180912001816080932001F1
:1032800080917A00846080937A0080917A008260D5
:1032900080937A0080917A00816080937A00809197
:1032A0007A00806880937A001092C100E091530503
:1032B000F091540582E08083E0914F05F091500534
:1032C0001082E0915105F09152058FEC80831092AD
:1032D0005B05E0915705F091580586E08083E09109
:1032E0005505F0915605808180618083E0915505F8
:1032F000F0915605808188608083E0915505F091BA
:103300005605808180688083E0915505F0915605CF
:1033100080818F7D808361E08091D4070E94A90C19
:1033200060E08091D4070E94790C60E08091D3071F
:103330000E94A90C8DEF93E09093DE078093DD0748
:1033400010926403109263031092DA031092FC034C
:103350001092D80381E08093D7031092B20361E00A
:1033600084E10E94790C61E085E10E94790C8091F2
:10337000B9008E7F8093B9008091B9008D7F8093D2
:10338000B90088E48093B80085E48093BC0080E0B5
:1033900090E1A0E0B0E08093E0079093E107A09374
:1033A000E207B093E3078AE090E0A0E0B0E080930A
:1033B000E4079093E507A093E607B093E70780E062
:1033C00090E0A0E0B0E48093E8079093E907A09331
:1033D000EA07B093EB0760E070E185E00E94010E20
:1033E0006FE979E380E00E94010E00EF17E0812C85
:1033F000912CA12CB12C57EA252E52E0352E6DEEE2
:10340000462E62E0562E7BEC672E77E0772E9501F4
:103410002D52384F6901D90114969C911497129638
:103420008C91F401ED52F84F7F01818F928F61E012
:103430000E94A90C61E0D7015A968C910E94A90CB8
:10344000F60190858681D8018C93F701968F61E013
:103450000E94A90C60E0D7015E968C910E94A90C95
:1034600061E0F80180810E94790CFFB6F8948091A8
:103470005D03811125C0F1018491F2019491E82F3F
:10348000F0E0EE0FFF1FEC5DFD4FA591B4918C9124
:10349000982321F461E085E30E94790C61E085E3E3
:1034A0000E94A90C8CB580618CBD8CB580648CBDEC
:1034B00061E084E30E94A90C61E083E30E94A90C0F
:1034C00080915D038F5F80935D03FFBEC301019711
:1034D000F1F760E0D8018C910E94790C88E80E9495
:1034E000AE0583E00E94AE0561E0F80180810E9494
:1034F000790CC3010197F1F7C8010E94B505F2E00C
:103500008F0E911C0E5F1F4FAA94AB2821F0AA24A6
:10351000A394B12C7CCF08EF17E024E0F22EF00E3C
:1035200060E0D8018D918D010E94A90CF012F8CFB6
:10353000F7E0EF2EF8E0FF2E04E018E0A5E0AA2E59
:10354000BCE0CB2E82E0982E92E0B92EB00EF801AE
:103550003897D080F80180818C3008F046C061E057
:103560008D2D0E94A90CD8018C91A89EF0011124E8
:10357000EE54F94F9D2D9F732081207CD22ED92AA5
:10358000D082138214826C2D0E94C122BCE08B9FDA
:10359000A001112420E030E0B901640F751FA69E40
:1035A000F001A79EF00D1124EE54F94F908196FD85
:1035B00012C02F5F3F4F2C30310571F781110BC0C6
:1035C00010928000909281001092850010928400E9
:1035D00096BA90926F00D801EC91AE9EF001112442
:1035E000EE54F94F808180648083F8013297908196
:1035F00032978081F70131978083F701908360E0F3
:103600000E94A90C61E0D7018C910E94A90C60E096
:10361000F70180810E94790C0F5F1F4FF2E0EF0EDF
:10362000F11CB01294CFF8941092200189E080939D
:10363000210180E293E09093290180932801109268
:1036400025011092240182E0809373007894809386
:10365000E0051092E4058091E10560E00E94A90C6C
:103660008CE592E090934F0780934E0788EE93E0AD
:10367000A0E0B0E08093500790935107A0935207C9
:10368000B09353078FEF9FEFDC018093590790931E
:103690005A07A0935B07B0935C0781E080935807BB
:1036A0002FB7F8948091440890914508A09146085E
:1036B000B09147082FBF409150075091510760913A
:1036C000520770915307840F951FA61FB71F809351
:1036D000540790935507A0935607B09357078091CE
:1036E000590790915A07A0915B07B0915C078093AE
:1036F0005D0790935E07A0935F07B093600761E05A
:1037000087E20E94A90C61E085E20E94A90C8FEF7C
:103710009FEF0E94E1068FEF9FEF0E941A0A81E05F
:1037200090E00E941A0A81E090E00E94E106E4E63F
:10373000EE2EF12C00E010E020E030E040E050E020
:1037400060ED77E080E090E00E942F0860E087E283
:103750000E94790C0BEC17E08091FA070E94500C44
:10376000892B79F461E085E20E94790CC801019708
:10377000F1F760E085E20E94790CC8010197F1F74A
:10378000EBCF1092AE031092AF031092B0031092E1
:10379000B10374E6E72EF12C00E010E020E030E009
:1037A00040E050E068EE73E080E090E00E942F0877
:1037B000E091B604F091B70482E08083E091B20416
:1037C000F091B3041082E091B404F091B50480E16B
:1037D00080831092BE04E091BA04F091BB0486E0AD
:1037E0008083E091B804F091B90480818061808386
:1037F000E091B804F091B904808188608083E09101
:10380000B804F091B904808180688083E091B804A5
:10381000F091B90480818F7D808368EE73E080E051
:1038200090E00E94E50C8DE398E090935A0380931A
:10383000590364EF71E080E090E00E94E50C20E025
:1038400030E040E050E068EE73E080E090E00E94FD
:103850002F080E94C50780915B0390915C0301973C
:1038600009F082C22DB73EB738872F831A8219829A
:103870001C821B821E821D826091EF067091F006F1
:103880006115710541F04091F3065091F406CE01A7
:1038900001960E940C13ED80FE80C701880F991FCE
:1038A0004DB75EB7481B590B0FB6F8945EBF0FBEFD
:1038B0004DBF8DB79EB701961C0149815A81FC010D
:1038C00080E090E08E159F05C4F48E159F0518F4D6
:1038D0004115510529F410925E03AEE5B3E003C033
:1038E000DA01A80FB91F2C91022E000C330B2053C4
:1038F0003109219331930196E5CFC12CD12CCE14FF
:10390000DF040CF0A6C1D1012D913D911D01C9012B
:1039100063E070E00E94E1225B014DEF460380010D
:10392000479F100D1124020F131F8CE493E00E9497
:10393000920DC8010E94920A81E593E00E94920DC7
:10394000C5010E94920A61E0C80102960E94BA0E67
:1039500081E090E00E94E106F501EE0FFF1FEE0FFF
:10396000FF1FED53FD4F2091AE033091AF03409107
:10397000B0035091B10360817181828193810E9473
:10398000FD220E94480E60E081E090E00E94BA0EA5
:1039900062E370E080E090E00E94E50C40E050E0DF
:1039A000BA018CEE97E00E94ED0340E050E060E049
:1039B00070E88EEE97E00E94ED0366E676E686E616
:1039C0009FE30E94480E43E353E363E37EEB8CEEF8
:1039D00097E00E94ED0343E353E363E37EE38EEE5F
:1039E00097E00E94ED0380EF97E00E94E00580EFF2
:1039F00097E00E94B50582EF97E00E94E00582EF14
:103A000097E00E94B50580EF97E00E94E005909551
:103A10008095709561957F4F8F4F9F4F0E944121F8
:103A200029EA35E841EC51EC0E94A02120E030E089
:103A300048E455E40E946A232B013C0182EF97E0A1
:103A40000E94E0050E94412129EA35E841EC51EC51
:103A50000E94A02120E030E048E455E40E946A235F
:103A60004B015C0120E030E040E751E4C301B201CA
:103A70000E94122418163CF440E050E0BA018CEE8B
:103A800097E00E94ED0320E030E040E751E4C501FB
:103A9000B4010E941224181644F440E050E060E0A3
:103AA00070E88EEE97E00E94ED0320E030E040E702
:103AB00051E4C301B2010E943A2187FDA4CF20E066
:103AC00030E040E751E4C501B4010E943A2187FD8E
:103AD0009ACF64EF71E080E090E00E94E50C0E94D4
:103AE000450661E081E090E00E94BA0E8FEF9FEF03
:103AF0000E94E1068090AE039090AF03A090B003C7
:103B0000B090B10323E333E34BEA50E4C501B401C1
:103B10000E943A2187FF0AC0A501940163E373E381
:103B20008BEA90E40E94FD220E94480E60E0C801EA
:103B300001960E94BA0E64EF71E080E090E00E946E
:103B4000E50C4DEC5CEC6CEC7EE38CEE97E00E94B7
:103B5000ED034DEC5CEC6CEC7EEB8EEE97E00E949E
:103B6000ED0364E670E080E090E00E94E50C40E048
:103B700050E060E87FE38CEE97E00E94ED0340E0C8
:103B800050E060E87FEB8EEE97E00E94ED0368EC7A
:103B900070E080E090E00E94E50C40E050E0BA0167
:103BA0008CEE97E00E94ED0340E050E060E070E8AA
:103BB0008EEE97E00E94ED036AE070E080E090E016
:103BC0000E94E50C4DEC5CEC6CEC7EEB8CEE97E02F
:103BD0000E94ED034DEC5CEC6CEC7EE38EEE97E026
:103BE0000E94ED0364E670E080E090E00E94E50C46
:103BF00040E050E060E87FEB8CEE97E00E94ED0340
:103C000040E050E060E87FE38EEE97E00E94ED0335
:103C100068EC70E080E090E00E94E50C40E050E04D
:103C2000BA018CEE97E00E94ED0340E050E060E0C6
:103C300070E88EEE97E00E94ED0364EF71E080E0A3
:103C400090E00E94E50C0E9445065FEFC51AD50A78
:103C500056CE10925C0310925B0309E612E04FE02F
:103C6000E42E42E0F42ED8016D917D918D0188EE15
:103C700093E00E94E1224B01F701619171917F0174
:103C8000092C000CAA08BB08A501940184E20E943B
:103C9000F013C501B4010E94412126E636E646EA4A
:103CA0005FE30E94A0210E94DC23072E000C880BFA
:103CB000990B0E94E50C84E20E944C13F2E0033C55
:103CC0001F0789F68CE2E82EFF24F39400E010E051
:103CD00020E030E040E050E064EF71E080E090E010
:103CE0000E942F086BE271E080E090E00E94E50CFA
:103CF00098ECE92EF12C20E030E040E050E068EE56
:103D000073E080E090E00E942F0862ED70E080E0B8
:103D100090E00E94E50C20E030E040E050E06CE4F0
:103D200074E080E090E00E942F0862ED70E080E097
:103D300090E00E94E50C28EEE22E33E0F32E20E026
:103D400030E040E050E064E175E080E090E00E9407
:103D50002F0889819A810E94AC242F8138850FB663
:103D6000F8943EBF0FBE2DBF0E94951272CD0F93E7
:103D7000109200041092FF0388EE93E0A0E0B0E000
:103D80008093010490930204A0930304B09304046D
:103D900023ED32E03093FE032093FD0310920C04D8
:103DA00010920B0480930D0490930E04A0930F04C3
:103DB000B093100425EE32E030930A0420930904F6
:103DC00045E351E0509316044093150444E351E059
:103DD000509318044093170440E351E050931A04A1
:103DE0004093190441E351E050931C0440931B0499
:103DF00042E351E050931E0440931D0446E351E01A
:103E00005093200440931F04109222041092230424
:103E100010922404109225041092A9041092A80470
:103E20008093AA049093AB04A093AC04B093AD0428
:103E30003093A7042093A60445ED50E05093B304BB
:103E40004093B20444ED50E05093B5044093B40461
:103E500040ED50E05093B7044093B60441ED50E07C
:103E60005093B9044093B80442ED50E05093BB0422
:103E70004093BA0446ED50E05093BD044093BC0417
:103E80001092BF041092C0041092C1041092C20498
:103E9000109246051092450580934705909348057A
:103EA000A0934905B0934A053093440520934305F8
:103EB00085EC90E09093500580934F0584EC90E062
:103EC000909352058093510580EC90E090935405B7
:103ED0008093530581EC90E09093560580935505AF
:103EE00082EC90E0909358058093570586EC90E023
:103EF00090935A058093590510925C0510925D05C8
:103F000010925E0510925F0586E38093F40787E3C5
:103F10008093F50788E38093F60789E38093F7079A
:103F20008BE18093F8078DE18093F9078AE1809314
:103F3000FA078CE18093FB0784E08093FC0787E01D
:103F40008093FD071092FE0784EB8093FF0786E1C4
:103F50008093000888E18093010887E1809302083C
:103F600089E180930308E091EE06EC3020F08FEFBA
:103F70008093040810C081E08E0F8093EE06E093DA
:103F8000040825E0E29FF0011124EE54F94F88EB7C
:103F90009BE092838183E091EE06EC3020F08FEF7E
:103FA0008093050810C081E08E0F8093EE06E093A9
:103FB000050885E0E89FF0011124EE54F94F88EBE5
:103FC0009BE0928381838CE08093D30784E280938B
:103FD000D40786E08093D50785E08093D6078FE1EC
:103FE0008093D7078EE18093D80783E28093D90727
:103FF00082E28093DA0785E48093DB0784E4809390
:10400000DC0780E48093DF071092E4071092E50755
:104010001092E6071092E7071092E8071092E9075E
:104020001092EA071092EB07E5E1F7E08FEF9FEFC0
:10403000DC01128213821482158216821782108686
:10404000118683879487A587B6878787908BA18BF6
:10405000B28B128611821082739627E0E33DF2073D
:1040600041F78DE090E00E941724FC011382128238
:1040700087E293E091838083118687E2848384E1E1
:10408000828784E083871486F0931207E0931107F8
:10409000109213071092140785E28093E1051092A5
:1040A000E3056BE473E08AE097E00E943713109217
:1040B000FB061092FA061092FD061092FC06109272
:1040C000FF061092FE061092010710920007109250
:1040D00003071092020787E093E09093F60680931F
:1040E000F50689E193E09093F9068093F8060FEFC7
:1040F00024E048E060E072E085EF96E00E94C412A0
:104100006BE473E08FEE96E00F910C943713CF922F
:10411000DF92EF92FF920F931F93CF93DF93FC01F7
:10412000EB016081718166507109DB018D919C9179
:10413000DC01AE0FBF1F1A968D919C911B97892BA6
:1041400009F484C0822FDB010D911C91D801AE0FC0
:10415000BF1F1C969C91891748F4DE01A80FB11D62
:10416000A80FB11D1D921C92840FEDCF50E08281EB
:10417000581708F046C0322FA081B18116978D9153
:104180009C918E0F9F1FDC011C966C913617B8F521
:10419000032F10E0DC011A968D919C911B97800FE4
:1041A000911FDC018C91863308F0865390917B003F
:1041B000682F6870977F962B90937B008770806440
:1041C00080937C0080917A00806480937A00809153
:1041D0007A0086FDFCCF809178006091790090E0B4
:1041E000962BD801AA0FBB1FAC0FBD1F6D917C9100
:1041F0001197860F971F8D939C93340FBDCF5F5FF0
:10420000B6CFE080F180B6E0EB1AF108D7018D91CE
:104210009C91DC01AE0FBF1F1C968C912817B0F447
:104220008E01020F111D020F111D628170E06B01E2
:10423000D594C794D8018D919C918C0D9D1D0E94A1
:10424000CD22D8016D937C93240FE0CFDF91CF91E5
:104250001F910F91FF90EF90DF90CF900895DC01B8
:10426000ED91FC913E970190F081E02D8E0F9F1F04
:104270000C9487200E947C2108F481E00895E89442
:1042800009C097FB3EF490958095709561957F4F9E
:104290008F4F9F4F9923A9F0F92F96E9BB2793954C
:1042A000F695879577956795B795F111F8CFFAF45C
:1042B000BB0F11F460FF1BC06F5F7F4F8F4F9F4F8D
:1042C00016C0882311F096E911C0772321F09EE8EB
:1042D000872F762F05C0662371F096E8862F70E051
:1042E00060E02AF09A95660F771F881FDAF7880F2B
:1042F0009695879597F90895990F0008550FAA0B81
:10430000E0E8FEEF16161706E807F907C0F01216E8
:104310001306E407F50798F0621B730B840B950BEB
:1043200039F40A2661F0232B242B252B21F4089540
:104330000A2609F4A140A6958FEF811D811D0895DD
:104340000E94B3210C9424220E94162238F00E946D
:104350001D2220F0952311F00C940D220C941322B1
:1043600011240C9458220E94352270F3959FC1F3BA
:10437000950F50E0551F629FF001729FBB27F00D13
:10438000B11D639FAA27F00DB11DAA1F649F662768
:10439000B00DA11D661F829F2227B00DA11D621FB7
:1043A000739FB00DA11D621F839FA00D611D221F71
:1043B000749F3327A00D611D231F849F600D211D55
:1043C000822F762F6A2F11249F5750409AF0F1F0D8
:1043D00088234AF0EE0FFF1FBB1F661F771F881F41
:1043E00091505040A9F79E3F510580F00C940D224A
:1043F0000C9458225F3FE4F3983ED4F3869577956A
:104400006795B795F795E7959F5FC1F7FE2B880FE6
:10441000911D9695879597F9089597F99F6780E87C
:1044200070E060E008959FEF80EC089500240A9406
:104430001616170618060906089500240A9412167F
:104440001306140605060895092E0394000C11F4B2
:10445000882352F0BB0F40F4BF2B11F460FF04C05F
:104460006F5F7F4F8F4F9F4F089557FD9058440FB8
:10447000551F59F05F3F71F04795880F97FB991FC3
:1044800061F09F3F79F08795089512161306140680
:10449000551FF2CF4695F1DF08C01616170618060D
:1044A000991FF1CF86957105610508940895E894E8
:1044B000BB2766277727CB0197F90895052E97FB31
:1044C0001EF400940E94752257FD07D00E9490228E
:1044D00007FC03D04EF40C9475225095409530950E
:1044E00021953F4F4F4F5F4F089590958095709560
:1044F00061957F4F8F4F9F4F08950E94B222A59FD5
:10450000900DB49F900DA49F800D911D11240895CE
:10451000B7FF0C947D220E947D22821B930B08958D
:10452000A1E21A2EAA1BBB1BFD010DC0AA1FBB1FB7
:10453000EE1FFF1FA217B307E407F50720F0A21B29
:10454000B30BE40BF50B661F771F881F991F1A9496
:1045500069F760957095809590959B01AC01BD01C0
:10456000CF010895A29FB001B39FC001A39F700D1A
:10457000811D1124911DB29F700D811D1124911D6B
:104580000895991B79E004C0991F961708F0961BAF
:10459000881F7A95C9F780950895AA1BBB1B51E126
:1045A00007C0AA1FBB1FA617B70710F0A61BB70BA3
:1045B000881F991F5A95A9F780959095BC01CD0148
:1045C000089597FB072E16F4009407D077FD09D0C5
:1045D0000E94CD2207FC05D03EF4909581959F4F17
:1045E0000895709561957F4F0895EE0FFF1F881F06
:1045F0008BBF0790F691E02D19945058BB27AA273E
:104600000E9415230C9424220E94162238F00E9446
:104610001D2220F039F49F3F19F426F40C94132244
:104620000EF4E095E7FB0C940D22E92F0E94352251
:1046300058F3BA17620773078407950720F079F4D7
:10464000A6F50C9457220EF4E0950B2EBA2FA02D50
:104650000B01B90190010C01CA01A0011124FF272F
:10466000591B99F0593F50F4503E68F11A16F0402A
:10467000A22F232F342F4427585FF3CF4695379529
:104680002795A795F0405395C9F77EF41F16BA0BEE
:10469000620B730B840BBAF09150A1F0FF0FBB1F9C
:1046A000661F771F881FC2F70EC0BA0F621F731FE5
:1046B000841F48F4879577956795B795F7959E3F42
:1046C00008F0B0CF9395880F08F09927EE0F9795D3
:1046D000879508950E947E230C9424220E941D2217
:1046E00058F00E94162240F029F45F3F29F00C9404
:1046F0000D2251110C9458220C9413220E94352241
:1047000068F39923B1F3552391F3951B550BBB2700
:10471000AA2762177307840738F09F5F5F4F220F45
:10472000331F441FAA1FA9F335D00E2E3AF0E0E83C
:1047300032D091505040E695001CCAF72BD0FE2F86
:1047400029D0660F771F881FBB1F2617370748071A
:10475000AB07B0E809F0BB0B802DBF01FF279358D2
:104760005F4F3AF09E3F510578F00C940D220C9467
:1047700058225F3FE4F3983ED4F38695779567958A
:10478000B795F7959F5FC9F7880F911D9695879507
:1047900097F90895E1E0660F771F881FBB1F621726
:1047A00073078407BA0720F0621B730B840BBA0BE4
:1047B000EE1F88F7E09508950E94E3236894B111F5
:1047C0000C94582208950E943D2288F09F5798F03B
:1047D000B92F9927B751B0F0E1F0660F771F881F06
:1047E000991F1AF0BA95C9F714C0B13091F00E9420
:1047F0005722B1E008950C945722672F782F88270D
:10480000B85F39F0B93FCCF3869577956795B39546
:10481000D9F73EF490958095709561957F4F8F4FB5
:104820009F4F08950E947C2108F48FEF0895CF9345
:10483000DF938230910510F482E090E0E0914B0824
:10484000F0914C0820E030E0C0E0D0E0309711F16A
:104850004081518148175907C0F04817590761F442
:1048600082819381209719F09B838A832BC0909338
:104870004C0880934B0826C02115310519F04217CA
:10488000530718F49A01BE01DF01EF010280F381A2
:10489000E02DDCCF2115310509F1281B390B24301F
:1048A000310590F412968D919C91139761157105C5
:1048B00021F0FB019383828304C090934C08809382
:1048C0004B08FD01329644C0FD01E20FF31F8193B6
:1048D0009193225031092D933C933AC0209149087D
:1048E00030914A08232B41F420910B0230910C02A5
:1048F00030934A08209349082091090230910A0216
:104900002115310541F42DB73EB740910D0250916C
:104910000E02241B350BE0914908F0914A08E2177A
:10492000F307A0F42E1B3F0B2817390778F0AC01D2
:104930004E5F5F4F2417350748F04E0F5F1F5093AF
:104940004A08409349088193919302C0E0E0F0E067
:10495000CF01DF91CF9108950F931F93CF93DF93F2
:10496000009709F48CC0FC013297138212820091E7
:104970004B0810914C080115110581F420813181FB
:10498000820F931F2091490830914A082817390750
:1049900079F5F0934A08E093490871C0D80140E0E6
:1049A00050E0AE17BF0750F412962D913C9113972B
:1049B000AD012115310509F1D901F3CF9D01DA01CE
:1049C0003383228360817181860F971F821793073B
:1049D00069F4EC0128813981260F371F2E5F3F4F84
:1049E000318320838A819B8193838283452B29F4A1
:1049F000F0934C08E0934B0842C01396FC93EE935F
:104A00001297ED01499159919E01240F351FE2172C
:104A1000F30771F480819181840F951F029611969E
:104A20009C938E938281938113969C938E9312977D
:104A3000E0E0F0E0D80112968D919C9113970097D9
:104A400019F0F8018C01F6CF8D919C9198012E5FA1
:104A50003F4F820F931F2091490830914A08281731
:104A6000390769F4309729F410924C0810924B08DA
:104A700002C01382128210934A0800934908DF9102
:104A8000CF911F910F9108956F927F928F929F9275
:104A9000AF92BF92CF92DF92EF92FF920F931F934C
:104AA000CF93DF93EC01009789F4CB01DF91CF9195
:104AB0001F910F91FF90EF90DF90CF90BF90AF903C
:104AC0009F908F907F906F900C941724FC01E60FBD
:104AD000F71F9C0122503109E217F30708F4ACC01C
:104AE000D9010D911C91119706171707B0F00530E9
:104AF000110508F49FC0C80104978617970708F4AA
:104B000099C002501109061B170B019311936D9365
:104B10007C93CF010E94AC248DC05B01A01AB10A26
:104B20004C01800E911EA0914B08B0914C0840E0C2
:104B300050E0E12CF12C109709F44AC0A815B905F2
:104B4000D1F56D907C901197630182E0C80ED11C65
:104B5000CA14DB0480F1A3014A195B096A0182E0EF
:104B6000C80ED11C1296BC9012971396AC91B5E06A
:104B7000CB16D10440F0B282A38351834083D90184
:104B80006D937C930AC00E5F1F4FC301800F911F6E
:104B9000F90191838083EB2DFA2FE114F10431F0B8
:104BA000D7011396FC93EE93129744C0F0934C08F0
:104BB000E0934B083FC08D919C911197481759077E
:104BC00008F4AC017D0112960D90BC91A02DB3CFDD
:104BD0008091490890914A0888159905E1F4461793
:104BE0005707C8F48091090290910A02009741F496
:104BF0008DB79EB740910D0250910E02841B950B0C
:104C0000E817F907C8F4F0934A08E0934908F90156
:104C1000718360830FC0CB010E9417247C01009731
:104C200059F0A801BE010E943226CE010E94AC2498
:104C3000C70104C0CE0102C080E090E0DF91CF91B7
:104C40001F910F91FF90EF90DF90CF90BF90AF90AA
:104C50009F908F907F906F90089581E090E0F894FE
:104C60000C944226FB01DC0102C001900D924150E0
:104C70005040D8F70895FB01DC0101900D9200200F
:104C8000E1F7089511E0C4EAD1E000E006C0802F0A
:104C9000FE010E94F5222196011DC53AD10780E050
:084CA0000807A9F7F894FFCF03
:104CA8000001020304050607FF00004D0820000666
:104CB80001B80188015D0188014A010601B801882F
:104CC800015D014A015D010601B80188015D0188A5
:104CD8000115010601B80188015D011501060106EB
:104CE80001B80188015D0137011501DC00C40088A5
:104CF800015D0172015D0188015D01880115015D99
:104D08000188015D01150106010300040004000685
:104D18000006000300040006000600040004000367
:104D28000002000600060004000600060003000456
:104D38000004000600060003000300040004000647
:104D48000006000300040006000600040004000337
:104D58000004000600060004000600060003000424
:104D6800000400000000003333AB4033332B410014
:104D78000000007009400959021A09380929091B5D
:104D880009000000002C126C11B0117312E111BF60
:104D980011D31100000000D80180026B029502C2F5
:104DA80012030000000000C4128720FDFF0000006D
:104DB8000000000000FDFF0000D80180026B029592
:104DC800022F21000000000A036C115902580259F1
:104DD8004F206A276169207265637520756E204DC2
:104DE8004553534147453A20000D0A0078203D209D
:064DF8000079203D2000BF
:00000001FF
