:100000000C94A5010C94D6010C94D6010C94D60145
:100010000C94D6010C94D6010C94D6010C94D60104
:100020000C94D6010C9425120C9425120C942512D4
:100030000C94D6010C94450B0C94D6010C94D6016B
:100040000C94D6010C94B70E0C94D6010C94D601E6
:100050000C94D6010C94D6010C94D6010C9433194F
:100060000C94D6010C94B60C0C948C0C0C94D60108
:100070000C94D6010C94D6010C94D6010C94D601A4
:100080000C94D6010C94D6010C94D6010C94D60194
:100090000C94D6010C94D6010C94D6010C942F121A
:1000A0000C94D6010C94D6010C94D6010C94D60174
:1000B0000C94D6010C94D6010C94D6010C94E00C4F
:1000C0000C94D6010C94D6010C94D6010C94620CBD
:1000D0000C94380C0C94D6010C940E0C0C94E40B7C
:1000E0000C94D601FE0D030E080E120E1C0E950E7A
:1000F000260E2E0E360E400E4A0E540E630E6D0E58
:10010000950E770E810E8B0EF010F310E210E610B4
:10011000EC102A11F710FB100111051109110F1134
:10012000131117112A111D11211125110C94F7100B
:100130000C94700A0C945B0A0C94EC100C9425112E
:100140000C946E100C9401110C94080E0C94810EFA
:100150000C941A1F0C94BD0A0C94D9010C942E090E
:100160000C94C4090C94630E0C945F100C947610DC
:100170000C94F0100C946D0E0C94F3100C9421114F
:100180000C94950E0C94260E0C94D5080C941C0E11
:100190000C94C1080C948B0E0C942A110C94D80169
:1001A0000C9413110C94120E0C94C2070C94501062
:1001B0000C94A6100C9409110C94E2100C94E61007
:1001C0000C9475090C945A1F0C94540E0C94400E08
:1001D0000C94440A0C9451100C9405110C942E0E9E
:1001E0000C94EB010C946E080C94030E0C94460ACC
:1001F0000C9417110C940F110C941D110C94E3081E
:100200000C94FB100C94360E0C944A0E0C94B2080D
:100210000C9402200C94FE0D0C94770E0C94DC01CF
:100220000C940D200200002100240027002A002D3C
:10023000003000330001010000040107010A010041
:10024000002200250028002B002E0031003400027F
:10025000010000050108010B010000200023002619
:100260000029002C002F00320000010000030106CD
:10027000010901050505050705080808080202022D
:10028000020A0A0808040404040101010101010131
:10029000010303030303030303040707070C0C0C08
:1002A0000C0C0C0C0C0202020206060606060606E0
:1002B000060B0B0B0B0B0B0B0B010210202008087D
:1002C00010204010204080020102010804020101B8
:1002D00002040810204080804020100804020180A1
:1002E00004020180402010080402010804020101F8
:1002F0000204081020408001020408102040800001
:10030000000A0B02090C0D0E08070304010000008F
:1003100000000000000000000000000000000000DD
:10032000000000000000000000000012111000009A
:1003300000000000000000000000000000000000BD
:100340000000000000000D201A1F11241FBECFEF77
:10035000D1E2DEBFCDBF00E00CBF12E0A0E0B2E012
:10036000EEEEFDE400E00BBF02C007900D92A23A52
:10037000B107D9F727E0A2EAB2E001C01D92AD397A
:10038000B207E1F711E0C4EAD1E000E006C021972E
:100390000109802FFE010E949823C33AD10780E013
:1003A0000807A9F70E947D190C94E5260C9400001B
:1003B000089580E090E008958091CB029091CC0266
:1003C00001969093CC028093CB020895E091A20213
:1003D000F091A30219940F931F93CF93DF938C0195
:1003E000C62FD62FD07FD1606D2F0E94F60F6D2FB4
:1003F000C8010E94091080E1C89FB0011124C62FD6
:10040000C1606C2FC8010E94F60F6C2FC8010E94BA
:10041000091081E090E0DF91CF911F910F91089535
:100420008F929F92AF92BF92CF92DF92EF92FF9204
:100430004DEC5CEC6CE47EE38EE697E00E949E0D52
:100440004DEC5CEC6CE47EE380E797E00E949E0D4F
:1004500082E797E00E94910F82E797E00E94660F83
:1004600084E797E00E94910F84E797E00E94660F6F
:1004700082E797E00E94910F909580957095619525
:100480007F4F8F4F9F4F0E94E42129EA35E841ECCE
:1004900051E40E94432220E030E048E455E40E9409
:1004A0000D244B015C0184E797E00E94910F0E94AC
:1004B000E42129EA35E841EC51EC0E94432220E096
:1004C00030E048E455E40E940D246B017C0123E8F0
:1004D00030EB4DEE51E4C501B4010E94B52418166D
:1004E0003CF440E050E0BA018EE697E00E949E0D99
:1004F00023E830EB4DEE51E4C701B6010E94B5246C
:10050000181644F440E050E060E070E880E797E0BF
:100510000E949E0D23E830EB4DEE51E4C501B4017D
:100520000E94DD2187FDA4CF23E830EB4DEE51E49E
:10053000C701B6010E94DD2187FD9ACF64EF71E00B
:1005400080E090E0FF90EF90DF90CF90BF90AF9071
:100550009F908F900C94F6134F925F926F927F92C0
:100560008F929F92AF92BF92CF92DF92EF92FF92C3
:10057000CF93DF93CDB7DEB728970FB6F894DEBFE1
:100580000FBECDBFBC01990F880B990B0E94E421CF
:100590006B017C012DEC3CEC4CE45EE30E944322B9
:1005A0004B015C01AB01BC018EE697E00E949E0D01
:1005B000B501A40180E797E00E949E0D82E797E0D5
:1005C0000E94910F82E797E00E94660F84E797E010
:1005D0000E94910F84E797E00E94660F29EA35E8B0
:1005E00041EC51E4C701B6010E94432269837A833A
:1005F0008B839C8382E797E00E94910F9095809572
:10060000709561957F4F8F4F9F4F0E94E4219B0112
:10061000AC0169817A818B819C810E94432220E018
:1006200030E048E455E40E940D244B015C0184E76E
:1006300097E00E94910F2B013C0129EA35E841EC3B
:1006400051ECC701B6010E9443226D837E838F83E4
:100650009887C301B2010E94E4219B01AC016D8126
:100660007E818F8198850E94432220E030E048E41B
:1006700055E40E940D242B013C012FEE36EF45E698
:1006800051E4C501B4010E94B52418163CF440E0C1
:1006900050E0BA018EE697E00E949E0D2FEE36EFF5
:1006A00045E651E4C301B2010E94B524181644F492
:1006B00040E050E060E070E880E797E00E949E0D27
:1006C00041E06EE776E08CE796E00E941A182FEE84
:1006D00036EF45E651E4C501B4010E94DD2187FDF6
:1006E00089CF2FEE36EF45E651E4C301B2010E94F7
:1006F000DD2187FD7FCF28960FB6F894DEBF0FBEB1
:10070000CDBFDF91CF91FF90EF90DF90CF90BF9062
:10071000AF909F908F907F906F905F904F900895D3
:100720001F93CF93DF9300D01F92CDB7DEB7162F64
:1007300029833A834B835C830E94B01629813A81D6
:100740004B815C81CA01B9010E94DA151123B1F015
:1007500040E050E0BA018EE697E00E949E0D40E036
:1007600050E060E070E880E797E00F900F900F9006
:100770000F90DF91CF911F910C949E0D0F900F90D1
:100780000F900F90DF91CF911F9108950F931F93BA
:10079000CF93DF93C7E9D6E001EA16E08FB7F8946C
:1007A0004091900750919107609192077091930743
:1007B0008FBF8E819F81A885B98584179507A6076D
:1007C000B70708F040C0F80180818823E1F18B85EC
:1007D0009C85AD85BE85892B8A2B8B2BA1F1E88169
:1007E000F98119958B859C85AD85BE8518161906EE
:1007F0001A061B068CF48F859889A989BA890197F6
:10080000A109B1098F87988BA98BBA8B892B8A2B69
:100810008B2B11F4F80110822FB7F8948091900778
:1008200090919107A0919207B09193072FBF4A81B1
:100830005B816C817D81840F951FA61FB71F8E83FE
:100840009F83A887B98763960D5E1F4FF7E0C53574
:10085000DF0709F0A3CFDF91CF911F910F9108958A
:10086000CF93DF930E94E614E4E2F3E0219131910B
:1008700091E02E35314008F490E0C92FD0E083E0BC
:10088000E433F80721F09111F1CFC0E0D0E00E94ED
:10089000C603CE01DF91CF9108953F924F925F92B0
:1008A0006F927F928F929F92AF92BF92CF92DF9280
:1008B000EF92FF920F931F93CF93DF93CDB7DEB7E5
:1008C00028970FB6F894DEBF0FBECDBF6D837E8331
:1008D0008F8398878091560790910002981721F096
:1008E0009F3F09F037C304C0E4E2F2E0349004C152
:1008F00080930002E4E2F2E0E491EF3F09F42AC3BE
:10090000E23009F480C074F5EE2309F45BC0E130F5
:1009100009F0F1C010928000109281009091810046
:1009200098609093810090918100916090938100F4
:10093000282F30E0F901ED58FD4FE491F0E0EE0F83
:10094000FF1FE15CFD4F459154915093B3024093DA
:10095000B202F901E754FD4FE491E093B102332470
:100960003394CCC0E43009F49EC00CF474C0E5307C
:1009700009F0C1C010922001109221019091210133
:1009800098609093210190912101916090932101B1
:10099000282F30E0F901ED58FD4FE491F0E0EE0F23
:1009A000FF1FE15CFD4F459154915093AA02409383
:1009B000A902F901E754FD4FE491E093A80265E034
:1009C000362E9CC014BC15BC94B5926094BD95B5F0
:1009D000916095BD282F30E0F901ED58FD4FE4916D
:1009E000F0E0EE0FFF1FE15CFD4F459154915093F5
:1009F000B6024093B502F901E754FD4FE491E0934C
:100A0000B402312C7BC01092B0001092B1009091D2
:100A1000B00092609093B0009091B100916090937B
:100A2000B100282F30E0F901ED58FD4FE491F0E0DE
:100A3000EE0FFF1FE15CFD4F459154915093CE02A4
:100A40004093CD02F901E754FD4FE491E093CF02CA
:100A500022E0322E53C0109290001092910090919B
:100A60009100986090939100909191009160909383
:100A70009100282F30E0F901ED58FD4FE491F0E0AE
:100A8000EE0FFF1FE15CFD4F459154915093B00272
:100A90004093AF02F901E754FD4FE491E093AE02B9
:100AA000B3E03B2E2BC01092A0001092A1009091B9
:100AB000A10098609093A1009091A1009160909303
:100AC000A100282F30E0F901ED58FD4FE491F0E04E
:100AD000EE0FFF1FE15CFD4F459154915093AD0225
:100AE0004093AC02F901E754FD4FE491E093AB026F
:100AF000E4E03E2E03C03E2E37FC2CC247015801D5
:100B000061E00E94BA134D805E806F807884662415
:100B10007724832D8D7F09F0BBC060E072E18AE706
:100B200090E0A30192010E94012329833A834B8321
:100B30005C8369017A0121E0C21AD108E108F10859
:100B40008FEFC816D104E104F10409F008F44CC099
:100B500060E472E48FE090E0A30192010E9401231F
:100B600069017A0191E0C91AD108E108F108E2E0CF
:100B70003E1220C0FFEFCF16D104E104F10409F0CA
:100B800008F4E6C160E970ED83E090E0A301920112
:100B90000E94012369017A0181E0C81AD108E108A5
:100BA000F1089FEFC916D104E104F10409F0D0F572
:100BB00083E067C0EFEFCE16D104E104F104B1F099
:100BC000A8F068E478EE81E090E0A30192010E9431
:100BD000012369017A01F1E0CF1AD108E108F10897
:100BE000332009F45BC1ABC181E001C082E0332056
:100BF000A1F047C089819A81AB81BC812AE0B5957B
:100C0000A795979587952A95D1F76C017D01F1E01D
:100C1000CF1AD108E108F10885E095B5987F892BB6
:100C200085BDA6C068E478EE81E090E0A301920162
:100C30000E94012369017A0181E0C81AD108E10804
:100C4000F1089FEFC916D104E104F10409F008F49A
:100C500023C164E274EF80E090E0A30192010E945E
:100C6000012369017A0181E0C81AD108E108F1087D
:100C70009FEFC916D104E104F10411F008F030C16E
:100C800085E09091B100987F892B8093B10070C06E
:100C900060E072E18AE790E0A30192010E940123E3
:100CA00069017A01F1E0CF1AD108E108F108C11415
:100CB000D10421E0E206F10488F068E478EE81E0F6
:100CC00090E0A30192010E94012369017A0181E071
:100CD000C81AD108E108F10883E001C081E091E081
:100CE000391210C090918100987F892B80938100E8
:100CF00081149104A104B10409F03FC02FEF3FEF2C
:100D0000A90172C0E3E03E120FC090919100987F5C
:100D1000892B8093910081149104A104B10469F599
:100D20002FEF3FEFA90182C0F4E03F120FC0909176
:100D3000A100987F892B8093A10081149104A104C4
:100D4000B104D9F42FEF3FEFA90182C025E03212A0
:100D50000FC090912101987F892B809321018114EC
:100D60009104A104B10449F42FEF3FEFA90182C01F
:100D700081149104A104B10479F0AD81BE81AA0F60
:100D8000BB1FA50194010E94202328EE33E040E020
:100D900050E00E94332303C02FEF3FEFA90182E010
:100DA0003816A1F1831534F0332079F091E039162B
:100DB000D9F0D0C0E4E03E1609F44AC03E16B4F1C2
:100DC000F5E03F1609F456C0C5C0C7BC2093C70262
:100DD0003093C8024093C9025093CA0280916E00BA
:100DE000826080936E00B6C0D0928900C092880065
:100DF0002093C3023093C4024093C5025093C602AD
:100E000080916F00826080936F00A4C0C092B30095
:100E10002093D0023093D1024093D2025093D30258
:100E20008091700082608093700094C0D09299008D
:100E3000C09298002093BF023093C0024093C10239
:100E40005093C2028091710082608093710082C0D1
:100E5000D092A900C092A8002093BB023093BC029C
:100E60004093BD025093BE028091720082608093D5
:100E7000720070C0D0922901C09228012093B7025D
:100E80003093B8024093B9025093BA028091730034
:100E90008260809373005EC084E0F3CE2FEFC216B1
:100EA000D104E104F104D1F0C8F062E17AE780E016
:100EB00090E0A30192010E94012369017A01E1E01F
:100EC000CE1AD108E108F108FFEFCF16D104E104F2
:100ED000F10411F008F08ECE84E09FCE83E09DCE29
:100EE00062E17AE780E090E0A30192010E94012391
:100EF00069017A0181E0C81AD108E108F1089FEF81
:100F0000C916D104E104F104C1F0B8F089819A81D5
:100F1000AB81BC814AE0B595A795979587954A9591
:100F2000D1F76C017D01E1E0CE1AD108E108F108AA
:100F3000332009F471CE87E0A4CE86E058CEEFEFDF
:100F4000CE16D104E104F10409F050F684E04FCE4E
:100F500082E097CE28960FB6F894DEBF0FBECDBFC5
:100F6000DF91CF911F910F91FF90EF90DF90CF9085
:100F7000BF90AF909F908F907F906F905F904F90B9
:100F80003F900895EF92FF920F931F93CF93DF93BB
:100F9000CDB7DEB728970FB6F894DEBF0FBECDBF32
:100FA0008CEDE82E95E0F92E00E010E020E030E036
:100FB00040E050E064EC79E080E090E00E944D0475
:100FC00085E892E00E94301461EA72E0CE01019659
:100FD0000E94300B88E294E00E94E308892BF9F02C
:100FE00088E294E00E94C1088F8318860D811E81DB
:100FF0000F5F1F4FB801CE0101960E94DE0A8823C1
:1010000049F329813A818D819E81BE01695F7F4FBD
:10101000820F931F0E94DE261E830D83DBCF8091FB
:101020007106909172060097C9F069817A81611505
:10103000710591F040917306509174062D813E81A7
:101040004217530748F00E94DE268D819E819093BF
:1010500076068093750618C00E944F2589819A8173
:1010600090937206809371068B819C819093740695
:10107000809373068D819E8190937606809375068A
:101080001A8219821C821B821E821D8289819A818A
:101090000E944F2540917506509176066091710629
:1010A0007091720685EC94E00E946E088FE992E0E0
:1010B0000E94301481E090E09093A5028093A402F6
:1010C00028960FB6F894DEBF0FBECDBFDF91CF914B
:1010D0001F910F91FF90EF9008950895CF92DF92A6
:1010E000EF92FF920F931F93CF93DF936C017A01DE
:1010F0008B01C0E0D0E0CE15DF0589F0D8016D91FD
:101100008D01D601ED91FC910190F081E02DC60199
:101110001995892B11F47E0102C02196ECCFC701ED
:10112000DF91CF911F910F91FF90EF90DF90CF90C3
:101130000895FC01A089B1898C91A689B78982FDA7
:101140000FC09C91818D8F5F8F73228D821749F024
:10115000218DDF01A20FB11D5D969C93818F0895B3
:101160008C910895FC01538D448D252F30E0842F00
:1011700090E0821B930B541710F0CF9608950197BF
:101180000895FC01918D828D981761F0828DDF01A9
:10119000A80FB11D5D968C91928D9F5F9F73928F6A
:1011A00090E008958FEF9FEF0895FC01918D828D5F
:1011B000981731F0828DE80FF11D858D90E008952C
:1011C0008FEF9FEF0895FC01918D228D892F90E084
:1011D000805C9F4F821B91098F73992708958BE83C
:1011E00093E00E94E30821E0892B09F420E0822F9C
:1011F000089588E294E00E94E30821E0892B09F435
:1012000020E0822F089585EC94E00E94E30821E01D
:10121000892B09F420E0822F0895FC01848DDF01E1
:10122000A80FB11DA35ABF4F2C91848D90E0019659
:101230008F739927848FA689B7892C93A089B18948
:101240008C9180648C93938D848D981306C0028852
:10125000F389E02D80818F7D80830895EF92FF9246
:101260000F931F93CF93DF93EC0181E0888F9B8DC9
:101270008C8D981305C0E889F989808185FD24C08B
:10128000F62E0B8D10E00F5F1F4F0F731127E02E0E
:101290008C8DE8120CC00FB607FCFACFE889F989EB
:1012A000808185FFF5CFCE010E940D09F1CF8B8D96
:1012B000FE01E80FF11DE35AFF4FF0820B8FEA8920
:1012C000FB898081806207C0EE89FF896083E8899D
:1012D000F98980818064808381E090E0DF91CF9103
:1012E0001F910F91FF90EF900895CF93DF93EC0142
:1012F000888D8823C9F0EA89FB89808185FD05C036
:10130000A889B9898C9186FD0FC00FB607FCF5CF6F
:10131000808185FFF2CFA889B9898C9185FFEDCFB7
:10132000CE010E940D09E7CFDF91CF91089580E0B3
:1013300090E0892B21F00E940309811119C080E0FF
:1013400090E0892B41F080E090E0892B21F00E9411
:101350000000811110C00E94F90881110FC080E0C7
:1013600090E0892B81F00E94EF0881110AC0089556
:101370000E940000E4CF0E940000EDCF0E94E60131
:10138000EECF0C9400000895DF92EF92FF920F933E
:101390001F93CF93DF93CDB7DEB7EE970FB6F894D8
:1013A000DEBF0FBECDBF8C017B01D42E8FEF840F2B
:1013B000D801ED91FC91823020F40480F581E02D7C
:1013C00005C0411105C00280F381E02DC8011995C7
:1013D000D801ED91FC910084F185E02D20E041E001
:1013E000B701C8011995B5E0DB1609F43FC0D80173
:1013F000ED91FC910280F381E02DC8011995B2E0D6
:10140000DB1234C0D801ED91FC910084F185E02D10
:1014100020E041E0BE016F5F7F4FC801199540E0B9
:10142000D8011C968C91481708F5842F90E0880FFE
:10143000991FF701E80FF91F21E030E02C0F3D1F45
:10144000820F931FD8011E962D913C911F97DC01AE
:101450008D919C91B901681B790BCB012081318161
:10146000820F931F918380834F5FDACFEE960FB682
:10147000F894DEBF0FBECDBFDF91CF911F910F91CA
:10148000FF90EF90DF9008950E94D026CF93DF93D6
:10149000FC0185858F3F61F0EF0161E00E94BA1386
:1014A00061E08D850E948A138BE193E00197F1F74B
:1014B000DF91CF910895CF93DF93FC0185858F3F16
:1014C00061F0EF0161E00E94BA1360E08D850E9437
:1014D0008A138BE193E00197F1F7DF91CF910895A3
:1014E000EF92FF920F931F93CF93DF931F92CDB78D
:1014F000DEB77C018B01FC011382128215821482FB
:101500001782168211861086118A108A403218F0CE
:101510008FE1848702C0FC014487F70182859385AF
:10152000892B11F080E00DC0F701848590E02983BC
:101530000E94BA24F701938782872981892B91F72A
:1015400014C0F7019485891778F4482F50E0F8010A
:10155000E40FF51F9081F70162857385FB01E40FAD
:10156000F51F90838F5FEDCF25870F90DF91CF918F
:101570001F910F91FF90EF9008950F931F93CF93BA
:10158000DF93EC01122F202FE881F98136978081BB
:1015900091818C0F9D1F0E94700A1A83E881F98146
:1015A000369780819181C80FD91F8FEF93E09F8775
:1015B0008E87DF91CF911F910F9108950F931F9305
:1015C000CF93DF93EC0188819981009729F02A81DC
:1015D0003B812617370788F48B016F5F7F4F0E948E
:1015E000E725009761F0998388831B830A832C8108
:1015F0003D81232B11F4FC01108281E001C080E0C9
:10160000DF91CF911F910F910895EF92FF920F9369
:101610001F93CF93DF93EC017B018A01BA010E94F3
:10162000DE0A2881398181110DC02115310519F09B
:10163000C9010E944F25198218821D821C821B82BB
:101640001A8206C01D830C83B701C9010E94DE26E1
:10165000CE01DF91CF911F910F91FF90EF900895F0
:10166000FC0111821082138212821582148261158C
:10167000710551F0FB0101900020E9F73197AF01AE
:10168000461B570B0C94050B08951F920F920FB633
:101690000F9211240BB60F922F933F934F935F93AA
:1016A0006F937F938F939F93AF93BF93EF93FF932A
:1016B0008091D0029091D102A091D202B091D30238
:1016C000892B8A2B8B2B59F18091CF02E091CD028F
:1016D000F091CE029081892780838091D0029091F1
:1016E000D102A091D202B091D302181619061A069F
:1016F0001B060CF056C08091D0029091D102A091AF
:10170000D202B091D3020197A109B1098093D0020E
:101710009093D102A093D202B093D30242C08091A1
:101720000002E4E2F2E0E4919FEF90930002E230E5
:10173000C9F050F4EE2399F0E13081F590916F00FB
:101740009D7F90936F002AC0E43019F1E0F0E530FE
:1017500029F5909173009D7F909373001FC01092A4
:101760006E001CC0909170009D7F9093700091E07E
:101770009093B0009091B100987F94609093B100E5
:101780001092B3000BC0909171009D7F90937100F7
:1017900005C0909172009D7F9093720060E00E945E
:1017A0008A13FF91EF91BF91AF919F918F917F919C
:1017B0006F915F914F913F912F910F900BBE0F90C2
:1017C0000FBE0F901F9018951F920F920FB60F9299
:1017D00011240BB60F922F933F934F935F936F9308
:1017E0007F938F939F93AF93BF93EF93FF938BE878
:1017F00093E00E940D09FF91EF91BF91AF919F91EE
:101800008F917F916F915F914F913F912F910F90A9
:101810000BBE0F900FBE0F901F9018951F920F9246
:101820000FB60F9211240BB60F922F933F934F9345
:101830005F936F937F938F939F93AF93BF93EF9338
:10184000FF938BE893E00E949908FF91EF91BF917D
:10185000AF919F918F917F916F915F914F913F9148
:101860002F910F900BBE0F900FBE0F901F901895E9
:101870001F920F920FB60F9211240BB60F922F9357
:101880003F934F935F936F937F938F939F93AF9308
:10189000BF93EF93FF9388E294E00E940D09FF91BC
:1018A000EF91BF91AF919F918F917F916F915F91D8
:1018B0004F913F912F910F900BBE0F900FBE0F9045
:1018C0001F9018951F920F920FB60F9211240BB60E
:1018D0000F922F933F934F935F936F937F938F93C9
:1018E0009F93AF93BF93EF93FF9388E294E00E949E
:1018F0009908FF91EF91BF91AF919F918F917F9147
:101900006F915F914F913F912F910F900BBE0F9070
:101910000FBE0F901F9018951F920F920FB60F9247
:1019200011240BB60F922F933F934F935F936F93B6
:101930007F938F939F93AF93BF93EF93FF9385EC28
:1019400094E00E940D09FF91EF91BF91AF919F919B
:101950008F917F916F915F914F913F912F910F9058
:101960000BBE0F900FBE0F901F9018951F920F92F5
:101970000FB60F9211240BB60F922F933F934F93F4
:101980005F936F937F938F939F93AF93BF93EF93E7
:10199000FF9385EC94E00E949908FF91EF91BF912D
:1019A000AF919F918F917F916F915F914F913F91F7
:1019B0002F910F900BBE0F900FBE0F901F90189598
:1019C0001F920F920FB60F9211240BB60F922F9306
:1019D0003F934F935F936F937F938F939F93AF93B7
:1019E000BF93EF93FF93809163050E946113209151
:1019F0006705309168052F5F3F4F3093680520934E
:101A0000670590916605953618F096E0909362050B
:101A1000909162059430C9F128F4923069F09330C6
:101A2000D1F05EC0953009F451C0963009F058C02D
:101A300091E09093330651C0811152C02091670507
:101A4000309168052436310508F442C010923306FF
:101A5000109266051CC0813009F042C0E091660515
:101A600091E09E0F90936605F0E02091670530911C
:101A70006805EE0FFF1FEE59FA4F3087278310924B
:101A800068051092670594E029C0811117C0E091A4
:101A9000660591E09E0F90936605F0E02091670542
:101AA00030916805EE0FFF1FEE59FA4F30872783FC
:101AB000109268051092670593E010C020916705A9
:101AC000309168052536310558F007C0811108C0EE
:101AD000109268051092670503C095E09093620527
:101AE000909165059923B9F081110AC08091640530
:101AF000882321F08091640561E009C02F9A0BC012
:101B000080916405882331F08091640560E00E9433
:101B10008A1301C02F98FF91EF91BF91AF919F91D0
:101B20008F917F916F915F914F913F912F910F9086
:101B30000BBE0F900FBE0F901F9018958F929F9223
:101B4000AF92BF92CF92DF92EF92FF920F931F93CB
:101B5000CF93DF93EC016A017B0120E030E04FE797
:101B600053E4C701B6010E9443224B015C0120E00F
:101B700030E0A9010E94B52418161CF4C501B40177
:101B800003C0C501B40190580E947F248B0120E05E
:101B900030E0A901C701B6010E94B524181614F45B
:101BA00060E001C061E089810E948A130F3F110546
:101BB00009F014F4112702C00FEF10E0C88161E0B2
:101BC0008C2F0E94BA130115110509F4B1C00F3F03
:101BD000110509F4AFC0EC2FF0E0E150FD4FE491A6
:101BE0004E2F50E0FA013197E231F10508F09DC027
:101BF0008827EE58FF4F8F4F0C94982384B5806848
:101C000084BD07BDA7C084B5806284BD08BDA2C0E5
:101C100080918000806880938000109389000093F9
:101C2000880098C08091800080628093800010932B
:101C30008B0000938A008EC0809180008860809322
:101C4000800010938D0000938C0084C08091B000C0
:101C500080688093B0000093B3007CC08091B00096
:101C600080628093B0000093B40074C080919000B3
:101C700080688093900010939900009398006AC048
:101C80008091900080628093900010939B0000935D
:101C90009A0060C0809190008860809390001093BB
:101CA0009D0000939C0056C08091A00080688093A6
:101CB000A0008091A0008F7B8093A0001093A900CA
:101CC0000093A80047C08091A00080628093A0008C
:101CD0001093AB000093AA003DC08091A0008860E3
:101CE0008093A0001093AD000093AC0033C08091AE
:101CF000200180688093200110932901009328011E
:101D000029C08091200180628093200110932B01D3
:101D100000932A011FC080912001886080932001D8
:101D200010932D0100932C0115C00038110514F4F7
:101D300060E001C061E08C2FDF91CF911F910F9186
:101D4000FF90EF90DF90CF90BF90AF909F908F90DB
:101D50000C948A13DF91CF911F910F91FF90EF9018
:101D6000DF90CF90BF90AF909F908F9008951F927B
:101D70000F920FB60F9211240BB60F922F933F9331
:101D80004F935F936F937F938F939F93AF93BF9383
:101D9000EF93FF938091D40287FF05C010928500D6
:101DA0001092840016C02091D402022E000C330B36
:101DB0008091700690E0281739075CF43091D402C6
:101DC00025E03203F0011124EC5CF94F808186FD9F
:101DD00015C08091D4028F5F8093D4022091D402E9
:101DE000022E000C330B8091700690E02817390703
:101DF00094F48091D4028C302CF10DC03091D40237
:101E00003203F0011124EC5CF94F808160E08F73A4
:101E10000E948A13DECF80918400909185008434E3
:101E20009C4918F480E49CE905C08091840090915D
:101E30008500049690938900809388008FEF8093AB
:101E4000D4022AC040918400509185003091D40280
:101E500025E03203F0011124EC5CF94F818192817D
:101E6000840F951F90938900809388003091D4024D
:101E70003203F0011124EC5CF94F808186FF0CC025
:101E80003091D4023203F0011124EC5CF94F8081CF
:101E900061E08F730E948A13FF91EF91BF91AF9120
:101EA0009F918F917F916F915F914F913F912F9172
:101EB0000F900BBE0F900FBE0F901F9018958EBD08
:101EC00000000DB407FEFDCF8EB50895CF93DF93CC
:101ED000EC0160E088810E948A1388E90E945F0F0C
:101EE00080E00E945F0F80E00E945F0F80E00E9410
:101EF0005F0F80E00E945F0F61E088810E948A137B
:101F00008BE891E00197F1F760E088810E948A13E5
:101F100080EE0E945F0F61E08881DF91CF910C9489
:101F20008A13AF92BF92CF92DF92EF92FF920F93FC
:101F30001F93CF93DF93CDB7DEB760970FB6F894BA
:101F4000DEBF0FBECDBF5C0160E0FC0180810E945E
:101F50008A1380E60E945F0F8E010F5F1F4F7E0184
:101F6000F1E1EF0EF11C680180E00E945F0F90E04C
:101F7000A0E0B0E0F60181939193A193B1936F013A
:101F8000EE15FF0589F761E0F50180810E948A1353
:101F900080E090E0DC01F8014191519161917191F3
:101FA0008F01BA2FA92F982F8827840F951FA61F5E
:101FB000B71FEE15FF0579F79C01AD01662777275E
:101FC000CB01621B730B840B950B60960FB6F894D4
:101FD000DEBF0FBECDBFDF91CF911F910F91FF905C
:101FE000EF90DF90CF90BF90AF900895FC012481D7
:101FF00031E030935B0320937D0310925C031092D9
:102000007E038485682B8FE793E00E94A6100C94D2
:1020100042140F931F93CF938C01C62F64600E94CC
:10202000F60F6C2F6B7FC8010E94F60F83EC90E0D7
:102030000197F1F7CF911F910F91089585ED80934E
:10204000BC008091BC0084FDFCCF10925A0308951F
:102050004091F902262F30E0240F311D2132310545
:10206000DCF420915A032430C9F4FC0180E090E0B4
:10207000861758F43091F9022191DC01A952BD4F25
:10208000A30FB11D2C930196F3CF8091F902680F35
:102090006093F90280E0089581E0089582E0089558
:1020A000089581E090E03091D6022091D502321758
:1020B00010F480E090E091958195910908958091C8
:1020C000D6029091D502891730F48F5F8093D602A3
:1020D00080E090E008958FEF9FEF08958091D50202
:1020E00090E02091D602821B91090895CF92DF9251
:1020F000EF92FF920F931F93CF93DF937C01262FD4
:10210000972F8A0180915B03882391F0C62FD72FE8
:102110006E01C40ED51ECC15DD0571F06991D70195
:10212000ED91FC910190F081E02DC7011995F3CF5D
:10213000642F822F0E942810C801DF91CF911F9138
:102140000F91FF90EF90DF90CF900895CF93DF93A2
:102150001F92CDB7DEB7698320915B032223D1F0B4
:1021600020917E03203240F021E030E0FC013383F7
:10217000228380E090E015C080915C03E82FF0E0BE
:10218000E35AFC4F998190838F5F80935C03809327
:102190007E0305C061E0CE0101960E94281081E017
:1021A00090E00F90DF91CF91089590E0FC0131977E
:1021B000E231F10508F04EC08827EC57FF4F8F4FF2
:1021C0000C949823809180008F7703C080918000C9
:1021D0008F7D80938000089580918000877FF9CF64
:1021E00084B58F7702C084B58F7D84BD08958091BA
:1021F000B0008F7703C08091B0008F7D8093B000D6
:102200000895809190008F7707C0809190008F7D16
:1022100003C080919000877F809390000895809103
:10222000A0008F7707C08091A0008F7D03C08091B0
:10223000A000877F8093A0000895809120018F7770
:1022400007C0809120018F7D03C080912001877F8E
:102250008093200108958F929F92AF92BF92CF9268
:10226000DF92EF92FF92BC01990F880B990B0E94AD
:10227000E4214B015C012DEC3CEC4CE45EE30E945C
:1022800043226B017C01AB01BC018EE697E00E940A
:102290009E0DB701A601705880E797E00E949E0D41
:1022A00082E797E00E94910F82E797E00E94660F15
:1022B00029EA35E841EC51E4C501B4010E9443220A
:1022C0004B015C0182E797E00E94910F6B017C015A
:1022D00041E06EE776E08CE796E00E941A186627E8
:1022E0007727CB016C197D098E099F090E94E42193
:1022F0009B01AC01C501B4010E94432220E030E003
:1023000048E455E40E940D2429EA35E841E451E40B
:102310000E94DD2187FDD6CF40E050E0BA018EE675
:1023200097E00E949E0D40E050E060E070E880E79A
:1023300097E0FF90EF90DF90CF90BF90AF909F908D
:102340008F900C949E0D8F929F92AF92BF92CF92DE
:10235000DF92EF92FF920F931F93CF93DF93CDB74E
:10236000DEB7A1970FB6F894DEBF0FBECDBF6C01EC
:10237000990FEE08FF08F7FE31C0E091C504F09117
:10238000C6040190F081E02D6DE285EC94E0199592
:102390008C0122273327A9012C193D094E095F0919
:1023A00019A2CE0181967C019AE0892E912CA12C54
:1023B000B12CCA01B901A50194010E943323605DCB
:1023C000F70162937F01211531054105510589F718
:1023D000CF010E943014080F191F1EC0A7019601DB
:1023E00019A28E010F5D1F4F8AE0C82ED12CE12C5F
:1023F000F12CCA01B901A70196010E943323605D47
:10240000F80162938F01211531054105510589F7C6
:10241000CF010E9430148C018FE992E00E943014A9
:10242000800F911FA1960FB6F894DEBF0FBECDBFEF
:10243000DF91CF911F910F91FF90EF90DF90CF90A0
:10244000BF90AF909F908F9008951F920F920FB6FC
:102450000F9211240F900FBE0F901F9018951F928E
:102460000F920FB60F9211240BB60F922F933F933A
:102470004F935F936F937F938F939F93AF93BF938C
:10248000EF93FF938091B900887F803609F49CC058
:1024900068F5883209F45BC090F4803109F454C0C7
:1024A00038F4882309F4F6C0883009F44DC0F6C02A
:1024B000883109F44CC0803209F45DC0EFC080342B
:1024C00009F468C048F4803309F455C0883309F032
:1024D000E5C080935803D8C0803509F44FC08835D3
:1024E00009F45DC0883409F0D9C0D6C0883909F430
:1024F000C7C0A8F4883709F467C038F4883609F4EF
:1025000063C0803709F460C0C9C0883809F4B8C016
:10251000803909F45FC0803809F0C0C05BC0803BDF
:1025200009F486C038F4803A09F466C0883A09F4A0
:102530007FC0B4C0803C09F4A7C0883C09F4A4C0A3
:10254000883B09F48AC0AAC08091350310C09091DD
:10255000570380915603981770F5E091570381E077
:102560008E0F80935703F0E0EA5CFC4F80818093EC
:10257000BB0085EC86C0809358038EC0E091570362
:1025800081E08E0F809357038091BB00F0E0EA5CFE
:10259000FC4F808390915703809156036EC0E09169
:1025A000570381E08E0F809357038091BB00F0E0CA
:1025B000EA5CFC4F80838091590381116DC081E0FA
:1025C0008093340384EA61C083E080935A031092BD
:1025D0001D03CFCF80911D03803208F051C0E091E0
:1025E0001D0381E08E0F80931D038091BB00F0E0FE
:1025F000E350FD4F8083BDCF85EC8093BC001092EB
:102600005A0380911D03803230F4E0911D03F0E005
:10261000E350FD4F108260911D0370E0E091FB02DA
:10262000F091FC028DEF92E0199510921D0336C0D7
:1026300084E080935A031092FA021092F902E0911A
:10264000F702F091F80219958091F902811105C005
:1026500081E08093F9021092D702E091FA0281E0C2
:102660008E0F8093FA02F0E0E952FD4F8081809353
:10267000BB009091FA028091F902981708F479CF83
:1026800085E88093BC000AC085EC8093BC00109262
:102690005A0304C0109258030E941E10FF91EF913C
:1026A000BF91AF919F918F917F916F915F914F916A
:1026B0003F912F910F900BBE0F900FBE0F901F9068
:1026C0001895CF93DF93282F30E0F901E150FD4FAB
:1026D0008491F901E754FD4FD491F901ED58FD4F74
:1026E000C491CC2391F081110E94D510EC2FF0E021
:1026F000EE0FFF1FE75AFD4FA591B491EC91ED232A
:1027000081E090E021F480E002C080E090E0DF9181
:10271000CF9108951F93CF93DF93282F30E0F901D5
:10272000E150FD4F8491F901E754FD4FD491F90137
:10273000ED58FD4FC491CC23C9F0162F81110E9492
:10274000D510EC2FF0E0EE0FFF1FE15CFD4FA591DF
:10275000B4918FB7F894111105C09C91ED2FE095BD
:10276000E92302C0EC91ED2BEC938FBFDF91CF9169
:102770001F910895CF93DF9390E0FC01E754FD4F44
:102780002491FC01ED58FD4F8491882361F190E084
:10279000880F991FFC01EB5DFD4FC591D491FC01A1
:1027A000E15CFD4FA591B491611109C09FB7F89408
:1027B0008881209582238883EC912E230BC0623080
:1027C00061F49FB7F8943881822F809583238883A2
:1027D000EC912E2B2C939FBF06C08FB7F894E88105
:1027E0002E2B28838FBFDF91CF9108958F929F92D8
:1027F000AF92BF92CF92DF92EF92FF926B017C017A
:102800000E940E194B015C01C114D104E104F104D2
:10281000F1F00E940E19DC01CB0188199909AA096F
:10282000BB09883E9340A105B10570F321E0C21AAF
:10283000D108E108F10888EE880E83E0981EA11CFB
:10284000B11CC114D104E104F10419F7DDCFFF90EC
:10285000EF90DF90CF90BF90AF909F908F900895B2
:10286000009769F0FC0101900020E9F73197AF0172
:10287000481B590BBC0185EC94E00C946E0880E079
:1028800090E0089520917E0390917D03213208F01D
:102890004AC080915A038111FCCF32E030935A0331
:1028A00031E0309359033FEF3093580310925703B0
:1028B00020935603ADE5B3E046E353E0FA013E2F23
:1028C000341B321718F43D913193F9CF1092350330
:1028D00020913503990F922B9093350390913403F7
:1028E000913061F410923403909135039093BB00C2
:1028F0009091BC0093FDF8CF95EC01C095EE9093BC
:10290000BC0090915A039230E1F3909158039F3F9D
:1029100079F080915803803241F0809158038033E0
:1029200031F084E005C081E003C082E001C083E0B3
:1029300010925C0310927E0310925B030895EF9255
:10294000FF921F93CF93DF931F92CDB7DEB7162F61
:1029500095E5E92E97E0F92ED7011C969C911C97DE
:1029600021E020935B0390937D0310925C0310920F
:102970007E031A960D90BC91A02DED91FC911197BC
:102980000190F081E02D682FCD0179831995F70131
:1029900082859385DC01ED91FC910190F081E02D21
:1029A0007981672F1995F70182859385DC01ED9177
:1029B000FC910190F081E02D612F19950F90DF912E
:1029C000CF911F91FF90EF900C944214AF92BF9261
:1029D000CF92DF92EF92FF920F931F93CF93DF93EB
:1029E00080917C0690917D06892B09F457C08091D7
:1029F0007E0690917F06892B09F450C041E064E285
:102A000073E08AE796E00E94C409C0918606D0E090
:102A100084E2E82E83E0F82EA0907E06B0907F0638
:102A2000C0907C06D0907D0600E010E00C171D07DA
:102A3000ACF5D501ED91FD915D01D6018D919D9192
:102A40006D01E81BF90BC1F0D7012D913C91A90153
:102A500060E070E09A01AB01281B390B4109510974
:102A6000A8EEB3E00E9420239F0140E050E00E94C6
:102A7000012337FD0AC002C020E030E0293EB3E068
:102A80003B072CF028EE33E002C020E030E0F701F5
:102A9000219331937F010F5F1F4FC8CFDF91CF91FB
:102AA0001F910F91FF90EF90DF90CF90BF90AF906C
:102AB00008954F925F926F927F929F92AF92BF92D2
:102AC000CF92DF92EF92FF920F931F93CF93DF93FA
:102AD0000E94E6149090860684E2A82E83E0B82E29
:102AE000412C512C3201C0E0D0E0C12CD12C760118
:102AF000F0E0E0E0E915F9F0D5010D911D915D01DF
:102B0000093C110524F4033311056CF001C0F1E018
:102B1000D801A30192010E942B23C60ED71EE81EE6
:102B2000F91EC00FD11FEF5FB8EE4B0EB3E05B1E76
:102B3000611C711CDFCFF1111EC02E2F30E021501F
:102B4000310944EF51E0249FC001259F900D349F2F
:102B5000900D112440918A0650918B064817590711
:102B6000BCF048EE53E0249FC001259F900D349F98
:102B7000900D11240FC09E0140E050E0C701B60146
:102B80000E943323C90130938B0620938A0602C02A
:102B900080E090E0DF91CF911F910F91FF90EF9037
:102BA000DF90CF90BF90AF909F907F906F905F909D
:102BB0004F9008952F923F924F925F926F927F9223
:102BC0008F929F92AF92BF92CF92DF92EF92FF923D
:102BD0000F931F93CF93DF93CDB7DEB728970FB630
:102BE000F894DEBF0FBECDBF6B837C838D839E8345
:102BF00040E050E060E87EE38EE697E00E949E0DA4
:102C000040E050E060E87EEB80E797E00E949E0D98
:102C1000C12CD12C760119821A82212C312C2B81C6
:102C20003C814D815E81C701B6010E94DD2187FF95
:102C30007EC069E170E080E090E00E94F61320E041
:102C400030E048EC51E4C701B6010E94A1236B01BA
:102C50007C010E943004892B11F70E945915BC0198
:102C6000990F880B990B0E94E42120E030E44CE19D
:102C700055E40E94A023162F78878F83092F209177
:102C80008C0730918D0740918E0750918F070E94DD
:102C9000A1234B015C0160938C0770938D07809397
:102CA0008E0790938F072CEA35EC47E257E3612FAC
:102CB00078858F81902F0E9443222B013C0125E9CA
:102CC0003FEB46E554E3C501B4010E9443229B015A
:102CD000AC01C301B2010E94A1234B015C01298117
:102CE0003A81A101612F78858F81902F0E94A023C6
:102CF00027E137EB41ED57E30E9443229B01AC01F2
:102D0000C501B4010E94A12320E030E040E85EE369
:102D10000E94A123AB01BC01705880E797E00E949C
:102D20009E0D198388858A832F80302E78CF289630
:102D30000FB6F894DEBF0FBECDBFDF91CF911F91CC
:102D40000F91FF90EF90DF90CF90BF90AF909F904A
:102D50008F907F906F905F904F903F902F9008954D
:102D60002F923F924F925F926F927F928F929F929B
:102D7000AF92BF92CF92DF92EF92FF920F931F9389
:102D8000CF93DF9300D000D0CDB7DEB75C0140E039
:102D900050E060E87EE38EE697E00E949E0D40E002
:102DA00050E060E87EEB80E797E00E949E0D1E8277
:102DB0001D82C12CD12C212C312C812C912CCA1498
:102DC000DB040CF0ACC0ED80FE800AE010E094E083
:102DD000E916F10434F50E94E614E4E2F3E080E041
:102DE00090E021913191253F314008F0019623E098
:102DF000E433F207B1F7069724F04FEFE41AF40A30
:102E000002C0E12CF12C6AE070E080E090E00E94CA
:102E1000F61301501109D9F6FE82ED82C70104971D
:102E2000ACF0EFEFCE1ADE0A84E6E82EF12C00E0DB
:102E300010E020E030E040E050E060ED77E080E03E
:102E400090E00E944D041E821D82B9CF0E94300482
:102E5000892B09F0B4CF0E945915BC01990F880B3A
:102E6000990B0E94E42120E030E44CE155E40E94FB
:102E7000A0237B018C0120918C0730918D0740911C
:102E80008E0750918F070E94A1232B013C01609374
:102E90008C0770938D0780938E0790938F0726EF92
:102EA0003CEC42E158E3B701C8010E944322698328
:102EB0007A838B839C8322EA37EE4BE355E3C3018D
:102EC000B2010E9443229B01AC0169817A818B810E
:102ED0009C810E94A1232B013C019101A401B70117
:102EE000C8010E94A02324E330E847EB58E30E9486
:102EF00043229B01AC01C301B2010E94A12320E047
:102F000030E040E85EE30E94A123AB01BC017058B1
:102F100080E797E00E949E0D1701480150CF26964A
:102F20000FB6F894DEBF0FBECDBFDF91CF911F91DA
:102F30000F91FF90EF90DF90CF90BF90AF909F9058
:102F40008F907F906F905F904F903F902F9008955B
:102F5000AF92BF92CF92DF92EF92FF920F931F93A7
:102F6000CF93DF936B017C0120E030E046E155E434
:102F70000E9443220E947F248B0177FF04C0002718
:102F80001127061B170B20E030E0A901C701B6018D
:102F90000E94B52487FD0BC061E087E20E948A137E
:102FA000C0E0D0E08BECA82E87E0B82E17C060E020
:102FB000F4CF80917C070E946113892B99F461E022
:102FC00085E20E948A13C5010197F1F760E085E26E
:102FD0000E948A13C5010197F1F72196C017D10706
:102FE00041F709C020E030E0A901C701B6010E9405
:102FF000DD2187FFE4CFA701960160912003709146
:10300000210380912203909123030E94A1236093C6
:103010002003709321038093220390932303DF9175
:10302000CF911F910F91FF90EF90DF90CF90BF90C5
:10303000AF9008952F923F924F925F927F928F921E
:103040009F92AF92BF92CF92DF92EF92FF920F9337
:103050001F93CF93DF93CDB7DEB7C056D1090FB61C
:10306000F894DEBF0FBECDBF7C016B01742EDB0177
:103070008D919C91892B31F0F70180819181892B71
:10308000D9F41DC08091860690E0880F991F0E9498
:10309000BA24D6018D939C93009709F4A6C0209181
:1030A000860630E0FC0180E090E08217930724F769
:1030B000119211920196F9CF00E010E01EC08091AC
:1030C000860690E0880F991F0E94BA24F701918329
:1030D0008083009709F489C02091860630E04091F2
:1030E000880650918906FC0180E090E082179307E2
:1030F0001CF7419351930196F9CF472DBE016F5BA9
:103100007F4F8AE796E00E94C40940908606512CC2
:10311000CE0101964C01FE01EF5BFF4FDE0191965F
:103120005D019D011C0180E090E0841595054CF542
:103130000115110589F0D9016D917C914081518172
:103140006417750748F0D1016D917C9140815181E0
:103150004617570748F00DC040815181D9014D9362
:103160005C930115110579F740815181D1014D938F
:103170005C930196B2E02B0E311C32962E5F3F4FCE
:10318000D4CF0F5F1F4F0A30110509F0B6CF20E0F2
:1031900030E08091860690E02817390734F5F40175
:1031A000419151914F01C901880F991FD601ED91AD
:1031B000FC91E80FF91F608171816417750710F4A5
:1031C00051834083F501419151915F01D701ED9108
:1031D000FC91E80FF91F808191814817590710F47D
:1031E000518340832F5F3F4FD4CFC05ADF4F0FB67C
:1031F000F894DEBF0FBECDBFDF91CF911F910F912D
:10320000FF90EF90DF90CF90BF90AF909F908F9006
:103210007F905F904F903F902F9008953FB7F89424
:103220008091950790919607A0919707B091980784
:1032300026B5A89B05C02F3F19F00196A11DB11D11
:103240003FBFBA2FA92F982F8827820F911DA11D4C
:10325000B11DBC01CD0142E0660F771F881F991F89
:103260004A95D1F708951F920F920FB60F9211242D
:103270002F933F938F939F93AF93BF93809190072A
:1032800090919107A0919207B09193073091940784
:1032900023E0230F2D3720F40196A11DB11D05C099
:1032A00026E8230F0296A11DB11D20939407809359
:1032B000900790939107A0939207B0939307809102
:1032C000950790919607A0919707B091980701965E
:1032D000A11DB11D8093950790939607A093970722
:1032E000B0939807BF91AF919F918F913F912F918C
:1032F0000F900FBE0F901F901895CF93DF93CDB70F
:10330000DEB728970FB6F894DEBF0FBECDBF789416
:1033100084B5826084BD84B5816084BD85B58260DA
:1033200085BD85B5816085BD80916E00816080938B
:103330006E001092810080918100826080938100F4
:103340008091810081608093810080918000816004
:10335000809380008091B10084608093B10080915F
:10336000B00081608093B000809191008260809372
:1033700091008091910081608093910080919000F4
:103380008160809390008091A10082608093A10071
:103390008091A10081608093A1008091A000816054
:1033A0008093A0008091210182608093210180910F
:1033B00021018160809321018091200181608093AF
:1033C000200180917A00846080937A0080917A0055
:1033D000826080937A0080917A00816080937A0085
:1033E00080917A00806880937A001092C100E09109
:1033F000D504F091D60482E08083E091D104F0916D
:10340000D2041082E091D304F091D4048FEC808335
:103410001092DD04E091D904F091DA0486E0808313
:10342000E091D704F091D804808180618083E0919D
:10343000D704F091D804808188608083E091D7041C
:10344000F091D804808180688083E091D704F09166
:10345000D80480818F7D808361E0809156070E942F
:10346000BA1360E0809156070E948A1360E0809151
:1034700055070E94BA138FE793E0909360078093FB
:103480005F071092D6021092D50210925C03109240
:103490007E0310925A0381E0809359031092340303
:1034A00061E084E10E948A1361E085E10E948A1351
:1034B0008091B9008E7F8093B9008091B9008D7F93
:1034C0008093B90088E48093B80085E48093BC00C1
:1034D00080E090E1A0E0B0E0809362079093630702
:1034E000A0936407B09365078AE090E0A0E0B0E0A5
:1034F0008093660790936707A0936807B093690766
:1035000080E090E0A0E0B0E480936A0790936B07BE
:10351000A0936C07B0936D0760E070E185E00E94B6
:103520009F146FE979E380E00E949F1402E717E09F
:10353000812C912CA12CB12C48EA242E42E0342E6F
:103540005EEE452E52E0552E6BEC662E67E0762E31
:1035500095012B5A384F6901D90114969C91149703
:1035600012968C91F401EB5AF84F7F01818F928F64
:1035700061E00E94BA1361E0D7015A968C910E94D3
:10358000BA13F60190858681D8018C93F701968F46
:1035900061E00E94BA1360E0D7015E968C910E94B0
:1035A000BA1361E0F80180810E948A13FFB6F89493
:1035B0008091A602811125C0F1018491F2019491BC
:1035C000E82FF0E0EE0FFF1FEB5DFD4FA591B491EA
:1035D0008C91982321F461E085E30E948A1361E0D5
:1035E00085E30E94BA138CB580618CBD8CB5806474
:1035F0008CBD61E084E30E94BA1361E083E30E9422
:10360000BA138091A6028F5F8093A602FFBEC3010A
:103610000197F1F760E0D8018C910E948A1388E845
:103620000E945F0F83E00E945F0F61E0F8018081DC
:103630000E948A13C3010197F1F7C8010E94660F27
:10364000F2E08F0E911C0E5F1F4FAA94AB2821F061
:10365000AA24A394B12C7CCF0AE717E084E0F82ECB
:10366000F00E60E0D8018D918D010E94BA13F01226
:10367000F8CF79E8E72E77E0F72E06E817E0E5E0E7
:10368000AE2EFCE0CF2EA2E09A2EB2E0BB2EB00E02
:10369000F8013897D080F80180818C3008F046C05E
:1036A00061E08D2D0E94BA13D8018C91A89EF00183
:1036B0001124EC5CF94F9D2D9F732081207CD22E2C
:1036C000D92AD082138214826C2D0E946423BCE01C
:1036D0008B9FA001112420E030E0B901640F751F19
:1036E000A69EF001A79EF00D1124EC5CF94F90818D
:1036F00096FD12C02F5F3F4F2C30310571F78111BD
:103700000BC0109280009092810010928500109260
:10371000840096BA90926F00D801EC91AE9EF001B1
:103720001124EC5CF94F808180648083F80132972A
:10373000908132978081F70131978083F7019083E0
:1037400060E00E94BA1361E0D7018C910E94BA1325
:1037500060E0F70180810E948A130F5F1F4FF2E043
:10376000EF0EF11CB01294CFF8941092200189E072
:103770008093210180E293E09093290180932801B6
:10378000109225011092240182E0809373007894B6
:1037900080936205109266058091630560E00E9447
:1037A000BA138CED91E09093D1068093D00688EE09
:1037B00093E0A0E0B0E08093D2069093D306A0936C
:1037C000D406B093D5068FEF9FEFDC018093DB0624
:1037D0009093DC06A093DD06B093DE0681E0809333
:1037E000DA062FB7F8948091900790919107A091F5
:1037F0009207B09193072FBF4091D2065091D30604
:103800006091D4067091D506840F951FA61FB71F2F
:103810008093D6069093D706A093D806B093D90686
:103820008091DB069091DC06A091DD06B091DE066A
:103830008093DF069093E006A093E106B093E20642
:1038400061E087E20E94BA1361E085E20E94BA1348
:103850008FEF9FEF0E94AC028FEF9FEF0E942B1122
:1038600081E090E00E942B1181E090E00E94AC0288
:1038700064E6E62EF12C00E010E020E030E040E0CD
:1038800050E060ED77E080E090E00E944D0460E061
:1038900087E20E948A130BEC17E080917C070E945C
:1038A0006113892B79F461E085E20E948A13C801D3
:1038B0000197F1F760E085E20E948A13C801019741
:1038C000F1F7EBCF10922003109221031092220304
:1038D0001092230354E6E52EF12C00E010E020E0E6
:1038E00030E040E050E068EE73E080E090E00E945D
:1038F0004D04E0913804F091390482E08083E09136
:103900003404F09135041082E0913604F0913704CC
:1039100080E1808310924004E0913C04F0913D04EA
:1039200086E08083E0913A04F0913B0480818061DD
:103930008083E0913A04F0913B0480818860808329
:10394000E0913A04F0913B04808180688083E091AB
:103950003A04F0913B0480818F7D808368EE73E0B0
:1039600080E090E00E94F61382EC97E09093A3022F
:103970008093A20264EF71E080E090E00E94F61371
:1039800020E030E040E050E068EE73E080E090E05E
:103990000E944D040E94C6038091A4029091A5024A
:1039A000019709F044C22DB73EB738872F831A829A
:1039B00019821C821B821E821D8260917106709189
:1039C00072066115710541F04091750650917606B9
:1039D000CE0101960E94050BED80FE80C701880F85
:1039E000991F4DB75EB7481B590B0FB6F8945EBFD1
:1039F0000FBE4DBF8DB79EB701961C0149815A81FC
:103A0000FC0180E090E08E159F05C4F48E159F05A3
:103A100018F44115510529F41092A702A7EAB2E063
:103A200003C0DA01A80FB91F2C91022E000C330B32
:103A300020533109219331930196E5CFC12CD12C2C
:103A4000CE14DF040CF0A1C1D1012D913D911D01D7
:103A5000C90163E070E00E9484235B014DEF4603DF
:103A60008001479F100D1124020F131F8BE792E076
:103A70000E943014C8010E94A31180E892E00E94C5
:103A80003014C5010E94A31120E030E048E453E463
:103A900061E0C80102960E94900381E090E00E94DC
:103AA000AC02F501EE0FFF1FEE0FFF1FE15FFD4FB0
:103AB0002091200330912103409122035091230350
:103AC00060817181828193810E94A0230E94A81746
:103AD00020E030E0A90161E081E090E00E949003E5
:103AE00066E676E686E69FE30E94A81744EA50E77A
:103AF0006DE37EEB8EE697E00E949E0D43E353E379
:103B000063E37EE380E797E00E949E0D82E797E003
:103B10000E94910F82E797E00E94660F84E797E08A
:103B20000E94910F84E797E00E94660F82E797E07A
:103B30000E94910F90958095709561957F4F8F4F62
:103B40009F4F0E94E42129EA35E841EC51EC0E94A4
:103B5000432220E030E048E455E40E940D242B018C
:103B60003C0184E797E00E94910F0E94E42129EA3A
:103B700035E841EC51EC0E94432220E030E048E47B
:103B800055E40E940D244B015C0120E030E040E749
:103B900051E4C301B2010E94B52418163CF440E080
:103BA00050E0BA018EE697E00E949E0D20E030E0E2
:103BB00040E751E4C501B4010E94B524181644F44D
:103BC00040E050E060E070E880E797E00E949E0DE2
:103BD00020E030E040E751E4C301B2010E94DD2162
:103BE00087FDA4CF20E030E040E751E4C501B401F7
:103BF0000E94DD2187FD9ACF64EF71E080E090E0C4
:103C00000E94F6130E94100220E030E048E453E4E2
:103C100061E081E090E00E9490036AEF70E080E054
:103C200090E00E94F6138FEF9FEF0E94AC0280900D
:103C3000200390902103A0902203B090230323E35C
:103C400033E34BEA50E4C501B4010E94DD2187FF54
:103C50000AC0A501940163E373E38BEA90E40E9438
:103C6000A0230E94A817C80101960E94B01660E028
:103C700070E08AEF93E40E94DA154DEC5CEC6CEC9A
:103C80007EE38EE697E00E949E0D4DEC5CEC6CECC2
:103C90007EEB80E797E00E949E0D64E670E080E096
:103CA00090E00E94F61340E050E060E87FE38EE68B
:103CB00097E00E949E0D40E050E060E87FEB80E7D7
:103CC00097E00E949E0D68EC70E080E090E00E941A
:103CD000F61340E050E0BA018EE697E00E949E0D98
:103CE00040E050E060E070E880E797E00E949E0DC1
:103CF0006AE070E080E090E00E94F6134DEC5CEC2E
:103D00006CEC7EEB8EE697E00E949E0D4DEC5CEC39
:103D10006CEC7EE380E797E00E949E0D64E670E025
:103D200080E090E00E94F61340E050E060E87FEB16
:103D30008EE697E00E949E0D40E050E060E87FE351
:103D400080E797E00E949E0D68EC70E080E090E0D4
:103D50000E94F61340E050E0BA018EE697E00E9420
:103D60009E0D40E050E060E070E880E797E00E9440
:103D70009E0D64EF71E080E090E00E94F6130E94D7
:103D800010025FEFC51AD50A5BCE1092A502109201
:103D9000A40288ECE82EF12C00E010E020E030E0F6
:103DA00040E050E060E773E080E090E00E944D0466
:103DB00068EC70E080E090E00E94F61320E030E0D4
:103DC00040E050E064EA73E080E090E00E944D043F
:103DD00068EC70E080E090E00E94F61320E030E0B4
:103DE00040E050E06BED73E080E090E00E944D0415
:103DF00068EC70E080E090E00E94F61398EEE92E07
:103E000023E0F22E20E030E040E050E066E174E094
:103E100080E090E00E944D0489819A810E944F25A4
:103E20008F8198850FB6F8949EBF0FBE8DBF0E94FC
:103E30009709B0CD80917106909172060E944F252E
:103E400083E592E0909378068093770683E492E08E
:103E500090937B0680937A068091840690918506E4
:103E6000009711F00E944F2580917E0690917F0669
:103E7000009711F00E944F25809182069091830651
:103E8000009711F00E944F2580917C0690917D064D
:103E9000009711F00E944F25809180069091810635
:103EA000009711F00E944F2580918C0690918D060D
:103EB0000C944F25CF92DF92EF92FF920F931F93B6
:103EC000CF93DF93FC01EB01608171816650710932
:103ED000DB018D919C91DC01AE0FBF1F1A968D9175
:103EE0009C911B97892B09F484C0822FDB010D91D3
:103EF0001C91D801AE0FBF1F1C969C91891748F4E6
:103F0000DE01A80FB11DA80FB11D1D921C92840FD8
:103F1000EDCF50E08281581708F046C0322FA081C3
:103F2000B18116978D919C918E0F9F1FDC011C967D
:103F30006C913617B8F5032F10E0DC011A968D91BD
:103F40009C911B97800F911FDC018C91863308F0A8
:103F5000865390917B00682F6870977F962B909383
:103F60007B008770806480937C0080917A008064FD
:103F700080937A0080917A0086FDFCCF8091780052
:103F80006091790090E0962BD801AA0FBB1FAC0F6F
:103F9000BD1F6D917C911197860F971F8D939C93F8
:103FA000340FBDCF5F5FB6CFE080F180B6E0EB1A93
:103FB000F108D7018D919C91DC01AE0FBF1F1C96BB
:103FC0008C912817B0F48E01020F111D020F111DE4
:103FD000628170E06B01D594C794D8018D919C915A
:103FE0008C0D9D1D0E947023D8016D937C93240F2E
:103FF000E0CFDF91CF911F910F91FF90EF90DF9075
:10400000CF900895DC01ED91FC913E970190F081F5
:10401000E02D8E0F9F1F0C945A1F0F931092820356
:104020001092810388EE93E0A0E0B0E080938303D8
:1040300090938403A0938503B09386032FE132E02D
:104040003093800320937F0310928E0310928D0390
:1040500080938F0390939003A0939103B093920366
:1040600021E332E030938C0320938B0345E351E04E
:10407000509398034093970344E351E050939A037D
:104080004093990340E351E050939C0340939B037A
:1040900041E351E050939E0340939D0342E351E07E
:1040A0005093A00340939F0346E351E05093A20333
:1040B0004093A1031092A4031092A5031092A603AB
:1040C0001092A70310922B0410922A0480932C04C0
:1040D00090932D04A0932E04B0932F0430932904C1
:1040E0002093280445ED50E0509335044093340468
:1040F00044ED50E0509337044093360440ED50E0D7
:10410000509339044093380441ED50E050933B0400
:1041100040933A0442ED50E050933D0440933C04F8
:1041200046ED50E050933F0440933E04109241040A
:104130001092420410924304109244041092C80456
:104140001092C7048093C9049093CA04A093CB042F
:10415000B093CC043093C6042093C50485EC90E062
:104160009093D2048093D10484EC90E09093D40493
:104170008093D30480EC90E09093D6048093D50490
:1041800081EC90E09093D8048093D70482EC90E087
:104190009093DA048093D90486EC90E09093DC0449
:1041A0008093DB041092DE041092DF041092E0048E
:1041B0001092E10486E38093760787E38093770784
:1041C00088E38093780789E3809379078BE1809374
:1041D0007A078DE180937B078AE180937C078CE1ED
:1041E00080937D0784E080937E0787E080937F073C
:1041F0001092800784EB8093810786E18093820789
:1042000088E18093830787E18093840789E1809325
:104210008507E0917006EC3020F08FEF80938607E1
:1042200010C081E08E0F80937006E093860725E032
:10423000E29FF0011124EC5CF94F88EB9BE0928344
:104240008183E0917006EC3020F08FEF8093870738
:1042500010C081E08E0F80937006E093870785E0A1
:10426000E89FF0011124EC5CF94F88EB9BE092830E
:1042700081838CE08093550784E28093560786E023
:104280008093570785E0809358078FE18093590703
:104290008EE180935A0783E280935B0782E28093EA
:1042A0005C0785E480935D0784E480935E0780E487
:1042B0008093610710926607109267071092680753
:1042C0001092690710926A0710926B0710926C07A0
:1042D00010926D07E7E9F6E08FEF9FEFDC011282A5
:1042E00013821482158216821782108611868387A4
:1042F0009487A587B6878787908BA18BB28B128610
:1043000011821082739627E0E535F20741F78DE0C0
:1043100090E00E94BA24FC011382128283E792E0AB
:1043200091838083118687E2848384E1828784E09D
:1043300083871486F0939406E09393061092950673
:104340001092960685E2809363051092650561EAF6
:1043500072E08CE896E00E94300B10927D0610927D
:104360007C0610927F0610927E06109281061092B3
:104370008006109283061092820610928506109293
:10438000840683E592E0909378068093770685E62D
:1043900092E090937B0680937A060FEF24E048E04A
:1043A00061E072E087E796E00E94BD0A61EA72E090
:1043B00081E796E00F910C94300B0E941F2208F4C5
:1043C00081E00895E89409C097FB3EF490958095AC
:1043D000709561957F4F8F4F9F4F9923A9F0F92FCB
:1043E00096E9BB279395F695879577956795B79549
:1043F000F111F8CFFAF4BB0F11F460FF1BC06F5F2F
:104400007F4F8F4F9F4F16C0882311F096E911C040
:10441000772321F09EE8872F762F05C0662371F061
:1044200096E8862F70E060E02AF09A95660F771F75
:10443000881FDAF7880F9695879597F90895990F51
:104440000008550FAA0BE0E8FEEF16161706E8075E
:10445000F907C0F012161306E407F50798F0621B7F
:10446000730B840B950B39F40A2661F0232B242B54
:10447000252B21F408950A2609F4A140A6958FEF73
:10448000811D811D08950E9456220C94C7220E940E
:10449000B92238F00E94C02220F0952311F00C942C
:1044A000B0220C94B62211240C94FB220E94D82234
:1044B00070F3959FC1F3950F50E0551F629FF00177
:1044C000729FBB27F00DB11D639FAA27F00DB11D90
:1044D000AA1F649F6627B00DA11D661F829F222719
:1044E000B00DA11D621F739FB00DA11D621F839FA0
:1044F000A00D611D221F749F3327A00D611D231F76
:10450000849F600D211D822F762F6A2F11249F57C3
:1045100050409AF0F1F088234AF0EE0FFF1FBB1FC6
:10452000661F771F881F91505040A9F79E3F510585
:1045300080F00C94B0220C94FB225F3FE4F3983E91
:10454000D4F3869577956795B795F795E7959F5F2F
:10455000C1F7FE2B880F911D9695879597F90895C1
:1045600097F99F6780E870E060E008959FEF80EC26
:10457000089500240A9416161706180609060895C9
:1045800000240A9412161306140605060895092E2F
:104590000394000C11F4882352F0BB0F40F4BF2B9E
:1045A00011F460FF04C06F5F7F4F8F4F9F4F0895DE
:1045B00057FD9058440F551F59F05F3F71F04795D4
:1045C000880F97FB991F61F09F3F79F087950895B9
:1045D000121613061406551FF2CF4695F1DF08C0D8
:1045E000161617061806991FF1CF869571056105F5
:1045F00008940895E894BB2766277727CB0197F99D
:104600000895052E97FB1EF400940E94182357FD71
:1046100007D00E94332307FC03D04EF40C941823D8
:1046200050954095309521953F4F4F4F5F4F0895DE
:1046300090958095709561957F4F8F4F9F4F08950E
:104640000E945523A59F900DB49F900DA49F800DAF
:10465000911D11240895B7FF0C9420230E9420235C
:10466000821B930B0895A1E21A2EAA1BBB1BFD010E
:104670000DC0AA1FBB1FEE1FFF1FA217B307E40741
:10468000F50720F0A21BB30BE40BF50B661F771F99
:10469000881F991F1A9469F7609570958095909579
:1046A0009B01AC01BD01CF010895A29FB001B39F52
:1046B000C001A39F700D811D1124911DB29F700D2B
:1046C000811D1124911D0895991B79E004C0991F43
:1046D000961708F0961B881F7A95C9F7809508955C
:1046E000AA1BBB1B51E107C0AA1FBB1FA617B70718
:1046F00010F0A61BB70B881F991F5A95A9F7809534
:104700009095BC01CD01089597FB072E16F40094F7
:1047100007D077FD09D00E94702307FC05D03EF436
:10472000909581959F4F0895709561957F4F08955D
:10473000EE0FFF1F881F8BBF0790F691E02D199495
:104740005058BB27AA270E94B8230C94C7220E9466
:10475000B92238F00E94C02220F039F49F3F19F4AA
:1047600026F40C94B6220EF4E095E7FB0C94B022EC
:10477000E92F0E94D82258F3BA17620773078407FB
:10478000950720F079F4A6F50C94FA220EF4E09542
:104790000B2EBA2FA02D0B01B90190010C01CA01FB
:1047A000A0011124FF27591B99F0593F50F4503EA6
:1047B00068F11A16F040A22F232F342F4427585F98
:1047C000F3CF469537952795A795F0405395C9F7B0
:1047D0007EF41F16BA0B620B730B840BBAF0915068
:1047E000A1F0FF0FBB1F661F771F881FC2F70EC007
:1047F000BA0F621F731F841F48F4879577956795DA
:10480000B795F7959E3F08F0B0CF9395880F08F0C5
:104810009927EE0F9795879508950E9421240C946F
:10482000C7220E94C02258F00E94B92240F029F409
:104830005F3F29F00C94B02251110C94FB220C9490
:10484000B6220E94D82268F39923B1F3552391F33D
:10485000951B550BBB27AA2762177307840738F0EF
:104860009F5F5F4F220F331F441FAA1FA9F335D04C
:104870000E2E3AF0E0E832D091505040E695001C00
:10488000CAF72BD0FE2F29D0660F771F881FBB1FBA
:10489000261737074807AB07B0E809F0BB0B802D98
:1048A000BF01FF2793585F4F3AF09E3F510578F0C4
:1048B0000C94B0220C94FB225F3FE4F3983ED4F3B7
:1048C000869577956795B795F7959F5FC9F7880F98
:1048D000911D9695879597F90895E1E0660F771FEA
:1048E000881FBB1F621773078407BA0720F0621B7B
:1048F000730B840BBA0BEE1F88F7E09508950E94A6
:1049000086246894B1110C94FB2208950E94E02241
:1049100088F09F5798F0B92F9927B751B0F0E1F080
:10492000660F771F881F991F1AF0BA95C9F714C030
:10493000B13091F00E94FA22B1E008950C94FA226D
:10494000672F782F8827B85F39F0B93FCCF3869569
:1049500077956795B395D9F73EF4909580957095C6
:1049600061957F4F8F4F9F4F08950E941F2208F43B
:104970008FEF0895CF93DF938230910510F482E09A
:1049800090E0E0919B07F0919C0720E030E0C0E0D0
:10499000D0E0309711F14081518148175907C0F09C
:1049A0004817590761F482819381209719F09B83FE
:1049B0008A832BC090939C0780939B0726C0211568
:1049C000310519F04217530718F49A01BE01DF01AF
:1049D000EF010280F381E02DDCCF2115310509F1D3
:1049E000281B390B2430310590F412968D919C913F
:1049F00013976115710521F0FB019383828304C035
:104A000090939C0780939B07FD01329644C0FD0163
:104A1000E20FF31F81939193225031092D933C9320
:104A20003AC02091990730919A07232B41F42091A5
:104A30000B0230910C0230939A0720939907209132
:104A4000090230910A022115310541F42DB73EB714
:104A500040910D0250910E02241B350BE0919907F5
:104A6000F0919A07E217F307A0F42E1B3F0B2817CB
:104A7000390778F0AC014E5F5F4F2417350748F0D7
:104A80004E0F5F1F50939A0740939907819391931C
:104A900002C0E0E0F0E0CF01DF91CF9108950F93E5
:104AA0001F93CF93DF93009709F48CC0FC013297DA
:104AB0001382128200919B0710919C07011511052A
:104AC00081F420813181820F931F209199073091C9
:104AD0009A072817390779F5F0939A07E093990711
:104AE00071C0D80140E050E0AE17BF0750F41296F5
:104AF0002D913C911397AD012115310509F1D90193
:104B0000F3CF9D01DA013383228360817181860FA7
:104B1000971F8217930769F4EC0128813981260FCA
:104B2000371F2E5F3F4F318320838A819B81938380
:104B30008283452B29F4F0939C07E0939B0742C0A6
:104B40001396FC93EE931297ED01499159919E01B2
:104B5000240F351FE217F30771F480819181840FD0
:104B6000951F029611969C938E9382819381139642
:104B70009C938E931297E0E0F0E0D80112968D910D
:104B80009C911397009719F0F8018C01F6CF8D9145
:104B90009C9198012E5F3F4F820F931F20919907A0
:104BA00030919A072817390769F4309729F4109241
:104BB0009C0710929B0702C01382128210939A07DF
:104BC00000939907DF91CF911F910F9108956F92F4
:104BD0007F928F929F92AF92BF92CF92DF92EF928D
:104BE000FF920F931F93CF93DF93EC01009789F40B
:104BF000CB01DF91CF911F910F91FF90EF90DF904C
:104C0000CF90BF90AF909F908F907F906F900C94BB
:104C1000BA24FC01E60FF71F9C0122503109E2176C
:104C2000F30708F4ACC0D9010D911C911197061738
:104C30001707B0F00530110508F49FC0C8010497AC
:104C40008617970708F499C002501109061B170B25
:104C5000019311936D937C93CF010E944F258DC0DA
:104C60005B01A01AB10A4C01800E911EA0919B0716
:104C7000B0919C0740E050E0E12CF12C109709F432
:104C80004AC0A815B905D1F56D907C9011976301C4
:104C900082E0C80ED11CCA14DB0480F1A3014A19BA
:104CA0005B096A0182E0C80ED11C1296BC90129773
:104CB0001396AC91B5E0CB16D10440F0B282A38339
:104CC00051834083D9016D937C930AC00E5F1F4FBF
:104CD000C301800F911FF90191838083EB2DFA2F7F
:104CE000E114F10431F0D7011396FC93EE9312977F
:104CF00044C0F0939C07E0939B073FC08D919C912B
:104D000011974817590708F4AC017D0112960D90D0
:104D1000BC91A02DB3CF8091990790919A078815E7
:104D20009905E1F446175707C8F48091090290915C
:104D30000A02009741F48DB79EB740910D02509141
:104D40000E02841B950BE817F907C8F4F0939A0735
:104D5000E0939907F901718360830FC0CB010E9432
:104D6000BA247C01009759F0A801BE010E94D52603
:104D7000CE010E944F25C70104C0CE0102C080E0D1
:104D800090E0DF91CF911F910F91FF90EF90DF9016
:104D9000CF90BF90AF909F908F907F906F9008952D
:104DA00081E090E0F8940C94E526FB01DC0102C060
:104DB00001900D9241505040D8F70895FB01DC015D
:104DC00001900D920020E1F7089511E0C4EAD1E0CE
:104DD00000E006C0802FFE010E9498232196011D4D
:0E4DE000C53AD10780E00807A9F7F894FFCF85
:104DEE00FF000102030405060700009D07200000D6
:104DFE000000003333AB4033332B4100000000A6DC
:104E0E00107610D90150106E105F10511000000076
:104E1E00002E096E08B2087509E308C108D508000E
:104E2E00000000C4095B0A460A700A440A03000027
:104E3E00000000BD0A5A1FFDFF0000000000000028
:104E4E0000FDFF0000C4095B0A460A700A0220003A
:104E5E00000000EB016E08D901D80178203D20003A
:104E6E0079203D2000594F206A27616920726563C1
:104E7E007520756E204D4553534147453A20000D20
:024E8E000A0018
:00000001FF
