:100000000C945D010C948E010C948E010C948E0165
:100010000C948E010C948E010C948E010C948E0124
:100020000C948E010C9409050C9409050C94090597
:100030000C948E010C94BF060C948E010C948E01CE
:100040000C948E010C9418090C948E010C948E0162
:100050000C948E010C948E010C948E010C947506F8
:100060000C948E010C9430080C9406080C948E01AC
:100070000C948E010C948E010C948E010C948E01C4
:100080000C948E010C948E010C948E010C948E01B4
:100090000C948E010C948E010C948E010C9413051B
:1000A0000C948E010C948E010C948E010C948E0194
:1000B0000C948E010C948E010C948E010C945A08B1
:1000C0000C948E010C948E010C948E010C94DC0720
:1000D0000C94B2070C948E010C9488070C945E0764
:1000E0000C948E014A024D023C02400246028402F8
:1000F000510255025B025F02630269026D027102E6
:10010000840277027B027F020C945F020C947203DC
:100110000C94C2010C94C9010C9403050C944D027B
:100120000C944F030C94C6010C9455020C94770266
:100130000C9471020C947F020C945B020C940B03E0
:100140000C9463020C9400020C9440020C9404057D
:100150000C94DE040C943C020C9484020C944A022D
:100160000C9451020C9469020C9446020C947B028C
:100170000C94330D0C9480030C946D020C94390D87
:100180000C94CB030C94C3010C94D0010C94120476
:100190000C945E0302000020002300260029002C9E
:1001A000002F0032000001000003010601090100D8
:1001B000000A0B02090C0D0E0807030401000000E1
:1001C000000000000000000000000000000000002F
:1001D00000000000000000000000001211100000EC
:1001E000000000000000000000000000000000000F
:1001F000000000000000002200250028002B002E37
:10020000003100340002010000050108010B01006B
:10021000002100240027002A002D003000330001B7
:10022000010000040107010A01050505050705088D
:10023000080808020202020A0A0808040404040169
:10024000010101010101010303030303030303048B
:100250000707070C0C0C0C0C0C0C0C02020202061B
:10026000060606060606060B0B0B0B0B0B0B0B010B
:1002700002102020080810204010204080020102B7
:10028000010804020101020408102040808040207F
:1002900010080402018004020180402010080402BA
:1002A0000108040201010204081020408001020438
:1002B000081020408000390D330D11241FBECFEFF0
:1002C000D1E2DEBFCDBF00E00CBF12E0A0E0B2E0A3
:1002D000ECE7F7E200E00BBF02C007900D92AA3BEB
:1002E000B107D9F727E0AAEBB2E001C01D92A13710
:1002F000B207E1F711E0CCE5D1E000E006C02197BC
:100300000109802FFE010E945A10CB35D10780E0F1
:100310000807A9F70E945C0C0C94AC130C94000025
:1003200085ED8093BC008091BC0084FDFCCF1092D1
:100330004D03089540912703262F30E0240F311DEF
:1003400021323105DCF420914D032430C9F4FC0145
:1003500080E090E0861758F4309127032191DC016A
:10036000AB5FBC4FA30FB11D2C930196F3CF8091CF
:100370002703680F6093270380E0089581E00895C4
:1003800082E0089508958FEF9FEF08958FEF9FEF1C
:1003900008958091040390E09195819591090895C5
:1003A000CF92DF92EF92FF920F931F93CF93DF9341
:1003B0007C01262F972F8A0180910303882391F0D7
:1003C000C62FD72F6E01C40ED51ECC15DD0571F0DA
:1003D0006991D701ED91FC910190F081E02DC70169
:1003E0001995F3CF642F822F0E949A01C801DF91E3
:1003F000CF911F910F91FF90EF90DF90CF900895D4
:10040000CF93DF931F92CDB7DEB7698320910303AB
:100410002223D1F020910203203240F021E030E08D
:10042000FC013383228380E090E015C080910103BA
:10043000E82FF0E0EF51FD4F998190838F5F80931B
:1004400001038093020305C061E0CE0101960E9482
:100450009A0181E090E00F90DF91CF91089590E0B4
:10046000FC013197E231F10508F04EC08827EE58C3
:10047000FF4F8F4F0C945A10809180008F7703C0EC
:10048000809180008F7D809380000895809180000E
:10049000877FF9CF84B58F7702C084B58F7D84BD07
:1004A00008958091B0008F7703C08091B0008F7D58
:1004B0008093B0000895809190008F7707C080915D
:1004C00090008F7D03C080919000877F8093900083
:1004D00008958091A0008F7707C08091A0008F7D44
:1004E00003C08091A000877F8093A0000895809131
:1004F00020018F7707C0809120018F7D03C08091FC
:100500002001877F809320010895CF93DF93282FC8
:1005100030E0F901E155FE4F8491F901E159FD4FB9
:10052000D491F901E75DFD4FC491CC2391F0811185
:100530000E942F02EC2FF0E0EE0FFF1FEB56FE4F54
:10054000A591B491EC91ED2381E090E021F480E05D
:1005500002C080E090E0DF91CF9108953FB7F8941A
:100560008091DD029091DE02A091DF02B091E00265
:1005700026B5A89B05C02F3F19F00196A11DB11DFE
:100580003FBFBA2FA92F982F8827820F911DA11D39
:10059000B11DBC01CD0142E0660F771F881F991F76
:1005A0004A95D1F708958F929F92AF92BF92CF92C2
:1005B000DF92EF92FF920E94AE024B015C0188EE47
:1005C000C82E83E0D82EE12CF12C0E94AE02DC0173
:1005D000CB0188199909AA09BB09883E9340A10556
:1005E000B10558F021E0C21AD108E108F10888EEFF
:1005F000880E83E0981EA11CB11CC114D104E10433
:10060000F10419F7FF90EF90DF90CF90BF90AF907B
:100610009F908F900895CF92DF92EF92FF920F9369
:100620001F93CF93DF936C017A018B01C0E0D0E080
:10063000CE15DF0589F0D8016D918D01D601ED91C0
:10064000FC910190F081E02DC6011995892B11F4E0
:100650007E0102C02196ECCFC701DF91CF911F919F
:100660000F91FF90EF90DF90CF900895FC01A0894B
:10067000B1898C91A689B78982FD0FC09C91818D2B
:100680008F5F8F73228D821749F0218DDF01A20FBA
:10069000B11D5D969C93818F08958C910895FC0106
:1006A000538D448D252F30E0842F90E0821B930BD7
:1006B000541710F0CF96089501970895FC01918D7D
:1006C000828D981761F0828DDF01A80FB11D5D96B4
:1006D0008C91928D9F5F9F73928F90E008958FEF22
:1006E0009FEF0895FC01918D828D981731F0828DD6
:1006F000E80FF11D858D90E008958FEF9FEF08952D
:10070000FC01918D228D892F90E0805C9F4F821B90
:1007100091098F739927089587E893E00E948003D9
:1007200021E0892B09F420E0822F089584E294E0EF
:100730000E94800321E0892B09F420E0822F089594
:1007400081EC94E00E94800321E0892B09F420E0F1
:10075000822F0895FC01848DDF01A80FB11DA35ADB
:10076000BF4F2C91848D90E001968F739927848FD1
:10077000A689B7892C93A089B1898C9180648C93C8
:10078000938D848D981306C00288F389E02D8081B3
:100790008F7D80830895EF92FF920F931F93CF93E5
:1007A000DF93EC0181E0888F9B8D8C8D981305C0C1
:1007B000E889F989808185FD24C0F62E0B8D10E033
:1007C0000F5F1F4F0F731127E02E8C8DE8120CC0A6
:1007D0000FB607FCFACFE889F989808185FFF5CF4C
:1007E000CE010E94AA03F1CF8B8DFE01E80FF11D0F
:1007F000E35AFF4FF0820B8FEA89FB898081806288
:1008000007C0EE89FF896083E889F9898081806467
:10081000808381E090E0DF91CF911F910F91FF9055
:10082000EF900895CF93DF93EC01888D8823C9F072
:10083000EA89FB89808185FD05C0A889B9898C91E9
:1008400086FD0FC00FB607FCF5CF808185FFF2CF84
:10085000A889B9898C9185FFEDCFCE010E94AA03AA
:10086000E7CFDF91CF910895E0E0F0E0199480E0C8
:1008700090E0892B21F00E94A003811119C080E033
:1008800090E0892B41F080E090E0892B21F00E94DC
:100890000000811110C00E94960381110FC080E0FA
:1008A00090E0892B81F00E948C0381110AC0089589
:1008B0000E940000E4CF0E940000EDCF0E943404AB
:1008C000EECF0C9400000895CF93FC01C48121E089
:1008D00020930303C093D3021092010310920203EA
:1008E0008485682B8BE793E00E94000280910203CD
:1008F000813208F046C090914D039111FCCF92E0F7
:1009000090934D0391E090934F039FEF90934C038E
:100910001092710380937003A1EEB2E020E533E002
:10092000F9019E2F921B981718F49D919193F9CF7E
:100930001092720380917203CC0FC82BC093720384
:1009400080914E03813061F410924E0380917203C6
:100950008093BB008091BC0083FDF8CF85EC01C083
:1009600085EE8093BC0080914D038230E1F380914D
:100970004C038F3F31F080914C03803211F0809115
:100980004C03109201031092020310920303CF91C3
:1009900008950F931F93CF938C01C62F64600E941C
:1009A00064046C2F6B7FC8010E94640483EC90E0A8
:1009B0000197F1F7CF911F910F9108950F931F9316
:1009C000CF93DF938C01C62FD62FD07FD1606D2FB0
:1009D0000E9464046D2FC8010E94C90480E1C89F71
:1009E000B0011124C62FC1606C2FC8010E9464049D
:1009F0006C2FC8010E94C90481E090E0DF91CF9183
:100A00001F910F910895089580E090E008950E944D
:100A100097131F920F920FB60F9211240F900FBED3
:100A20000F901F9018951F920F920FB60F921124DE
:100A30000BB60F922F933F934F935F936F937F93D8
:100A40008F939F93AF93BF93EF93FF938091B900E0
:100A5000887F803609F49CC068F5883209F45BC051
:100A600090F4803109F454C038F4882309F4F6C0B6
:100A7000883009F44DC0F6C0883109F44CC080328A
:100A800009F45DC0EFC0803409F468C048F48033D5
:100A900009F455C0883309F0E5C080934C03D8C0F1
:100AA000803509F44FC0883509F45DC0883409F0F9
:100AB000D9C0D6C0883909F4C7C0A8F4883709F46A
:100AC00067C038F4883609F463C0803709F460C021
:100AD000C9C0883809F4B8C0803909F45FC08038CB
:100AE00009F0C0C05BC0803B09F486C038F4803A8E
:100AF00009F466C0883A09F47FC0B4C0803C09F4A8
:100B0000A7C0883C09F4A4C0883B09F48AC0AAC0E5
:100B10008091720310C090917103809170039817B7
:100B200070F5E091710381E08E0F80937103F0E026
:100B3000E05BFC4F80818093BB0085EC86C0809396
:100B40004C038EC0E091710381E08E0F809371039E
:100B50008091BB00F0E0E05BFC4F808390917103DB
:100B6000809170036EC0E091710381E08E0F8093DD
:100B700071038091BB00F0E0E05BFC4F80838091CB
:100B80004F0381116DC081E080934E0384EA61C000
:100B900083E080934D0310924B03CFCF80914B03A2
:100BA000803208F051C0E0914B0381E08E0F8093BA
:100BB0004B038091BB00F0E0E55DFC4F8083BDCF2F
:100BC00085EC8093BC0010924D0380914B038032E2
:100BD00030F4E0914B03F0E0E55DFC4F1082609152
:100BE0004B0370E0E0912903F0912A038BE293E03C
:100BF000199510924B0336C084E080934D031092F8
:100C0000280310922703E0912503F09126031995FC
:100C100080912703811105C081E080932703109202
:100C20000503E091280381E08E0F80932803F0E014
:100C3000EB5FFC4F80818093BB00909128038091F3
:100C40002703981708F479CF85E88093BC000AC081
:100C500085EC8093BC0010924D0304C010924C03AD
:100C60000E949001FF91EF91BF91AF919F918F9161
:100C70007F916F915F914F913F912F910F900BBE9C
:100C80000F900FBE0F901F9018951F93CF93DF9377
:100C9000282F30E0F901E155FE4F8491F901E15927
:100CA000FD4FD491F901E75DFD4FC491CC23C9F00C
:100CB000162F81110E942F02EC2FF0E0EE0FFF1F84
:100CC000EB50FE4FA591B4918FB7F894111105C068
:100CD0009C91ED2FE095E92302C0EC91ED2BEC9374
:100CE0008FBFDF91CF911F9108951F920F920FB682
:100CF0000F9211242F933F938F939F93AF93BF93A2
:100D00008091750390917603A0917703B091780359
:100D10003091DC0223E0230F2D3720F40196A11D32
:100D2000B11D05C026E8230F0296A11DB11D209319
:100D3000DC028093750390937603A0937703B093BE
:100D400078038091DD029091DE02A091DF02B091E4
:100D5000E0020196A11DB11D8093DD029093DE0299
:100D6000A093DF02B093E002BF91AF919F918F916A
:100D70003F912F910F900FBE0F901F9018951F92CB
:100D80000F920FB60F9211240BB60F922F933F9331
:100D90004F935F936F937F938F939F93AF93BF9383
:100DA000EF93FF938091D8029091D902A091DA023B
:100DB000B091DB02892B8A2B8B2B59F18091D702C2
:100DC000E091D502F091D6029081892780838091AD
:100DD000D8029091D902A091DA02B091DB021816E4
:100DE00019061A061B060CF056C08091D802909185
:100DF000D902A091DA02B091DB020197A109B109F1
:100E00008093D8029093D902A093DA02B093DB02C8
:100E100042C080910002E4E9F1E0E4919FEF9093F9
:100E20000002E230C9F050F4EE2399F0E13081F590
:100E300090916F009D7F90936F002AC0E43019F16C
:100E4000E0F0E53029F5909173009D7F9093730059
:100E50001FC010926E001CC0909170009D7F9093F7
:100E6000700091E09093B0009091B100987F9460F1
:100E70009093B1001092B3000BC0909171009D7FD0
:100E80009093710005C0909172009D7F90937200C5
:100E900060E00E944506FF91EF91BF91AF919F9155
:100EA0008F917F916F915F914F913F912F910F9013
:100EB0000BBE0F900FBE0F901F9018951F920F92B0
:100EC0000FB60F9211240BB60F922F933F934F93AF
:100ED0005F936F937F938F939F93AF93BF93EF93A2
:100EE000FF9387E893E00E94AA03FF91EF91BF91DF
:100EF000AF919F918F917F916F915F914F913F91B2
:100F00002F910F900BBE0F900FBE0F901F90189552
:100F10001F920F920FB60F9211240BB60F922F93C0
:100F20003F934F935F936F937F938F939F93AF9371
:100F3000BF93EF93FF9387E893E00E943603FF91FE
:100F4000EF91BF91AF919F918F917F916F915F9141
:100F50004F913F912F910F900BBE0F900FBE0F90AE
:100F60001F9018951F920F920FB60F9211240BB677
:100F70000F922F933F934F935F936F937F938F9332
:100F80009F93AF93BF93EF93FF9384E294E00E940B
:100F9000AA03FF91EF91BF91AF919F918F917F91A4
:100FA0006F915F914F913F912F910F900BBE0F90DA
:100FB0000FBE0F901F9018951F920F920FB60F92B1
:100FC00011240BB60F922F933F934F935F936F9320
:100FD0007F938F939F93AF93BF93EF93FF9384E29D
:100FE00094E00E943603FF91EF91BF91AF919F91E2
:100FF0008F917F916F915F914F913F912F910F90C2
:101000000BBE0F900FBE0F901F9018951F920F925E
:101010000FB60F9211240BB60F922F933F934F935D
:101020005F936F937F938F939F93AF93BF93EF9350
:10103000FF9381EC94E00E94AA03FF91EF91BF918E
:10104000AF919F918F917F916F915F914F913F9160
:101050002F910F900BBE0F900FBE0F901F90189501
:101060001F920F920FB60F9211240BB60F922F936F
:101070003F934F935F936F937F938F939F93AF9320
:10108000BF93EF93FF9381EC94E00E943603FF91AE
:10109000EF91BF91AF919F918F917F916F915F91F0
:1010A0004F913F912F910F900BBE0F900FBE0F905D
:1010B0001F9018951F920F920FB60F9211240BB626
:1010C0000F922F933F934F935F936F937F938F93E1
:1010D0009F93AF93BF93EF93FF9380915F050E941F
:1010E000850220916305309164052F5F3F4F309357
:1010F00064052093630590916205953618F096E09B
:1011000090935E0590915E059430C9F128F4923079
:1011100069F09330D1F05EC0953009F451C096303B
:1011200009F058C091E090932F0651C0811152C030
:1011300020916305309164052436310508F442C0DE
:1011400010922F06109262051CC0813009F042C037
:10115000E091620591E09E0F90936205F0E020918E
:10116000630530916405EE0FFF1FE25AFA4F308796
:101170002783109264051092630594E029C08111C1
:1011800017C0E091620591E09E0F90936205F0E038
:101190002091630530916405EE0FFF1FE25AFA4F6C
:1011A00030872783109264051092630593E010C086
:1011B00020916305309164052536310558F007C04C
:1011C000811108C0109264051092630503C095E078
:1011D00090935E05909161059923B9F081110AC041
:1011E00080916005882321F08091600561E009C04D
:1011F0002F9A0BC080916005882331F080916005A3
:1012000060E00E94450601C02F98FF91EF91BF91C9
:10121000AF919F918F917F916F915F914F913F918E
:101220002F910F900BBE0F900FBE0F901F9018952F
:101230001F920F920FB60F9211240BB60F922F939D
:101240003F934F935F936F937F938F939F93AF934E
:10125000BF93EF93FF938091D40287FF05C0109254
:1012600085001092840016C02091D402022E000C3A
:10127000330B80916C0690E0281739075CF43091AD
:10128000D40225E03203F0011124E05DF94F8081A2
:1012900086FD15C08091D4028F5F8093D402209187
:1012A000D402022E000C330B80916C0690E02817BC
:1012B000390794F48091D4028C302CF10DC0309118
:1012C000D4023203F0011124E05DF94F808160E027
:1012D0008F730E944506DECF809184009091850037
:1012E00084349C4918F480E49CE905C08091840012
:1012F00090918500049690938900809388008FEFE9
:101300008093D4022AC0409184005091850030918E
:10131000D40225E03203F0011124E05DF94F818110
:101320009281840F951F909389008093880030915B
:10133000D4023203F0011124E05DF94F808186FF71
:101340000CC03091D4023203F0011124E05DF94F5A
:10135000808161E08F730E944506FF91EF91BF91FC
:10136000AF919F918F917F916F915F914F913F913D
:101370002F910F900BBE0F900FBE0F901F901895DE
:10138000E091C104F091C2040190F081E02D682F3A
:1013900081EC94E01994009769F0FC010190002021
:1013A000E9F73197AF01481B590BBC0181EC94E080
:1013B0000C940B0380E090E00895CF93DF930E949C
:1013C000CB09EC018DE392E00E94CB098C0F9D1FAD
:1013D000DF91CF9108958F929F92AF92BF920F931A
:1013E0001F93CF93DF93CDB7DEB7A1970FB6F894D5
:1013F000DEBF0FBECDBF19A2423008F44AE08E0115
:101400000F5D1F4F842E912CA12CB12CA5019401AE
:101410000E943810E62FB901CA0101501109EA30C3
:1014200014F4E05D01C0E95CD801EC93232B242B7C
:10143000252B61F7C8010E94CB09A1960FB6F8943D
:10144000DEBF0FBECDBFDF91CF911F910F91BF9037
:10145000AF909F908F9008954F925F926F927F927E
:101460008F929F92AF92BF92CF92DF92EF92FF92B4
:101470006B017C019B01AC010E947C11882319F057
:1014800080E492E01AC046015701E894B7F82FEFC4
:101490003FEF4FE75FE7C501B4010E947C11811166
:1014A00010C02FEF3FEF4FE75FE7C501B4010E9487
:1014B000140F181634F484E492E00E94CB097C01E6
:1014C0007FC02FEF3FEF4FE75FE4C701B6010E94F7
:1014D000771118161CF488E492E0EFCF2FEF3FEF5E
:1014E0004FE75FECC701B6010E94140F87FDF3CFF1
:1014F00020E030E0A901C701B6010E94140F87FF68
:1015000009C08DE20E94C0095C01F7FAF094F7F877
:10151000F09402C0A12CB12C2AE037ED43EA5BE342
:10152000C701B6010E9463102B013C010E944811C3
:101530006B017C010E94190F9B01AC01C301B20138
:101540000E9462102B013C014AE0C701B6010E94D3
:10155000EB097C01EA0CFB1C8EE20E94C009E80E3C
:10156000F91E20E030E040E251E4C301B2010E94E4
:101570007A0F2B013C010E9448114B01A12CB12C88
:101580004AE0C501B4010E94EB09E80EF91EC5014D
:10159000B4010E94190F9B01AC01C301B2010E946A
:1015A000621020E030E040E251E40E947A0F0E9495
:1015B000481180E090E04AE00E94EB09E80EF91E35
:1015C0008DE392E00E94CB098E0D9F1DFF90EF905E
:1015D000DF90CF90BF90AF909F908F907F906F9053
:1015E0005F904F900895CF92DF92EF92FF92CF934A
:1015F000DF936C01990FEE08FF08F7FE12C08DE231
:101600000E94C009EC0166277727CB016C197D0980
:101610008E099F094AE00E94EB097C01EC0EFD1E39
:1016200006C04AE0C701B6010E94EB097C018DE3C8
:1016300092E00E94CB098E0D9F1DDF91CF91FF900C
:10164000EF90DF90CF9008954F925F926F927F92CC
:101650008F929F92AF92BF92CF92DF92EF92FF92C2
:101660000F931F93CF93DF93EC018CE492E00E94E1
:10167000CB09CE010E94F30ADE01AA0FBB1FA95FAE
:10168000BD4FE0917903F0917A03EE0FFF1FE95F00
:10169000FD4F6D917C9180819181681B790B072EA4
:1016A000000C880B990B0E941B0F6B017C018FB7FC
:1016B000F894409075035090760360907703709093
:1016C00078038FBF20E030E046E155E4C701B60162
:1016D0000E947A0F0E9441118B0177FF04C00027FE
:1016E0001127061B170B20E030E0A901C701B60146
:1016F0000E94771187FD07C061E087E20E944506DE
:1017000089E592E006C060E087E20E94450683E634
:1017100092E00E94DD098FE692E00E94CB0960E032
:1017200070E080E89FE30E942C0A8AE792E00E9422
:10173000CB09C701B6010E942C0A81EA92E00E94FF
:10174000DD09A12CB12C8BEE882E8AE0982EA016F4
:10175000B10691F061E085E20E944506C40101975F
:10176000F1F760E085E20E944506C4010197F1F7B8
:101770008FEFA81AB80AEBCF2FB7F89480917503B2
:1017800090917603A0917703B09178032FBFBC01AD
:10179000CD0164197509860997090E94190F20E087
:1017A00030E04AE754E40E94CF104B015C0186E828
:1017B00092E00E94CB09C501B4010E942C0A8FE877
:1017C00092E00E94CB09A7019601C501B4010E94D5
:1017D000CF100E9441119B0177FF04C022273327BD
:1017E000261B370BC9010E94F30A83EA92E00E948C
:1017F000CB0920E030E040E451E4C701B6010E948B
:101800007A0FA50194010E94CF1020E030E040E75C
:1018100052E40E947A0F0E9441119B0177FF04C09D
:1018200022273327261B370BC9010E94F30A81EABE
:1018300092E00E94DD09D0937A03C09379038AEA8B
:1018400092E00E94CB098091790390917A030E94E3
:10185000F30A81EA92E0DF91CF911F910F91FF90FF
:10186000EF90DF90CF90BF90AF909F908F907F9040
:101870006F905F904F900C94DD0990E0FC01E1596E
:10188000FD4F2491FC01E75DFD4F8491882399F081
:1018900090E0880F991FFC01E15FFD4FA591B49185
:1018A000FC01EB50FE4F859194918FB7F894EC9129
:1018B000E22BEC938FBF0895789484B5826084BD49
:1018C00084B5816084BD85B5826085BD85B5816044
:1018D00085BD80916E00816080936E0010928100C2
:1018E000809181008260809381008091810081607D
:1018F000809381008091800081608093800080913E
:10190000B10084608093B1008091B00081608093C9
:10191000B00080919100826080939100809191004D
:10192000816080939100809190008160809390000D
:101930008091A10082608093A1008091A1008160CC
:101940008093A1008091A00081608093A00080918D
:101950002101826080932101809121018160809327
:1019600021018091200181608093200180917A0083
:10197000846080937A0080917A00826080937A00FC
:1019800080917A00816080937A0080917A008068EB
:1019900080937A001092C100E091D104F091D204BA
:1019A00082E08083E091CD04F091CE041082E0913A
:1019B000CF04F091D0048FEC80831092D904E09191
:1019C000D504F091D60486E08083E091D304F091B1
:1019D000D404808180618083E091D304F091D404A9
:1019E000808188608083E091D304F091D404808169
:1019F00080688083E091D304F091D40480818F7D4E
:101A0000808387E20E943D0C85E20E943D0C60E0ED
:101A100087E20E944506CBEEDAE080915D070E94E6
:101A20008502892B79F461E085E20E944506CE01AA
:101A30000197F1F760E085E20E944506CE0101972B
:101A4000F1F7EBCF10927A031092790381E090E0E6
:101A50000E94240B0E94D30280E090E00E94240B9D
:101A60000E94D302F3CF80916D0690916E060C9484
:101A7000161210927E0310927D0388EE93E0A0E090
:101A8000B0E080937F0390938003A0938103B09391
:101A9000820321E132E030937C0320937B03109298
:101AA0008A031092890380938B0390938C03A093F5
:101AB0008D03B0938E0323E232E0309388032093AA
:101AC000870345E351E0509394034093930344E329
:101AD00051E0509396034093950340E351E05093B7
:101AE00098034093970341E351E050939A03409346
:101AF000990342E351E050939C0340939B0346E3D8
:101B000051E050939E0340939D031092A0031092C6
:101B1000A1031092A2031092A30310922704109223
:101B200026048093280490932904A0932A04B09358
:101B30002B04309325042093240445ED50E050936A
:101B400031044093300444ED50E05093330440930B
:101B5000320440ED50E0509335044093340441ED9D
:101B600050E0509337044093360442ED50E05093D8
:101B700039044093380446ED50E050933B044093C1
:101B80003A0410923D0410923E0410923F041092C9
:101B900040041092C4041092C3048093C50490932F
:101BA000C604A093C704B093C8043093C204209322
:101BB000C10485EC90E09093CE048093CD0484EC36
:101BC00090E09093D0048093CF0480EC90E09093C9
:101BD000D2048093D10481EC90E09093D40480935C
:101BE000D30482EC90E09093D6048093D50486ECE5
:101BF00090E09093D8048093D7041092DA04109266
:101C0000DB041092DC041092DD0486E38093570716
:101C100087E38093580788E38093590789E380938B
:101C20005A078BE180935B078DE180935C078AE123
:101C300080935D078CE180935E0784E080935F076B
:101C400087E0809360071092610784EB80936207BE
:101C500086E18093630788E18093640787E180933E
:101C6000650789E180936607E0916C06EC3020F00F
:101C70008FEF8093670710C081E08E0F80936C0612
:101C8000E093670725E0E29FF0011124E05DF94F42
:101C900088EB9BE092838183E0916C06EC3020F02E
:101CA0008FEF8093680710C081E08E0F80936C06E1
:101CB000E093680785E0E89FF0011124E05DF94FAB
:101CC00088EB9BE0928381838CE08093360784E2EB
:101CD0008093370786E08093380785E08093390743
:101CE0008FE180933A078EE180933B0783E28093F4
:101CF0003C0782E280933D0785E480933E0784E4BD
:101D000080933F0780E48093420710924707109228
:101D100048071092490710924A0710924B071092F9
:101D20004C0710924D0710924E07E8E7F6E08FEF50
:101D30009FEFDC01128213821482158216821782B1
:101D40001086118683879487A587B6878787908BAF
:101D5000A18BB28B128611821082739627E0E63334
:101D6000F20741F78DE090E00E948111FC0113829F
:101D7000128285E392E091838083118687E28483D7
:101D800084E1828784E083871486F0937506E0936C
:101D90007406109276061092770685E280935F05AE
:101DA0001092610510926E0610926D0610927006E8
:101DB00010926F06109272061092710661E070E048
:101DC00080E090E00E94AE12009789F090936E063A
:101DD00080936D061092700610926F062091710626
:101DE00030917206232BC1F4FC01108215C0809142
:101DF0006D0690916E06009711F00E9416121092D7
:101E00006E0610926D061092720610927106109274
:101E1000700610926F060895109272061092710665
:101E20006FE372E00C94A5130E94560F08F481E052
:101E30000895E89409C097FB3EF4909580957095BD
:101E400061957F4F8F4F9F4F9923A9F0F92F96E906
:101E5000BB279395F695879577956795B795F1117B
:101E6000F8CFFAF4BB0F11F460FF1BC06F5F7F4F18
:101E70008F4F9F4F16C0882311F096E911C077232A
:101E800021F09EE8872F762F05C0662371F096E833
:101E9000862F70E060E02AF09A95660F771F881F02
:101EA000DAF7880F9695879597F90895990F0008A6
:101EB000550FAA0BE0E8FEEF16161706E807F9071C
:101EC000C0F012161306E407F50798F0621B730BB7
:101ED000840B950B39F40A2661F0232B242B252B38
:101EE00021F408950A2609F4A140A6958FEF811DDB
:101EF000811D08950E948D0F0C94FE0F0E94F00F1B
:101F000038F00E94F70F20F0952311F00C94E70FA2
:101F10000C94ED0F11240C9432100E940F1070F3EA
:101F2000959FC1F3950F50E0551F629FF001729F7E
:101F3000BB27F00DB11D639FAA27F00DB11DAA1F8D
:101F4000649F6627B00DA11D661F829F2227B00DDA
:101F5000A11D621F739FB00DA11D621F839FA00D65
:101F6000611D221F749F3327A00D611D231F849FB5
:101F7000600D211D822F762F6A2F11249F5750400C
:101F80009AF0F1F088234AF0EE0FFF1FBB1F661F87
:101F9000771F881F91505040A9F79E3F510580F050
:101FA0000C94E70F0C9432105F3FE4F3983ED4F3A7
:101FB000869577956795B795F795E7959F5FC1F7F4
:101FC000FE2B880F911D9695879597F9089597F99F
:101FD0009F6780E870E060E008959FEF80EC0895CF
:101FE00000240A94161617061806090608950024F8
:101FF0000A9412161306140605060895092E039472
:10200000000C11F4882352F0BB0F40F4BF2B11F4E5
:1020100060FF04C06F5F7F4F8F4F9F4F089557FD44
:102020009058440F551F59F05F3F71F04795880F46
:1020300097FB991F61F09F3F79F0879508951216DD
:1020400013061406551FF2CF4695F1DF08C0161689
:1020500017061806991FF1CF86957105610508943A
:102060000895E894BB2766277727CB0197F9089551
:10207000A1E21A2EAA1BBB1BFD010DC0AA1FBB1F8C
:10208000EE1FFF1FA217B307E407F50720F0A21BFE
:10209000B30BE40BF50B661F771F881F991F1A946B
:1020A00069F760957095809590959B01AC01BD0195
:1020B000CF010895EE0FFF1F881F8BBF0790F69189
:1020C000E02D19945058BB27AA270E947A100C942F
:1020D000FE0F0E94F00F38F00E94F70F20F039F445
:1020E0009F3F19F426F40C94ED0F0EF4E095E7FBF6
:1020F0000C94E70FE92F0E940F1058F3BA176207EC
:1021000073078407950720F079F4A6F50C94311035
:102110000EF4E0950B2EBA2FA02D0B01B901900102
:102120000C01CA01A0011124FF27591B99F0593F46
:1021300050F4503E68F11A16F040A22F232F342F8E
:102140004427585FF3CF469537952795A795F040DC
:102150005395C9F77EF41F16BA0B620B730B840BF1
:10216000BAF09150A1F0FF0FBB1F661F771F881FA9
:10217000C2F70EC0BA0F621F731F841F48F4879501
:1021800077956795B795F7959E3F08F0B0CF9395F3
:10219000880F08F09927EE0F9795879508950E946C
:1021A000E3100C94FE0F0E94F70F58F00E94F00FFE
:1021B00040F029F45F3F29F00C94E70F51110C9483
:1021C00032100C94ED0F0E940F1068F39923B1F3B5
:1021D000552391F3951B550BBB27AA27621773074D
:1021E000840738F09F5F5F4F220F331F441FAA1FE1
:1021F000A9F335D00E2E3AF0E0E832D0915050409D
:10220000E695001CCAF72BD0FE2F29D0660F771F4A
:10221000881FBB1F261737074807AB07B0E809F030
:10222000BB0B802DBF01FF2793585F4F3AF09E3FB5
:10223000510578F00C94E70F0C9432105F3FE4F3F3
:10224000983ED4F3869577956795B795F7959F5FF8
:10225000C9F7880F911D9695879597F90895E1E044
:10226000660F771F881FBB1F621773078407BA07A3
:1022700020F0621B730B840BBA0BEE1F88F7E095FE
:1022800008950E9448116894B1110C943210089579
:102290000E94171088F09F5798F0B92F9927B751CF
:1022A000B0F0E1F0660F771F881F991F1AF0BA95FA
:1022B000C9F714C0B13091F00E943110B1E0089517
:1022C0000C943110672F782F8827B85F39F0B93F09
:1022D000CCF3869577956795B395D9F73EF49095AD
:1022E0008095709561957F4F8F4F9F4F08950E9405
:1022F000560F08F48FEF08950E94560F880B990B24
:102300000895CF93DF938230910510F482E090E03E
:10231000E0916F07F091700720E030E0C0E0D0E07E
:10232000309711F14081518148175907C0F0481783
:10233000590761F482819381209719F09B838A83E6
:102340002BC09093700780936F0726C0211531052D
:1023500019F04217530718F49A01BE01DF01EF018B
:102360000280F381E02DDCCF2115310509F1281B16
:10237000390B2430310590F412968D919C9113976E
:102380006115710521F0FB019383828304C0909352
:10239000700780936F07FD01329644C0FD01E20F84
:1023A000F31F81939193225031092D933C933AC0AE
:1023B00020916D0730916E07232B41F42091030289
:1023C0003091040230936E0720936D072091010233
:1023D000309102022115310541F42DB73EB74091ED
:1023E000050250910602241B350BE0916D07F09118
:1023F0006E07E217F307A0F42E1B3F0B28173907CF
:1024000078F0AC014E5F5F4F2417350748F04E0F50
:102410005F1F50936E0740936D078193919302C0A5
:10242000E0E0F0E0CF01DF91CF9108950F931F938B
:10243000CF93DF93009709F48CC0FC01329713828D
:10244000128200916F07109170070115110581F438
:1024500020813181820F931F20916D0730916E078B
:102460002817390779F5F0936E07E0936D0771C06F
:10247000D80140E050E0AE17BF0750F412962D91FE
:102480003C911397AD012115310509F1D901F3CF25
:102490009D01DA013383228360817181860F971F4A
:1024A0008217930769F4EC0128813981260F371FC1
:1024B0002E5F3F4F318320838A819B819383828368
:1024C000452B29F4F0937007E0936F0742C01396F1
:1024D000FC93EE931297ED01499159919E01240FBF
:1024E000351FE217F30771F480819181840F951FE6
:1024F000029611969C938E938281938113969C935E
:102500008E931297E0E0F0E0D80112968D919C91A5
:102510001397009719F0F8018C01F6CF8D919C91DB
:1025200098012E5F3F4F820F931F20916D073091CE
:102530006E072817390769F4309729F4109270074D
:1025400010926F0702C01382128210936E070093DD
:102550006D07DF91CF911F910F9108956F927F9238
:102560008F929F92AF92BF92CF92DF92EF92FF92A3
:102570000F931F93CF93DF93EC01009789F4CB0166
:10258000DF91CF911F910F91FF90EF90DF90CF904F
:10259000BF90AF909F908F907F906F900C9481111F
:1025A000FC01E60FF71F9C0122503109E217F307E7
:1025B00008F4ACC0D9010D911C91119706171707AB
:1025C000B0F00530110508F49FC0C80104978617C4
:1025D000970708F499C002501109061B170B0193C5
:1025E00011936D937C93CF010E9416128DC05B01F5
:1025F000A01AB10A4C01800E911EA0916F07B091F4
:10260000700740E050E0E12CF12C109709F44AC02B
:10261000A815B905D1F56D907C901197630182E002
:10262000C80ED11CCA14DB0480F1A3014A195B094E
:102630006A0182E0C80ED11C1296BC9012971396C4
:10264000AC91B5E0CB16D10440F0B282A3835183A4
:102650004083D9016D937C930AC00E5F1F4FC30165
:10266000800F911FF90191838083EB2DFA2FE114E4
:10267000F10431F0D7011396FC93EE93129744C006
:10268000F0937007E0936F073FC08D919C91119775
:102690004817590708F4AC017D0112960D90BC91C2
:1026A000A02DB3CF80916D0790916E078815990585
:1026B000E1F446175707C8F4809101029091020295
:1026C000009741F48DB79EB74091050250910602E4
:1026D000841B950BE817F907C8F4F0936E07E09395
:1026E0006D07F901718360830FC0CB010E948111D6
:1026F0007C01009759F0A801BE010E949C13CE01F5
:102700000E941612C70104C0CE0102C080E090E012
:10271000DF91CF911F910F91FF90EF90DF90CF90BD
:10272000BF90AF909F908F907F906F90089581E0C1
:1027300090E0F8940C94AC13FB01DC0102C0019012
:102740000D9241505040D8F70895FB01DC010190F3
:102750000D920020E1F7089511E0CCE5D1E000E012
:1027600006C0802FFE010E945A102196011DCD3512
:0C277000D10780E00807A9F7F894FFCF1C
:10277C00FF000071072000000001000200000000B3
:10278C00000002D0010405C201C901C601C3010049
:10279C00000000CB030B034F03120480035E037293
:1027AC000300000000DE040B03040503050D0A0002
:1027BC006E616E00696E66006F766600476F2074FE
:1027CC006F206574616765200053656E73203D2032
:1027DC0055700053656E73203D20446F776E005624
:1027EC00697465737365203D200044697374616E70
:1027FC006365203D200054656D7073203D200056AC
:10280C0069746573736520287365632F706F292055
:10281C003D200052504D203D2000457461676520DD
:0A282C0061637475656C203D2000A7
:00000001FF
